{
	"contracts/11_Inheritance.sol": {
		"caller": {
			"abi": [
				{
					"inputs": [],
					"name": "getDataFromChildren",
					"outputs": [
						{
							"internalType": "uint256",
							"name": "",
							"type": "uint256"
						}
					],
					"stateMutability": "nonpayable",
					"type": "function"
				}
			],
			"devdoc": {
				"kind": "dev",
				"methods": {},
				"version": 1
			},
			"evm": {
				"assembly": "    /* \"contracts/11_Inheritance.sol\":345:502  contract caller {... */\n  mstore(0x40, 0x80)\n    /* \"contracts/11_Inheritance.sol\":380:391  new Usman() */\n  mload(0x40)\n  tag_1\n  swap1\n  tag_2\n  jump\t// in\ntag_1:\n  mload(0x40)\n  dup1\n  swap2\n  sub\n  swap1\n  0x00\n  create\n  dup1\n  iszero\n  dup1\n  iszero\n  tag_3\n  jumpi\n  returndatasize\n  0x00\n  dup1\n  returndatacopy\n  revert(0x00, returndatasize)\ntag_3:\n  pop\n    /* \"contracts/11_Inheritance.sol\":368:391  Usman ank = new Usman() */\n  0x00\n  dup1\n  sload\n  not(sub(shl(0xa0, 0x01), 0x01))\n  and\n  sub(shl(0xa0, 0x01), 0x01)\n  swap3\n  swap1\n  swap3\n  and\n  swap2\n  swap1\n  swap2\n  or\n  swap1\n  sstore\n    /* \"contracts/11_Inheritance.sol\":345:502  contract caller {... */\n  callvalue\n  dup1\n  iszero\n  tag_4\n  jumpi\n  0x00\n  dup1\n  revert\ntag_4:\n  pop\n  jump(tag_5)\ntag_2:\n  dataSize(sub_1)\n  dup1\n  dataOffset(sub_1)\n  dup4\n  codecopy\n  add\n  swap1\n  jump\t// out\ntag_5:\n  dataSize(sub_0)\n  dup1\n  dataOffset(sub_0)\n  0x00\n  codecopy\n  0x00\n  return\nstop\n\nsub_0: assembly {\n        /* \"contracts/11_Inheritance.sol\":345:502  contract caller {... */\n      mstore(0x40, 0x80)\n      callvalue\n      dup1\n      iszero\n      tag_1\n      jumpi\n      0x00\n      dup1\n      revert\n    tag_1:\n      pop\n      jumpi(tag_2, lt(calldatasize, 0x04))\n      shr(0xe0, calldataload(0x00))\n      dup1\n      0xf43618f3\n      eq\n      tag_3\n      jumpi\n    tag_2:\n      0x00\n      dup1\n      revert\n        /* \"contracts/11_Inheritance.sol\":398:499  function getDataFromChildren() public returns(uint) {... */\n    tag_3:\n      tag_4\n      tag_5\n      jump\t// in\n    tag_4:\n      mload(0x40)\n        /* \"#utility.yul\":160:185   */\n      swap1\n      dup2\n      mstore\n        /* \"#utility.yul\":148:150   */\n      0x20\n        /* \"#utility.yul\":133:151   */\n      add\n        /* \"contracts/11_Inheritance.sol\":398:499  function getDataFromChildren() public returns(uint) {... */\n      mload(0x40)\n      dup1\n      swap2\n      sub\n      swap1\n      return\n    tag_5:\n        /* \"contracts/11_Inheritance.sol\":444:448  uint */\n      0x00\n        /* \"contracts/11_Inheritance.sol\":468:471  ank */\n      dup1\n      0x00\n      swap1\n      sload\n      swap1\n      0x0100\n      exp\n      swap1\n      div\n      sub(shl(0xa0, 0x01), 0x01)\n      and\n      sub(shl(0xa0, 0x01), 0x01)\n        /* \"contracts/11_Inheritance.sol\":468:489  ank.getDataFromParent */\n      and\n      0x228de631\n        /* \"contracts/11_Inheritance.sol\":468:491  ank.getDataFromParent() */\n      mload(0x40)\n      dup2\n      0xffffffff\n      and\n      0xe0\n      shl\n      dup2\n      mstore\n      0x04\n      add\n      0x20\n      mload(0x40)\n      dup1\n      dup4\n      sub\n      dup2\n      0x00\n      dup8\n      gas\n      call\n      iszero\n      dup1\n      iszero\n      tag_10\n      jumpi\n      returndatasize\n      0x00\n      dup1\n      returndatacopy\n      revert(0x00, returndatasize)\n    tag_10:\n      pop\n      pop\n      pop\n      pop\n      mload(0x40)\n      returndatasize\n      not(0x1f)\n      0x1f\n      dup3\n      add\n      and\n      dup3\n      add\n      dup1\n      0x40\n      mstore\n      pop\n      dup2\n      add\n      swap1\n      tag_11\n      swap2\n      swap1\n      tag_12\n      jump\t// in\n    tag_11:\n        /* \"contracts/11_Inheritance.sol\":461:491  return ank.getDataFromParent() */\n      swap1\n      pop\n        /* \"contracts/11_Inheritance.sol\":398:499  function getDataFromChildren() public returns(uint) {... */\n      swap1\n      jump\t// out\n        /* \"#utility.yul\":196:380   */\n    tag_12:\n        /* \"#utility.yul\":266:272   */\n      0x00\n        /* \"#utility.yul\":319:321   */\n      0x20\n        /* \"#utility.yul\":307:316   */\n      dup3\n        /* \"#utility.yul\":298:305   */\n      dup5\n        /* \"#utility.yul\":294:317   */\n      sub\n        /* \"#utility.yul\":290:322   */\n      slt\n        /* \"#utility.yul\":287:339   */\n      iszero\n      tag_16\n      jumpi\n        /* \"#utility.yul\":335:336   */\n      0x00\n        /* \"#utility.yul\":332:333   */\n      dup1\n        /* \"#utility.yul\":325:337   */\n      revert\n        /* \"#utility.yul\":287:339   */\n    tag_16:\n      pop\n        /* \"#utility.yul\":358:374   */\n      mload\n      swap2\n        /* \"#utility.yul\":196:380   */\n      swap1\n      pop\n      jump\t// out\n\n    auxdata: 0xa2646970667358221220d5ffecdb40c10f5823ea1f62055cd8d6d426c91b53354e1feb5147f49e54217964736f6c63430008180033\n}\n\nsub_1: assembly {\n        /* \"contracts/11_Inheritance.sol\":218:341  contract Usman is Parent{... */\n      mstore(0x40, 0x80)\n      callvalue\n      dup1\n      iszero\n      tag_1\n      jumpi\n      0x00\n      dup1\n      revert\n    tag_1:\n      pop\n      dataSize(sub_0)\n      dup1\n      dataOffset(sub_0)\n      0x00\n      codecopy\n      0x00\n      return\n    stop\n\n    sub_0: assembly {\n            /* \"contracts/11_Inheritance.sol\":218:341  contract Usman is Parent{... */\n          mstore(0x40, 0x80)\n          callvalue\n          dup1\n          iszero\n          tag_1\n          jumpi\n          0x00\n          dup1\n          revert\n        tag_1:\n          pop\n          jumpi(tag_2, lt(calldatasize, 0x04))\n          shr(0xe0, calldataload(0x00))\n          dup1\n          0x228de631\n          eq\n          tag_3\n          jumpi\n        tag_2:\n          0x00\n          dup1\n          revert\n            /* \"contracts/11_Inheritance.sol\":249:338  function getDataFromParent() external returns(uint) {... */\n        tag_3:\n            /* \"contracts/11_Inheritance.sol\":327:329  10 */\n          0x0a\n            /* \"contracts/11_Inheritance.sol\":295:299  uint */\n          0x00\n            /* \"contracts/11_Inheritance.sol\":170:181  data = _dta */\n          dup2\n          swap1\n          sstore\n            /* \"contracts/11_Inheritance.sol\":249:338  function getDataFromParent() external returns(uint) {... */\n          mload(0x40)\n            /* \"#utility.yul\":160:185   */\n          swap1\n          dup2\n          mstore\n            /* \"#utility.yul\":148:150   */\n          0x20\n            /* \"#utility.yul\":133:151   */\n          add\n            /* \"contracts/11_Inheritance.sol\":249:338  function getDataFromParent() external returns(uint) {... */\n          mload(0x40)\n          dup1\n          swap2\n          sub\n          swap1\n          return\n\n        auxdata: 0xa2646970667358221220147c3e50a89f4c0094aaaa535db08b5c1d1ad050672ea40bfbc92839c5e881ae64736f6c63430008180033\n    }\n}\n",
				"bytecode": {
					"linkReferences": {},
					"object": "60806040526040516100109061005a565b604051809103905ff080158015610029573d5f803e3d5ffd5b505f80546001600160a01b0319166001600160a01b0392909216919091179055348015610054575f80fd5b50610066565b60928061017883390190565b610105806100735f395ff3fe6080604052348015600e575f80fd5b50600436106026575f3560e01c8063f43618f314602a575b5f80fd5b60306042565b60405190815260200160405180910390f35b5f805f9054906101000a90046001600160a01b03166001600160a01b031663228de6316040518163ffffffff1660e01b81526004016020604051808303815f875af11580156092573d5f803e3d5ffd5b505050506040513d601f19601f8201168201806040525081019060b4919060b9565b905090565b5f6020828403121560c8575f80fd5b505191905056fea2646970667358221220d5ffecdb40c10f5823ea1f62055cd8d6d426c91b53354e1feb5147f49e54217964736f6c634300081800336080604052348015600e575f80fd5b50607880601a5f395ff3fe6080604052348015600e575f80fd5b50600436106026575f3560e01c8063228de63114602a575b5f80fd5b600a5f81905560405190815260200160405180910390f3fea2646970667358221220147c3e50a89f4c0094aaaa535db08b5c1d1ad050672ea40bfbc92839c5e881ae64736f6c63430008180033",
					"opcodes": "PUSH1 0x80 PUSH1 0x40 MSTORE PUSH1 0x40 MLOAD PUSH2 0x10 SWAP1 PUSH2 0x5A JUMP JUMPDEST PUSH1 0x40 MLOAD DUP1 SWAP2 SUB SWAP1 PUSH0 CREATE DUP1 ISZERO DUP1 ISZERO PUSH2 0x29 JUMPI RETURNDATASIZE PUSH0 DUP1 RETURNDATACOPY RETURNDATASIZE PUSH0 REVERT JUMPDEST POP PUSH0 DUP1 SLOAD PUSH1 0x1 PUSH1 0x1 PUSH1 0xA0 SHL SUB NOT AND PUSH1 0x1 PUSH1 0x1 PUSH1 0xA0 SHL SUB SWAP3 SWAP1 SWAP3 AND SWAP2 SWAP1 SWAP2 OR SWAP1 SSTORE CALLVALUE DUP1 ISZERO PUSH2 0x54 JUMPI PUSH0 DUP1 REVERT JUMPDEST POP PUSH2 0x66 JUMP JUMPDEST PUSH1 0x92 DUP1 PUSH2 0x178 DUP4 CODECOPY ADD SWAP1 JUMP JUMPDEST PUSH2 0x105 DUP1 PUSH2 0x73 PUSH0 CODECOPY PUSH0 RETURN INVALID PUSH1 0x80 PUSH1 0x40 MSTORE CALLVALUE DUP1 ISZERO PUSH1 0xE JUMPI PUSH0 DUP1 REVERT JUMPDEST POP PUSH1 0x4 CALLDATASIZE LT PUSH1 0x26 JUMPI PUSH0 CALLDATALOAD PUSH1 0xE0 SHR DUP1 PUSH4 0xF43618F3 EQ PUSH1 0x2A JUMPI JUMPDEST PUSH0 DUP1 REVERT JUMPDEST PUSH1 0x30 PUSH1 0x42 JUMP JUMPDEST PUSH1 0x40 MLOAD SWAP1 DUP2 MSTORE PUSH1 0x20 ADD PUSH1 0x40 MLOAD DUP1 SWAP2 SUB SWAP1 RETURN JUMPDEST PUSH0 DUP1 PUSH0 SWAP1 SLOAD SWAP1 PUSH2 0x100 EXP SWAP1 DIV PUSH1 0x1 PUSH1 0x1 PUSH1 0xA0 SHL SUB AND PUSH1 0x1 PUSH1 0x1 PUSH1 0xA0 SHL SUB AND PUSH4 0x228DE631 PUSH1 0x40 MLOAD DUP2 PUSH4 0xFFFFFFFF AND PUSH1 0xE0 SHL DUP2 MSTORE PUSH1 0x4 ADD PUSH1 0x20 PUSH1 0x40 MLOAD DUP1 DUP4 SUB DUP2 PUSH0 DUP8 GAS CALL ISZERO DUP1 ISZERO PUSH1 0x92 JUMPI RETURNDATASIZE PUSH0 DUP1 RETURNDATACOPY RETURNDATASIZE PUSH0 REVERT JUMPDEST POP POP POP POP PUSH1 0x40 MLOAD RETURNDATASIZE PUSH1 0x1F NOT PUSH1 0x1F DUP3 ADD AND DUP3 ADD DUP1 PUSH1 0x40 MSTORE POP DUP2 ADD SWAP1 PUSH1 0xB4 SWAP2 SWAP1 PUSH1 0xB9 JUMP JUMPDEST SWAP1 POP SWAP1 JUMP JUMPDEST PUSH0 PUSH1 0x20 DUP3 DUP5 SUB SLT ISZERO PUSH1 0xC8 JUMPI PUSH0 DUP1 REVERT JUMPDEST POP MLOAD SWAP2 SWAP1 POP JUMP INVALID LOG2 PUSH5 0x6970667358 0x22 SLT KECCAK256 0xD5 SELFDESTRUCT 0xEC 0xDB BLOCKHASH 0xC1 0xF PC 0x23 0xEA 0x1F PUSH3 0x55CD8 0xD6 0xD4 0x26 0xC9 SHL MSTORE8 CALLDATALOAD 0x4E 0x1F 0xEB MLOAD SELFBALANCE DELEGATECALL SWAP15 SLOAD 0x21 PUSH26 0x64736F6C634300081800336080604052348015600E575F80FD5B POP PUSH1 0x78 DUP1 PUSH1 0x1A PUSH0 CODECOPY PUSH0 RETURN INVALID PUSH1 0x80 PUSH1 0x40 MSTORE CALLVALUE DUP1 ISZERO PUSH1 0xE JUMPI PUSH0 DUP1 REVERT JUMPDEST POP PUSH1 0x4 CALLDATASIZE LT PUSH1 0x26 JUMPI PUSH0 CALLDATALOAD PUSH1 0xE0 SHR DUP1 PUSH4 0x228DE631 EQ PUSH1 0x2A JUMPI JUMPDEST PUSH0 DUP1 REVERT JUMPDEST PUSH1 0xA PUSH0 DUP2 SWAP1 SSTORE PUSH1 0x40 MLOAD SWAP1 DUP2 MSTORE PUSH1 0x20 ADD PUSH1 0x40 MLOAD DUP1 SWAP2 SUB SWAP1 RETURN INVALID LOG2 PUSH5 0x6970667358 0x22 SLT KECCAK256 EQ PUSH29 0x3E50A89F4C0094AAAA535DB08B5C1D1AD050672EA40BFBC92839C5E881 0xAE PUSH5 0x736F6C6343 STOP ADDMOD XOR STOP CALLER "
				},
				"gasEstimates": {
					"creation": {
						"codeDepositCost": "52200",
						"executionCost": "infinite",
						"totalCost": "infinite"
					},
					"external": {
						"getDataFromChildren()": "infinite"
					}
				},
				"methodIdentifiers": {
					"getDataFromChildren()": "f43618f3"
				}
			},
			"storageLayout": {
				"storage": [
					{
						"astId": 38,
						"contract": "contracts/11_Inheritance.sol:caller",
						"label": "ank",
						"offset": 0,
						"slot": "0",
						"type": "t_contract(Usman)31"
					}
				],
				"types": {
					"t_contract(Usman)31": {
						"encoding": "inplace",
						"label": "contract Usman",
						"numberOfBytes": "20"
					}
				}
			},
			"userdoc": {
				"kind": "user",
				"methods": {},
				"version": 1
			}
		}
	}
}