{
	"contracts/11_Inheritance.sol": {
		"Usman": {
			"abi": [
				{
					"inputs": [],
					"name": "getDataFromParent",
					"outputs": [
						{
							"internalType": "uint256",
							"name": "",
							"type": "uint256"
						}
					],
					"stateMutability": "nonpayable",
					"type": "function"
				}
			],
			"devdoc": {
				"kind": "dev",
				"methods": {},
				"version": 1
			},
			"evm": {
				"assembly": "    /* \"contracts/11_Inheritance.sol\":218:341  contract Usman is Parent{... */\n  mstore(0x40, 0x80)\n  callvalue\n  dup1\n  iszero\n  tag_1\n  jumpi\n  0x00\n  dup1\n  revert\ntag_1:\n  pop\n  dataSize(sub_0)\n  dup1\n  dataOffset(sub_0)\n  0x00\n  codecopy\n  0x00\n  return\nstop\n\nsub_0: assembly {\n        /* \"contracts/11_Inheritance.sol\":218:341  contract Usman is Parent{... */\n      mstore(0x40, 0x80)\n      callvalue\n      dup1\n      iszero\n      tag_1\n      jumpi\n      0x00\n      dup1\n      revert\n    tag_1:\n      pop\n      jumpi(tag_2, lt(calldatasize, 0x04))\n      shr(0xe0, calldataload(0x00))\n      dup1\n      0x228de631\n      eq\n      tag_3\n      jumpi\n    tag_2:\n      0x00\n      dup1\n      revert\n        /* \"contracts/11_Inheritance.sol\":249:338  function getDataFromParent() external returns(uint) {... */\n    tag_3:\n        /* \"contracts/11_Inheritance.sol\":327:329  10 */\n      0x0a\n        /* \"contracts/11_Inheritance.sol\":295:299  uint */\n      0x00\n        /* \"contracts/11_Inheritance.sol\":170:181  data = _dta */\n      dup2\n      swap1\n      sstore\n        /* \"contracts/11_Inheritance.sol\":249:338  function getDataFromParent() external returns(uint) {... */\n      mload(0x40)\n        /* \"#utility.yul\":160:185   */\n      swap1\n      dup2\n      mstore\n        /* \"#utility.yul\":148:150   */\n      0x20\n        /* \"#utility.yul\":133:151   */\n      add\n        /* \"contracts/11_Inheritance.sol\":249:338  function getDataFromParent() external returns(uint) {... */\n      mload(0x40)\n      dup1\n      swap2\n      sub\n      swap1\n      return\n\n    auxdata: 0xa2646970667358221220147c3e50a89f4c0094aaaa535db08b5c1d1ad050672ea40bfbc92839c5e881ae64736f6c63430008180033\n}\n",
				"bytecode": {
					"linkReferences": {},
					"object": "6080604052348015600e575f80fd5b50607880601a5f395ff3fe6080604052348015600e575f80fd5b50600436106026575f3560e01c8063228de63114602a575b5f80fd5b600a5f81905560405190815260200160405180910390f3fea2646970667358221220147c3e50a89f4c0094aaaa535db08b5c1d1ad050672ea40bfbc92839c5e881ae64736f6c63430008180033",
					"opcodes": "PUSH1 0x80 PUSH1 0x40 MSTORE CALLVALUE DUP1 ISZERO PUSH1 0xE JUMPI PUSH0 DUP1 REVERT JUMPDEST POP PUSH1 0x78 DUP1 PUSH1 0x1A PUSH0 CODECOPY PUSH0 RETURN INVALID PUSH1 0x80 PUSH1 0x40 MSTORE CALLVALUE DUP1 ISZERO PUSH1 0xE JUMPI PUSH0 DUP1 REVERT JUMPDEST POP PUSH1 0x4 CALLDATASIZE LT PUSH1 0x26 JUMPI PUSH0 CALLDATALOAD PUSH1 0xE0 SHR DUP1 PUSH4 0x228DE631 EQ PUSH1 0x2A JUMPI JUMPDEST PUSH0 DUP1 REVERT JUMPDEST PUSH1 0xA PUSH0 DUP2 SWAP1 SSTORE PUSH1 0x40 MLOAD SWAP1 DUP2 MSTORE PUSH1 0x20 ADD PUSH1 0x40 MLOAD DUP1 SWAP2 SUB SWAP1 RETURN INVALID LOG2 PUSH5 0x6970667358 0x22 SLT KECCAK256 EQ PUSH29 0x3E50A89F4C0094AAAA535DB08B5C1D1AD050672EA40BFBC92839C5E881 0xAE PUSH5 0x736F6C6343 STOP ADDMOD XOR STOP CALLER "
				},
				"gasEstimates": {
					"creation": {
						"codeDepositCost": "24000",
						"executionCost": "73",
						"totalCost": "24073"
					},
					"external": {
						"getDataFromParent()": "22253"
					}
				},
				"methodIdentifiers": {
					"getDataFromParent()": "228de631"
				}
			},
			"storageLayout": {
				"storage": [
					{
						"astId": 3,
						"contract": "contracts/11_Inheritance.sol:Usman",
						"label": "data",
						"offset": 0,
						"slot": "0",
						"type": "t_uint256"
					}
				],
				"types": {
					"t_uint256": {
						"encoding": "inplace",
						"label": "uint256",
						"numberOfBytes": "32"
					}
				}
			},
			"userdoc": {
				"kind": "user",
				"methods": {},
				"version": 1
			}
		}
	}
}