{
	"contracts/12_MultipelInheritance.sol": {
		"caller": {
			"abi": [
				{
					"inputs": [],
					"name": "fromCaller",
					"outputs": [
						{
							"internalType": "string",
							"name": "",
							"type": "string"
						},
						{
							"internalType": "string",
							"name": "",
							"type": "string"
						},
						{
							"internalType": "string",
							"name": "",
							"type": "string"
						}
					],
					"stateMutability": "view",
					"type": "function"
				}
			],
			"devdoc": {
				"kind": "dev",
				"methods": {},
				"version": 1
			},
			"evm": {
				"assembly": "    /* \"contracts/12_MultipelInheritance.sol\":454:645  contract caller {... */\n  mstore(0x40, 0x80)\n    /* \"contracts/12_MultipelInheritance.sol\":483:490  new C() */\n  mload(0x40)\n  tag_1\n  swap1\n  tag_2\n  jump\t// in\ntag_1:\n  mload(0x40)\n  dup1\n  swap2\n  sub\n  swap1\n  0x00\n  create\n  dup1\n  iszero\n  dup1\n  iszero\n  tag_3\n  jumpi\n  returndatasize\n  0x00\n  dup1\n  returndatacopy\n  revert(0x00, returndatasize)\ntag_3:\n  pop\n    /* \"contracts/12_MultipelInheritance.sol\":477:490  C c = new C() */\n  0x00\n  dup1\n  sload\n  not(sub(shl(0xa0, 0x01), 0x01))\n  and\n  sub(shl(0xa0, 0x01), 0x01)\n  swap3\n  swap1\n  swap3\n  and\n  swap2\n  swap1\n  swap2\n  or\n  swap1\n  sstore\n    /* \"contracts/12_MultipelInheritance.sol\":454:645  contract caller {... */\n  callvalue\n  dup1\n  iszero\n  tag_4\n  jumpi\n  0x00\n  dup1\n  revert\ntag_4:\n  pop\n  jump(tag_5)\ntag_2:\n  dataSize(sub_1)\n  dup1\n  dataOffset(sub_1)\n  dup4\n  codecopy\n  add\n  swap1\n  jump\t// out\ntag_5:\n  dataSize(sub_0)\n  dup1\n  dataOffset(sub_0)\n  0x00\n  codecopy\n  0x00\n  return\nstop\n\nsub_0: assembly {\n        /* \"contracts/12_MultipelInheritance.sol\":454:645  contract caller {... */\n      mstore(0x40, 0x80)\n      callvalue\n      dup1\n      iszero\n      tag_1\n      jumpi\n      0x00\n      dup1\n      revert\n    tag_1:\n      pop\n      jumpi(tag_2, lt(calldatasize, 0x04))\n      shr(0xe0, calldataload(0x00))\n      dup1\n      0x6c3e5179\n      eq\n      tag_3\n      jumpi\n    tag_2:\n      0x00\n      dup1\n      revert\n        /* \"contracts/12_MultipelInheritance.sol\":497:642  function fromCaller() public view returns(string memory, string memory, string memory){... */\n    tag_3:\n      tag_4\n      tag_5\n      jump\t// in\n    tag_4:\n      mload(0x40)\n      tag_6\n      swap4\n      swap3\n      swap2\n      swap1\n      tag_7\n      jump\t// in\n    tag_6:\n      mload(0x40)\n      dup1\n      swap2\n      sub\n      swap1\n      return\n    tag_5:\n        /* \"contracts/12_MultipelInheritance.sol\":539:552  string memory */\n      0x60\n        /* \"contracts/12_MultipelInheritance.sol\":554:567  string memory */\n      dup1\n        /* \"contracts/12_MultipelInheritance.sol\":569:582  string memory */\n      0x60\n        /* \"contracts/12_MultipelInheritance.sol\":602:603  c */\n      0x00\n      dup1\n      sload\n      swap1\n      0x0100\n      exp\n      swap1\n      div\n      sub(shl(0xa0, 0x01), 0x01)\n      and\n      sub(shl(0xa0, 0x01), 0x01)\n        /* \"contracts/12_MultipelInheritance.sol\":602:609  c.fromA */\n      and\n      0x2604e1bb\n        /* \"contracts/12_MultipelInheritance.sol\":602:611  c.fromA() */\n      mload(0x40)\n      dup2\n      0xffffffff\n      and\n      0xe0\n      shl\n      dup2\n      mstore\n      0x04\n      add\n      0x00\n      mload(0x40)\n      dup1\n      dup4\n      sub\n      dup2\n      dup7\n      gas\n      staticcall\n      iszero\n      dup1\n      iszero\n      tag_10\n      jumpi\n      returndatasize\n      0x00\n      dup1\n      returndatacopy\n      revert(0x00, returndatasize)\n    tag_10:\n      pop\n      pop\n      pop\n      pop\n      mload(0x40)\n      returndatasize\n      0x00\n      dup3\n      returndatacopy\n      0x1f\n      returndatasize\n      swap1\n      dup2\n      add\n      not(0x1f)\n      and\n      dup3\n      add\n      0x40\n      mstore\n      tag_11\n      swap2\n      swap1\n      dup2\n      add\n      swap1\n      tag_12\n      jump\t// in\n    tag_11:\n        /* \"contracts/12_MultipelInheritance.sol\":613:614  c */\n      0x00\n      dup1\n      sload\n        /* \"contracts/12_MultipelInheritance.sol\":613:622  c.fromB() */\n      0x40\n      dup1\n      mload\n      shl(0xe0, 0x033a3727)\n      dup2\n      mstore\n      swap1\n      mload\n      sub(shl(0xa0, 0x01), 0x01)\n        /* \"contracts/12_MultipelInheritance.sol\":613:614  c */\n      swap1\n      swap3\n      and\n      swap3\n        /* \"contracts/12_MultipelInheritance.sol\":613:620  c.fromB */\n      0x033a3727\n      swap3\n        /* \"contracts/12_MultipelInheritance.sol\":613:622  c.fromB() */\n      0x04\n      dup1\n      dup5\n      add\n      swap4\n      dup3\n      swap1\n      sub\n      add\n      dup2\n        /* \"contracts/12_MultipelInheritance.sol\":613:614  c */\n      dup7\n        /* \"contracts/12_MultipelInheritance.sol\":613:622  c.fromB() */\n      gas\n      staticcall\n      iszero\n      dup1\n      iszero\n      tag_14\n      jumpi\n      returndatasize\n      0x00\n      dup1\n      returndatacopy\n      revert(0x00, returndatasize)\n    tag_14:\n      pop\n      pop\n      pop\n      pop\n      mload(0x40)\n      returndatasize\n      0x00\n      dup3\n      returndatacopy\n      0x1f\n      returndatasize\n      swap1\n      dup2\n      add\n      not(0x1f)\n      and\n      dup3\n      add\n      0x40\n      mstore\n      tag_15\n      swap2\n      swap1\n      dup2\n      add\n      swap1\n      tag_12\n      jump\t// in\n    tag_15:\n        /* \"contracts/12_MultipelInheritance.sol\":624:625  c */\n      0x00\n      dup1\n      sload\n        /* \"contracts/12_MultipelInheritance.sol\":624:633  c.fromC() */\n      0x40\n      dup1\n      mload\n      shl(0xe0, 0x15f020c5)\n      dup2\n      mstore\n      swap1\n      mload\n      sub(shl(0xa0, 0x01), 0x01)\n        /* \"contracts/12_MultipelInheritance.sol\":624:625  c */\n      swap1\n      swap3\n      and\n      swap3\n        /* \"contracts/12_MultipelInheritance.sol\":624:631  c.fromC */\n      0x15f020c5\n      swap3\n        /* \"contracts/12_MultipelInheritance.sol\":624:633  c.fromC() */\n      0x04\n      dup1\n      dup5\n      add\n      swap4\n      dup3\n      swap1\n      sub\n      add\n      dup2\n        /* \"contracts/12_MultipelInheritance.sol\":624:625  c */\n      dup7\n        /* \"contracts/12_MultipelInheritance.sol\":624:633  c.fromC() */\n      gas\n      staticcall\n      iszero\n      dup1\n      iszero\n      tag_17\n      jumpi\n      returndatasize\n      0x00\n      dup1\n      returndatacopy\n      revert(0x00, returndatasize)\n    tag_17:\n      pop\n      pop\n      pop\n      pop\n      mload(0x40)\n      returndatasize\n      0x00\n      dup3\n      returndatacopy\n      0x1f\n      returndatasize\n      swap1\n      dup2\n      add\n      not(0x1f)\n      and\n      dup3\n      add\n      0x40\n      mstore\n      tag_18\n      swap2\n      swap1\n      dup2\n      add\n      swap1\n      tag_12\n      jump\t// in\n    tag_18:\n        /* \"contracts/12_MultipelInheritance.sol\":594:634  return (c.fromA(), c.fromB(), c.fromC()) */\n      swap3\n      pop\n      swap3\n      pop\n      swap3\n      pop\n        /* \"contracts/12_MultipelInheritance.sol\":497:642  function fromCaller() public view returns(string memory, string memory, string memory){... */\n      swap1\n      swap2\n      swap3\n      jump\t// out\n        /* \"#utility.yul\":14:264   */\n    tag_19:\n        /* \"#utility.yul\":99:100   */\n      0x00\n        /* \"#utility.yul\":109:222   */\n    tag_24:\n        /* \"#utility.yul\":123:129   */\n      dup4\n        /* \"#utility.yul\":120:121   */\n      dup2\n        /* \"#utility.yul\":117:130   */\n      lt\n        /* \"#utility.yul\":109:222   */\n      iszero\n      tag_26\n      jumpi\n        /* \"#utility.yul\":199:210   */\n      dup2\n      dup2\n      add\n        /* \"#utility.yul\":193:211   */\n      mload\n        /* \"#utility.yul\":180:191   */\n      dup4\n      dup3\n      add\n        /* \"#utility.yul\":173:212   */\n      mstore\n        /* \"#utility.yul\":145:147   */\n      0x20\n        /* \"#utility.yul\":138:148   */\n      add\n        /* \"#utility.yul\":109:222   */\n      jump(tag_24)\n    tag_26:\n      pop\n      pop\n        /* \"#utility.yul\":256:257   */\n      0x00\n        /* \"#utility.yul\":238:254   */\n      swap2\n      add\n        /* \"#utility.yul\":231:258   */\n      mstore\n        /* \"#utility.yul\":14:264   */\n      jump\t// out\n        /* \"#utility.yul\":269:540   */\n    tag_20:\n        /* \"#utility.yul\":311:314   */\n      0x00\n        /* \"#utility.yul\":349:354   */\n      dup2\n        /* \"#utility.yul\":343:355   */\n      mload\n        /* \"#utility.yul\":376:382   */\n      dup1\n        /* \"#utility.yul\":371:374   */\n      dup5\n        /* \"#utility.yul\":364:383   */\n      mstore\n        /* \"#utility.yul\":392:468   */\n      tag_28\n        /* \"#utility.yul\":461:467   */\n      dup2\n        /* \"#utility.yul\":454:458   */\n      0x20\n        /* \"#utility.yul\":449:452   */\n      dup7\n        /* \"#utility.yul\":445:459   */\n      add\n        /* \"#utility.yul\":438:442   */\n      0x20\n        /* \"#utility.yul\":431:436   */\n      dup7\n        /* \"#utility.yul\":427:443   */\n      add\n        /* \"#utility.yul\":392:468   */\n      tag_19\n      jump\t// in\n    tag_28:\n        /* \"#utility.yul\":522:524   */\n      0x1f\n        /* \"#utility.yul\":501:516   */\n      add\n      not(0x1f)\n        /* \"#utility.yul\":497:526   */\n      and\n        /* \"#utility.yul\":488:527   */\n      swap3\n      swap1\n      swap3\n      add\n        /* \"#utility.yul\":529:533   */\n      0x20\n        /* \"#utility.yul\":484:534   */\n      add\n      swap3\n        /* \"#utility.yul\":269:540   */\n      swap2\n      pop\n      pop\n      jump\t// out\n        /* \"#utility.yul\":545:1091   */\n    tag_7:\n        /* \"#utility.yul\":790:792   */\n      0x60\n        /* \"#utility.yul\":779:788   */\n      dup2\n        /* \"#utility.yul\":772:793   */\n      mstore\n        /* \"#utility.yul\":753:757   */\n      0x00\n        /* \"#utility.yul\":816:861   */\n      tag_30\n        /* \"#utility.yul\":857:859   */\n      0x60\n        /* \"#utility.yul\":846:855   */\n      dup4\n        /* \"#utility.yul\":842:860   */\n      add\n        /* \"#utility.yul\":834:840   */\n      dup7\n        /* \"#utility.yul\":816:861   */\n      tag_20\n      jump\t// in\n    tag_30:\n        /* \"#utility.yul\":909:918   */\n      dup3\n        /* \"#utility.yul\":901:907   */\n      dup2\n        /* \"#utility.yul\":897:919   */\n      sub\n        /* \"#utility.yul\":892:894   */\n      0x20\n        /* \"#utility.yul\":881:890   */\n      dup5\n        /* \"#utility.yul\":877:895   */\n      add\n        /* \"#utility.yul\":870:920   */\n      mstore\n        /* \"#utility.yul\":943:976   */\n      tag_31\n        /* \"#utility.yul\":969:975   */\n      dup2\n        /* \"#utility.yul\":961:967   */\n      dup7\n        /* \"#utility.yul\":943:976   */\n      tag_20\n      jump\t// in\n    tag_31:\n        /* \"#utility.yul\":929:976   */\n      swap1\n      pop\n        /* \"#utility.yul\":1024:1033   */\n      dup3\n        /* \"#utility.yul\":1016:1022   */\n      dup2\n        /* \"#utility.yul\":1012:1034   */\n      sub\n        /* \"#utility.yul\":1007:1009   */\n      0x40\n        /* \"#utility.yul\":996:1005   */\n      dup5\n        /* \"#utility.yul\":992:1010   */\n      add\n        /* \"#utility.yul\":985:1035   */\n      mstore\n        /* \"#utility.yul\":1052:1085   */\n      tag_32\n        /* \"#utility.yul\":1078:1084   */\n      dup2\n        /* \"#utility.yul\":1070:1076   */\n      dup6\n        /* \"#utility.yul\":1052:1085   */\n      tag_20\n      jump\t// in\n    tag_32:\n        /* \"#utility.yul\":1044:1085   */\n      swap7\n        /* \"#utility.yul\":545:1091   */\n      swap6\n      pop\n      pop\n      pop\n      pop\n      pop\n      pop\n      jump\t// out\n        /* \"#utility.yul\":1096:1223   */\n    tag_21:\n        /* \"#utility.yul\":1157:1167   */\n      0x4e487b71\n        /* \"#utility.yul\":1152:1155   */\n      0xe0\n        /* \"#utility.yul\":1148:1168   */\n      shl\n        /* \"#utility.yul\":1145:1146   */\n      0x00\n        /* \"#utility.yul\":1138:1169   */\n      mstore\n        /* \"#utility.yul\":1188:1192   */\n      0x41\n        /* \"#utility.yul\":1185:1186   */\n      0x04\n        /* \"#utility.yul\":1178:1193   */\n      mstore\n        /* \"#utility.yul\":1212:1216   */\n      0x24\n        /* \"#utility.yul\":1209:1210   */\n      0x00\n        /* \"#utility.yul\":1202:1217   */\n      revert\n        /* \"#utility.yul\":1228:2125   */\n    tag_12:\n        /* \"#utility.yul\":1308:1314   */\n      0x00\n        /* \"#utility.yul\":1361:1363   */\n      0x20\n        /* \"#utility.yul\":1349:1358   */\n      dup3\n        /* \"#utility.yul\":1340:1347   */\n      dup5\n        /* \"#utility.yul\":1336:1359   */\n      sub\n        /* \"#utility.yul\":1332:1364   */\n      slt\n        /* \"#utility.yul\":1329:1381   */\n      iszero\n      tag_35\n      jumpi\n        /* \"#utility.yul\":1377:1378   */\n      0x00\n        /* \"#utility.yul\":1374:1375   */\n      dup1\n        /* \"#utility.yul\":1367:1379   */\n      revert\n        /* \"#utility.yul\":1329:1381   */\n    tag_35:\n        /* \"#utility.yul\":1410:1419   */\n      dup2\n        /* \"#utility.yul\":1404:1420   */\n      mload\n        /* \"#utility.yul\":1439:1457   */\n      0xffffffffffffffff\n        /* \"#utility.yul\":1480:1482   */\n      dup1\n        /* \"#utility.yul\":1472:1478   */\n      dup3\n        /* \"#utility.yul\":1469:1483   */\n      gt\n        /* \"#utility.yul\":1466:1500   */\n      iszero\n      tag_36\n      jumpi\n        /* \"#utility.yul\":1496:1497   */\n      0x00\n        /* \"#utility.yul\":1493:1494   */\n      dup1\n        /* \"#utility.yul\":1486:1498   */\n      revert\n        /* \"#utility.yul\":1466:1500   */\n    tag_36:\n        /* \"#utility.yul\":1534:1540   */\n      dup2\n        /* \"#utility.yul\":1523:1532   */\n      dup5\n        /* \"#utility.yul\":1519:1541   */\n      add\n        /* \"#utility.yul\":1509:1541   */\n      swap2\n      pop\n        /* \"#utility.yul\":1579:1586   */\n      dup5\n        /* \"#utility.yul\":1572:1576   */\n      0x1f\n        /* \"#utility.yul\":1568:1570   */\n      dup4\n        /* \"#utility.yul\":1564:1577   */\n      add\n        /* \"#utility.yul\":1560:1587   */\n      slt\n        /* \"#utility.yul\":1550:1605   */\n      tag_37\n      jumpi\n        /* \"#utility.yul\":1601:1602   */\n      0x00\n        /* \"#utility.yul\":1598:1599   */\n      dup1\n        /* \"#utility.yul\":1591:1603   */\n      revert\n        /* \"#utility.yul\":1550:1605   */\n    tag_37:\n        /* \"#utility.yul\":1630:1632   */\n      dup2\n        /* \"#utility.yul\":1624:1633   */\n      mload\n        /* \"#utility.yul\":1652:1654   */\n      dup2\n        /* \"#utility.yul\":1648:1650   */\n      dup2\n        /* \"#utility.yul\":1645:1655   */\n      gt\n        /* \"#utility.yul\":1642:1678   */\n      iszero\n      tag_39\n      jumpi\n        /* \"#utility.yul\":1658:1676   */\n      tag_39\n      tag_21\n      jump\t// in\n    tag_39:\n        /* \"#utility.yul\":1733:1735   */\n      0x40\n        /* \"#utility.yul\":1727:1736   */\n      mload\n        /* \"#utility.yul\":1701:1703   */\n      0x1f\n        /* \"#utility.yul\":1787:1800   */\n      dup3\n      add\n      not(0x1f)\n        /* \"#utility.yul\":1783:1805   */\n      swap1\n      dup2\n      and\n        /* \"#utility.yul\":1807:1809   */\n      0x3f\n        /* \"#utility.yul\":1779:1810   */\n      add\n        /* \"#utility.yul\":1775:1815   */\n      and\n        /* \"#utility.yul\":1763:1816   */\n      dup2\n      add\n      swap1\n        /* \"#utility.yul\":1831:1849   */\n      dup4\n      dup3\n      gt\n        /* \"#utility.yul\":1851:1873   */\n      dup2\n      dup4\n      lt\n        /* \"#utility.yul\":1828:1874   */\n      or\n        /* \"#utility.yul\":1825:1897   */\n      iszero\n      tag_41\n      jumpi\n        /* \"#utility.yul\":1877:1895   */\n      tag_41\n      tag_21\n      jump\t// in\n    tag_41:\n        /* \"#utility.yul\":1917:1927   */\n      dup2\n        /* \"#utility.yul\":1913:1915   */\n      0x40\n        /* \"#utility.yul\":1906:1928   */\n      mstore\n        /* \"#utility.yul\":1952:1954   */\n      dup3\n        /* \"#utility.yul\":1944:1950   */\n      dup2\n        /* \"#utility.yul\":1937:1955   */\n      mstore\n        /* \"#utility.yul\":1992:1999   */\n      dup8\n        /* \"#utility.yul\":1987:1989   */\n      0x20\n        /* \"#utility.yul\":1982:1984   */\n      dup5\n        /* \"#utility.yul\":1978:1980   */\n      dup8\n        /* \"#utility.yul\":1974:1985   */\n      add\n        /* \"#utility.yul\":1970:1990   */\n      add\n        /* \"#utility.yul\":1967:2000   */\n      gt\n        /* \"#utility.yul\":1964:2017   */\n      iszero\n      tag_42\n      jumpi\n        /* \"#utility.yul\":2013:2014   */\n      0x00\n        /* \"#utility.yul\":2010:2011   */\n      dup1\n        /* \"#utility.yul\":2003:2015   */\n      revert\n        /* \"#utility.yul\":1964:2017   */\n    tag_42:\n        /* \"#utility.yul\":2026:2094   */\n      tag_43\n        /* \"#utility.yul\":2091:2093   */\n      dup4\n        /* \"#utility.yul\":2086:2088   */\n      0x20\n        /* \"#utility.yul\":2078:2084   */\n      dup4\n        /* \"#utility.yul\":2074:2089   */\n      add\n        /* \"#utility.yul\":2069:2071   */\n      0x20\n        /* \"#utility.yul\":2065:2067   */\n      dup9\n        /* \"#utility.yul\":2061:2072   */\n      add\n        /* \"#utility.yul\":2026:2094   */\n      tag_19\n      jump\t// in\n    tag_43:\n        /* \"#utility.yul\":2113:2119   */\n      swap8\n        /* \"#utility.yul\":1228:2125   */\n      swap7\n      pop\n      pop\n      pop\n      pop\n      pop\n      pop\n      pop\n      jump\t// out\n\n    auxdata: 0xa2646970667358221220c8ec8420348177289f54c53a5f7177734ca864fb9fb6d745563678ac8dc96c2d64736f6c63430008180033\n}\n\nsub_1: assembly {\n        /* \"contracts/12_MultipelInheritance.sol\":329:450  contract C is B {... */\n      mstore(0x40, 0x80)\n      callvalue\n      dup1\n      iszero\n      tag_1\n      jumpi\n      0x00\n      dup1\n      revert\n    tag_1:\n      pop\n      dataSize(sub_0)\n      dup1\n      dataOffset(sub_0)\n      0x00\n      codecopy\n      0x00\n      return\n    stop\n\n    sub_0: assembly {\n            /* \"contracts/12_MultipelInheritance.sol\":329:450  contract C is B {... */\n          mstore(0x40, 0x80)\n          callvalue\n          dup1\n          iszero\n          tag_1\n          jumpi\n          0x00\n          dup1\n          revert\n        tag_1:\n          pop\n          jumpi(tag_2, lt(calldatasize, 0x04))\n          shr(0xe0, calldataload(0x00))\n          dup1\n          0x033a3727\n          eq\n          tag_3\n          jumpi\n          dup1\n          0x15f020c5\n          eq\n          tag_4\n          jumpi\n          dup1\n          0x2604e1bb\n          eq\n          tag_5\n          jumpi\n        tag_2:\n          0x00\n          dup1\n          revert\n            /* \"contracts/12_MultipelInheritance.sol\":227:322  function fromB() external pure returns(string memory){... */\n        tag_3:\n            /* \"contracts/12_MultipelInheritance.sol\":291:314  return \"dai kontract B\" */\n          0x40\n          dup1\n          mload\n          dup1\n          dup3\n          add\n          swap1\n          swap2\n          mstore\n          0x0e\n          dup2\n          mstore\n          shl(0x91, 0x3230b49035b7b73a3930b1ba1021)\n          0x20\n          dup3\n          add\n          mstore\n            /* \"contracts/12_MultipelInheritance.sol\":227:322  function fromB() external pure returns(string memory){... */\n        tag_6:\n          mload(0x40)\n          tag_8\n          swap2\n          swap1\n          tag_9\n          jump\t// in\n        tag_8:\n          mload(0x40)\n          dup1\n          swap2\n          sub\n          swap1\n          return\n            /* \"contracts/12_MultipelInheritance.sol\":352:447  function fromC() external pure returns(string memory){... */\n        tag_4:\n            /* \"contracts/12_MultipelInheritance.sol\":416:439  return \"dai kontract C\" */\n          0x40\n          dup1\n          mload\n          dup1\n          dup3\n          add\n          swap1\n          swap2\n          mstore\n          0x0e\n          dup2\n          mstore\n          shl(0x90, 0x646169206b6f6e74726163742043)\n          0x20\n          dup3\n          add\n          mstore\n            /* \"contracts/12_MultipelInheritance.sol\":352:447  function fromC() external pure returns(string memory){... */\n          jump(tag_6)\n            /* \"contracts/12_MultipelInheritance.sol\":102:197  function fromA() external pure returns(string memory){... */\n        tag_5:\n            /* \"contracts/12_MultipelInheritance.sol\":166:189  return \"dai kontract A\" */\n          0x40\n          dup1\n          mload\n          dup1\n          dup3\n          add\n          swap1\n          swap2\n          mstore\n          0x0e\n          dup2\n          mstore\n          shl(0x90, 0x646169206b6f6e74726163742041)\n          0x20\n          dup3\n          add\n          mstore\n            /* \"contracts/12_MultipelInheritance.sol\":102:197  function fromA() external pure returns(string memory){... */\n          jump(tag_6)\n            /* \"#utility.yul\":14:562   */\n        tag_9:\n            /* \"#utility.yul\":126:130   */\n          0x00\n            /* \"#utility.yul\":155:157   */\n          0x20\n            /* \"#utility.yul\":184:186   */\n          dup1\n            /* \"#utility.yul\":173:182   */\n          dup4\n            /* \"#utility.yul\":166:187   */\n          mstore\n            /* \"#utility.yul\":216:222   */\n          dup4\n            /* \"#utility.yul\":210:223   */\n          mload\n            /* \"#utility.yul\":259:265   */\n          dup1\n            /* \"#utility.yul\":254:256   */\n          0x20\n            /* \"#utility.yul\":243:252   */\n          dup6\n            /* \"#utility.yul\":239:257   */\n          add\n            /* \"#utility.yul\":232:266   */\n          mstore\n            /* \"#utility.yul\":284:285   */\n          0x00\n            /* \"#utility.yul\":294:434   */\n        tag_21:\n            /* \"#utility.yul\":308:314   */\n          dup2\n            /* \"#utility.yul\":305:306   */\n          dup2\n            /* \"#utility.yul\":302:315   */\n          lt\n            /* \"#utility.yul\":294:434   */\n          iszero\n          tag_23\n          jumpi\n            /* \"#utility.yul\":403:417   */\n          dup6\n          dup2\n          add\n            /* \"#utility.yul\":399:422   */\n          dup4\n          add\n            /* \"#utility.yul\":393:423   */\n          mload\n            /* \"#utility.yul\":369:386   */\n          dup6\n          dup3\n          add\n            /* \"#utility.yul\":388:390   */\n          0x40\n            /* \"#utility.yul\":365:391   */\n          add\n            /* \"#utility.yul\":358:424   */\n          mstore\n            /* \"#utility.yul\":323:333   */\n          dup3\n          add\n            /* \"#utility.yul\":294:434   */\n          jump(tag_21)\n        tag_23:\n            /* \"#utility.yul\":298:301   */\n          pop\n            /* \"#utility.yul\":483:484   */\n          0x00\n            /* \"#utility.yul\":478:480   */\n          0x40\n            /* \"#utility.yul\":469:475   */\n          dup3\n            /* \"#utility.yul\":458:467   */\n          dup7\n            /* \"#utility.yul\":454:476   */\n          add\n            /* \"#utility.yul\":450:481   */\n          add\n            /* \"#utility.yul\":443:485   */\n          mstore\n            /* \"#utility.yul\":553:555   */\n          0x40\n            /* \"#utility.yul\":546:548   */\n          0x1f\n            /* \"#utility.yul\":542:549   */\n          not\n            /* \"#utility.yul\":537:539   */\n          0x1f\n            /* \"#utility.yul\":529:535   */\n          dup4\n            /* \"#utility.yul\":525:540   */\n          add\n            /* \"#utility.yul\":521:550   */\n          and\n            /* \"#utility.yul\":510:519   */\n          dup6\n            /* \"#utility.yul\":506:551   */\n          add\n            /* \"#utility.yul\":502:556   */\n          add\n            /* \"#utility.yul\":494:556   */\n          swap3\n          pop\n          pop\n          pop\n            /* \"#utility.yul\":14:562   */\n          swap3\n          swap2\n          pop\n          pop\n          jump\t// out\n\n        auxdata: 0xa26469706673582212200e9cf47b09e89cf7b467b5bbae1fbc227ef48aae82f7c40315ed6f8a9ea80e1864736f6c63430008180033\n    }\n}\n",
				"bytecode": {
					"linkReferences": {},
					"object": "60806040526040516100109061005a565b604051809103905ff080158015610029573d5f803e3d5ffd5b505f80546001600160a01b0319166001600160a01b0392909216919091179055348015610054575f80fd5b50610067565b6101728061039883390190565b610324806100745f395ff3fe608060405234801561000f575f80fd5b5060043610610029575f3560e01c80636c3e51791461002d575b5f80fd5b61003561004d565b604051610044939291906101f0565b60405180910390f35b60608060605f8054906101000a90046001600160a01b03166001600160a01b0316632604e1bb6040518163ffffffff1660e01b81526004015f60405180830381865afa15801561009f573d5f803e3d5ffd5b505050506040513d5f823e601f3d908101601f191682016040526100c69190810190610246565b5f80546040805163033a372760e01b815290516001600160a01b039092169263033a3727926004808401938290030181865afa158015610108573d5f803e3d5ffd5b505050506040513d5f823e601f3d908101601f1916820160405261012f9190810190610246565b5f8054604080516315f020c560e01b815290516001600160a01b03909216926315f020c5926004808401938290030181865afa158015610171573d5f803e3d5ffd5b505050506040513d5f823e601f3d908101601f191682016040526101989190810190610246565b925092509250909192565b5f5b838110156101bd5781810151838201526020016101a5565b50505f910152565b5f81518084526101dc8160208601602086016101a3565b601f01601f19169290920160200192915050565b606081525f61020260608301866101c5565b828103602084015261021481866101c5565b9050828103604084015261022881856101c5565b9695505050505050565b634e487b7160e01b5f52604160045260245ffd5b5f60208284031215610256575f80fd5b815167ffffffffffffffff8082111561026d575f80fd5b818401915084601f830112610280575f80fd5b81518181111561029257610292610232565b604051601f8201601f19908116603f011681019083821181831017156102ba576102ba610232565b816040528281528760208487010111156102d2575f80fd5b6102e38360208301602088016101a3565b97965050505050505056fea2646970667358221220c8ec8420348177289f54c53a5f7177734ca864fb9fb6d745563678ac8dc96c2d64736f6c63430008180033608060405234801561000f575f80fd5b506101558061001d5f395ff3fe608060405234801561000f575f80fd5b506004361061003f575f3560e01c8063033a37271461004357806315f020c51461007f5780632604e1bb146100a9575b5f80fd5b60408051808201909152600e81526d3230b49035b7b73a3930b1ba102160911b60208201525b60405161007691906100d3565b60405180910390f35b60408051808201909152600e81526d646169206b6f6e7472616374204360901b6020820152610069565b60408051808201909152600e81526d646169206b6f6e7472616374204160901b6020820152610069565b5f602080835283518060208501525f5b818110156100ff578581018301518582016040015282016100e3565b505f604082860101526040601f19601f830116850101925050509291505056fea26469706673582212200e9cf47b09e89cf7b467b5bbae1fbc227ef48aae82f7c40315ed6f8a9ea80e1864736f6c63430008180033",
					"opcodes": "PUSH1 0x80 PUSH1 0x40 MSTORE PUSH1 0x40 MLOAD PUSH2 0x10 SWAP1 PUSH2 0x5A JUMP JUMPDEST PUSH1 0x40 MLOAD DUP1 SWAP2 SUB SWAP1 PUSH0 CREATE DUP1 ISZERO DUP1 ISZERO PUSH2 0x29 JUMPI RETURNDATASIZE PUSH0 DUP1 RETURNDATACOPY RETURNDATASIZE PUSH0 REVERT JUMPDEST POP PUSH0 DUP1 SLOAD PUSH1 0x1 PUSH1 0x1 PUSH1 0xA0 SHL SUB NOT AND PUSH1 0x1 PUSH1 0x1 PUSH1 0xA0 SHL SUB SWAP3 SWAP1 SWAP3 AND SWAP2 SWAP1 SWAP2 OR SWAP1 SSTORE CALLVALUE DUP1 ISZERO PUSH2 0x54 JUMPI PUSH0 DUP1 REVERT JUMPDEST POP PUSH2 0x67 JUMP JUMPDEST PUSH2 0x172 DUP1 PUSH2 0x398 DUP4 CODECOPY ADD SWAP1 JUMP JUMPDEST PUSH2 0x324 DUP1 PUSH2 0x74 PUSH0 CODECOPY PUSH0 RETURN INVALID PUSH1 0x80 PUSH1 0x40 MSTORE CALLVALUE DUP1 ISZERO PUSH2 0xF JUMPI PUSH0 DUP1 REVERT JUMPDEST POP PUSH1 0x4 CALLDATASIZE LT PUSH2 0x29 JUMPI PUSH0 CALLDATALOAD PUSH1 0xE0 SHR DUP1 PUSH4 0x6C3E5179 EQ PUSH2 0x2D JUMPI JUMPDEST PUSH0 DUP1 REVERT JUMPDEST PUSH2 0x35 PUSH2 0x4D JUMP JUMPDEST PUSH1 0x40 MLOAD PUSH2 0x44 SWAP4 SWAP3 SWAP2 SWAP1 PUSH2 0x1F0 JUMP JUMPDEST PUSH1 0x40 MLOAD DUP1 SWAP2 SUB SWAP1 RETURN JUMPDEST PUSH1 0x60 DUP1 PUSH1 0x60 PUSH0 DUP1 SLOAD SWAP1 PUSH2 0x100 EXP SWAP1 DIV PUSH1 0x1 PUSH1 0x1 PUSH1 0xA0 SHL SUB AND PUSH1 0x1 PUSH1 0x1 PUSH1 0xA0 SHL SUB AND PUSH4 0x2604E1BB PUSH1 0x40 MLOAD DUP2 PUSH4 0xFFFFFFFF AND PUSH1 0xE0 SHL DUP2 MSTORE PUSH1 0x4 ADD PUSH0 PUSH1 0x40 MLOAD DUP1 DUP4 SUB DUP2 DUP7 GAS STATICCALL ISZERO DUP1 ISZERO PUSH2 0x9F JUMPI RETURNDATASIZE PUSH0 DUP1 RETURNDATACOPY RETURNDATASIZE PUSH0 REVERT JUMPDEST POP POP POP POP PUSH1 0x40 MLOAD RETURNDATASIZE PUSH0 DUP3 RETURNDATACOPY PUSH1 0x1F RETURNDATASIZE SWAP1 DUP2 ADD PUSH1 0x1F NOT AND DUP3 ADD PUSH1 0x40 MSTORE PUSH2 0xC6 SWAP2 SWAP1 DUP2 ADD SWAP1 PUSH2 0x246 JUMP JUMPDEST PUSH0 DUP1 SLOAD PUSH1 0x40 DUP1 MLOAD PUSH4 0x33A3727 PUSH1 0xE0 SHL DUP2 MSTORE SWAP1 MLOAD PUSH1 0x1 PUSH1 0x1 PUSH1 0xA0 SHL SUB SWAP1 SWAP3 AND SWAP3 PUSH4 0x33A3727 SWAP3 PUSH1 0x4 DUP1 DUP5 ADD SWAP4 DUP3 SWAP1 SUB ADD DUP2 DUP7 GAS STATICCALL ISZERO DUP1 ISZERO PUSH2 0x108 JUMPI RETURNDATASIZE PUSH0 DUP1 RETURNDATACOPY RETURNDATASIZE PUSH0 REVERT JUMPDEST POP POP POP POP PUSH1 0x40 MLOAD RETURNDATASIZE PUSH0 DUP3 RETURNDATACOPY PUSH1 0x1F RETURNDATASIZE SWAP1 DUP2 ADD PUSH1 0x1F NOT AND DUP3 ADD PUSH1 0x40 MSTORE PUSH2 0x12F SWAP2 SWAP1 DUP2 ADD SWAP1 PUSH2 0x246 JUMP JUMPDEST PUSH0 DUP1 SLOAD PUSH1 0x40 DUP1 MLOAD PUSH4 0x15F020C5 PUSH1 0xE0 SHL DUP2 MSTORE SWAP1 MLOAD PUSH1 0x1 PUSH1 0x1 PUSH1 0xA0 SHL SUB SWAP1 SWAP3 AND SWAP3 PUSH4 0x15F020C5 SWAP3 PUSH1 0x4 DUP1 DUP5 ADD SWAP4 DUP3 SWAP1 SUB ADD DUP2 DUP7 GAS STATICCALL ISZERO DUP1 ISZERO PUSH2 0x171 JUMPI RETURNDATASIZE PUSH0 DUP1 RETURNDATACOPY RETURNDATASIZE PUSH0 REVERT JUMPDEST POP POP POP POP PUSH1 0x40 MLOAD RETURNDATASIZE PUSH0 DUP3 RETURNDATACOPY PUSH1 0x1F RETURNDATASIZE SWAP1 DUP2 ADD PUSH1 0x1F NOT AND DUP3 ADD PUSH1 0x40 MSTORE PUSH2 0x198 SWAP2 SWAP1 DUP2 ADD SWAP1 PUSH2 0x246 JUMP JUMPDEST SWAP3 POP SWAP3 POP SWAP3 POP SWAP1 SWAP2 SWAP3 JUMP JUMPDEST PUSH0 JUMPDEST DUP4 DUP2 LT ISZERO PUSH2 0x1BD JUMPI DUP2 DUP2 ADD MLOAD DUP4 DUP3 ADD MSTORE PUSH1 0x20 ADD PUSH2 0x1A5 JUMP JUMPDEST POP POP PUSH0 SWAP2 ADD MSTORE JUMP JUMPDEST PUSH0 DUP2 MLOAD DUP1 DUP5 MSTORE PUSH2 0x1DC DUP2 PUSH1 0x20 DUP7 ADD PUSH1 0x20 DUP7 ADD PUSH2 0x1A3 JUMP JUMPDEST PUSH1 0x1F ADD PUSH1 0x1F NOT AND SWAP3 SWAP1 SWAP3 ADD PUSH1 0x20 ADD SWAP3 SWAP2 POP POP JUMP JUMPDEST PUSH1 0x60 DUP2 MSTORE PUSH0 PUSH2 0x202 PUSH1 0x60 DUP4 ADD DUP7 PUSH2 0x1C5 JUMP JUMPDEST DUP3 DUP2 SUB PUSH1 0x20 DUP5 ADD MSTORE PUSH2 0x214 DUP2 DUP7 PUSH2 0x1C5 JUMP JUMPDEST SWAP1 POP DUP3 DUP2 SUB PUSH1 0x40 DUP5 ADD MSTORE PUSH2 0x228 DUP2 DUP6 PUSH2 0x1C5 JUMP JUMPDEST SWAP7 SWAP6 POP POP POP POP POP POP JUMP JUMPDEST PUSH4 0x4E487B71 PUSH1 0xE0 SHL PUSH0 MSTORE PUSH1 0x41 PUSH1 0x4 MSTORE PUSH1 0x24 PUSH0 REVERT JUMPDEST PUSH0 PUSH1 0x20 DUP3 DUP5 SUB SLT ISZERO PUSH2 0x256 JUMPI PUSH0 DUP1 REVERT JUMPDEST DUP2 MLOAD PUSH8 0xFFFFFFFFFFFFFFFF DUP1 DUP3 GT ISZERO PUSH2 0x26D JUMPI PUSH0 DUP1 REVERT JUMPDEST DUP2 DUP5 ADD SWAP2 POP DUP5 PUSH1 0x1F DUP4 ADD SLT PUSH2 0x280 JUMPI PUSH0 DUP1 REVERT JUMPDEST DUP2 MLOAD DUP2 DUP2 GT ISZERO PUSH2 0x292 JUMPI PUSH2 0x292 PUSH2 0x232 JUMP JUMPDEST PUSH1 0x40 MLOAD PUSH1 0x1F DUP3 ADD PUSH1 0x1F NOT SWAP1 DUP2 AND PUSH1 0x3F ADD AND DUP2 ADD SWAP1 DUP4 DUP3 GT DUP2 DUP4 LT OR ISZERO PUSH2 0x2BA JUMPI PUSH2 0x2BA PUSH2 0x232 JUMP JUMPDEST DUP2 PUSH1 0x40 MSTORE DUP3 DUP2 MSTORE DUP8 PUSH1 0x20 DUP5 DUP8 ADD ADD GT ISZERO PUSH2 0x2D2 JUMPI PUSH0 DUP1 REVERT JUMPDEST PUSH2 0x2E3 DUP4 PUSH1 0x20 DUP4 ADD PUSH1 0x20 DUP9 ADD PUSH2 0x1A3 JUMP JUMPDEST SWAP8 SWAP7 POP POP POP POP POP POP POP JUMP INVALID LOG2 PUSH5 0x6970667358 0x22 SLT KECCAK256 0xC8 0xEC DUP5 KECCAK256 CALLVALUE DUP2 PUSH24 0x289F54C53A5F7177734CA864FB9FB6D745563678AC8DC96C 0x2D PUSH5 0x736F6C6343 STOP ADDMOD XOR STOP CALLER PUSH1 0x80 PUSH1 0x40 MSTORE CALLVALUE DUP1 ISZERO PUSH2 0xF JUMPI PUSH0 DUP1 REVERT JUMPDEST POP PUSH2 0x155 DUP1 PUSH2 0x1D PUSH0 CODECOPY PUSH0 RETURN INVALID PUSH1 0x80 PUSH1 0x40 MSTORE CALLVALUE DUP1 ISZERO PUSH2 0xF JUMPI PUSH0 DUP1 REVERT JUMPDEST POP PUSH1 0x4 CALLDATASIZE LT PUSH2 0x3F JUMPI PUSH0 CALLDATALOAD PUSH1 0xE0 SHR DUP1 PUSH4 0x33A3727 EQ PUSH2 0x43 JUMPI DUP1 PUSH4 0x15F020C5 EQ PUSH2 0x7F JUMPI DUP1 PUSH4 0x2604E1BB EQ PUSH2 0xA9 JUMPI JUMPDEST PUSH0 DUP1 REVERT JUMPDEST PUSH1 0x40 DUP1 MLOAD DUP1 DUP3 ADD SWAP1 SWAP2 MSTORE PUSH1 0xE DUP2 MSTORE PUSH14 0x3230B49035B7B73A3930B1BA1021 PUSH1 0x91 SHL PUSH1 0x20 DUP3 ADD MSTORE JUMPDEST PUSH1 0x40 MLOAD PUSH2 0x76 SWAP2 SWAP1 PUSH2 0xD3 JUMP JUMPDEST PUSH1 0x40 MLOAD DUP1 SWAP2 SUB SWAP1 RETURN JUMPDEST PUSH1 0x40 DUP1 MLOAD DUP1 DUP3 ADD SWAP1 SWAP2 MSTORE PUSH1 0xE DUP2 MSTORE PUSH14 0x646169206B6F6E74726163742043 PUSH1 0x90 SHL PUSH1 0x20 DUP3 ADD MSTORE PUSH2 0x69 JUMP JUMPDEST PUSH1 0x40 DUP1 MLOAD DUP1 DUP3 ADD SWAP1 SWAP2 MSTORE PUSH1 0xE DUP2 MSTORE PUSH14 0x646169206B6F6E74726163742041 PUSH1 0x90 SHL PUSH1 0x20 DUP3 ADD MSTORE PUSH2 0x69 JUMP JUMPDEST PUSH0 PUSH1 0x20 DUP1 DUP4 MSTORE DUP4 MLOAD DUP1 PUSH1 0x20 DUP6 ADD MSTORE PUSH0 JUMPDEST DUP2 DUP2 LT ISZERO PUSH2 0xFF JUMPI DUP6 DUP2 ADD DUP4 ADD MLOAD DUP6 DUP3 ADD PUSH1 0x40 ADD MSTORE DUP3 ADD PUSH2 0xE3 JUMP JUMPDEST POP PUSH0 PUSH1 0x40 DUP3 DUP7 ADD ADD MSTORE PUSH1 0x40 PUSH1 0x1F NOT PUSH1 0x1F DUP4 ADD AND DUP6 ADD ADD SWAP3 POP POP POP SWAP3 SWAP2 POP POP JUMP INVALID LOG2 PUSH5 0x6970667358 0x22 SLT KECCAK256 0xE SWAP13 DELEGATECALL PUSH28 0x9E89CF7B467B5BBAE1FBC227EF48AAE82F7C40315ED6F8A9EA80E18 PUSH5 0x736F6C6343 STOP ADDMOD XOR STOP CALLER "
				},
				"gasEstimates": {
					"creation": {
						"codeDepositCost": "160800",
						"executionCost": "infinite",
						"totalCost": "infinite"
					},
					"external": {
						"fromCaller()": "infinite"
					}
				},
				"methodIdentifiers": {
					"fromCaller()": "6c3e5179"
				}
			},
			"storageLayout": {
				"storage": [
					{
						"astId": 39,
						"contract": "contracts/12_MultipelInheritance.sol:caller",
						"label": "c",
						"offset": 0,
						"slot": "0",
						"type": "t_contract(C)32"
					}
				],
				"types": {
					"t_contract(C)32": {
						"encoding": "inplace",
						"label": "contract C",
						"numberOfBytes": "20"
					}
				}
			},
			"userdoc": {
				"kind": "user",
				"methods": {},
				"version": 1
			}
		}
	}
}