{
	"contracts/12_MultipelInheritance.sol": {
		"caller2": {
			"abi": [
				{
					"inputs": [],
					"name": "callerDia",
					"outputs": [
						{
							"internalType": "uint256",
							"name": "",
							"type": "uint256"
						}
					],
					"stateMutability": "view",
					"type": "function"
				}
			],
			"devdoc": {
				"kind": "dev",
				"methods": {},
				"version": 1
			},
			"evm": {
				"assembly": "    /* \"contracts/12_MultipelInheritance.sol\":1007:1152  contract caller2 {... */\n  mstore(0x40, 0x80)\n    /* \"contracts/12_MultipelInheritance.sol\":1039:1047  new C3() */\n  mload(0x40)\n  tag_1\n  swap1\n  tag_2\n  jump\t// in\ntag_1:\n  mload(0x40)\n  dup1\n  swap2\n  sub\n  swap1\n  0x00\n  create\n  dup1\n  iszero\n  dup1\n  iszero\n  tag_3\n  jumpi\n  returndatasize\n  0x00\n  dup1\n  returndatacopy\n  revert(0x00, returndatasize)\ntag_3:\n  pop\n    /* \"contracts/12_MultipelInheritance.sol\":1031:1047  C3 c3 = new C3() */\n  0x00\n  dup1\n  sload\n  not(sub(shl(0xa0, 0x01), 0x01))\n  and\n  sub(shl(0xa0, 0x01), 0x01)\n  swap3\n  swap1\n  swap3\n  and\n  swap2\n  swap1\n  swap2\n  or\n  swap1\n  sstore\n    /* \"contracts/12_MultipelInheritance.sol\":1007:1152  contract caller2 {... */\n  callvalue\n  dup1\n  iszero\n  tag_4\n  jumpi\n  0x00\n  dup1\n  revert\ntag_4:\n  pop\n  jump(tag_5)\ntag_2:\n  dataSize(sub_1)\n  dup1\n  dataOffset(sub_1)\n  dup4\n  codecopy\n  add\n  swap1\n  jump\t// out\ntag_5:\n  dataSize(sub_0)\n  dup1\n  dataOffset(sub_0)\n  0x00\n  codecopy\n  0x00\n  return\nstop\n\nsub_0: assembly {\n        /* \"contracts/12_MultipelInheritance.sol\":1007:1152  contract caller2 {... */\n      mstore(0x40, 0x80)\n      callvalue\n      dup1\n      iszero\n      tag_1\n      jumpi\n      0x00\n      dup1\n      revert\n    tag_1:\n      pop\n      jumpi(tag_2, lt(calldatasize, 0x04))\n      shr(0xe0, calldataload(0x00))\n      dup1\n      0x14c5edb2\n      eq\n      tag_3\n      jumpi\n    tag_2:\n      0x00\n      dup1\n      revert\n        /* \"contracts/12_MultipelInheritance.sol\":1056:1149  function callerDia() public view returns (uint) {... */\n    tag_3:\n      tag_4\n      tag_5\n      jump\t// in\n    tag_4:\n      mload(0x40)\n        /* \"#utility.yul\":160:185   */\n      swap1\n      dup2\n      mstore\n        /* \"#utility.yul\":148:150   */\n      0x20\n        /* \"#utility.yul\":133:151   */\n      add\n        /* \"contracts/12_MultipelInheritance.sol\":1056:1149  function callerDia() public view returns (uint) {... */\n      mload(0x40)\n      dup1\n      swap2\n      sub\n      swap1\n      return\n    tag_5:\n        /* \"contracts/12_MultipelInheritance.sol\":1098:1102  uint */\n      0x00\n        /* \"contracts/12_MultipelInheritance.sol\":1122:1124  c3 */\n      dup1\n      0x00\n      swap1\n      sload\n      swap1\n      0x0100\n      exp\n      swap1\n      div\n      sub(shl(0xa0, 0x01), 0x01)\n      and\n      sub(shl(0xa0, 0x01), 0x01)\n        /* \"contracts/12_MultipelInheritance.sol\":1122:1139  c3.calculateFromC */\n      and\n      0x8a553db6\n        /* \"contracts/12_MultipelInheritance.sol\":1122:1141  c3.calculateFromC() */\n      mload(0x40)\n      dup2\n      0xffffffff\n      and\n      0xe0\n      shl\n      dup2\n      mstore\n      0x04\n      add\n      0x20\n      mload(0x40)\n      dup1\n      dup4\n      sub\n      dup2\n      dup7\n      gas\n      staticcall\n      iszero\n      dup1\n      iszero\n      tag_10\n      jumpi\n      returndatasize\n      0x00\n      dup1\n      returndatacopy\n      revert(0x00, returndatasize)\n    tag_10:\n      pop\n      pop\n      pop\n      pop\n      mload(0x40)\n      returndatasize\n      not(0x1f)\n      0x1f\n      dup3\n      add\n      and\n      dup3\n      add\n      dup1\n      0x40\n      mstore\n      pop\n      dup2\n      add\n      swap1\n      tag_11\n      swap2\n      swap1\n      tag_12\n      jump\t// in\n    tag_11:\n        /* \"contracts/12_MultipelInheritance.sol\":1115:1141  return c3.calculateFromC() */\n      swap1\n      pop\n        /* \"contracts/12_MultipelInheritance.sol\":1056:1149  function callerDia() public view returns (uint) {... */\n      swap1\n      jump\t// out\n        /* \"#utility.yul\":196:380   */\n    tag_12:\n        /* \"#utility.yul\":266:272   */\n      0x00\n        /* \"#utility.yul\":319:321   */\n      0x20\n        /* \"#utility.yul\":307:316   */\n      dup3\n        /* \"#utility.yul\":298:305   */\n      dup5\n        /* \"#utility.yul\":294:317   */\n      sub\n        /* \"#utility.yul\":290:322   */\n      slt\n        /* \"#utility.yul\":287:339   */\n      iszero\n      tag_16\n      jumpi\n        /* \"#utility.yul\":335:336   */\n      0x00\n        /* \"#utility.yul\":332:333   */\n      dup1\n        /* \"#utility.yul\":325:337   */\n      revert\n        /* \"#utility.yul\":287:339   */\n    tag_16:\n      pop\n        /* \"#utility.yul\":358:374   */\n      mload\n      swap2\n        /* \"#utility.yul\":196:380   */\n      swap1\n      pop\n      jump\t// out\n\n    auxdata: 0xa2646970667358221220ee1d438a8a99c9f01c54d00a98450dddd76b25d62dc4e975cc055938341dcce164736f6c63430008180033\n}\n\nsub_1: assembly {\n        /* \"contracts/12_MultipelInheritance.sol\":872:1003  contract C3 is B2,A2{... */\n      mstore(0x40, 0x80)\n      callvalue\n      dup1\n      iszero\n      tag_1\n      jumpi\n      0x00\n      dup1\n      revert\n    tag_1:\n      pop\n      dataSize(sub_0)\n      dup1\n      dataOffset(sub_0)\n      0x00\n      codecopy\n      0x00\n      return\n    stop\n\n    sub_0: assembly {\n            /* \"contracts/12_MultipelInheritance.sol\":872:1003  contract C3 is B2,A2{... */\n          mstore(0x40, 0x80)\n          callvalue\n          dup1\n          iszero\n          tag_1\n          jumpi\n          0x00\n          dup1\n          revert\n        tag_1:\n          pop\n          jumpi(tag_2, lt(calldatasize, 0x04))\n          shr(0xe0, calldataload(0x00))\n          dup1\n          0x8a553db6\n          eq\n          tag_3\n          jumpi\n        tag_2:\n          0x00\n          dup1\n          revert\n            /* \"contracts/12_MultipelInheritance.sol\":899:1000  function calculateFromC() external pure returns(uint) {... */\n        tag_3:\n          tag_4\n          tag_5\n          jump\t// in\n        tag_4:\n          mload(0x40)\n            /* \"#utility.yul\":160:185   */\n          swap1\n          dup2\n          mstore\n            /* \"#utility.yul\":148:150   */\n          0x20\n            /* \"#utility.yul\":133:151   */\n          add\n            /* \"contracts/12_MultipelInheritance.sol\":899:1000  function calculateFromC() external pure returns(uint) {... */\n          mload(0x40)\n          dup1\n          swap2\n          sub\n          swap1\n          return\n        tag_5:\n            /* \"contracts/12_MultipelInheritance.sol\":947:951  uint */\n          0x00\n            /* \"contracts/12_MultipelInheritance.sol\":971:992  fromA(10) + fromB(20) */\n          tag_13\n            /* \"contracts/12_MultipelInheritance.sol\":989:991  20 */\n          0x14\n            /* \"contracts/12_MultipelInheritance.sol\":977:979  10 */\n          0x0a\n            /* \"contracts/12_MultipelInheritance.sol\":971:992  fromA(10) + fromB(20) */\n          tag_14\n          jump\t// in\n        tag_13:\n            /* \"contracts/12_MultipelInheritance.sol\":964:992  return fromA(10) + fromB(20) */\n          swap1\n          pop\n            /* \"contracts/12_MultipelInheritance.sol\":899:1000  function calculateFromC() external pure returns(uint) {... */\n          swap1\n          jump\t// out\n            /* \"#utility.yul\":196:418   */\n        tag_14:\n            /* \"#utility.yul\":261:270   */\n          dup1\n          dup3\n          add\n            /* \"#utility.yul\":282:292   */\n          dup1\n          dup3\n          gt\n            /* \"#utility.yul\":279:412   */\n          iszero\n          tag_20\n          jumpi\n            /* \"#utility.yul\":334:344   */\n          0x4e487b71\n            /* \"#utility.yul\":329:332   */\n          0xe0\n            /* \"#utility.yul\":325:345   */\n          shl\n            /* \"#utility.yul\":322:323   */\n          0x00\n            /* \"#utility.yul\":315:346   */\n          mstore\n            /* \"#utility.yul\":369:373   */\n          0x11\n            /* \"#utility.yul\":366:367   */\n          0x04\n            /* \"#utility.yul\":359:374   */\n          mstore\n            /* \"#utility.yul\":397:401   */\n          0x24\n            /* \"#utility.yul\":394:395   */\n          0x00\n            /* \"#utility.yul\":387:402   */\n          revert\n            /* \"#utility.yul\":279:412   */\n        tag_20:\n            /* \"#utility.yul\":196:418   */\n          swap3\n          swap2\n          pop\n          pop\n          jump\t// out\n\n        auxdata: 0xa26469706673582212203147d642d2b6a0b047babeffb7149e051e1680c4b759e8fd99bbc57770c2d2ce64736f6c63430008180033\n    }\n}\n",
				"bytecode": {
					"linkReferences": {},
					"object": "60806040526040516100109061005a565b604051809103905ff080158015610029573d5f803e3d5ffd5b505f80546001600160a01b0319166001600160a01b0392909216919091179055348015610054575f80fd5b50610066565b60c78061017783390190565b610104806100735f395ff3fe6080604052348015600e575f80fd5b50600436106026575f3560e01c806314c5edb214602a575b5f80fd5b60306042565b60405190815260200160405180910390f35b5f805f9054906101000a90046001600160a01b03166001600160a01b0316638a553db66040518163ffffffff1660e01b8152600401602060405180830381865afa1580156091573d5f803e3d5ffd5b505050506040513d601f19601f8201168201806040525081019060b3919060b8565b905090565b5f6020828403121560c7575f80fd5b505191905056fea2646970667358221220ee1d438a8a99c9f01c54d00a98450dddd76b25d62dc4e975cc055938341dcce164736f6c634300081800336080604052348015600e575f80fd5b5060ac8061001b5f395ff3fe6080604052348015600e575f80fd5b50600436106026575f3560e01c80638a553db614602a575b5f80fd5b60306042565b60405190815260200160405180910390f35b5f604d6014600a6052565b905090565b80820180821115607057634e487b7160e01b5f52601160045260245ffd5b9291505056fea26469706673582212203147d642d2b6a0b047babeffb7149e051e1680c4b759e8fd99bbc57770c2d2ce64736f6c63430008180033",
					"opcodes": "PUSH1 0x80 PUSH1 0x40 MSTORE PUSH1 0x40 MLOAD PUSH2 0x10 SWAP1 PUSH2 0x5A JUMP JUMPDEST PUSH1 0x40 MLOAD DUP1 SWAP2 SUB SWAP1 PUSH0 CREATE DUP1 ISZERO DUP1 ISZERO PUSH2 0x29 JUMPI RETURNDATASIZE PUSH0 DUP1 RETURNDATACOPY RETURNDATASIZE PUSH0 REVERT JUMPDEST POP PUSH0 DUP1 SLOAD PUSH1 0x1 PUSH1 0x1 PUSH1 0xA0 SHL SUB NOT AND PUSH1 0x1 PUSH1 0x1 PUSH1 0xA0 SHL SUB SWAP3 SWAP1 SWAP3 AND SWAP2 SWAP1 SWAP2 OR SWAP1 SSTORE CALLVALUE DUP1 ISZERO PUSH2 0x54 JUMPI PUSH0 DUP1 REVERT JUMPDEST POP PUSH2 0x66 JUMP JUMPDEST PUSH1 0xC7 DUP1 PUSH2 0x177 DUP4 CODECOPY ADD SWAP1 JUMP JUMPDEST PUSH2 0x104 DUP1 PUSH2 0x73 PUSH0 CODECOPY PUSH0 RETURN INVALID PUSH1 0x80 PUSH1 0x40 MSTORE CALLVALUE DUP1 ISZERO PUSH1 0xE JUMPI PUSH0 DUP1 REVERT JUMPDEST POP PUSH1 0x4 CALLDATASIZE LT PUSH1 0x26 JUMPI PUSH0 CALLDATALOAD PUSH1 0xE0 SHR DUP1 PUSH4 0x14C5EDB2 EQ PUSH1 0x2A JUMPI JUMPDEST PUSH0 DUP1 REVERT JUMPDEST PUSH1 0x30 PUSH1 0x42 JUMP JUMPDEST PUSH1 0x40 MLOAD SWAP1 DUP2 MSTORE PUSH1 0x20 ADD PUSH1 0x40 MLOAD DUP1 SWAP2 SUB SWAP1 RETURN JUMPDEST PUSH0 DUP1 PUSH0 SWAP1 SLOAD SWAP1 PUSH2 0x100 EXP SWAP1 DIV PUSH1 0x1 PUSH1 0x1 PUSH1 0xA0 SHL SUB AND PUSH1 0x1 PUSH1 0x1 PUSH1 0xA0 SHL SUB AND PUSH4 0x8A553DB6 PUSH1 0x40 MLOAD DUP2 PUSH4 0xFFFFFFFF AND PUSH1 0xE0 SHL DUP2 MSTORE PUSH1 0x4 ADD PUSH1 0x20 PUSH1 0x40 MLOAD DUP1 DUP4 SUB DUP2 DUP7 GAS STATICCALL ISZERO DUP1 ISZERO PUSH1 0x91 JUMPI RETURNDATASIZE PUSH0 DUP1 RETURNDATACOPY RETURNDATASIZE PUSH0 REVERT JUMPDEST POP POP POP POP PUSH1 0x40 MLOAD RETURNDATASIZE PUSH1 0x1F NOT PUSH1 0x1F DUP3 ADD AND DUP3 ADD DUP1 PUSH1 0x40 MSTORE POP DUP2 ADD SWAP1 PUSH1 0xB3 SWAP2 SWAP1 PUSH1 0xB8 JUMP JUMPDEST SWAP1 POP SWAP1 JUMP JUMPDEST PUSH0 PUSH1 0x20 DUP3 DUP5 SUB SLT ISZERO PUSH1 0xC7 JUMPI PUSH0 DUP1 REVERT JUMPDEST POP MLOAD SWAP2 SWAP1 POP JUMP INVALID LOG2 PUSH5 0x6970667358 0x22 SLT KECCAK256 0xEE SAR NUMBER DUP11 DUP11 SWAP10 0xC9 CREATE SHR SLOAD 0xD0 EXP SWAP9 GASLIMIT 0xD 0xDD 0xD7 PUSH12 0x25D62DC4E975CC055938341D 0xCC 0xE1 PUSH5 0x736F6C6343 STOP ADDMOD XOR STOP CALLER PUSH1 0x80 PUSH1 0x40 MSTORE CALLVALUE DUP1 ISZERO PUSH1 0xE JUMPI PUSH0 DUP1 REVERT JUMPDEST POP PUSH1 0xAC DUP1 PUSH2 0x1B PUSH0 CODECOPY PUSH0 RETURN INVALID PUSH1 0x80 PUSH1 0x40 MSTORE CALLVALUE DUP1 ISZERO PUSH1 0xE JUMPI PUSH0 DUP1 REVERT JUMPDEST POP PUSH1 0x4 CALLDATASIZE LT PUSH1 0x26 JUMPI PUSH0 CALLDATALOAD PUSH1 0xE0 SHR DUP1 PUSH4 0x8A553DB6 EQ PUSH1 0x2A JUMPI JUMPDEST PUSH0 DUP1 REVERT JUMPDEST PUSH1 0x30 PUSH1 0x42 JUMP JUMPDEST PUSH1 0x40 MLOAD SWAP1 DUP2 MSTORE PUSH1 0x20 ADD PUSH1 0x40 MLOAD DUP1 SWAP2 SUB SWAP1 RETURN JUMPDEST PUSH0 PUSH1 0x4D PUSH1 0x14 PUSH1 0xA PUSH1 0x52 JUMP JUMPDEST SWAP1 POP SWAP1 JUMP JUMPDEST DUP1 DUP3 ADD DUP1 DUP3 GT ISZERO PUSH1 0x70 JUMPI PUSH4 0x4E487B71 PUSH1 0xE0 SHL PUSH0 MSTORE PUSH1 0x11 PUSH1 0x4 MSTORE PUSH1 0x24 PUSH0 REVERT JUMPDEST SWAP3 SWAP2 POP POP JUMP INVALID LOG2 PUSH5 0x6970667358 0x22 SLT KECCAK256 BALANCE SELFBALANCE 0xD6 TIMESTAMP 0xD2 0xB6 LOG0 0xB0 SELFBALANCE 0xBA 0xBE SELFDESTRUCT 0xB7 EQ SWAP15 SDIV 0x1E AND DUP1 0xC4 0xB7 MSIZE 0xE8 REVERT SWAP10 0xBB 0xC5 PUSH24 0x70C2D2CE64736F6C63430008180033000000000000000000 "
				},
				"gasEstimates": {
					"creation": {
						"codeDepositCost": "52000",
						"executionCost": "infinite",
						"totalCost": "infinite"
					},
					"external": {
						"callerDia()": "infinite"
					}
				},
				"methodIdentifiers": {
					"callerDia()": "14c5edb2"
				}
			},
			"storageLayout": {
				"storage": [
					{
						"astId": 109,
						"contract": "contracts/12_MultipelInheritance.sol:caller2",
						"label": "c3",
						"offset": 0,
						"slot": "0",
						"type": "t_contract(C3)102"
					}
				],
				"types": {
					"t_contract(C3)102": {
						"encoding": "inplace",
						"label": "contract C3",
						"numberOfBytes": "20"
					}
				}
			},
			"userdoc": {
				"kind": "user",
				"methods": {},
				"version": 1
			}
		}
	}
}