{
	"contracts/14_Payable.sol": {
		"Payable": {
			"abi": [
				{
					"inputs": [],
					"stateMutability": "payable",
					"type": "constructor"
				},
				{
					"inputs": [],
					"name": "deposit",
					"outputs": [],
					"stateMutability": "payable",
					"type": "function"
				},
				{
					"inputs": [],
					"name": "getAmount",
					"outputs": [
						{
							"internalType": "uint256",
							"name": "",
							"type": "uint256"
						}
					],
					"stateMutability": "view",
					"type": "function"
				},
				{
					"inputs": [],
					"name": "owner",
					"outputs": [
						{
							"internalType": "address payable",
							"name": "",
							"type": "address"
						}
					],
					"stateMutability": "view",
					"type": "function"
				},
				{
					"inputs": [
						{
							"internalType": "address payable",
							"name": "_addrs",
							"type": "address"
						},
						{
							"internalType": "uint256",
							"name": "_amount",
							"type": "uint256"
						}
					],
					"name": "transfer",
					"outputs": [],
					"stateMutability": "nonpayable",
					"type": "function"
				},
				{
					"inputs": [],
					"name": "withdraw",
					"outputs": [],
					"stateMutability": "nonpayable",
					"type": "function"
				}
			],
			"devdoc": {
				"kind": "dev",
				"methods": {},
				"version": 1
			},
			"evm": {
				"assembly": "    /* \"contracts/14_Payable.sol\":70:1016  contract Payable {... */\n  mstore(0x40, 0x80)\n    /* \"contracts/14_Payable.sol\":225:230  owner */\n  0x00\n    /* \"contracts/14_Payable.sol\":225:252  owner = payable(msg.sender) */\n  dup1\n  sload\n  not(sub(shl(0xa0, 0x01), 0x01))\n  and\n    /* \"contracts/14_Payable.sol\":241:251  msg.sender */\n  caller\n    /* \"contracts/14_Payable.sol\":225:252  owner = payable(msg.sender) */\n  or\n  swap1\n  sstore\n    /* \"contracts/14_Payable.sol\":70:1016  contract Payable {... */\n  dataSize(sub_0)\n  dup1\n  dataOffset(sub_0)\n  0x00\n  codecopy\n  0x00\n  return\nstop\n\nsub_0: assembly {\n        /* \"contracts/14_Payable.sol\":70:1016  contract Payable {... */\n      mstore(0x40, 0x80)\n      jumpi(tag_1, lt(calldatasize, 0x04))\n      shr(0xe0, calldataload(0x00))\n      dup1\n      0x3ccfd60b\n      eq\n      tag_2\n      jumpi\n      dup1\n      0x8da5cb5b\n      eq\n      tag_3\n      jumpi\n      dup1\n      0xa9059cbb\n      eq\n      tag_4\n      jumpi\n      dup1\n      0xd0e30db0\n      eq\n      tag_8\n      jumpi\n      dup1\n      0xd321fe29\n      eq\n      tag_6\n      jumpi\n    tag_1:\n      0x00\n      dup1\n      revert\n        /* \"contracts/14_Payable.sol\":507:742  function withdraw() public {... */\n    tag_2:\n      callvalue\n      dup1\n      iszero\n      tag_7\n      jumpi\n      0x00\n      dup1\n      revert\n    tag_7:\n      pop\n      tag_8\n      tag_9\n      jump\t// in\n    tag_8:\n      stop\n        /* \"contracts/14_Payable.sol\":155:183  address payable public owner */\n    tag_3:\n      callvalue\n      dup1\n      iszero\n      tag_10\n      jumpi\n      0x00\n      dup1\n      revert\n    tag_10:\n      pop\n      sload(0x00)\n      tag_11\n      swap1\n      sub(shl(0xa0, 0x01), 0x01)\n      and\n      dup2\n      jump\n    tag_11:\n      mload(0x40)\n      sub(shl(0xa0, 0x01), 0x01)\n        /* \"#utility.yul\":194:226   */\n      swap1\n      swap2\n      and\n        /* \"#utility.yul\":176:227   */\n      dup2\n      mstore\n        /* \"#utility.yul\":164:166   */\n      0x20\n        /* \"#utility.yul\":149:167   */\n      add\n        /* \"contracts/14_Payable.sol\":155:183  address payable public owner */\n    tag_13:\n      mload(0x40)\n      dup1\n      swap2\n      sub\n      swap1\n      return\n        /* \"contracts/14_Payable.sol\":831:1013  function transfer(address payable _addrs, uint _amount) public {... */\n    tag_4:\n      callvalue\n      dup1\n      iszero\n      tag_15\n      jumpi\n      0x00\n      dup1\n      revert\n    tag_15:\n      pop\n      tag_8\n      tag_17\n      calldatasize\n      0x04\n      tag_18\n      jump\t// in\n    tag_17:\n      tag_19\n      jump\t// in\n        /* \"contracts/14_Payable.sol\":313:438  function getAmount() public view returns(uint) {... */\n    tag_6:\n      callvalue\n      dup1\n      iszero\n      tag_22\n      jumpi\n      0x00\n      dup1\n      revert\n    tag_22:\n      pop\n      mload(0x40)\n        /* \"contracts/14_Payable.sol\":385:406  address(this).balance */\n      selfbalance\n        /* \"#utility.yul\":751:776   */\n      dup2\n      mstore\n        /* \"#utility.yul\":739:741   */\n      0x20\n        /* \"#utility.yul\":724:742   */\n      add\n        /* \"contracts/14_Payable.sol\":313:438  function getAmount() public view returns(uint) {... */\n      tag_13\n        /* \"#utility.yul\":605:782   */\n      jump\n        /* \"contracts/14_Payable.sol\":507:742  function withdraw() public {... */\n    tag_9:\n        /* \"contracts/14_Payable.sol\":545:556  uint amount */\n      0x00\n        /* \"contracts/14_Payable.sol\":654:659  owner */\n      dup1\n      sload\n        /* \"contracts/14_Payable.sol\":654:683  owner.call{value: amount}(\"\") */\n      mload(0x40)\n        /* \"contracts/14_Payable.sol\":559:580  address(this).balance */\n      selfbalance\n      swap3\n        /* \"contracts/14_Payable.sol\":545:556  uint amount */\n      swap2\n      sub(shl(0xa0, 0x01), 0x01)\n        /* \"contracts/14_Payable.sol\":654:659  owner */\n      and\n      swap1\n        /* \"contracts/14_Payable.sol\":559:580  address(this).balance */\n      dup4\n      swap1\n        /* \"contracts/14_Payable.sol\":545:556  uint amount */\n      dup4\n        /* \"contracts/14_Payable.sol\":654:683  owner.call{value: amount}(\"\") */\n      dup2\n        /* \"contracts/14_Payable.sol\":545:556  uint amount */\n      dup2\n        /* \"contracts/14_Payable.sol\":654:683  owner.call{value: amount}(\"\") */\n      dup2\n        /* \"contracts/14_Payable.sol\":559:580  address(this).balance */\n      dup6\n        /* \"contracts/14_Payable.sol\":654:659  owner */\n      dup8\n        /* \"contracts/14_Payable.sol\":654:683  owner.call{value: amount}(\"\") */\n      gas\n      call\n      swap3\n      pop\n      pop\n      pop\n      returndatasize\n      dup1\n      0x00\n      dup2\n      eq\n      tag_32\n      jumpi\n      mload(0x40)\n      swap2\n      pop\n      and(add(returndatasize, 0x3f), not(0x1f))\n      dup3\n      add\n      0x40\n      mstore\n      returndatasize\n      dup3\n      mstore\n      returndatasize\n      0x00\n      0x20\n      dup5\n      add\n      returndatacopy\n      jump(tag_31)\n    tag_32:\n      0x60\n      swap2\n      pop\n    tag_31:\n      pop\n        /* \"contracts/14_Payable.sol\":636:683  (bool success,) = owner.call{value: amount}(\"\") */\n      pop\n      swap1\n      pop\n        /* \"contracts/14_Payable.sol\":702:709  success */\n      dup1\n        /* \"contracts/14_Payable.sol\":694:734  require(success, \"gagal mengirim ether\") */\n      tag_33\n      jumpi\n      mload(0x40)\n      shl(0xe5, 0x461bcd)\n      dup2\n      mstore\n        /* \"#utility.yul\":1199:1201   */\n      0x20\n        /* \"contracts/14_Payable.sol\":694:734  require(success, \"gagal mengirim ether\") */\n      0x04\n      dup3\n      add\n        /* \"#utility.yul\":1181:1202   */\n      mstore\n        /* \"#utility.yul\":1238:1240   */\n      0x14\n        /* \"#utility.yul\":1218:1236   */\n      0x24\n      dup3\n      add\n        /* \"#utility.yul\":1211:1241   */\n      mstore\n      shl(0x61, 0x33b0b3b0b61036b2b733b4b934b69032ba3432b9)\n        /* \"#utility.yul\":1257:1275   */\n      0x44\n      dup3\n      add\n        /* \"#utility.yul\":1250:1300   */\n      mstore\n        /* \"#utility.yul\":1317:1335   */\n      0x64\n      add\n        /* \"contracts/14_Payable.sol\":694:734  require(success, \"gagal mengirim ether\") */\n    tag_34:\n      mload(0x40)\n      dup1\n      swap2\n      sub\n      swap1\n      revert\n    tag_33:\n        /* \"contracts/14_Payable.sol\":534:742  {... */\n      pop\n      pop\n        /* \"contracts/14_Payable.sol\":507:742  function withdraw() public {... */\n      jump\t// out\n        /* \"contracts/14_Payable.sol\":831:1013  function transfer(address payable _addrs, uint _amount) public {... */\n    tag_19:\n        /* \"contracts/14_Payable.sol\":906:918  bool success */\n      0x00\n        /* \"contracts/14_Payable.sol\":923:929  _addrs */\n      dup3\n      sub(shl(0xa0, 0x01), 0x01)\n        /* \"contracts/14_Payable.sol\":923:934  _addrs.call */\n      and\n        /* \"contracts/14_Payable.sol\":942:949  _amount */\n      dup3\n        /* \"contracts/14_Payable.sol\":923:954  _addrs.call{value: _amount}(\"\") */\n      mload(0x40)\n      0x00\n      mload(0x40)\n      dup1\n      dup4\n      sub\n      dup2\n      dup6\n      dup8\n      gas\n      call\n      swap3\n      pop\n      pop\n      pop\n      returndatasize\n      dup1\n      0x00\n      dup2\n      eq\n      tag_40\n      jumpi\n      mload(0x40)\n      swap2\n      pop\n      and(add(returndatasize, 0x3f), not(0x1f))\n      dup3\n      add\n      0x40\n      mstore\n      returndatasize\n      dup3\n      mstore\n      returndatasize\n      0x00\n      0x20\n      dup5\n      add\n      returndatacopy\n      jump(tag_39)\n    tag_40:\n      0x60\n      swap2\n      pop\n    tag_39:\n      pop\n        /* \"contracts/14_Payable.sol\":905:954  (bool success,) = _addrs.call{value: _amount}(\"\") */\n      pop\n      swap1\n      pop\n        /* \"contracts/14_Payable.sol\":973:980  success */\n      dup1\n        /* \"contracts/14_Payable.sol\":965:1005  require(success, \"gagal mengirim ether\") */\n      tag_41\n      jumpi\n      mload(0x40)\n      shl(0xe5, 0x461bcd)\n      dup2\n      mstore\n        /* \"#utility.yul\":1199:1201   */\n      0x20\n        /* \"contracts/14_Payable.sol\":965:1005  require(success, \"gagal mengirim ether\") */\n      0x04\n      dup3\n      add\n        /* \"#utility.yul\":1181:1202   */\n      mstore\n        /* \"#utility.yul\":1238:1240   */\n      0x14\n        /* \"#utility.yul\":1218:1236   */\n      0x24\n      dup3\n      add\n        /* \"#utility.yul\":1211:1241   */\n      mstore\n      shl(0x61, 0x33b0b3b0b61036b2b733b4b934b69032ba3432b9)\n        /* \"#utility.yul\":1257:1275   */\n      0x44\n      dup3\n      add\n        /* \"#utility.yul\":1250:1300   */\n      mstore\n        /* \"#utility.yul\":1317:1335   */\n      0x64\n      add\n        /* \"contracts/14_Payable.sol\":965:1005  require(success, \"gagal mengirim ether\") */\n      tag_34\n        /* \"#utility.yul\":997:1341   */\n      jump\n        /* \"contracts/14_Payable.sol\":965:1005  require(success, \"gagal mengirim ether\") */\n    tag_41:\n        /* \"contracts/14_Payable.sol\":894:1013  {... */\n      pop\n        /* \"contracts/14_Payable.sol\":831:1013  function transfer(address payable _addrs, uint _amount) public {... */\n      pop\n      pop\n      jump\t// out\n        /* \"#utility.yul\":238:600   */\n    tag_18:\n        /* \"#utility.yul\":314:320   */\n      0x00\n        /* \"#utility.yul\":322:328   */\n      dup1\n        /* \"#utility.yul\":375:377   */\n      0x40\n        /* \"#utility.yul\":363:372   */\n      dup4\n        /* \"#utility.yul\":354:361   */\n      dup6\n        /* \"#utility.yul\":350:373   */\n      sub\n        /* \"#utility.yul\":346:378   */\n      slt\n        /* \"#utility.yul\":343:395   */\n      iszero\n      tag_48\n      jumpi\n        /* \"#utility.yul\":391:392   */\n      0x00\n        /* \"#utility.yul\":388:389   */\n      dup1\n        /* \"#utility.yul\":381:393   */\n      revert\n        /* \"#utility.yul\":343:395   */\n    tag_48:\n        /* \"#utility.yul\":417:440   */\n      dup3\n      calldataload\n      sub(shl(0xa0, 0x01), 0x01)\n        /* \"#utility.yul\":469:500   */\n      dup2\n      and\n        /* \"#utility.yul\":459:501   */\n      dup2\n      eq\n        /* \"#utility.yul\":449:519   */\n      tag_49\n      jumpi\n        /* \"#utility.yul\":515:516   */\n      0x00\n        /* \"#utility.yul\":512:513   */\n      dup1\n        /* \"#utility.yul\":505:517   */\n      revert\n        /* \"#utility.yul\":449:519   */\n    tag_49:\n        /* \"#utility.yul\":538:543   */\n      swap5\n        /* \"#utility.yul\":590:592   */\n      0x20\n        /* \"#utility.yul\":575:593   */\n      swap4\n      swap1\n      swap4\n      add\n        /* \"#utility.yul\":562:594   */\n      calldataload\n      swap4\n      pop\n      pop\n      pop\n        /* \"#utility.yul\":238:600   */\n      jump\t// out\n\n    auxdata: 0xa2646970667358221220153d36cfcd05fbaf0496bf7f5dc9edd447afb7490b76470fa5b8d8ddf785d14064736f6c63430008180033\n}\n",
				"bytecode": {
					"linkReferences": {},
					"object": "60806040525f80546001600160a01b0319163317905561027e806100225f395ff3fe608060405260043610610049575f3560e01c80633ccfd60b1461004d5780638da5cb5b14610063578063a9059cbb1461009e578063d0e30db014610061578063d321fe29146100bd575b5f80fd5b348015610058575f80fd5b506100616100d7565b005b34801561006e575f80fd5b505f54610081906001600160a01b031681565b6040516001600160a01b0390911681526020015b60405180910390f35b3480156100a9575f80fd5b506100616100b8366004610213565b610178565b3480156100c8575f80fd5b50604051478152602001610095565b5f80546040514792916001600160a01b03169083908381818185875af1925050503d805f8114610122576040519150601f19603f3d011682016040523d82523d5f602084013e610127565b606091505b50509050806101745760405162461bcd60e51b815260206004820152601460248201527333b0b3b0b61036b2b733b4b934b69032ba3432b960611b60448201526064015b60405180910390fd5b5050565b5f826001600160a01b0316826040515f6040518083038185875af1925050503d805f81146101c1576040519150601f19603f3d011682016040523d82523d5f602084013e6101c6565b606091505b505090508061020e5760405162461bcd60e51b815260206004820152601460248201527333b0b3b0b61036b2b733b4b934b69032ba3432b960611b604482015260640161016b565b505050565b5f8060408385031215610224575f80fd5b82356001600160a01b038116811461023a575f80fd5b94602093909301359350505056fea2646970667358221220153d36cfcd05fbaf0496bf7f5dc9edd447afb7490b76470fa5b8d8ddf785d14064736f6c63430008180033",
					"opcodes": "PUSH1 0x80 PUSH1 0x40 MSTORE PUSH0 DUP1 SLOAD PUSH1 0x1 PUSH1 0x1 PUSH1 0xA0 SHL SUB NOT AND CALLER OR SWAP1 SSTORE PUSH2 0x27E DUP1 PUSH2 0x22 PUSH0 CODECOPY PUSH0 RETURN INVALID PUSH1 0x80 PUSH1 0x40 MSTORE PUSH1 0x4 CALLDATASIZE LT PUSH2 0x49 JUMPI PUSH0 CALLDATALOAD PUSH1 0xE0 SHR DUP1 PUSH4 0x3CCFD60B EQ PUSH2 0x4D JUMPI DUP1 PUSH4 0x8DA5CB5B EQ PUSH2 0x63 JUMPI DUP1 PUSH4 0xA9059CBB EQ PUSH2 0x9E JUMPI DUP1 PUSH4 0xD0E30DB0 EQ PUSH2 0x61 JUMPI DUP1 PUSH4 0xD321FE29 EQ PUSH2 0xBD JUMPI JUMPDEST PUSH0 DUP1 REVERT JUMPDEST CALLVALUE DUP1 ISZERO PUSH2 0x58 JUMPI PUSH0 DUP1 REVERT JUMPDEST POP PUSH2 0x61 PUSH2 0xD7 JUMP JUMPDEST STOP JUMPDEST CALLVALUE DUP1 ISZERO PUSH2 0x6E JUMPI PUSH0 DUP1 REVERT JUMPDEST POP PUSH0 SLOAD PUSH2 0x81 SWAP1 PUSH1 0x1 PUSH1 0x1 PUSH1 0xA0 SHL SUB AND DUP2 JUMP JUMPDEST PUSH1 0x40 MLOAD PUSH1 0x1 PUSH1 0x1 PUSH1 0xA0 SHL SUB SWAP1 SWAP2 AND DUP2 MSTORE PUSH1 0x20 ADD JUMPDEST PUSH1 0x40 MLOAD DUP1 SWAP2 SUB SWAP1 RETURN JUMPDEST CALLVALUE DUP1 ISZERO PUSH2 0xA9 JUMPI PUSH0 DUP1 REVERT JUMPDEST POP PUSH2 0x61 PUSH2 0xB8 CALLDATASIZE PUSH1 0x4 PUSH2 0x213 JUMP JUMPDEST PUSH2 0x178 JUMP JUMPDEST CALLVALUE DUP1 ISZERO PUSH2 0xC8 JUMPI PUSH0 DUP1 REVERT JUMPDEST POP PUSH1 0x40 MLOAD SELFBALANCE DUP2 MSTORE PUSH1 0x20 ADD PUSH2 0x95 JUMP JUMPDEST PUSH0 DUP1 SLOAD PUSH1 0x40 MLOAD SELFBALANCE SWAP3 SWAP2 PUSH1 0x1 PUSH1 0x1 PUSH1 0xA0 SHL SUB AND SWAP1 DUP4 SWAP1 DUP4 DUP2 DUP2 DUP2 DUP6 DUP8 GAS CALL SWAP3 POP POP POP RETURNDATASIZE DUP1 PUSH0 DUP2 EQ PUSH2 0x122 JUMPI PUSH1 0x40 MLOAD SWAP2 POP PUSH1 0x1F NOT PUSH1 0x3F RETURNDATASIZE ADD AND DUP3 ADD PUSH1 0x40 MSTORE RETURNDATASIZE DUP3 MSTORE RETURNDATASIZE PUSH0 PUSH1 0x20 DUP5 ADD RETURNDATACOPY PUSH2 0x127 JUMP JUMPDEST PUSH1 0x60 SWAP2 POP JUMPDEST POP POP SWAP1 POP DUP1 PUSH2 0x174 JUMPI PUSH1 0x40 MLOAD PUSH3 0x461BCD PUSH1 0xE5 SHL DUP2 MSTORE PUSH1 0x20 PUSH1 0x4 DUP3 ADD MSTORE PUSH1 0x14 PUSH1 0x24 DUP3 ADD MSTORE PUSH20 0x33B0B3B0B61036B2B733B4B934B69032BA3432B9 PUSH1 0x61 SHL PUSH1 0x44 DUP3 ADD MSTORE PUSH1 0x64 ADD JUMPDEST PUSH1 0x40 MLOAD DUP1 SWAP2 SUB SWAP1 REVERT JUMPDEST POP POP JUMP JUMPDEST PUSH0 DUP3 PUSH1 0x1 PUSH1 0x1 PUSH1 0xA0 SHL SUB AND DUP3 PUSH1 0x40 MLOAD PUSH0 PUSH1 0x40 MLOAD DUP1 DUP4 SUB DUP2 DUP6 DUP8 GAS CALL SWAP3 POP POP POP RETURNDATASIZE DUP1 PUSH0 DUP2 EQ PUSH2 0x1C1 JUMPI PUSH1 0x40 MLOAD SWAP2 POP PUSH1 0x1F NOT PUSH1 0x3F RETURNDATASIZE ADD AND DUP3 ADD PUSH1 0x40 MSTORE RETURNDATASIZE DUP3 MSTORE RETURNDATASIZE PUSH0 PUSH1 0x20 DUP5 ADD RETURNDATACOPY PUSH2 0x1C6 JUMP JUMPDEST PUSH1 0x60 SWAP2 POP JUMPDEST POP POP SWAP1 POP DUP1 PUSH2 0x20E JUMPI PUSH1 0x40 MLOAD PUSH3 0x461BCD PUSH1 0xE5 SHL DUP2 MSTORE PUSH1 0x20 PUSH1 0x4 DUP3 ADD MSTORE PUSH1 0x14 PUSH1 0x24 DUP3 ADD MSTORE PUSH20 0x33B0B3B0B61036B2B733B4B934B69032BA3432B9 PUSH1 0x61 SHL PUSH1 0x44 DUP3 ADD MSTORE PUSH1 0x64 ADD PUSH2 0x16B JUMP JUMPDEST POP POP POP JUMP JUMPDEST PUSH0 DUP1 PUSH1 0x40 DUP4 DUP6 SUB SLT ISZERO PUSH2 0x224 JUMPI PUSH0 DUP1 REVERT JUMPDEST DUP3 CALLDATALOAD PUSH1 0x1 PUSH1 0x1 PUSH1 0xA0 SHL SUB DUP2 AND DUP2 EQ PUSH2 0x23A JUMPI PUSH0 DUP1 REVERT JUMPDEST SWAP5 PUSH1 0x20 SWAP4 SWAP1 SWAP4 ADD CALLDATALOAD SWAP4 POP POP POP JUMP INVALID LOG2 PUSH5 0x6970667358 0x22 SLT KECCAK256 ISZERO RETURNDATASIZE CALLDATASIZE 0xCF 0xCD SDIV 0xFB 0xAF DIV SWAP7 0xBF PUSH32 0x5DC9EDD447AFB7490B76470FA5B8D8DDF785D14064736F6C6343000818003300 "
				},
				"gasEstimates": {
					"creation": {
						"codeDepositCost": "127600",
						"executionCost": "24379",
						"totalCost": "151979"
					},
					"external": {
						"deposit()": "139",
						"getAmount()": "244",
						"owner()": "2324",
						"transfer(address,uint256)": "infinite",
						"withdraw()": "infinite"
					}
				},
				"methodIdentifiers": {
					"deposit()": "d0e30db0",
					"getAmount()": "d321fe29",
					"owner()": "8da5cb5b",
					"transfer(address,uint256)": "a9059cbb",
					"withdraw()": "3ccfd60b"
				}
			},
			"storageLayout": {
				"storage": [
					{
						"astId": 3,
						"contract": "contracts/14_Payable.sol:Payable",
						"label": "owner",
						"offset": 0,
						"slot": "0",
						"type": "t_address_payable"
					}
				],
				"types": {
					"t_address_payable": {
						"encoding": "inplace",
						"label": "address payable",
						"numberOfBytes": "20"
					}
				}
			},
			"userdoc": {
				"kind": "user",
				"methods": {},
				"version": 1
			}
		}
	}
}