{
	"contracts/18_AbiEncode.sol": {
		"AbiEncode": {
			"abi": [
				{
					"anonymous": false,
					"inputs": [
						{
							"indexed": false,
							"internalType": "string",
							"name": "func",
							"type": "string"
						},
						{
							"indexed": false,
							"internalType": "uint256",
							"name": "gas",
							"type": "uint256"
						}
					],
					"name": "Log",
					"type": "event"
				},
				{
					"stateMutability": "payable",
					"type": "fallback"
				},
				{
					"inputs": [],
					"name": "deposite",
					"outputs": [],
					"stateMutability": "payable",
					"type": "function"
				},
				{
					"inputs": [
						{
							"internalType": "address",
							"name": "to",
							"type": "address"
						},
						{
							"internalType": "uint256",
							"name": "amount",
							"type": "uint256"
						}
					],
					"name": "encodeCall",
					"outputs": [
						{
							"internalType": "bytes",
							"name": "",
							"type": "bytes"
						}
					],
					"stateMutability": "pure",
					"type": "function"
				},
				{
					"inputs": [
						{
							"internalType": "address[]",
							"name": "to",
							"type": "address[]"
						},
						{
							"internalType": "uint256",
							"name": "amount",
							"type": "uint256"
						}
					],
					"name": "encodeWithSelector",
					"outputs": [
						{
							"internalType": "bytes",
							"name": "",
							"type": "bytes"
						}
					],
					"stateMutability": "pure",
					"type": "function"
				},
				{
					"inputs": [
						{
							"internalType": "address",
							"name": "to",
							"type": "address"
						},
						{
							"internalType": "uint256",
							"name": "amount",
							"type": "uint256"
						}
					],
					"name": "encodeWithSignature",
					"outputs": [
						{
							"internalType": "bytes",
							"name": "",
							"type": "bytes"
						}
					],
					"stateMutability": "pure",
					"type": "function"
				},
				{
					"inputs": [
						{
							"internalType": "address",
							"name": "_contract",
							"type": "address"
						},
						{
							"internalType": "string",
							"name": "data",
							"type": "string"
						}
					],
					"name": "test",
					"outputs": [],
					"stateMutability": "nonpayable",
					"type": "function"
				},
				{
					"stateMutability": "payable",
					"type": "receive"
				}
			],
			"devdoc": {
				"kind": "dev",
				"methods": {},
				"version": 1
			},
			"evm": {
				"assembly": "    /* \"contracts/18_AbiEncode.sol\":223:1342  contract AbiEncode {... */\n  mstore(0x40, 0x80)\n  callvalue\n  dup1\n  iszero\n  tag_1\n  jumpi\n  0x00\n  dup1\n  revert\ntag_1:\n  pop\n  dataSize(sub_0)\n  dup1\n  dataOffset(sub_0)\n  0x00\n  codecopy\n  0x00\n  return\nstop\n\nsub_0: assembly {\n        /* \"contracts/18_AbiEncode.sol\":223:1342  contract AbiEncode {... */\n      mstore(0x40, 0x80)\n      jumpi(tag_1, lt(calldatasize, 0x04))\n      shr(0xe0, calldataload(0x00))\n      dup1\n      0x25adff1c\n      eq\n      tag_3\n      jumpi\n      dup1\n      0x6fe1b424\n      eq\n      tag_4\n      jumpi\n      dup1\n      0x7e3b06fb\n      eq\n      tag_5\n      jumpi\n      dup1\n      0xa50ec326\n      eq\n      tag_24\n      jumpi\n      dup1\n      0xd1cc7c56\n      eq\n      tag_7\n      jumpi\n      jump(tag_2)\n    tag_1:\n      jumpi(tag_2, calldatasize)\n        /* \"contracts/18_AbiEncode.sol\":468:493  Log(\"receive\", gasleft()) */\n      0xdd970dd9b5bfe707922155b058a407655cb18288b807e2216442bca8ad83d6b5\n        /* \"contracts/18_AbiEncode.sol\":483:492  gasleft() */\n      gas\n        /* \"contracts/18_AbiEncode.sol\":468:493  Log(\"receive\", gasleft()) */\n      mload(0x40)\n      tag_10\n      swap2\n      swap1\n        /* \"#utility.yul\":244:246   */\n      0x40\n        /* \"#utility.yul\":226:247   */\n      dup1\n      dup3\n      mstore\n        /* \"#utility.yul\":283:284   */\n      0x07\n        /* \"#utility.yul\":263:281   */\n      swap1\n      dup3\n      add\n        /* \"#utility.yul\":256:285   */\n      mstore\n      shl(0xc8, 0x72656365697665)\n        /* \"#utility.yul\":316:318   */\n      0x60\n        /* \"#utility.yul\":301:319   */\n      dup3\n      add\n        /* \"#utility.yul\":294:331   */\n      mstore\n        /* \"#utility.yul\":398:402   */\n      0x20\n        /* \"#utility.yul\":383:403   */\n      dup2\n      add\n        /* \"#utility.yul\":376:412   */\n      swap2\n      swap1\n      swap2\n      mstore\n        /* \"#utility.yul\":363:366   */\n      0x80\n        /* \"#utility.yul\":348:367   */\n      add\n      swap1\n        /* \"#utility.yul\":14:418   */\n      jump\n        /* \"contracts/18_AbiEncode.sol\":468:493  Log(\"receive\", gasleft()) */\n    tag_10:\n      mload(0x40)\n      dup1\n      swap2\n      sub\n      swap1\n      log1\n        /* \"contracts/18_AbiEncode.sol\":223:1342  contract AbiEncode {... */\n      stop\n    tag_2:\n        /* \"contracts/18_AbiEncode.sol\":385:411  Log(\"fallback\", gasleft()) */\n      0xdd970dd9b5bfe707922155b058a407655cb18288b807e2216442bca8ad83d6b5\n        /* \"contracts/18_AbiEncode.sol\":401:410  gasleft() */\n      gas\n        /* \"contracts/18_AbiEncode.sol\":385:411  Log(\"fallback\", gasleft()) */\n      mload(0x40)\n      tag_10\n      swap2\n      swap1\n        /* \"#utility.yul\":653:655   */\n      0x40\n        /* \"#utility.yul\":635:656   */\n      dup1\n      dup3\n      mstore\n        /* \"#utility.yul\":692:693   */\n      0x08\n        /* \"#utility.yul\":672:690   */\n      swap1\n      dup3\n      add\n        /* \"#utility.yul\":665:694   */\n      mstore\n      shl(0xc0, 0x66616c6c6261636b)\n        /* \"#utility.yul\":725:727   */\n      0x60\n        /* \"#utility.yul\":710:728   */\n      dup3\n      add\n        /* \"#utility.yul\":703:741   */\n      mstore\n        /* \"#utility.yul\":808:812   */\n      0x20\n        /* \"#utility.yul\":793:813   */\n      dup2\n      add\n        /* \"#utility.yul\":786:822   */\n      swap2\n      swap1\n      swap2\n      mstore\n        /* \"#utility.yul\":773:776   */\n      0x80\n        /* \"#utility.yul\":758:777   */\n      add\n      swap1\n        /* \"#utility.yul\":423:828   */\n      jump\n        /* \"contracts/18_AbiEncode.sol\":1183:1339  function encodeCall(address to, uint256 amount) external pure returns (bytes memory) {... */\n    tag_3:\n      callvalue\n      dup1\n      iszero\n      tag_16\n      jumpi\n      0x00\n      dup1\n      revert\n    tag_16:\n      pop\n      tag_17\n      tag_18\n      calldatasize\n      0x04\n      tag_19\n      jump\t// in\n    tag_18:\n        /* \"contracts/18_AbiEncode.sol\":1286:1331  abi.encodeCall(IERC20.transfer, (to, amount)) */\n      mload(0x40)\n      sub(shl(0xa0, 0x01), 0x01)\n        /* \"#utility.yul\":4012:4044   */\n      dup4\n      and\n        /* \"contracts/18_AbiEncode.sol\":1286:1331  abi.encodeCall(IERC20.transfer, (to, amount)) */\n      0x24\n      dup3\n      add\n        /* \"#utility.yul\":3994:4045   */\n      mstore\n        /* \"#utility.yul\":4061:4079   */\n      0x44\n      dup2\n      add\n        /* \"#utility.yul\":4054:4088   */\n      dup3\n      swap1\n      mstore\n        /* \"contracts/18_AbiEncode.sol\":1254:1266  bytes memory */\n      0x60\n      swap1\n        /* \"#utility.yul\":3967:3985   */\n      0x64\n      add\n        /* \"contracts/18_AbiEncode.sol\":1286:1331  abi.encodeCall(IERC20.transfer, (to, amount)) */\n      0x40\n      dup1\n      mload\n      not(0x1f)\n      dup2\n      dup5\n      sub\n      add\n      dup2\n      mstore\n      swap2\n      swap1\n      mstore\n      0x20\n      dup2\n      add\n      dup1\n      mload\n      sub(shl(0xe0, 0x01), 0x01)\n      and\n      shl(0xe0, 0xa9059cbb)\n      or\n      swap1\n      mstore\n      swap1\n      pop\n        /* \"contracts/18_AbiEncode.sol\":1183:1339  function encodeCall(address to, uint256 amount) external pure returns (bytes memory) {... */\n      swap3\n      swap2\n      pop\n      pop\n      jump\n    tag_17:\n      mload(0x40)\n      tag_21\n      swap2\n      swap1\n      tag_22\n      jump\t// in\n    tag_21:\n      mload(0x40)\n      dup1\n      swap2\n      sub\n      swap1\n      return\n        /* \"contracts/18_AbiEncode.sol\":509:670  function test(address _contract, string calldata data) external  {... */\n    tag_4:\n      callvalue\n      dup1\n      iszero\n      tag_23\n      jumpi\n      0x00\n      dup1\n      revert\n    tag_23:\n      pop\n      tag_24\n      tag_25\n      calldatasize\n      0x04\n      tag_26\n      jump\t// in\n    tag_25:\n      tag_27\n      jump\t// in\n    tag_24:\n      stop\n        /* \"contracts/18_AbiEncode.sol\":678:862  function encodeWithSignature(address to, uint256 amount) external pure returns (bytes memory) {... */\n    tag_5:\n      callvalue\n      dup1\n      iszero\n      tag_28\n      jumpi\n      0x00\n      dup1\n      revert\n    tag_28:\n      pop\n      tag_17\n      tag_30\n      calldatasize\n      0x04\n      tag_19\n      jump\t// in\n    tag_30:\n        /* \"contracts/18_AbiEncode.sol\":790:854  abi.encodeWithSignature(\"transfer(address, uint256\", to, amount) */\n      mload(0x40)\n      sub(shl(0xa0, 0x01), 0x01)\n        /* \"#utility.yul\":4012:4044   */\n      dup4\n      and\n        /* \"contracts/18_AbiEncode.sol\":790:854  abi.encodeWithSignature(\"transfer(address, uint256\", to, amount) */\n      0x24\n      dup3\n      add\n        /* \"#utility.yul\":3994:4045   */\n      mstore\n        /* \"#utility.yul\":4061:4079   */\n      0x44\n      dup2\n      add\n        /* \"#utility.yul\":4054:4088   */\n      dup3\n      swap1\n      mstore\n        /* \"contracts/18_AbiEncode.sol\":758:770  bytes memory */\n      0x60\n      swap1\n        /* \"#utility.yul\":3967:3985   */\n      0x64\n      add\n        /* \"contracts/18_AbiEncode.sol\":790:854  abi.encodeWithSignature(\"transfer(address, uint256\", to, amount) */\n      0x40\n      dup1\n      mload\n      not(0x1f)\n      dup2\n      dup5\n      sub\n      add\n      dup2\n      mstore\n      swap2\n      swap1\n      mstore\n      0x20\n      dup2\n      add\n      dup1\n      mload\n      sub(shl(0xe0, 0x01), 0x01)\n      and\n      shl(0xe0, 0x543f0891)\n      or\n      swap1\n      mstore\n      swap1\n      pop\n        /* \"contracts/18_AbiEncode.sol\":678:862  function encodeWithSignature(address to, uint256 amount) external pure returns (bytes memory) {... */\n      swap3\n      swap2\n      pop\n      pop\n      jump\n        /* \"contracts/18_AbiEncode.sol\":870:1175  function encodeWithSelector(address[] memory to, uint256 amount) external pure returns (bytes memory){... */\n    tag_7:\n      callvalue\n      dup1\n      iszero\n      tag_35\n      jumpi\n      0x00\n      dup1\n      revert\n    tag_35:\n      pop\n      tag_17\n      tag_37\n      calldatasize\n      0x04\n      tag_38\n      jump\t// in\n    tag_37:\n      tag_39\n      jump\t// in\n        /* \"contracts/18_AbiEncode.sol\":509:670  function test(address _contract, string calldata data) external  {... */\n    tag_27:\n        /* \"contracts/18_AbiEncode.sol\":586:593  bool ok */\n      0x00\n        /* \"contracts/18_AbiEncode.sol\":598:607  _contract */\n      dup4\n      sub(shl(0xa0, 0x01), 0x01)\n        /* \"contracts/18_AbiEncode.sol\":598:612  _contract.call */\n      and\n        /* \"contracts/18_AbiEncode.sol\":619:623  data */\n      dup4\n      dup4\n        /* \"contracts/18_AbiEncode.sol\":598:625  _contract.call(bytes(data)) */\n      mload(0x40)\n      tag_45\n      swap3\n      swap2\n      swap1\n      tag_46\n      jump\t// in\n    tag_45:\n      0x00\n      mload(0x40)\n      dup1\n      dup4\n      sub\n      dup2\n      0x00\n      dup7\n      gas\n      call\n      swap2\n      pop\n      pop\n      returndatasize\n      dup1\n      0x00\n      dup2\n      eq\n      tag_49\n      jumpi\n      mload(0x40)\n      swap2\n      pop\n      and(add(returndatasize, 0x3f), not(0x1f))\n      dup3\n      add\n      0x40\n      mstore\n      returndatasize\n      dup3\n      mstore\n      returndatasize\n      0x00\n      0x20\n      dup5\n      add\n      returndatacopy\n      jump(tag_48)\n    tag_49:\n      0x60\n      swap2\n      pop\n    tag_48:\n      pop\n        /* \"contracts/18_AbiEncode.sol\":585:625  (bool ok,) = _contract.call(bytes(data)) */\n      pop\n      swap1\n      pop\n        /* \"contracts/18_AbiEncode.sol\":644:646  ok */\n      dup1\n        /* \"contracts/18_AbiEncode.sol\":636:662  require(ok, \"call failed\") */\n      tag_50\n      jumpi\n      mload(0x40)\n      shl(0xe5, 0x461bcd)\n      dup2\n      mstore\n        /* \"#utility.yul\":4577:4579   */\n      0x20\n        /* \"contracts/18_AbiEncode.sol\":636:662  require(ok, \"call failed\") */\n      0x04\n      dup3\n      add\n        /* \"#utility.yul\":4559:4580   */\n      mstore\n        /* \"#utility.yul\":4616:4618   */\n      0x0b\n        /* \"#utility.yul\":4596:4614   */\n      0x24\n      dup3\n      add\n        /* \"#utility.yul\":4589:4619   */\n      mstore\n      shl(0xaa, 0x18d85b1b0819985a5b1959)\n        /* \"#utility.yul\":4635:4653   */\n      0x44\n      dup3\n      add\n        /* \"#utility.yul\":4628:4669   */\n      mstore\n        /* \"#utility.yul\":4686:4704   */\n      0x64\n      add\n        /* \"contracts/18_AbiEncode.sol\":636:662  require(ok, \"call failed\") */\n      mload(0x40)\n      dup1\n      swap2\n      sub\n      swap1\n      revert\n    tag_50:\n        /* \"contracts/18_AbiEncode.sol\":574:670  {... */\n      pop\n        /* \"contracts/18_AbiEncode.sol\":509:670  function test(address _contract, string calldata data) external  {... */\n      pop\n      pop\n      pop\n      jump\t// out\n        /* \"contracts/18_AbiEncode.sol\":870:1175  function encodeWithSelector(address[] memory to, uint256 amount) external pure returns (bytes memory){... */\n    tag_39:\n        /* \"contracts/18_AbiEncode.sol\":958:970  bytes memory */\n      0x60\n        /* \"contracts/18_AbiEncode.sol\":982:1001  bytes memory result */\n      dup1\n        /* \"contracts/18_AbiEncode.sol\":1017:1023  uint i */\n      0x00\n        /* \"contracts/18_AbiEncode.sol\":1012:1144  for (uint i = 0; i < to.length; i++){... */\n    tag_57:\n        /* \"contracts/18_AbiEncode.sol\":1033:1035  to */\n      dup5\n        /* \"contracts/18_AbiEncode.sol\":1033:1042  to.length */\n      mload\n        /* \"contracts/18_AbiEncode.sol\":1029:1030  i */\n      dup2\n        /* \"contracts/18_AbiEncode.sol\":1029:1042  i < to.length */\n      lt\n        /* \"contracts/18_AbiEncode.sol\":1012:1144  for (uint i = 0; i < to.length; i++){... */\n      iszero\n      tag_58\n      jumpi\n        /* \"contracts/18_AbiEncode.sol\":1072:1132  abi.encodeWithSelector(IERC20.transfer.selector, to, amount) */\n      mload(0x40)\n      shl(0xe0, 0xa9059cbb)\n        /* \"contracts/18_AbiEncode.sol\":1095:1119  IERC20.transfer.selector */\n      swap1\n        /* \"contracts/18_AbiEncode.sol\":1072:1132  abi.encodeWithSelector(IERC20.transfer.selector, to, amount) */\n      tag_60\n      swap1\n        /* \"contracts/18_AbiEncode.sol\":1121:1123  to */\n      dup8\n      swap1\n        /* \"contracts/18_AbiEncode.sol\":1125:1131  amount */\n      dup8\n      swap1\n        /* \"contracts/18_AbiEncode.sol\":1072:1132  abi.encodeWithSelector(IERC20.transfer.selector, to, amount) */\n      0x24\n      add\n      tag_61\n      jump\t// in\n    tag_60:\n      0x40\n      dup1\n      mload\n      not(0x1f)\n      dup2\n      dup5\n      sub\n      add\n      dup2\n      mstore\n      swap2\n      swap1\n      mstore\n      0x20\n      dup2\n      add\n      dup1\n      mload\n      sub(shl(0xe0, 0x01), 0x01)\n      and\n      not(sub(shl(0xe0, 0x01), 0x01))\n      swap1\n      swap4\n      and\n      swap3\n      swap1\n      swap3\n      or\n      swap1\n      swap2\n      mstore\n      swap2\n      pop\n        /* \"contracts/18_AbiEncode.sol\":1044:1047  i++ */\n      0x01\n      add\n        /* \"contracts/18_AbiEncode.sol\":1012:1144  for (uint i = 0; i < to.length; i++){... */\n      jump(tag_57)\n    tag_58:\n      pop\n        /* \"contracts/18_AbiEncode.sol\":1161:1167  result */\n      swap4\n        /* \"contracts/18_AbiEncode.sol\":870:1175  function encodeWithSelector(address[] memory to, uint256 amount) external pure returns (bytes memory){... */\n      swap3\n      pop\n      pop\n      pop\n      jump\t// out\n        /* \"#utility.yul\":833:1006   */\n    tag_62:\n        /* \"#utility.yul\":901:921   */\n      dup1\n      calldataload\n      sub(shl(0xa0, 0x01), 0x01)\n        /* \"#utility.yul\":950:981   */\n      dup2\n      and\n        /* \"#utility.yul\":940:982   */\n      dup2\n      eq\n        /* \"#utility.yul\":930:1000   */\n      tag_68\n      jumpi\n        /* \"#utility.yul\":996:997   */\n      0x00\n        /* \"#utility.yul\":993:994   */\n      dup1\n        /* \"#utility.yul\":986:998   */\n      revert\n        /* \"#utility.yul\":930:1000   */\n    tag_68:\n        /* \"#utility.yul\":833:1006   */\n      swap2\n      swap1\n      pop\n      jump\t// out\n        /* \"#utility.yul\":1011:1265   */\n    tag_19:\n        /* \"#utility.yul\":1079:1085   */\n      0x00\n        /* \"#utility.yul\":1087:1093   */\n      dup1\n        /* \"#utility.yul\":1140:1142   */\n      0x40\n        /* \"#utility.yul\":1128:1137   */\n      dup4\n        /* \"#utility.yul\":1119:1126   */\n      dup6\n        /* \"#utility.yul\":1115:1138   */\n      sub\n        /* \"#utility.yul\":1111:1143   */\n      slt\n        /* \"#utility.yul\":1108:1160   */\n      iszero\n      tag_70\n      jumpi\n        /* \"#utility.yul\":1156:1157   */\n      0x00\n        /* \"#utility.yul\":1153:1154   */\n      dup1\n        /* \"#utility.yul\":1146:1158   */\n      revert\n        /* \"#utility.yul\":1108:1160   */\n    tag_70:\n        /* \"#utility.yul\":1179:1208   */\n      tag_71\n        /* \"#utility.yul\":1198:1207   */\n      dup4\n        /* \"#utility.yul\":1179:1208   */\n      tag_62\n      jump\t// in\n    tag_71:\n        /* \"#utility.yul\":1169:1208   */\n      swap5\n        /* \"#utility.yul\":1255:1257   */\n      0x20\n        /* \"#utility.yul\":1240:1258   */\n      swap4\n      swap1\n      swap4\n      add\n        /* \"#utility.yul\":1227:1259   */\n      calldataload\n      swap4\n      pop\n      pop\n      pop\n        /* \"#utility.yul\":1011:1265   */\n      jump\t// out\n        /* \"#utility.yul\":1270:1816   */\n    tag_22:\n        /* \"#utility.yul\":1380:1384   */\n      0x00\n        /* \"#utility.yul\":1409:1411   */\n      0x20\n        /* \"#utility.yul\":1438:1440   */\n      dup1\n        /* \"#utility.yul\":1427:1436   */\n      dup4\n        /* \"#utility.yul\":1420:1441   */\n      mstore\n        /* \"#utility.yul\":1470:1476   */\n      dup4\n        /* \"#utility.yul\":1464:1477   */\n      mload\n        /* \"#utility.yul\":1513:1519   */\n      dup1\n        /* \"#utility.yul\":1508:1510   */\n      0x20\n        /* \"#utility.yul\":1497:1506   */\n      dup6\n        /* \"#utility.yul\":1493:1511   */\n      add\n        /* \"#utility.yul\":1486:1520   */\n      mstore\n        /* \"#utility.yul\":1538:1539   */\n      0x00\n        /* \"#utility.yul\":1548:1688   */\n    tag_73:\n        /* \"#utility.yul\":1562:1568   */\n      dup2\n        /* \"#utility.yul\":1559:1560   */\n      dup2\n        /* \"#utility.yul\":1556:1569   */\n      lt\n        /* \"#utility.yul\":1548:1688   */\n      iszero\n      tag_75\n      jumpi\n        /* \"#utility.yul\":1657:1671   */\n      dup6\n      dup2\n      add\n        /* \"#utility.yul\":1653:1676   */\n      dup4\n      add\n        /* \"#utility.yul\":1647:1677   */\n      mload\n        /* \"#utility.yul\":1623:1640   */\n      dup6\n      dup3\n      add\n        /* \"#utility.yul\":1642:1644   */\n      0x40\n        /* \"#utility.yul\":1619:1645   */\n      add\n        /* \"#utility.yul\":1612:1678   */\n      mstore\n        /* \"#utility.yul\":1577:1587   */\n      dup3\n      add\n        /* \"#utility.yul\":1548:1688   */\n      jump(tag_73)\n    tag_75:\n        /* \"#utility.yul\":1552:1555   */\n      pop\n        /* \"#utility.yul\":1737:1738   */\n      0x00\n        /* \"#utility.yul\":1732:1734   */\n      0x40\n        /* \"#utility.yul\":1723:1729   */\n      dup3\n        /* \"#utility.yul\":1712:1721   */\n      dup7\n        /* \"#utility.yul\":1708:1730   */\n      add\n        /* \"#utility.yul\":1704:1735   */\n      add\n        /* \"#utility.yul\":1697:1739   */\n      mstore\n        /* \"#utility.yul\":1807:1809   */\n      0x40\n        /* \"#utility.yul\":1800:1802   */\n      0x1f\n        /* \"#utility.yul\":1796:1803   */\n      not\n        /* \"#utility.yul\":1791:1793   */\n      0x1f\n        /* \"#utility.yul\":1783:1789   */\n      dup4\n        /* \"#utility.yul\":1779:1794   */\n      add\n        /* \"#utility.yul\":1775:1804   */\n      and\n        /* \"#utility.yul\":1764:1773   */\n      dup6\n        /* \"#utility.yul\":1760:1805   */\n      add\n        /* \"#utility.yul\":1756:1810   */\n      add\n        /* \"#utility.yul\":1748:1810   */\n      swap3\n      pop\n      pop\n      pop\n        /* \"#utility.yul\":1270:1816   */\n      swap3\n      swap2\n      pop\n      pop\n      jump\t// out\n        /* \"#utility.yul\":1821:2487   */\n    tag_26:\n        /* \"#utility.yul\":1901:1907   */\n      0x00\n        /* \"#utility.yul\":1909:1915   */\n      dup1\n        /* \"#utility.yul\":1917:1923   */\n      0x00\n        /* \"#utility.yul\":1970:1972   */\n      0x40\n        /* \"#utility.yul\":1958:1967   */\n      dup5\n        /* \"#utility.yul\":1949:1956   */\n      dup7\n        /* \"#utility.yul\":1945:1968   */\n      sub\n        /* \"#utility.yul\":1941:1973   */\n      slt\n        /* \"#utility.yul\":1938:1990   */\n      iszero\n      tag_77\n      jumpi\n        /* \"#utility.yul\":1986:1987   */\n      0x00\n        /* \"#utility.yul\":1983:1984   */\n      dup1\n        /* \"#utility.yul\":1976:1988   */\n      revert\n        /* \"#utility.yul\":1938:1990   */\n    tag_77:\n        /* \"#utility.yul\":2009:2038   */\n      tag_78\n        /* \"#utility.yul\":2028:2037   */\n      dup5\n        /* \"#utility.yul\":2009:2038   */\n      tag_62\n      jump\t// in\n    tag_78:\n        /* \"#utility.yul\":1999:2038   */\n      swap3\n      pop\n        /* \"#utility.yul\":2089:2091   */\n      0x20\n        /* \"#utility.yul\":2078:2087   */\n      dup5\n        /* \"#utility.yul\":2074:2092   */\n      add\n        /* \"#utility.yul\":2061:2093   */\n      calldataload\n        /* \"#utility.yul\":2112:2130   */\n      0xffffffffffffffff\n        /* \"#utility.yul\":2153:2155   */\n      dup1\n        /* \"#utility.yul\":2145:2151   */\n      dup3\n        /* \"#utility.yul\":2142:2156   */\n      gt\n        /* \"#utility.yul\":2139:2173   */\n      iszero\n      tag_79\n      jumpi\n        /* \"#utility.yul\":2169:2170   */\n      0x00\n        /* \"#utility.yul\":2166:2167   */\n      dup1\n        /* \"#utility.yul\":2159:2171   */\n      revert\n        /* \"#utility.yul\":2139:2173   */\n    tag_79:\n        /* \"#utility.yul\":2207:2213   */\n      dup2\n        /* \"#utility.yul\":2196:2205   */\n      dup7\n        /* \"#utility.yul\":2192:2214   */\n      add\n        /* \"#utility.yul\":2182:2214   */\n      swap2\n      pop\n        /* \"#utility.yul\":2252:2259   */\n      dup7\n        /* \"#utility.yul\":2245:2249   */\n      0x1f\n        /* \"#utility.yul\":2241:2243   */\n      dup4\n        /* \"#utility.yul\":2237:2250   */\n      add\n        /* \"#utility.yul\":2233:2260   */\n      slt\n        /* \"#utility.yul\":2223:2278   */\n      tag_80\n      jumpi\n        /* \"#utility.yul\":2274:2275   */\n      0x00\n        /* \"#utility.yul\":2271:2272   */\n      dup1\n        /* \"#utility.yul\":2264:2276   */\n      revert\n        /* \"#utility.yul\":2223:2278   */\n    tag_80:\n        /* \"#utility.yul\":2314:2316   */\n      dup2\n        /* \"#utility.yul\":2301:2317   */\n      calldataload\n        /* \"#utility.yul\":2340:2342   */\n      dup2\n        /* \"#utility.yul\":2332:2338   */\n      dup2\n        /* \"#utility.yul\":2329:2343   */\n      gt\n        /* \"#utility.yul\":2326:2360   */\n      iszero\n      tag_81\n      jumpi\n        /* \"#utility.yul\":2356:2357   */\n      0x00\n        /* \"#utility.yul\":2353:2354   */\n      dup1\n        /* \"#utility.yul\":2346:2358   */\n      revert\n        /* \"#utility.yul\":2326:2360   */\n    tag_81:\n        /* \"#utility.yul\":2401:2408   */\n      dup8\n        /* \"#utility.yul\":2396:2398   */\n      0x20\n        /* \"#utility.yul\":2387:2393   */\n      dup3\n        /* \"#utility.yul\":2383:2385   */\n      dup6\n        /* \"#utility.yul\":2379:2394   */\n      add\n        /* \"#utility.yul\":2375:2399   */\n      add\n        /* \"#utility.yul\":2372:2409   */\n      gt\n        /* \"#utility.yul\":2369:2426   */\n      iszero\n      tag_82\n      jumpi\n        /* \"#utility.yul\":2422:2423   */\n      0x00\n        /* \"#utility.yul\":2419:2420   */\n      dup1\n        /* \"#utility.yul\":2412:2424   */\n      revert\n        /* \"#utility.yul\":2369:2426   */\n    tag_82:\n        /* \"#utility.yul\":2453:2455   */\n      0x20\n        /* \"#utility.yul\":2449:2451   */\n      dup4\n        /* \"#utility.yul\":2445:2456   */\n      add\n        /* \"#utility.yul\":2435:2456   */\n      swap5\n      pop\n        /* \"#utility.yul\":2475:2481   */\n      dup1\n        /* \"#utility.yul\":2465:2481   */\n      swap4\n      pop\n      pop\n      pop\n      pop\n        /* \"#utility.yul\":1821:2487   */\n      swap3\n      pop\n      swap3\n      pop\n      swap3\n      jump\t// out\n        /* \"#utility.yul\":2492:2619   */\n    tag_63:\n        /* \"#utility.yul\":2553:2563   */\n      0x4e487b71\n        /* \"#utility.yul\":2548:2551   */\n      0xe0\n        /* \"#utility.yul\":2544:2564   */\n      shl\n        /* \"#utility.yul\":2541:2542   */\n      0x00\n        /* \"#utility.yul\":2534:2565   */\n      mstore\n        /* \"#utility.yul\":2584:2588   */\n      0x41\n        /* \"#utility.yul\":2581:2582   */\n      0x04\n        /* \"#utility.yul\":2574:2589   */\n      mstore\n        /* \"#utility.yul\":2608:2612   */\n      0x24\n        /* \"#utility.yul\":2605:2606   */\n      0x00\n        /* \"#utility.yul\":2598:2613   */\n      revert\n        /* \"#utility.yul\":2624:3815   */\n    tag_38:\n        /* \"#utility.yul\":2717:2723   */\n      0x00\n        /* \"#utility.yul\":2725:2731   */\n      dup1\n        /* \"#utility.yul\":2778:2780   */\n      0x40\n        /* \"#utility.yul\":2766:2775   */\n      dup4\n        /* \"#utility.yul\":2757:2764   */\n      dup6\n        /* \"#utility.yul\":2753:2776   */\n      sub\n        /* \"#utility.yul\":2749:2781   */\n      slt\n        /* \"#utility.yul\":2746:2798   */\n      iszero\n      tag_85\n      jumpi\n        /* \"#utility.yul\":2794:2795   */\n      0x00\n        /* \"#utility.yul\":2791:2792   */\n      dup1\n        /* \"#utility.yul\":2784:2796   */\n      revert\n        /* \"#utility.yul\":2746:2798   */\n    tag_85:\n        /* \"#utility.yul\":2834:2843   */\n      dup3\n        /* \"#utility.yul\":2821:2844   */\n      calldataload\n        /* \"#utility.yul\":2863:2881   */\n      0xffffffffffffffff\n        /* \"#utility.yul\":2904:2906   */\n      dup1\n        /* \"#utility.yul\":2896:2902   */\n      dup3\n        /* \"#utility.yul\":2893:2907   */\n      gt\n        /* \"#utility.yul\":2890:2924   */\n      iszero\n      tag_86\n      jumpi\n        /* \"#utility.yul\":2920:2921   */\n      0x00\n        /* \"#utility.yul\":2917:2918   */\n      dup1\n        /* \"#utility.yul\":2910:2922   */\n      revert\n        /* \"#utility.yul\":2890:2924   */\n    tag_86:\n        /* \"#utility.yul\":2958:2964   */\n      dup2\n        /* \"#utility.yul\":2947:2956   */\n      dup6\n        /* \"#utility.yul\":2943:2965   */\n      add\n        /* \"#utility.yul\":2933:2965   */\n      swap2\n      pop\n        /* \"#utility.yul\":3003:3010   */\n      dup6\n        /* \"#utility.yul\":2996:3000   */\n      0x1f\n        /* \"#utility.yul\":2992:2994   */\n      dup4\n        /* \"#utility.yul\":2988:3001   */\n      add\n        /* \"#utility.yul\":2984:3011   */\n      slt\n        /* \"#utility.yul\":2974:3029   */\n      tag_87\n      jumpi\n        /* \"#utility.yul\":3025:3026   */\n      0x00\n        /* \"#utility.yul\":3022:3023   */\n      dup1\n        /* \"#utility.yul\":3015:3027   */\n      revert\n        /* \"#utility.yul\":2974:3029   */\n    tag_87:\n        /* \"#utility.yul\":3061:3063   */\n      dup2\n        /* \"#utility.yul\":3048:3064   */\n      calldataload\n        /* \"#utility.yul\":3083:3087   */\n      0x20\n        /* \"#utility.yul\":3106:3108   */\n      dup3\n        /* \"#utility.yul\":3102:3104   */\n      dup3\n        /* \"#utility.yul\":3099:3109   */\n      gt\n        /* \"#utility.yul\":3096:3132   */\n      iszero\n      tag_89\n      jumpi\n        /* \"#utility.yul\":3112:3130   */\n      tag_89\n      tag_63\n      jump\t// in\n    tag_89:\n        /* \"#utility.yul\":3158:3160   */\n      dup2\n        /* \"#utility.yul\":3155:3156   */\n      0x05\n        /* \"#utility.yul\":3151:3161   */\n      shl\n        /* \"#utility.yul\":3190:3192   */\n      0x40\n        /* \"#utility.yul\":3184:3193   */\n      mload\n        /* \"#utility.yul\":3253:3255   */\n      0x1f\n        /* \"#utility.yul\":3249:3256   */\n      not\n        /* \"#utility.yul\":3244:3246   */\n      0x3f\n        /* \"#utility.yul\":3240:3242   */\n      dup4\n        /* \"#utility.yul\":3236:3247   */\n      add\n        /* \"#utility.yul\":3232:3257   */\n      and\n        /* \"#utility.yul\":3224:3230   */\n      dup2\n        /* \"#utility.yul\":3220:3258   */\n      add\n        /* \"#utility.yul\":3308:3314   */\n      dup2\n        /* \"#utility.yul\":3296:3306   */\n      dup2\n        /* \"#utility.yul\":3293:3315   */\n      lt\n        /* \"#utility.yul\":3288:3290   */\n      dup7\n        /* \"#utility.yul\":3276:3286   */\n      dup3\n        /* \"#utility.yul\":3273:3291   */\n      gt\n        /* \"#utility.yul\":3270:3316   */\n      or\n        /* \"#utility.yul\":3267:3339   */\n      iszero\n      tag_91\n      jumpi\n        /* \"#utility.yul\":3319:3337   */\n      tag_91\n      tag_63\n      jump\t// in\n    tag_91:\n        /* \"#utility.yul\":3355:3357   */\n      0x40\n        /* \"#utility.yul\":3348:3370   */\n      mstore\n        /* \"#utility.yul\":3405:3423   */\n      swap3\n      dup4\n      mstore\n        /* \"#utility.yul\":3439:3454   */\n      dup2\n      dup4\n      add\n      swap4\n      pop\n        /* \"#utility.yul\":3481:3492   */\n      dup5\n      dup2\n      add\n        /* \"#utility.yul\":3477:3497   */\n      dup3\n      add\n      swap3\n        /* \"#utility.yul\":3509:3528   */\n      dup10\n      dup5\n      gt\n        /* \"#utility.yul\":3506:3545   */\n      iszero\n      tag_92\n      jumpi\n        /* \"#utility.yul\":3541:3542   */\n      0x00\n        /* \"#utility.yul\":3538:3539   */\n      dup1\n        /* \"#utility.yul\":3531:3543   */\n      revert\n        /* \"#utility.yul\":3506:3545   */\n    tag_92:\n        /* \"#utility.yul\":3565:3576   */\n      swap5\n      dup3\n      add\n      swap5\n        /* \"#utility.yul\":3585:3733   */\n    tag_93:\n        /* \"#utility.yul\":3601:3607   */\n      dup4\n        /* \"#utility.yul\":3596:3599   */\n      dup7\n        /* \"#utility.yul\":3593:3608   */\n      lt\n        /* \"#utility.yul\":3585:3733   */\n      iszero\n      tag_95\n      jumpi\n        /* \"#utility.yul\":3667:3690   */\n      tag_96\n        /* \"#utility.yul\":3686:3689   */\n      dup7\n        /* \"#utility.yul\":3667:3690   */\n      tag_62\n      jump\t// in\n    tag_96:\n        /* \"#utility.yul\":3655:3691   */\n      dup6\n      mstore\n        /* \"#utility.yul\":3618:3630   */\n      swap5\n      dup3\n      add\n      swap5\n        /* \"#utility.yul\":3711:3723   */\n      swap4\n      dup3\n      add\n      swap4\n        /* \"#utility.yul\":3585:3733   */\n      jump(tag_93)\n    tag_95:\n        /* \"#utility.yul\":3752:3758   */\n      swap10\n        /* \"#utility.yul\":3790:3808   */\n      swap8\n      swap1\n      swap2\n      add\n        /* \"#utility.yul\":3777:3809   */\n      calldataload\n      swap8\n      pop\n      pop\n      pop\n      pop\n      pop\n      pop\n      pop\n        /* \"#utility.yul\":2624:3815   */\n      jump\t// out\n        /* \"#utility.yul\":4099:4370   */\n    tag_46:\n        /* \"#utility.yul\":4282:4288   */\n      dup2\n        /* \"#utility.yul\":4274:4280   */\n      dup4\n        /* \"#utility.yul\":4269:4272   */\n      dup3\n        /* \"#utility.yul\":4256:4289   */\n      calldatacopy\n        /* \"#utility.yul\":4238:4241   */\n      0x00\n        /* \"#utility.yul\":4308:4324   */\n      swap2\n      add\n        /* \"#utility.yul\":4333:4346   */\n      swap1\n      dup2\n      mstore\n        /* \"#utility.yul\":4308:4324   */\n      swap2\n        /* \"#utility.yul\":4099:4370   */\n      swap1\n      pop\n      jump\t// out\n        /* \"#utility.yul\":4715:5450   */\n    tag_61:\n        /* \"#utility.yul\":4933:4935   */\n      0x40\n        /* \"#utility.yul\":4945:4966   */\n      dup1\n      dup3\n      mstore\n        /* \"#utility.yul\":5015:5028   */\n      dup4\n      mload\n        /* \"#utility.yul\":4918:4936   */\n      swap1\n      dup3\n      add\n        /* \"#utility.yul\":5037:5059   */\n      dup2\n      swap1\n      mstore\n        /* \"#utility.yul\":4885:4889   */\n      0x00\n      swap1\n        /* \"#utility.yul\":5112:5116   */\n      0x20\n      swap1\n        /* \"#utility.yul\":5090:5092   */\n      0x60\n        /* \"#utility.yul\":5075:5093   */\n      dup5\n      add\n      swap1\n        /* \"#utility.yul\":5139:5156   */\n      dup3\n      dup8\n      add\n        /* \"#utility.yul\":4885:4889   */\n      dup5\n        /* \"#utility.yul\":5184:5379   */\n    tag_101:\n        /* \"#utility.yul\":5198:5204   */\n      dup3\n        /* \"#utility.yul\":5195:5196   */\n      dup2\n        /* \"#utility.yul\":5192:5205   */\n      lt\n        /* \"#utility.yul\":5184:5379   */\n      iszero\n      tag_103\n      jumpi\n        /* \"#utility.yul\":5263:5276   */\n      dup2\n      mload\n      sub(shl(0xa0, 0x01), 0x01)\n        /* \"#utility.yul\":5259:5298   */\n      and\n        /* \"#utility.yul\":5247:5299   */\n      dup5\n      mstore\n        /* \"#utility.yul\":5319:5331   */\n      swap3\n      dup5\n      add\n      swap3\n        /* \"#utility.yul\":5354:5369   */\n      swap1\n      dup5\n      add\n      swap1\n        /* \"#utility.yul\":5295:5296   */\n      0x01\n        /* \"#utility.yul\":5213:5222   */\n      add\n        /* \"#utility.yul\":5184:5379   */\n      jump(tag_101)\n    tag_103:\n      pop\n      pop\n      pop\n        /* \"#utility.yul\":5430:5434   */\n      0x20\n        /* \"#utility.yul\":5415:5435   */\n      swap4\n      swap1\n      swap4\n      add\n        /* \"#utility.yul\":5408:5444   */\n      swap4\n      swap1\n      swap4\n      mstore\n      pop\n        /* \"#utility.yul\":5396:5399   */\n      swap3\n        /* \"#utility.yul\":4715:5450   */\n      swap2\n      pop\n      pop\n      jump\t// out\n\n    auxdata: 0xa26469706673582212209ad22c4ba85bdc6044e03725ad20b8ababe1b9154bcab5b9192ea96d5955736864736f6c63430008180033\n}\n",
				"bytecode": {
					"linkReferences": {},
					"object": "608060405234801561000f575f80fd5b506105be8061001d5f395ff3fe60806040526004361061004d575f3560e01c806325adff1c146101035780636fe1b424146101845780637e3b06fb146101a5578063a50ec326146101a3578063d1cc7c5614610210576100af565b366100af577fdd970dd9b5bfe707922155b058a407655cb18288b807e2216442bca8ad83d6b55a6040516100a591906040808252600790820152667265636569766560c81b6060820152602081019190915260800190565b60405180910390a1005b7fdd970dd9b5bfe707922155b058a407655cb18288b807e2216442bca8ad83d6b55a6040516100a5919060408082526008908201526766616c6c6261636b60c01b6060820152602081019190915260800190565b34801561010e575f80fd5b5061016e61011d36600461035a565b6040516001600160a01b03831660248201526044810182905260609060640160408051601f198184030181529190526020810180516001600160e01b031663a9059cbb60e01b179052905092915050565b60405161017b9190610382565b60405180910390f35b34801561018f575f80fd5b506101a361019e3660046103ce565b61022f565b005b3480156101b0575f80fd5b5061016e6101bf36600461035a565b6040516001600160a01b03831660248201526044810182905260609060640160408051601f198184030181529190526020810180516001600160e01b031663543f089160e01b179052905092915050565b34801561021b575f80fd5b5061016e61022a36600461045e565b6102d1565b5f836001600160a01b0316838360405161024a929190610524565b5f604051808303815f865af19150503d805f8114610283576040519150601f19603f3d011682016040523d82523d5f602084013e610288565b606091505b50509050806102cb5760405162461bcd60e51b815260206004820152600b60248201526a18d85b1b0819985a5b195960aa1b604482015260640160405180910390fd5b50505050565b6060805f5b84518110156103375760405163a9059cbb60e01b906102fb9087908790602401610533565b60408051601f198184030181529190526020810180516001600160e01b03166001600160e01b03199093169290921790915291506001016102d6565b509392505050565b80356001600160a01b0381168114610355575f80fd5b919050565b5f806040838503121561036b575f80fd5b6103748361033f565b946020939093013593505050565b5f602080835283518060208501525f5b818110156103ae57858101830151858201604001528201610392565b505f604082860101526040601f19601f8301168501019250505092915050565b5f805f604084860312156103e0575f80fd5b6103e98461033f565b9250602084013567ffffffffffffffff80821115610405575f80fd5b818601915086601f830112610418575f80fd5b813581811115610426575f80fd5b876020828501011115610437575f80fd5b6020830194508093505050509250925092565b634e487b7160e01b5f52604160045260245ffd5b5f806040838503121561046f575f80fd5b823567ffffffffffffffff80821115610486575f80fd5b818501915085601f830112610499575f80fd5b81356020828211156104ad576104ad61044a565b8160051b604051601f19603f830116810181811086821117156104d2576104d261044a565b6040529283528183019350848101820192898411156104ef575f80fd5b948201945b83861015610514576105058661033f565b855294820194938201936104f4565b9997909101359750505050505050565b818382375f9101908152919050565b604080825283519082018190525f906020906060840190828701845b828110156105745781516001600160a01b03168452928401929084019060010161054f565b50505060209390930193909352509291505056fea26469706673582212209ad22c4ba85bdc6044e03725ad20b8ababe1b9154bcab5b9192ea96d5955736864736f6c63430008180033",
					"opcodes": "PUSH1 0x80 PUSH1 0x40 MSTORE CALLVALUE DUP1 ISZERO PUSH2 0xF JUMPI PUSH0 DUP1 REVERT JUMPDEST POP PUSH2 0x5BE DUP1 PUSH2 0x1D PUSH0 CODECOPY PUSH0 RETURN INVALID PUSH1 0x80 PUSH1 0x40 MSTORE PUSH1 0x4 CALLDATASIZE LT PUSH2 0x4D JUMPI PUSH0 CALLDATALOAD PUSH1 0xE0 SHR DUP1 PUSH4 0x25ADFF1C EQ PUSH2 0x103 JUMPI DUP1 PUSH4 0x6FE1B424 EQ PUSH2 0x184 JUMPI DUP1 PUSH4 0x7E3B06FB EQ PUSH2 0x1A5 JUMPI DUP1 PUSH4 0xA50EC326 EQ PUSH2 0x1A3 JUMPI DUP1 PUSH4 0xD1CC7C56 EQ PUSH2 0x210 JUMPI PUSH2 0xAF JUMP JUMPDEST CALLDATASIZE PUSH2 0xAF JUMPI PUSH32 0xDD970DD9B5BFE707922155B058A407655CB18288B807E2216442BCA8AD83D6B5 GAS PUSH1 0x40 MLOAD PUSH2 0xA5 SWAP2 SWAP1 PUSH1 0x40 DUP1 DUP3 MSTORE PUSH1 0x7 SWAP1 DUP3 ADD MSTORE PUSH7 0x72656365697665 PUSH1 0xC8 SHL PUSH1 0x60 DUP3 ADD MSTORE PUSH1 0x20 DUP2 ADD SWAP2 SWAP1 SWAP2 MSTORE PUSH1 0x80 ADD SWAP1 JUMP JUMPDEST PUSH1 0x40 MLOAD DUP1 SWAP2 SUB SWAP1 LOG1 STOP JUMPDEST PUSH32 0xDD970DD9B5BFE707922155B058A407655CB18288B807E2216442BCA8AD83D6B5 GAS PUSH1 0x40 MLOAD PUSH2 0xA5 SWAP2 SWAP1 PUSH1 0x40 DUP1 DUP3 MSTORE PUSH1 0x8 SWAP1 DUP3 ADD MSTORE PUSH8 0x66616C6C6261636B PUSH1 0xC0 SHL PUSH1 0x60 DUP3 ADD MSTORE PUSH1 0x20 DUP2 ADD SWAP2 SWAP1 SWAP2 MSTORE PUSH1 0x80 ADD SWAP1 JUMP JUMPDEST CALLVALUE DUP1 ISZERO PUSH2 0x10E JUMPI PUSH0 DUP1 REVERT JUMPDEST POP PUSH2 0x16E PUSH2 0x11D CALLDATASIZE PUSH1 0x4 PUSH2 0x35A JUMP JUMPDEST PUSH1 0x40 MLOAD PUSH1 0x1 PUSH1 0x1 PUSH1 0xA0 SHL SUB DUP4 AND PUSH1 0x24 DUP3 ADD MSTORE PUSH1 0x44 DUP2 ADD DUP3 SWAP1 MSTORE PUSH1 0x60 SWAP1 PUSH1 0x64 ADD PUSH1 0x40 DUP1 MLOAD PUSH1 0x1F NOT DUP2 DUP5 SUB ADD DUP2 MSTORE SWAP2 SWAP1 MSTORE PUSH1 0x20 DUP2 ADD DUP1 MLOAD PUSH1 0x1 PUSH1 0x1 PUSH1 0xE0 SHL SUB AND PUSH4 0xA9059CBB PUSH1 0xE0 SHL OR SWAP1 MSTORE SWAP1 POP SWAP3 SWAP2 POP POP JUMP JUMPDEST PUSH1 0x40 MLOAD PUSH2 0x17B SWAP2 SWAP1 PUSH2 0x382 JUMP JUMPDEST PUSH1 0x40 MLOAD DUP1 SWAP2 SUB SWAP1 RETURN JUMPDEST CALLVALUE DUP1 ISZERO PUSH2 0x18F JUMPI PUSH0 DUP1 REVERT JUMPDEST POP PUSH2 0x1A3 PUSH2 0x19E CALLDATASIZE PUSH1 0x4 PUSH2 0x3CE JUMP JUMPDEST PUSH2 0x22F JUMP JUMPDEST STOP JUMPDEST CALLVALUE DUP1 ISZERO PUSH2 0x1B0 JUMPI PUSH0 DUP1 REVERT JUMPDEST POP PUSH2 0x16E PUSH2 0x1BF CALLDATASIZE PUSH1 0x4 PUSH2 0x35A JUMP JUMPDEST PUSH1 0x40 MLOAD PUSH1 0x1 PUSH1 0x1 PUSH1 0xA0 SHL SUB DUP4 AND PUSH1 0x24 DUP3 ADD MSTORE PUSH1 0x44 DUP2 ADD DUP3 SWAP1 MSTORE PUSH1 0x60 SWAP1 PUSH1 0x64 ADD PUSH1 0x40 DUP1 MLOAD PUSH1 0x1F NOT DUP2 DUP5 SUB ADD DUP2 MSTORE SWAP2 SWAP1 MSTORE PUSH1 0x20 DUP2 ADD DUP1 MLOAD PUSH1 0x1 PUSH1 0x1 PUSH1 0xE0 SHL SUB AND PUSH4 0x543F0891 PUSH1 0xE0 SHL OR SWAP1 MSTORE SWAP1 POP SWAP3 SWAP2 POP POP JUMP JUMPDEST CALLVALUE DUP1 ISZERO PUSH2 0x21B JUMPI PUSH0 DUP1 REVERT JUMPDEST POP PUSH2 0x16E PUSH2 0x22A CALLDATASIZE PUSH1 0x4 PUSH2 0x45E JUMP JUMPDEST PUSH2 0x2D1 JUMP JUMPDEST PUSH0 DUP4 PUSH1 0x1 PUSH1 0x1 PUSH1 0xA0 SHL SUB AND DUP4 DUP4 PUSH1 0x40 MLOAD PUSH2 0x24A SWAP3 SWAP2 SWAP1 PUSH2 0x524 JUMP JUMPDEST PUSH0 PUSH1 0x40 MLOAD DUP1 DUP4 SUB DUP2 PUSH0 DUP7 GAS CALL SWAP2 POP POP RETURNDATASIZE DUP1 PUSH0 DUP2 EQ PUSH2 0x283 JUMPI PUSH1 0x40 MLOAD SWAP2 POP PUSH1 0x1F NOT PUSH1 0x3F RETURNDATASIZE ADD AND DUP3 ADD PUSH1 0x40 MSTORE RETURNDATASIZE DUP3 MSTORE RETURNDATASIZE PUSH0 PUSH1 0x20 DUP5 ADD RETURNDATACOPY PUSH2 0x288 JUMP JUMPDEST PUSH1 0x60 SWAP2 POP JUMPDEST POP POP SWAP1 POP DUP1 PUSH2 0x2CB JUMPI PUSH1 0x40 MLOAD PUSH3 0x461BCD PUSH1 0xE5 SHL DUP2 MSTORE PUSH1 0x20 PUSH1 0x4 DUP3 ADD MSTORE PUSH1 0xB PUSH1 0x24 DUP3 ADD MSTORE PUSH11 0x18D85B1B0819985A5B1959 PUSH1 0xAA SHL PUSH1 0x44 DUP3 ADD MSTORE PUSH1 0x64 ADD PUSH1 0x40 MLOAD DUP1 SWAP2 SUB SWAP1 REVERT JUMPDEST POP POP POP POP JUMP JUMPDEST PUSH1 0x60 DUP1 PUSH0 JUMPDEST DUP5 MLOAD DUP2 LT ISZERO PUSH2 0x337 JUMPI PUSH1 0x40 MLOAD PUSH4 0xA9059CBB PUSH1 0xE0 SHL SWAP1 PUSH2 0x2FB SWAP1 DUP8 SWAP1 DUP8 SWAP1 PUSH1 0x24 ADD PUSH2 0x533 JUMP JUMPDEST PUSH1 0x40 DUP1 MLOAD PUSH1 0x1F NOT DUP2 DUP5 SUB ADD DUP2 MSTORE SWAP2 SWAP1 MSTORE PUSH1 0x20 DUP2 ADD DUP1 MLOAD PUSH1 0x1 PUSH1 0x1 PUSH1 0xE0 SHL SUB AND PUSH1 0x1 PUSH1 0x1 PUSH1 0xE0 SHL SUB NOT SWAP1 SWAP4 AND SWAP3 SWAP1 SWAP3 OR SWAP1 SWAP2 MSTORE SWAP2 POP PUSH1 0x1 ADD PUSH2 0x2D6 JUMP JUMPDEST POP SWAP4 SWAP3 POP POP POP JUMP JUMPDEST DUP1 CALLDATALOAD PUSH1 0x1 PUSH1 0x1 PUSH1 0xA0 SHL SUB DUP2 AND DUP2 EQ PUSH2 0x355 JUMPI PUSH0 DUP1 REVERT JUMPDEST SWAP2 SWAP1 POP JUMP JUMPDEST PUSH0 DUP1 PUSH1 0x40 DUP4 DUP6 SUB SLT ISZERO PUSH2 0x36B JUMPI PUSH0 DUP1 REVERT JUMPDEST PUSH2 0x374 DUP4 PUSH2 0x33F JUMP JUMPDEST SWAP5 PUSH1 0x20 SWAP4 SWAP1 SWAP4 ADD CALLDATALOAD SWAP4 POP POP POP JUMP JUMPDEST PUSH0 PUSH1 0x20 DUP1 DUP4 MSTORE DUP4 MLOAD DUP1 PUSH1 0x20 DUP6 ADD MSTORE PUSH0 JUMPDEST DUP2 DUP2 LT ISZERO PUSH2 0x3AE JUMPI DUP6 DUP2 ADD DUP4 ADD MLOAD DUP6 DUP3 ADD PUSH1 0x40 ADD MSTORE DUP3 ADD PUSH2 0x392 JUMP JUMPDEST POP PUSH0 PUSH1 0x40 DUP3 DUP7 ADD ADD MSTORE PUSH1 0x40 PUSH1 0x1F NOT PUSH1 0x1F DUP4 ADD AND DUP6 ADD ADD SWAP3 POP POP POP SWAP3 SWAP2 POP POP JUMP JUMPDEST PUSH0 DUP1 PUSH0 PUSH1 0x40 DUP5 DUP7 SUB SLT ISZERO PUSH2 0x3E0 JUMPI PUSH0 DUP1 REVERT JUMPDEST PUSH2 0x3E9 DUP5 PUSH2 0x33F JUMP JUMPDEST SWAP3 POP PUSH1 0x20 DUP5 ADD CALLDATALOAD PUSH8 0xFFFFFFFFFFFFFFFF DUP1 DUP3 GT ISZERO PUSH2 0x405 JUMPI PUSH0 DUP1 REVERT JUMPDEST DUP2 DUP7 ADD SWAP2 POP DUP7 PUSH1 0x1F DUP4 ADD SLT PUSH2 0x418 JUMPI PUSH0 DUP1 REVERT JUMPDEST DUP2 CALLDATALOAD DUP2 DUP2 GT ISZERO PUSH2 0x426 JUMPI PUSH0 DUP1 REVERT JUMPDEST DUP8 PUSH1 0x20 DUP3 DUP6 ADD ADD GT ISZERO PUSH2 0x437 JUMPI PUSH0 DUP1 REVERT JUMPDEST PUSH1 0x20 DUP4 ADD SWAP5 POP DUP1 SWAP4 POP POP POP POP SWAP3 POP SWAP3 POP SWAP3 JUMP JUMPDEST PUSH4 0x4E487B71 PUSH1 0xE0 SHL PUSH0 MSTORE PUSH1 0x41 PUSH1 0x4 MSTORE PUSH1 0x24 PUSH0 REVERT JUMPDEST PUSH0 DUP1 PUSH1 0x40 DUP4 DUP6 SUB SLT ISZERO PUSH2 0x46F JUMPI PUSH0 DUP1 REVERT JUMPDEST DUP3 CALLDATALOAD PUSH8 0xFFFFFFFFFFFFFFFF DUP1 DUP3 GT ISZERO PUSH2 0x486 JUMPI PUSH0 DUP1 REVERT JUMPDEST DUP2 DUP6 ADD SWAP2 POP DUP6 PUSH1 0x1F DUP4 ADD SLT PUSH2 0x499 JUMPI PUSH0 DUP1 REVERT JUMPDEST DUP2 CALLDATALOAD PUSH1 0x20 DUP3 DUP3 GT ISZERO PUSH2 0x4AD JUMPI PUSH2 0x4AD PUSH2 0x44A JUMP JUMPDEST DUP2 PUSH1 0x5 SHL PUSH1 0x40 MLOAD PUSH1 0x1F NOT PUSH1 0x3F DUP4 ADD AND DUP2 ADD DUP2 DUP2 LT DUP7 DUP3 GT OR ISZERO PUSH2 0x4D2 JUMPI PUSH2 0x4D2 PUSH2 0x44A JUMP JUMPDEST PUSH1 0x40 MSTORE SWAP3 DUP4 MSTORE DUP2 DUP4 ADD SWAP4 POP DUP5 DUP2 ADD DUP3 ADD SWAP3 DUP10 DUP5 GT ISZERO PUSH2 0x4EF JUMPI PUSH0 DUP1 REVERT JUMPDEST SWAP5 DUP3 ADD SWAP5 JUMPDEST DUP4 DUP7 LT ISZERO PUSH2 0x514 JUMPI PUSH2 0x505 DUP7 PUSH2 0x33F JUMP JUMPDEST DUP6 MSTORE SWAP5 DUP3 ADD SWAP5 SWAP4 DUP3 ADD SWAP4 PUSH2 0x4F4 JUMP JUMPDEST SWAP10 SWAP8 SWAP1 SWAP2 ADD CALLDATALOAD SWAP8 POP POP POP POP POP POP POP JUMP JUMPDEST DUP2 DUP4 DUP3 CALLDATACOPY PUSH0 SWAP2 ADD SWAP1 DUP2 MSTORE SWAP2 SWAP1 POP JUMP JUMPDEST PUSH1 0x40 DUP1 DUP3 MSTORE DUP4 MLOAD SWAP1 DUP3 ADD DUP2 SWAP1 MSTORE PUSH0 SWAP1 PUSH1 0x20 SWAP1 PUSH1 0x60 DUP5 ADD SWAP1 DUP3 DUP8 ADD DUP5 JUMPDEST DUP3 DUP2 LT ISZERO PUSH2 0x574 JUMPI DUP2 MLOAD PUSH1 0x1 PUSH1 0x1 PUSH1 0xA0 SHL SUB AND DUP5 MSTORE SWAP3 DUP5 ADD SWAP3 SWAP1 DUP5 ADD SWAP1 PUSH1 0x1 ADD PUSH2 0x54F JUMP JUMPDEST POP POP POP PUSH1 0x20 SWAP4 SWAP1 SWAP4 ADD SWAP4 SWAP1 SWAP4 MSTORE POP SWAP3 SWAP2 POP POP JUMP INVALID LOG2 PUSH5 0x6970667358 0x22 SLT KECCAK256 SWAP11 0xD2 0x2C 0x4B 0xA8 JUMPDEST 0xDC PUSH1 0x44 0xE0 CALLDATACOPY 0x25 0xAD KECCAK256 0xB8 0xAB 0xAB 0xE1 0xB9 ISZERO 0x4B 0xCA 0xB5 0xB9 NOT 0x2E 0xA9 PUSH14 0x5955736864736F6C634300081800 CALLER "
				},
				"gasEstimates": {
					"creation": {
						"codeDepositCost": "294000",
						"executionCost": "329",
						"totalCost": "294329"
					},
					"external": {
						"": "2086",
						"deposite()": "139",
						"encodeCall(address,uint256)": "infinite",
						"encodeWithSelector(address[],uint256)": "infinite",
						"encodeWithSignature(address,uint256)": "infinite",
						"test(address,string)": "infinite"
					}
				},
				"methodIdentifiers": {
					"deposite()": "a50ec326",
					"encodeCall(address,uint256)": "25adff1c",
					"encodeWithSelector(address[],uint256)": "d1cc7c56",
					"encodeWithSignature(address,uint256)": "7e3b06fb",
					"test(address,string)": "6fe1b424"
				}
			},
			"storageLayout": {
				"storage": [],
				"types": null
			},
			"userdoc": {
				"kind": "user",
				"methods": {},
				"version": 1
			}
		}
	}
}