{
	"contracts/9_Contract.sol": {
		"External": {
			"abi": [
				{
					"inputs": [],
					"name": "getDataExternal",
					"outputs": [
						{
							"internalType": "uint256",
							"name": "",
							"type": "uint256"
						}
					],
					"stateMutability": "view",
					"type": "function"
				},
				{
					"inputs": [],
					"name": "redDataParent",
					"outputs": [
						{
							"internalType": "uint256",
							"name": "",
							"type": "uint256"
						}
					],
					"stateMutability": "nonpayable",
					"type": "function"
				}
			],
			"devdoc": {
				"kind": "dev",
				"methods": {},
				"version": 1
			},
			"evm": {
				"assembly": "    /* \"contracts/9_Contract.sol\":1250:1525  contract External {... */\n  mstore(0x40, 0x80)\n    /* \"contracts/9_Contract.sol\":1291:1303  new Parent() */\n  mload(0x40)\n  tag_1\n  swap1\n  tag_2\n  jump\t// in\ntag_1:\n  mload(0x40)\n  dup1\n  swap2\n  sub\n  swap1\n  0x00\n  create\n  dup1\n  iszero\n  dup1\n  iszero\n  tag_3\n  jumpi\n  returndatasize\n  0x00\n  dup1\n  returndatacopy\n  revert(0x00, returndatasize)\ntag_3:\n  pop\n    /* \"contracts/9_Contract.sol\":1275:1303  Parent extrnl = new Parent() */\n  0x00\n  dup1\n  sload\n  not(sub(shl(0xa0, 0x01), 0x01))\n  and\n  sub(shl(0xa0, 0x01), 0x01)\n  swap3\n  swap1\n  swap3\n  and\n  swap2\n  swap1\n  swap2\n  or\n  swap1\n  sstore\n    /* \"contracts/9_Contract.sol\":1250:1525  contract External {... */\n  callvalue\n  dup1\n  iszero\n  tag_4\n  jumpi\n  0x00\n  dup1\n  revert\ntag_4:\n  pop\n  jump(tag_5)\ntag_2:\n  dataSize(sub_1)\n  dup1\n  dataOffset(sub_1)\n  dup4\n  codecopy\n  add\n  swap1\n  jump\t// out\ntag_5:\n  dataSize(sub_0)\n  dup1\n  dataOffset(sub_0)\n  0x00\n  codecopy\n  0x00\n  return\nstop\n\nsub_0: assembly {\n        /* \"contracts/9_Contract.sol\":1250:1525  contract External {... */\n      mstore(0x40, 0x80)\n      callvalue\n      dup1\n      iszero\n      tag_1\n      jumpi\n      0x00\n      dup1\n      revert\n    tag_1:\n      pop\n      jumpi(tag_2, lt(calldatasize, 0x04))\n      shr(0xe0, calldataload(0x00))\n      dup1\n      0x84b8b3\n      eq\n      tag_3\n      jumpi\n      dup1\n      0x5af3aaa6\n      eq\n      tag_4\n      jumpi\n    tag_2:\n      0x00\n      dup1\n      revert\n        /* \"contracts/9_Contract.sol\":1413:1522  function getDataExternal() public view returns (uint) {... */\n    tag_3:\n      tag_5\n      tag_6\n      jump\t// in\n    tag_5:\n      mload(0x40)\n        /* \"#utility.yul\":160:185   */\n      swap1\n      dup2\n      mstore\n        /* \"#utility.yul\":148:150   */\n      0x20\n        /* \"#utility.yul\":133:151   */\n      add\n        /* \"contracts/9_Contract.sol\":1413:1522  function getDataExternal() public view returns (uint) {... */\n      mload(0x40)\n      dup1\n      swap2\n      sub\n      swap1\n      return\n        /* \"contracts/9_Contract.sol\":1310:1405  function redDataParent() public returns (uint) {... */\n    tag_4:\n      tag_5\n      tag_10\n      jump\t// in\n        /* \"contracts/9_Contract.sol\":1413:1522  function getDataExternal() public view returns (uint) {... */\n    tag_6:\n        /* \"contracts/9_Contract.sol\":1461:1465  uint */\n      0x00\n        /* \"contracts/9_Contract.sol\":1485:1491  extrnl */\n      dup1\n      sload\n        /* \"contracts/9_Contract.sol\":1485:1514  extrnl.setDataExternal(20,40) */\n      mload(0x40)\n      shl(0xe0, 0x541a6ddd)\n      dup2\n      mstore\n        /* \"contracts/9_Contract.sol\":1508:1510  20 */\n      0x14\n        /* \"contracts/9_Contract.sol\":1485:1514  extrnl.setDataExternal(20,40) */\n      0x04\n      dup3\n      add\n        /* \"#utility.yul\":388:413   */\n      mstore\n        /* \"contracts/9_Contract.sol\":1511:1513  40 */\n      0x28\n        /* \"#utility.yul\":429:447   */\n      0x24\n      dup3\n      add\n        /* \"#utility.yul\":422:456   */\n      mstore\n      sub(shl(0xa0, 0x01), 0x01)\n        /* \"contracts/9_Contract.sol\":1485:1491  extrnl */\n      swap1\n      swap2\n      and\n      swap1\n        /* \"contracts/9_Contract.sol\":1485:1507  extrnl.setDataExternal */\n      0x541a6ddd\n      swap1\n        /* \"#utility.yul\":361:379   */\n      0x44\n      add\n        /* \"contracts/9_Contract.sol\":1485:1514  extrnl.setDataExternal(20,40) */\n      0x20\n      mload(0x40)\n      dup1\n      dup4\n      sub\n      dup2\n      dup7\n      gas\n      staticcall\n      iszero\n      dup1\n      iszero\n      tag_16\n      jumpi\n      returndatasize\n      0x00\n      dup1\n      returndatacopy\n      revert(0x00, returndatasize)\n    tag_16:\n      pop\n      pop\n      pop\n      pop\n      mload(0x40)\n      returndatasize\n      not(0x1f)\n      0x1f\n      dup3\n      add\n      and\n      dup3\n      add\n      dup1\n      0x40\n      mstore\n      pop\n      dup2\n      add\n      swap1\n      tag_17\n      swap2\n      swap1\n      tag_18\n      jump\t// in\n    tag_17:\n        /* \"contracts/9_Contract.sol\":1478:1514  return extrnl.setDataExternal(20,40) */\n      swap1\n      pop\n        /* \"contracts/9_Contract.sol\":1413:1522  function getDataExternal() public view returns (uint) {... */\n      swap1\n      jump\t// out\n        /* \"contracts/9_Contract.sol\":1310:1405  function redDataParent() public returns (uint) {... */\n    tag_10:\n        /* \"contracts/9_Contract.sol\":1351:1355  uint */\n      0x00\n        /* \"contracts/9_Contract.sol\":1375:1381  extrnl */\n      dup1\n      0x00\n      swap1\n      sload\n      swap1\n      0x0100\n      exp\n      swap1\n      div\n      sub(shl(0xa0, 0x01), 0x01)\n      and\n      sub(shl(0xa0, 0x01), 0x01)\n        /* \"contracts/9_Contract.sol\":1375:1395  extrnl.getPublicData */\n      and\n      0xbf7ce742\n        /* \"contracts/9_Contract.sol\":1375:1397  extrnl.getPublicData() */\n      mload(0x40)\n      dup2\n      0xffffffff\n      and\n      0xe0\n      shl\n      dup2\n      mstore\n      0x04\n      add\n      0x20\n      mload(0x40)\n      dup1\n      dup4\n      sub\n      dup2\n      0x00\n      dup8\n      gas\n      call\n      iszero\n      dup1\n      iszero\n      tag_16\n      jumpi\n      returndatasize\n      0x00\n      dup1\n      returndatacopy\n      revert(0x00, returndatasize)\n        /* \"#utility.yul\":467:651   */\n    tag_18:\n        /* \"#utility.yul\":537:543   */\n      0x00\n        /* \"#utility.yul\":590:592   */\n      0x20\n        /* \"#utility.yul\":578:587   */\n      dup3\n        /* \"#utility.yul\":569:576   */\n      dup5\n        /* \"#utility.yul\":565:588   */\n      sub\n        /* \"#utility.yul\":561:593   */\n      slt\n        /* \"#utility.yul\":558:610   */\n      iszero\n      tag_27\n      jumpi\n        /* \"#utility.yul\":606:607   */\n      0x00\n        /* \"#utility.yul\":603:604   */\n      dup1\n        /* \"#utility.yul\":596:608   */\n      revert\n        /* \"#utility.yul\":558:610   */\n    tag_27:\n      pop\n        /* \"#utility.yul\":629:645   */\n      mload\n      swap2\n        /* \"#utility.yul\":467:651   */\n      swap1\n      pop\n      jump\t// out\n\n    auxdata: 0xa26469706673582212209b3bbb203ca213ebc12170812b4a645dac00e1e72780155dca318bee9e78e91b64736f6c63430008180033\n}\n\nsub_1: assembly {\n        /* \"contracts/9_Contract.sol\":70:1246  contract Parent {... */\n      mstore(0x40, 0x80)\n        /* \"contracts/9_Contract.sol\":496:498  30 */\n      0x1e\n        /* \"contracts/9_Contract.sol\":484:498  uint info = 30 */\n      0x01\n      sstore\n        /* \"contracts/9_Contract.sol\":505:546  constructor(){... */\n      callvalue\n      dup1\n      iszero\n      tag_1\n      jumpi\n      0x00\n      dup1\n      revert\n    tag_1:\n      pop\n        /* \"contracts/9_Contract.sol\":536:538  10 */\n      0x0a\n        /* \"contracts/9_Contract.sol\":529:533  info */\n      0x01\n        /* \"contracts/9_Contract.sol\":529:538  info = 10 */\n      sstore\n        /* \"contracts/9_Contract.sol\":70:1246  contract Parent {... */\n      dataSize(sub_0)\n      dup1\n      dataOffset(sub_0)\n      0x00\n      codecopy\n      0x00\n      return\n    stop\n\n    sub_0: assembly {\n            /* \"contracts/9_Contract.sol\":70:1246  contract Parent {... */\n          mstore(0x40, 0x80)\n          callvalue\n          dup1\n          iszero\n          tag_1\n          jumpi\n          0x00\n          dup1\n          revert\n        tag_1:\n          pop\n          jumpi(tag_2, lt(calldatasize, 0x04))\n          shr(0xe0, calldataload(0x00))\n          dup1\n          0x541a6ddd\n          eq\n          tag_3\n          jumpi\n          dup1\n          0x710f3e22\n          eq\n          tag_4\n          jumpi\n          dup1\n          0xbf7ce742\n          eq\n          tag_5\n          jumpi\n          dup1\n          0xe7e1ef57\n          eq\n          tag_6\n          jumpi\n        tag_2:\n          0x00\n          dup1\n          revert\n            /* \"contracts/9_Contract.sol\":1142:1243  function setDataExternal(uint a, uint b) external pure returns (uint) {... */\n        tag_3:\n          tag_7\n          tag_8\n          calldatasize\n          0x04\n          tag_9\n          jump\t// in\n        tag_8:\n          tag_10\n          jump\t// in\n        tag_7:\n          mload(0x40)\n            /* \"#utility.yul\":413:438   */\n          swap1\n          dup2\n          mstore\n            /* \"#utility.yul\":401:403   */\n          0x20\n            /* \"#utility.yul\":386:404   */\n          add\n            /* \"contracts/9_Contract.sol\":1142:1243  function setDataExternal(uint a, uint b) external pure returns (uint) {... */\n          mload(0x40)\n          dup1\n          swap2\n          sub\n          swap1\n          return\n            /* \"contracts/9_Contract.sol\":554:651  function setPublicData(uint a, uint b) public returns(uint){... */\n        tag_4:\n          tag_7\n          tag_14\n          calldatasize\n          0x04\n          tag_9\n          jump\t// in\n        tag_14:\n          tag_15\n          jump\t// in\n            /* \"contracts/9_Contract.sol\":657:766  function getPublicData() public returns(uint) {... */\n        tag_5:\n          tag_7\n          tag_18\n          jump\t// in\n            /* \"contracts/9_Contract.sol\":288:383  function getPrivateData() public view returns(uint) {... */\n        tag_6:\n          tag_7\n          tag_21\n          jump\t// in\n            /* \"contracts/9_Contract.sol\":1142:1243  function setDataExternal(uint a, uint b) external pure returns (uint) {... */\n        tag_10:\n            /* \"contracts/9_Contract.sol\":1206:1210  uint */\n          0x00\n            /* \"contracts/9_Contract.sol\":1230:1235  a + b */\n          tag_24\n            /* \"contracts/9_Contract.sol\":1234:1235  b */\n          dup3\n            /* \"contracts/9_Contract.sol\":1230:1231  a */\n          dup5\n            /* \"contracts/9_Contract.sol\":1230:1235  a + b */\n          tag_25\n          jump\t// in\n        tag_24:\n            /* \"contracts/9_Contract.sol\":1223:1235  return a + b */\n          swap1\n          pop\n            /* \"contracts/9_Contract.sol\":1142:1243  function setDataExternal(uint a, uint b) external pure returns (uint) {... */\n        tag_23:\n          swap3\n          swap2\n          pop\n          pop\n          jump\t// out\n            /* \"contracts/9_Contract.sol\":554:651  function setPublicData(uint a, uint b) public returns(uint){... */\n        tag_15:\n            /* \"contracts/9_Contract.sol\":608:612  uint */\n          0x00\n            /* \"contracts/9_Contract.sol\":638:643  a + b */\n          tag_27\n            /* \"contracts/9_Contract.sol\":642:643  b */\n          dup3\n            /* \"contracts/9_Contract.sol\":638:639  a */\n          dup5\n            /* \"contracts/9_Contract.sol\":638:643  a + b */\n          tag_25\n          jump\t// in\n        tag_27:\n            /* \"contracts/9_Contract.sol\":631:635  info */\n          0x01\n            /* \"contracts/9_Contract.sol\":631:643  info = a + b */\n          dup2\n          swap1\n          sstore\n          swap4\n            /* \"contracts/9_Contract.sol\":554:651  function setPublicData(uint a, uint b) public returns(uint){... */\n          swap3\n          pop\n          pop\n          pop\n          jump\t// out\n            /* \"contracts/9_Contract.sol\":657:766  function getPublicData() public returns(uint) {... */\n        tag_18:\n            /* \"contracts/9_Contract.sol\":697:701  uint */\n          0x00\n            /* \"contracts/9_Contract.sol\":714:736  setPublicData(199, 20) */\n          tag_29\n            /* \"contracts/9_Contract.sol\":728:731  199 */\n          0xc7\n            /* \"contracts/9_Contract.sol\":733:735  20 */\n          0x14\n            /* \"contracts/9_Contract.sol\":714:727  setPublicData */\n          tag_15\n            /* \"contracts/9_Contract.sol\":714:736  setPublicData(199, 20) */\n          jump\t// in\n        tag_29:\n          pop\n          pop\n            /* \"contracts/9_Contract.sol\":754:758  info */\n          sload(0x01)\n          swap1\n            /* \"contracts/9_Contract.sol\":657:766  function getPublicData() public returns(uint) {... */\n          jump\t// out\n            /* \"contracts/9_Contract.sol\":288:383  function getPrivateData() public view returns(uint) {... */\n        tag_21:\n            /* \"contracts/9_Contract.sol\":334:338  uint */\n          0x00\n            /* \"contracts/9_Contract.sol\":358:375  setPrivatData(10) */\n          tag_31\n            /* \"contracts/9_Contract.sol\":372:374  10 */\n          0x0a\n            /* \"contracts/9_Contract.sol\":358:371  setPrivatData */\n          tag_32\n            /* \"contracts/9_Contract.sol\":358:375  setPrivatData(10) */\n          jump\t// in\n        tag_31:\n            /* \"contracts/9_Contract.sol\":351:375  return setPrivatData(10) */\n          swap1\n          pop\n            /* \"contracts/9_Contract.sol\":288:383  function getPrivateData() public view returns(uint) {... */\n          swap1\n          jump\t// out\n            /* \"contracts/9_Contract.sol\":199:282  function setPrivatData(uint a) private view returns(uint) {return dataPrivate + a;} */\n        tag_32:\n            /* \"contracts/9_Contract.sol\":251:255  uint */\n          0x00\n            /* \"contracts/9_Contract.sol\":279:280  a */\n          dup2\n            /* \"contracts/9_Contract.sol\":265:276  dataPrivate */\n          sload(0x00)\n            /* \"contracts/9_Contract.sol\":265:280  dataPrivate + a */\n          tag_23\n          swap2\n          swap1\n          tag_25\n          jump\t// in\n            /* \"#utility.yul\":14:262   */\n        tag_9:\n            /* \"#utility.yul\":82:88   */\n          0x00\n            /* \"#utility.yul\":90:96   */\n          dup1\n            /* \"#utility.yul\":143:145   */\n          0x40\n            /* \"#utility.yul\":131:140   */\n          dup4\n            /* \"#utility.yul\":122:129   */\n          dup6\n            /* \"#utility.yul\":118:141   */\n          sub\n            /* \"#utility.yul\":114:146   */\n          slt\n            /* \"#utility.yul\":111:163   */\n          iszero\n          tag_37\n          jumpi\n            /* \"#utility.yul\":159:160   */\n          0x00\n            /* \"#utility.yul\":156:157   */\n          dup1\n            /* \"#utility.yul\":149:161   */\n          revert\n            /* \"#utility.yul\":111:163   */\n        tag_37:\n          pop\n          pop\n            /* \"#utility.yul\":182:205   */\n          dup1\n          calldataload\n          swap3\n            /* \"#utility.yul\":252:254   */\n          0x20\n            /* \"#utility.yul\":237:255   */\n          swap1\n          swap2\n          add\n            /* \"#utility.yul\":224:256   */\n          calldataload\n          swap2\n          pop\n            /* \"#utility.yul\":14:262   */\n          jump\t// out\n            /* \"#utility.yul\":449:671   */\n        tag_25:\n            /* \"#utility.yul\":514:523   */\n          dup1\n          dup3\n          add\n            /* \"#utility.yul\":535:545   */\n          dup1\n          dup3\n          gt\n            /* \"#utility.yul\":532:665   */\n          iszero\n          tag_23\n          jumpi\n            /* \"#utility.yul\":587:597   */\n          0x4e487b71\n            /* \"#utility.yul\":582:585   */\n          0xe0\n            /* \"#utility.yul\":578:598   */\n          shl\n            /* \"#utility.yul\":575:576   */\n          0x00\n            /* \"#utility.yul\":568:599   */\n          mstore\n            /* \"#utility.yul\":622:626   */\n          0x11\n            /* \"#utility.yul\":619:620   */\n          0x04\n            /* \"#utility.yul\":612:627   */\n          mstore\n            /* \"#utility.yul\":650:654   */\n          0x24\n            /* \"#utility.yul\":647:648   */\n          0x00\n            /* \"#utility.yul\":640:655   */\n          revert\n\n        auxdata: 0xa2646970667358221220dff604cba4d64ee1ad50fd2138fb54c63fd989665c9e7511b9190a47e3ed39a064736f6c63430008180033\n    }\n}\n",
				"bytecode": {
					"linkReferences": {},
					"object": "60806040526040516100109061005a565b604051809103905ff080158015610029573d5f803e3d5ffd5b505f80546001600160a01b0319166001600160a01b0392909216919091179055348015610054575f80fd5b50610067565b610190806101e283390190565b61016e806100745f395ff3fe608060405234801561000f575f80fd5b5060043610610033575f3560e01c806284b8b3146100375780635af3aaa614610051575b5f80fd5b61003f610059565b60405190815260200160405180910390f35b61003f6100d0565b5f805460405163541a6ddd60e01b815260146004820152602860248201526001600160a01b039091169063541a6ddd90604401602060405180830381865afa1580156100a7573d5f803e3d5ffd5b505050506040513d601f19601f820116820180604052508101906100cb9190610121565b905090565b5f805f9054906101000a90046001600160a01b03166001600160a01b031663bf7ce7426040518163ffffffff1660e01b81526004016020604051808303815f875af11580156100a7573d5f803e3d5ffd5b5f60208284031215610131575f80fd5b505191905056fea26469706673582212209b3bbb203ca213ebc12170812b4a645dac00e1e72780155dca318bee9e78e91b64736f6c634300081800336080604052601e600155348015610014575f80fd5b50600a600155610169806100275f395ff3fe608060405234801561000f575f80fd5b506004361061004a575f3560e01c8063541a6ddd1461004e578063710f3e2214610073578063bf7ce74214610086578063e7e1ef571461008e575b5f80fd5b61006161005c3660046100f4565b610096565b60405190815260200160405180910390f35b6100616100813660046100f4565b6100aa565b6100616100c1565b6100616100d6565b5f6100a18284610114565b90505b92915050565b5f6100b58284610114565b60018190559392505050565b5f6100ce60c760146100aa565b505060015490565b5f6100e1600a6100e6565b905090565b5f815f546100a49190610114565b5f8060408385031215610105575f80fd5b50508035926020909101359150565b808201808211156100a457634e487b7160e01b5f52601160045260245ffdfea2646970667358221220dff604cba4d64ee1ad50fd2138fb54c63fd989665c9e7511b9190a47e3ed39a064736f6c63430008180033",
					"opcodes": "PUSH1 0x80 PUSH1 0x40 MSTORE PUSH1 0x40 MLOAD PUSH2 0x10 SWAP1 PUSH2 0x5A JUMP JUMPDEST PUSH1 0x40 MLOAD DUP1 SWAP2 SUB SWAP1 PUSH0 CREATE DUP1 ISZERO DUP1 ISZERO PUSH2 0x29 JUMPI RETURNDATASIZE PUSH0 DUP1 RETURNDATACOPY RETURNDATASIZE PUSH0 REVERT JUMPDEST POP PUSH0 DUP1 SLOAD PUSH1 0x1 PUSH1 0x1 PUSH1 0xA0 SHL SUB NOT AND PUSH1 0x1 PUSH1 0x1 PUSH1 0xA0 SHL SUB SWAP3 SWAP1 SWAP3 AND SWAP2 SWAP1 SWAP2 OR SWAP1 SSTORE CALLVALUE DUP1 ISZERO PUSH2 0x54 JUMPI PUSH0 DUP1 REVERT JUMPDEST POP PUSH2 0x67 JUMP JUMPDEST PUSH2 0x190 DUP1 PUSH2 0x1E2 DUP4 CODECOPY ADD SWAP1 JUMP JUMPDEST PUSH2 0x16E DUP1 PUSH2 0x74 PUSH0 CODECOPY PUSH0 RETURN INVALID PUSH1 0x80 PUSH1 0x40 MSTORE CALLVALUE DUP1 ISZERO PUSH2 0xF JUMPI PUSH0 DUP1 REVERT JUMPDEST POP PUSH1 0x4 CALLDATASIZE LT PUSH2 0x33 JUMPI PUSH0 CALLDATALOAD PUSH1 0xE0 SHR DUP1 PUSH3 0x84B8B3 EQ PUSH2 0x37 JUMPI DUP1 PUSH4 0x5AF3AAA6 EQ PUSH2 0x51 JUMPI JUMPDEST PUSH0 DUP1 REVERT JUMPDEST PUSH2 0x3F PUSH2 0x59 JUMP JUMPDEST PUSH1 0x40 MLOAD SWAP1 DUP2 MSTORE PUSH1 0x20 ADD PUSH1 0x40 MLOAD DUP1 SWAP2 SUB SWAP1 RETURN JUMPDEST PUSH2 0x3F PUSH2 0xD0 JUMP JUMPDEST PUSH0 DUP1 SLOAD PUSH1 0x40 MLOAD PUSH4 0x541A6DDD PUSH1 0xE0 SHL DUP2 MSTORE PUSH1 0x14 PUSH1 0x4 DUP3 ADD MSTORE PUSH1 0x28 PUSH1 0x24 DUP3 ADD MSTORE PUSH1 0x1 PUSH1 0x1 PUSH1 0xA0 SHL SUB SWAP1 SWAP2 AND SWAP1 PUSH4 0x541A6DDD SWAP1 PUSH1 0x44 ADD PUSH1 0x20 PUSH1 0x40 MLOAD DUP1 DUP4 SUB DUP2 DUP7 GAS STATICCALL ISZERO DUP1 ISZERO PUSH2 0xA7 JUMPI RETURNDATASIZE PUSH0 DUP1 RETURNDATACOPY RETURNDATASIZE PUSH0 REVERT JUMPDEST POP POP POP POP PUSH1 0x40 MLOAD RETURNDATASIZE PUSH1 0x1F NOT PUSH1 0x1F DUP3 ADD AND DUP3 ADD DUP1 PUSH1 0x40 MSTORE POP DUP2 ADD SWAP1 PUSH2 0xCB SWAP2 SWAP1 PUSH2 0x121 JUMP JUMPDEST SWAP1 POP SWAP1 JUMP JUMPDEST PUSH0 DUP1 PUSH0 SWAP1 SLOAD SWAP1 PUSH2 0x100 EXP SWAP1 DIV PUSH1 0x1 PUSH1 0x1 PUSH1 0xA0 SHL SUB AND PUSH1 0x1 PUSH1 0x1 PUSH1 0xA0 SHL SUB AND PUSH4 0xBF7CE742 PUSH1 0x40 MLOAD DUP2 PUSH4 0xFFFFFFFF AND PUSH1 0xE0 SHL DUP2 MSTORE PUSH1 0x4 ADD PUSH1 0x20 PUSH1 0x40 MLOAD DUP1 DUP4 SUB DUP2 PUSH0 DUP8 GAS CALL ISZERO DUP1 ISZERO PUSH2 0xA7 JUMPI RETURNDATASIZE PUSH0 DUP1 RETURNDATACOPY RETURNDATASIZE PUSH0 REVERT JUMPDEST PUSH0 PUSH1 0x20 DUP3 DUP5 SUB SLT ISZERO PUSH2 0x131 JUMPI PUSH0 DUP1 REVERT JUMPDEST POP MLOAD SWAP2 SWAP1 POP JUMP INVALID LOG2 PUSH5 0x6970667358 0x22 SLT KECCAK256 SWAP12 EXTCODESIZE 0xBB KECCAK256 EXTCODECOPY LOG2 SGT 0xEB 0xC1 0x21 PUSH17 0x812B4A645DAC00E1E72780155DCA318BEE SWAP15 PUSH25 0xE91B64736F6C634300081800336080604052601E6001553480 ISZERO PUSH2 0x14 JUMPI PUSH0 DUP1 REVERT JUMPDEST POP PUSH1 0xA PUSH1 0x1 SSTORE PUSH2 0x169 DUP1 PUSH2 0x27 PUSH0 CODECOPY PUSH0 RETURN INVALID PUSH1 0x80 PUSH1 0x40 MSTORE CALLVALUE DUP1 ISZERO PUSH2 0xF JUMPI PUSH0 DUP1 REVERT JUMPDEST POP PUSH1 0x4 CALLDATASIZE LT PUSH2 0x4A JUMPI PUSH0 CALLDATALOAD PUSH1 0xE0 SHR DUP1 PUSH4 0x541A6DDD EQ PUSH2 0x4E JUMPI DUP1 PUSH4 0x710F3E22 EQ PUSH2 0x73 JUMPI DUP1 PUSH4 0xBF7CE742 EQ PUSH2 0x86 JUMPI DUP1 PUSH4 0xE7E1EF57 EQ PUSH2 0x8E JUMPI JUMPDEST PUSH0 DUP1 REVERT JUMPDEST PUSH2 0x61 PUSH2 0x5C CALLDATASIZE PUSH1 0x4 PUSH2 0xF4 JUMP JUMPDEST PUSH2 0x96 JUMP JUMPDEST PUSH1 0x40 MLOAD SWAP1 DUP2 MSTORE PUSH1 0x20 ADD PUSH1 0x40 MLOAD DUP1 SWAP2 SUB SWAP1 RETURN JUMPDEST PUSH2 0x61 PUSH2 0x81 CALLDATASIZE PUSH1 0x4 PUSH2 0xF4 JUMP JUMPDEST PUSH2 0xAA JUMP JUMPDEST PUSH2 0x61 PUSH2 0xC1 JUMP JUMPDEST PUSH2 0x61 PUSH2 0xD6 JUMP JUMPDEST PUSH0 PUSH2 0xA1 DUP3 DUP5 PUSH2 0x114 JUMP JUMPDEST SWAP1 POP JUMPDEST SWAP3 SWAP2 POP POP JUMP JUMPDEST PUSH0 PUSH2 0xB5 DUP3 DUP5 PUSH2 0x114 JUMP JUMPDEST PUSH1 0x1 DUP2 SWAP1 SSTORE SWAP4 SWAP3 POP POP POP JUMP JUMPDEST PUSH0 PUSH2 0xCE PUSH1 0xC7 PUSH1 0x14 PUSH2 0xAA JUMP JUMPDEST POP POP PUSH1 0x1 SLOAD SWAP1 JUMP JUMPDEST PUSH0 PUSH2 0xE1 PUSH1 0xA PUSH2 0xE6 JUMP JUMPDEST SWAP1 POP SWAP1 JUMP JUMPDEST PUSH0 DUP2 PUSH0 SLOAD PUSH2 0xA4 SWAP2 SWAP1 PUSH2 0x114 JUMP JUMPDEST PUSH0 DUP1 PUSH1 0x40 DUP4 DUP6 SUB SLT ISZERO PUSH2 0x105 JUMPI PUSH0 DUP1 REVERT JUMPDEST POP POP DUP1 CALLDATALOAD SWAP3 PUSH1 0x20 SWAP1 SWAP2 ADD CALLDATALOAD SWAP2 POP JUMP JUMPDEST DUP1 DUP3 ADD DUP1 DUP3 GT ISZERO PUSH2 0xA4 JUMPI PUSH4 0x4E487B71 PUSH1 0xE0 SHL PUSH0 MSTORE PUSH1 0x11 PUSH1 0x4 MSTORE PUSH1 0x24 PUSH0 REVERT INVALID LOG2 PUSH5 0x6970667358 0x22 SLT KECCAK256 0xDF 0xF6 DIV 0xCB LOG4 0xD6 0x4E 0xE1 0xAD POP REVERT 0x21 CODESIZE 0xFB SLOAD 0xC6 EXTCODEHASH 0xD9 DUP10 PUSH7 0x5C9E7511B9190A SELFBALANCE 0xE3 0xED CODECOPY LOG0 PUSH5 0x736F6C6343 STOP ADDMOD XOR STOP CALLER "
				},
				"gasEstimates": {
					"creation": {
						"codeDepositCost": "73200",
						"executionCost": "infinite",
						"totalCost": "infinite"
					},
					"external": {
						"getDataExternal()": "infinite",
						"redDataParent()": "infinite"
					}
				},
				"methodIdentifiers": {
					"getDataExternal()": "0084b8b3",
					"redDataParent()": "5af3aaa6"
				}
			},
			"storageLayout": {
				"storage": [
					{
						"astId": 112,
						"contract": "contracts/9_Contract.sol:External",
						"label": "extrnl",
						"offset": 0,
						"slot": "0",
						"type": "t_contract(Parent)105"
					}
				],
				"types": {
					"t_contract(Parent)105": {
						"encoding": "inplace",
						"label": "contract Parent",
						"numberOfBytes": "20"
					}
				}
			},
			"userdoc": {
				"kind": "user",
				"methods": {},
				"version": 1
			}
		}
	}
}