{
	"contracts/9_Contract.sol": {
		"Parent": {
			"abi": [
				{
					"inputs": [],
					"stateMutability": "nonpayable",
					"type": "constructor"
				},
				{
					"inputs": [],
					"name": "getPrivateData",
					"outputs": [
						{
							"internalType": "uint256",
							"name": "",
							"type": "uint256"
						}
					],
					"stateMutability": "view",
					"type": "function"
				},
				{
					"inputs": [],
					"name": "getPublicData",
					"outputs": [
						{
							"internalType": "uint256",
							"name": "",
							"type": "uint256"
						}
					],
					"stateMutability": "nonpayable",
					"type": "function"
				},
				{
					"inputs": [
						{
							"internalType": "uint256",
							"name": "a",
							"type": "uint256"
						},
						{
							"internalType": "uint256",
							"name": "b",
							"type": "uint256"
						}
					],
					"name": "setDataExternal",
					"outputs": [
						{
							"internalType": "uint256",
							"name": "",
							"type": "uint256"
						}
					],
					"stateMutability": "pure",
					"type": "function"
				},
				{
					"inputs": [
						{
							"internalType": "uint256",
							"name": "a",
							"type": "uint256"
						},
						{
							"internalType": "uint256",
							"name": "b",
							"type": "uint256"
						}
					],
					"name": "setPublicData",
					"outputs": [
						{
							"internalType": "uint256",
							"name": "",
							"type": "uint256"
						}
					],
					"stateMutability": "nonpayable",
					"type": "function"
				}
			],
			"devdoc": {
				"kind": "dev",
				"methods": {},
				"version": 1
			},
			"evm": {
				"assembly": "    /* \"contracts/9_Contract.sol\":70:1246  contract Parent {... */\n  mstore(0x40, 0x80)\n    /* \"contracts/9_Contract.sol\":496:498  30 */\n  0x1e\n    /* \"contracts/9_Contract.sol\":484:498  uint info = 30 */\n  0x01\n  sstore\n    /* \"contracts/9_Contract.sol\":505:546  constructor(){... */\n  callvalue\n  dup1\n  iszero\n  tag_1\n  jumpi\n  0x00\n  dup1\n  revert\ntag_1:\n  pop\n    /* \"contracts/9_Contract.sol\":536:538  10 */\n  0x0a\n    /* \"contracts/9_Contract.sol\":529:533  info */\n  0x01\n    /* \"contracts/9_Contract.sol\":529:538  info = 10 */\n  sstore\n    /* \"contracts/9_Contract.sol\":70:1246  contract Parent {... */\n  dataSize(sub_0)\n  dup1\n  dataOffset(sub_0)\n  0x00\n  codecopy\n  0x00\n  return\nstop\n\nsub_0: assembly {\n        /* \"contracts/9_Contract.sol\":70:1246  contract Parent {... */\n      mstore(0x40, 0x80)\n      callvalue\n      dup1\n      iszero\n      tag_1\n      jumpi\n      0x00\n      dup1\n      revert\n    tag_1:\n      pop\n      jumpi(tag_2, lt(calldatasize, 0x04))\n      shr(0xe0, calldataload(0x00))\n      dup1\n      0x541a6ddd\n      eq\n      tag_3\n      jumpi\n      dup1\n      0x710f3e22\n      eq\n      tag_4\n      jumpi\n      dup1\n      0xbf7ce742\n      eq\n      tag_5\n      jumpi\n      dup1\n      0xe7e1ef57\n      eq\n      tag_6\n      jumpi\n    tag_2:\n      0x00\n      dup1\n      revert\n        /* \"contracts/9_Contract.sol\":1142:1243  function setDataExternal(uint a, uint b) external pure returns (uint) {... */\n    tag_3:\n      tag_7\n      tag_8\n      calldatasize\n      0x04\n      tag_9\n      jump\t// in\n    tag_8:\n      tag_10\n      jump\t// in\n    tag_7:\n      mload(0x40)\n        /* \"#utility.yul\":413:438   */\n      swap1\n      dup2\n      mstore\n        /* \"#utility.yul\":401:403   */\n      0x20\n        /* \"#utility.yul\":386:404   */\n      add\n        /* \"contracts/9_Contract.sol\":1142:1243  function setDataExternal(uint a, uint b) external pure returns (uint) {... */\n      mload(0x40)\n      dup1\n      swap2\n      sub\n      swap1\n      return\n        /* \"contracts/9_Contract.sol\":554:651  function setPublicData(uint a, uint b) public returns(uint){... */\n    tag_4:\n      tag_7\n      tag_14\n      calldatasize\n      0x04\n      tag_9\n      jump\t// in\n    tag_14:\n      tag_15\n      jump\t// in\n        /* \"contracts/9_Contract.sol\":657:766  function getPublicData() public returns(uint) {... */\n    tag_5:\n      tag_7\n      tag_18\n      jump\t// in\n        /* \"contracts/9_Contract.sol\":288:383  function getPrivateData() public view returns(uint) {... */\n    tag_6:\n      tag_7\n      tag_21\n      jump\t// in\n        /* \"contracts/9_Contract.sol\":1142:1243  function setDataExternal(uint a, uint b) external pure returns (uint) {... */\n    tag_10:\n        /* \"contracts/9_Contract.sol\":1206:1210  uint */\n      0x00\n        /* \"contracts/9_Contract.sol\":1230:1235  a + b */\n      tag_24\n        /* \"contracts/9_Contract.sol\":1234:1235  b */\n      dup3\n        /* \"contracts/9_Contract.sol\":1230:1231  a */\n      dup5\n        /* \"contracts/9_Contract.sol\":1230:1235  a + b */\n      tag_25\n      jump\t// in\n    tag_24:\n        /* \"contracts/9_Contract.sol\":1223:1235  return a + b */\n      swap1\n      pop\n        /* \"contracts/9_Contract.sol\":1142:1243  function setDataExternal(uint a, uint b) external pure returns (uint) {... */\n    tag_23:\n      swap3\n      swap2\n      pop\n      pop\n      jump\t// out\n        /* \"contracts/9_Contract.sol\":554:651  function setPublicData(uint a, uint b) public returns(uint){... */\n    tag_15:\n        /* \"contracts/9_Contract.sol\":608:612  uint */\n      0x00\n        /* \"contracts/9_Contract.sol\":638:643  a + b */\n      tag_27\n        /* \"contracts/9_Contract.sol\":642:643  b */\n      dup3\n        /* \"contracts/9_Contract.sol\":638:639  a */\n      dup5\n        /* \"contracts/9_Contract.sol\":638:643  a + b */\n      tag_25\n      jump\t// in\n    tag_27:\n        /* \"contracts/9_Contract.sol\":631:635  info */\n      0x01\n        /* \"contracts/9_Contract.sol\":631:643  info = a + b */\n      dup2\n      swap1\n      sstore\n      swap4\n        /* \"contracts/9_Contract.sol\":554:651  function setPublicData(uint a, uint b) public returns(uint){... */\n      swap3\n      pop\n      pop\n      pop\n      jump\t// out\n        /* \"contracts/9_Contract.sol\":657:766  function getPublicData() public returns(uint) {... */\n    tag_18:\n        /* \"contracts/9_Contract.sol\":697:701  uint */\n      0x00\n        /* \"contracts/9_Contract.sol\":714:736  setPublicData(199, 20) */\n      tag_29\n        /* \"contracts/9_Contract.sol\":728:731  199 */\n      0xc7\n        /* \"contracts/9_Contract.sol\":733:735  20 */\n      0x14\n        /* \"contracts/9_Contract.sol\":714:727  setPublicData */\n      tag_15\n        /* \"contracts/9_Contract.sol\":714:736  setPublicData(199, 20) */\n      jump\t// in\n    tag_29:\n      pop\n      pop\n        /* \"contracts/9_Contract.sol\":754:758  info */\n      sload(0x01)\n      swap1\n        /* \"contracts/9_Contract.sol\":657:766  function getPublicData() public returns(uint) {... */\n      jump\t// out\n        /* \"contracts/9_Contract.sol\":288:383  function getPrivateData() public view returns(uint) {... */\n    tag_21:\n        /* \"contracts/9_Contract.sol\":334:338  uint */\n      0x00\n        /* \"contracts/9_Contract.sol\":358:375  setPrivatData(10) */\n      tag_31\n        /* \"contracts/9_Contract.sol\":372:374  10 */\n      0x0a\n        /* \"contracts/9_Contract.sol\":358:371  setPrivatData */\n      tag_32\n        /* \"contracts/9_Contract.sol\":358:375  setPrivatData(10) */\n      jump\t// in\n    tag_31:\n        /* \"contracts/9_Contract.sol\":351:375  return setPrivatData(10) */\n      swap1\n      pop\n        /* \"contracts/9_Contract.sol\":288:383  function getPrivateData() public view returns(uint) {... */\n      swap1\n      jump\t// out\n        /* \"contracts/9_Contract.sol\":199:282  function setPrivatData(uint a) private view returns(uint) {return dataPrivate + a;} */\n    tag_32:\n        /* \"contracts/9_Contract.sol\":251:255  uint */\n      0x00\n        /* \"contracts/9_Contract.sol\":279:280  a */\n      dup2\n        /* \"contracts/9_Contract.sol\":265:276  dataPrivate */\n      sload(0x00)\n        /* \"contracts/9_Contract.sol\":265:280  dataPrivate + a */\n      tag_23\n      swap2\n      swap1\n      tag_25\n      jump\t// in\n        /* \"#utility.yul\":14:262   */\n    tag_9:\n        /* \"#utility.yul\":82:88   */\n      0x00\n        /* \"#utility.yul\":90:96   */\n      dup1\n        /* \"#utility.yul\":143:145   */\n      0x40\n        /* \"#utility.yul\":131:140   */\n      dup4\n        /* \"#utility.yul\":122:129   */\n      dup6\n        /* \"#utility.yul\":118:141   */\n      sub\n        /* \"#utility.yul\":114:146   */\n      slt\n        /* \"#utility.yul\":111:163   */\n      iszero\n      tag_37\n      jumpi\n        /* \"#utility.yul\":159:160   */\n      0x00\n        /* \"#utility.yul\":156:157   */\n      dup1\n        /* \"#utility.yul\":149:161   */\n      revert\n        /* \"#utility.yul\":111:163   */\n    tag_37:\n      pop\n      pop\n        /* \"#utility.yul\":182:205   */\n      dup1\n      calldataload\n      swap3\n        /* \"#utility.yul\":252:254   */\n      0x20\n        /* \"#utility.yul\":237:255   */\n      swap1\n      swap2\n      add\n        /* \"#utility.yul\":224:256   */\n      calldataload\n      swap2\n      pop\n        /* \"#utility.yul\":14:262   */\n      jump\t// out\n        /* \"#utility.yul\":449:671   */\n    tag_25:\n        /* \"#utility.yul\":514:523   */\n      dup1\n      dup3\n      add\n        /* \"#utility.yul\":535:545   */\n      dup1\n      dup3\n      gt\n        /* \"#utility.yul\":532:665   */\n      iszero\n      tag_23\n      jumpi\n        /* \"#utility.yul\":587:597   */\n      0x4e487b71\n        /* \"#utility.yul\":582:585   */\n      0xe0\n        /* \"#utility.yul\":578:598   */\n      shl\n        /* \"#utility.yul\":575:576   */\n      0x00\n        /* \"#utility.yul\":568:599   */\n      mstore\n        /* \"#utility.yul\":622:626   */\n      0x11\n        /* \"#utility.yul\":619:620   */\n      0x04\n        /* \"#utility.yul\":612:627   */\n      mstore\n        /* \"#utility.yul\":650:654   */\n      0x24\n        /* \"#utility.yul\":647:648   */\n      0x00\n        /* \"#utility.yul\":640:655   */\n      revert\n\n    auxdata: 0xa2646970667358221220dff604cba4d64ee1ad50fd2138fb54c63fd989665c9e7511b9190a47e3ed39a064736f6c63430008180033\n}\n",
				"bytecode": {
					"linkReferences": {},
					"object": "6080604052601e600155348015610014575f80fd5b50600a600155610169806100275f395ff3fe608060405234801561000f575f80fd5b506004361061004a575f3560e01c8063541a6ddd1461004e578063710f3e2214610073578063bf7ce74214610086578063e7e1ef571461008e575b5f80fd5b61006161005c3660046100f4565b610096565b60405190815260200160405180910390f35b6100616100813660046100f4565b6100aa565b6100616100c1565b6100616100d6565b5f6100a18284610114565b90505b92915050565b5f6100b58284610114565b60018190559392505050565b5f6100ce60c760146100aa565b505060015490565b5f6100e1600a6100e6565b905090565b5f815f546100a49190610114565b5f8060408385031215610105575f80fd5b50508035926020909101359150565b808201808211156100a457634e487b7160e01b5f52601160045260245ffdfea2646970667358221220dff604cba4d64ee1ad50fd2138fb54c63fd989665c9e7511b9190a47e3ed39a064736f6c63430008180033",
					"opcodes": "PUSH1 0x80 PUSH1 0x40 MSTORE PUSH1 0x1E PUSH1 0x1 SSTORE CALLVALUE DUP1 ISZERO PUSH2 0x14 JUMPI PUSH0 DUP1 REVERT JUMPDEST POP PUSH1 0xA PUSH1 0x1 SSTORE PUSH2 0x169 DUP1 PUSH2 0x27 PUSH0 CODECOPY PUSH0 RETURN INVALID PUSH1 0x80 PUSH1 0x40 MSTORE CALLVALUE DUP1 ISZERO PUSH2 0xF JUMPI PUSH0 DUP1 REVERT JUMPDEST POP PUSH1 0x4 CALLDATASIZE LT PUSH2 0x4A JUMPI PUSH0 CALLDATALOAD PUSH1 0xE0 SHR DUP1 PUSH4 0x541A6DDD EQ PUSH2 0x4E JUMPI DUP1 PUSH4 0x710F3E22 EQ PUSH2 0x73 JUMPI DUP1 PUSH4 0xBF7CE742 EQ PUSH2 0x86 JUMPI DUP1 PUSH4 0xE7E1EF57 EQ PUSH2 0x8E JUMPI JUMPDEST PUSH0 DUP1 REVERT JUMPDEST PUSH2 0x61 PUSH2 0x5C CALLDATASIZE PUSH1 0x4 PUSH2 0xF4 JUMP JUMPDEST PUSH2 0x96 JUMP JUMPDEST PUSH1 0x40 MLOAD SWAP1 DUP2 MSTORE PUSH1 0x20 ADD PUSH1 0x40 MLOAD DUP1 SWAP2 SUB SWAP1 RETURN JUMPDEST PUSH2 0x61 PUSH2 0x81 CALLDATASIZE PUSH1 0x4 PUSH2 0xF4 JUMP JUMPDEST PUSH2 0xAA JUMP JUMPDEST PUSH2 0x61 PUSH2 0xC1 JUMP JUMPDEST PUSH2 0x61 PUSH2 0xD6 JUMP JUMPDEST PUSH0 PUSH2 0xA1 DUP3 DUP5 PUSH2 0x114 JUMP JUMPDEST SWAP1 POP JUMPDEST SWAP3 SWAP2 POP POP JUMP JUMPDEST PUSH0 PUSH2 0xB5 DUP3 DUP5 PUSH2 0x114 JUMP JUMPDEST PUSH1 0x1 DUP2 SWAP1 SSTORE SWAP4 SWAP3 POP POP POP JUMP JUMPDEST PUSH0 PUSH2 0xCE PUSH1 0xC7 PUSH1 0x14 PUSH2 0xAA JUMP JUMPDEST POP POP PUSH1 0x1 SLOAD SWAP1 JUMP JUMPDEST PUSH0 PUSH2 0xE1 PUSH1 0xA PUSH2 0xE6 JUMP JUMPDEST SWAP1 POP SWAP1 JUMP JUMPDEST PUSH0 DUP2 PUSH0 SLOAD PUSH2 0xA4 SWAP2 SWAP1 PUSH2 0x114 JUMP JUMPDEST PUSH0 DUP1 PUSH1 0x40 DUP4 DUP6 SUB SLT ISZERO PUSH2 0x105 JUMPI PUSH0 DUP1 REVERT JUMPDEST POP POP DUP1 CALLDATALOAD SWAP3 PUSH1 0x20 SWAP1 SWAP2 ADD CALLDATALOAD SWAP2 POP JUMP JUMPDEST DUP1 DUP3 ADD DUP1 DUP3 GT ISZERO PUSH2 0xA4 JUMPI PUSH4 0x4E487B71 PUSH1 0xE0 SHL PUSH0 MSTORE PUSH1 0x11 PUSH1 0x4 MSTORE PUSH1 0x24 PUSH0 REVERT INVALID LOG2 PUSH5 0x6970667358 0x22 SLT KECCAK256 0xDF 0xF6 DIV 0xCB LOG4 0xD6 0x4E 0xE1 0xAD POP REVERT 0x21 CODESIZE 0xFB SLOAD 0xC6 EXTCODEHASH 0xD9 DUP10 PUSH7 0x5C9E7511B9190A SELFBALANCE 0xE3 0xED CODECOPY LOG0 PUSH5 0x736F6C6343 STOP ADDMOD XOR STOP CALLER "
				},
				"gasEstimates": {
					"creation": {
						"codeDepositCost": "72200",
						"executionCost": "27233",
						"totalCost": "99433"
					},
					"external": {
						"getPrivateData()": "infinite",
						"getPublicData()": "24550",
						"setDataExternal(uint256,uint256)": "infinite",
						"setPublicData(uint256,uint256)": "22485"
					},
					"internal": {
						"getInternalData()": "infinite",
						"setInternalData(uint256,uint256)": "infinite",
						"setPrivatData(uint256)": "infinite"
					}
				},
				"methodIdentifiers": {
					"getPrivateData()": "e7e1ef57",
					"getPublicData()": "bf7ce742",
					"setDataExternal(uint256,uint256)": "541a6ddd",
					"setPublicData(uint256,uint256)": "710f3e22"
				}
			},
			"storageLayout": {
				"storage": [
					{
						"astId": 3,
						"contract": "contracts/9_Contract.sol:Parent",
						"label": "dataPrivate",
						"offset": 0,
						"slot": "0",
						"type": "t_uint256"
					},
					{
						"astId": 28,
						"contract": "contracts/9_Contract.sol:Parent",
						"label": "info",
						"offset": 0,
						"slot": "1",
						"type": "t_uint256"
					}
				],
				"types": {
					"t_uint256": {
						"encoding": "inplace",
						"label": "uint256",
						"numberOfBytes": "32"
					}
				}
			},
			"userdoc": {
				"kind": "user",
				"methods": {},
				"version": 1
			}
		}
	}
}