{
	"contracts/Ballot.sol": {
		"Ballot": {
			"abi": [
				{
					"inputs": [
						{
							"internalType": "string[]",
							"name": "proposalNames",
							"type": "string[]"
						}
					],
					"stateMutability": "nonpayable",
					"type": "constructor"
				},
				{
					"inputs": [],
					"name": "chairperson",
					"outputs": [
						{
							"internalType": "address",
							"name": "",
							"type": "address"
						}
					],
					"stateMutability": "view",
					"type": "function"
				},
				{
					"inputs": [
						{
							"internalType": "address",
							"name": "voter",
							"type": "address"
						}
					],
					"name": "giveRightToVote",
					"outputs": [],
					"stateMutability": "nonpayable",
					"type": "function"
				},
				{
					"inputs": [
						{
							"internalType": "uint256",
							"name": "",
							"type": "uint256"
						}
					],
					"name": "proposals",
					"outputs": [
						{
							"internalType": "string",
							"name": "name",
							"type": "string"
						},
						{
							"internalType": "uint256",
							"name": "voteCount",
							"type": "uint256"
						}
					],
					"stateMutability": "view",
					"type": "function"
				},
				{
					"inputs": [
						{
							"internalType": "uint256",
							"name": "proposal",
							"type": "uint256"
						}
					],
					"name": "vote",
					"outputs": [],
					"stateMutability": "nonpayable",
					"type": "function"
				},
				{
					"inputs": [
						{
							"internalType": "address",
							"name": "",
							"type": "address"
						}
					],
					"name": "voters",
					"outputs": [
						{
							"internalType": "uint256",
							"name": "weight",
							"type": "uint256"
						},
						{
							"internalType": "bool",
							"name": "voted",
							"type": "bool"
						},
						{
							"internalType": "address",
							"name": "delegate",
							"type": "address"
						},
						{
							"internalType": "uint256",
							"name": "vote",
							"type": "uint256"
						}
					],
					"stateMutability": "view",
					"type": "function"
				},
				{
					"inputs": [],
					"name": "winnerName",
					"outputs": [
						{
							"internalType": "string",
							"name": "winnerName_",
							"type": "string"
						}
					],
					"stateMutability": "view",
					"type": "function"
				},
				{
					"inputs": [],
					"name": "winningProposal",
					"outputs": [
						{
							"internalType": "uint256",
							"name": "winningProposal_",
							"type": "uint256"
						}
					],
					"stateMutability": "view",
					"type": "function"
				}
			],
			"devdoc": {
				"details": "Implements voting process along with vote delegation",
				"kind": "dev",
				"methods": {
					"constructor": {
						"details": "Create a new ballot to choose one of 'proposalNames'.",
						"params": {
							"proposalNames": "names of proposals"
						}
					},
					"giveRightToVote(address)": {
						"details": "Give 'voter' the right to vote on this ballot. May only be called by 'chairperson'.",
						"params": {
							"voter": "address of voter"
						}
					},
					"vote(uint256)": {
						"details": "Give your vote (including votes delegated to you) to proposal 'proposals[proposal].name'.",
						"params": {
							"proposal": "index of proposal in the proposals array"
						}
					},
					"winnerName()": {
						"details": "Calls winningProposal() function to get the index of the winner contained in the proposals array and then",
						"returns": {
							"winnerName_": "the name of the winner"
						}
					},
					"winningProposal()": {
						"details": "Computes the winning proposal taking all previous votes into account.",
						"returns": {
							"winningProposal_": "index of winning proposal in the proposals array"
						}
					}
				},
				"title": "Ballot",
				"version": 1
			},
			"evm": {
				"assembly": "    /* \"contracts/Ballot.sol\":157:3485  contract Ballot {... */\n  mstore(0x40, 0x80)\n    /* \"contracts/Ballot.sol\":954:1434  constructor(string[] memory proposalNames) {... */\n  callvalue\n  dup1\n  iszero\n  tag_1\n  jumpi\n  0x00\n  dup1\n  revert\ntag_1:\n  pop\n  mload(0x40)\n  sub(codesize, bytecodeSize)\n  dup1\n  bytecodeSize\n  dup4\n  codecopy\n  dup2\n  add\n  0x40\n  dup2\n  swap1\n  mstore\n  tag_2\n  swap2\n  tag_3\n  jump\t// in\ntag_2:\n    /* \"contracts/Ballot.sol\":1007:1018  chairperson */\n  0x00\n    /* \"contracts/Ballot.sol\":1007:1031  chairperson = msg.sender */\n  dup1\n  sload\n  not(sub(shl(0xa0, 0x01), 0x01))\n  and\n    /* \"contracts/Ballot.sol\":1021:1031  msg.sender */\n  caller\n    /* \"contracts/Ballot.sol\":1007:1031  chairperson = msg.sender */\n  swap1\n  dup2\n  or\n  dup3\n  sstore\n    /* \"contracts/Ballot.sol\":1041:1060  voters[chairperson] */\n  dup2\n  mstore\n    /* \"contracts/Ballot.sol\":1007:1031  chairperson = msg.sender */\n  0x01\n    /* \"contracts/Ballot.sol\":1041:1060  voters[chairperson] */\n  0x20\n  dup2\n  swap1\n  mstore\n  0x40\n  dup3\n  keccak256\n    /* \"contracts/Ballot.sol\":1041:1071  voters[chairperson].weight = 1 */\n  sstore\n    /* \"contracts/Ballot.sol\":1082:1428  for (uint i = 0; i < proposalNames.length; i++) {... */\ntag_6:\n    /* \"contracts/Ballot.sol\":1103:1116  proposalNames */\n  dup2\n    /* \"contracts/Ballot.sol\":1103:1123  proposalNames.length */\n  mload\n    /* \"contracts/Ballot.sol\":1099:1100  i */\n  dup2\n    /* \"contracts/Ballot.sol\":1099:1123  i < proposalNames.length */\n  lt\n    /* \"contracts/Ballot.sol\":1082:1428  for (uint i = 0; i < proposalNames.length; i++) {... */\n  iszero\n  tag_7\n  jumpi\n    /* \"contracts/Ballot.sol\":1307:1316  proposals */\n  0x02\n    /* \"contracts/Ballot.sol\":1322:1416  Proposal({... */\n  mload(0x40)\n  dup1\n  0x40\n  add\n  0x40\n  mstore\n  dup1\n    /* \"contracts/Ballot.sol\":1355:1368  proposalNames */\n  dup5\n    /* \"contracts/Ballot.sol\":1369:1370  i */\n  dup5\n    /* \"contracts/Ballot.sol\":1355:1371  proposalNames[i] */\n  dup2\n  mload\n  dup2\n  lt\n  tag_10\n  jumpi\n  tag_10\n  tag_11\n  jump\t// in\ntag_10:\n  0x20\n  swap1\n  dup2\n  mul\n  swap2\n  swap1\n  swap2\n  add\n  dup2\n  add\n  mload\n    /* \"contracts/Ballot.sol\":1322:1416  Proposal({... */\n  dup3\n  mstore\n    /* \"contracts/Ballot.sol\":1400:1401  0 */\n  0x00\n    /* \"contracts/Ballot.sol\":1322:1416  Proposal({... */\n  swap2\n  dup2\n  add\n  dup3\n  swap1\n  mstore\n    /* \"contracts/Ballot.sol\":1307:1417  proposals.push(Proposal({... */\n  dup4\n  sload\n  0x01\n  dup2\n  add\n  dup6\n  sstore\n  swap4\n  dup3\n  mstore\n  swap1\n  keccak256\n  dup2\n  mload\n  swap2\n  swap3\n  0x02\n  mul\n  add\n  swap1\n  dup2\n  swap1\n  tag_13\n  swap1\n  dup3\n  tag_14\n  jump\t// in\ntag_13:\n  pop\n  0x20\n  swap2\n  swap1\n  swap2\n  add\n  mload\n  0x01\n  swap2\n  dup3\n  add\n  sstore\n    /* \"contracts/Ballot.sol\":1125:1128  i++ */\n  add\n    /* \"contracts/Ballot.sol\":1082:1428  for (uint i = 0; i < proposalNames.length; i++) {... */\n  jump(tag_6)\ntag_7:\n  pop\n    /* \"contracts/Ballot.sol\":954:1434  constructor(string[] memory proposalNames) {... */\n  pop\n    /* \"contracts/Ballot.sol\":157:3485  contract Ballot {... */\n  jump(tag_22)\n    /* \"#utility.yul\":14:141   */\ntag_16:\n    /* \"#utility.yul\":75:85   */\n  0x4e487b71\n    /* \"#utility.yul\":70:73   */\n  0xe0\n    /* \"#utility.yul\":66:86   */\n  shl\n    /* \"#utility.yul\":63:64   */\n  0x00\n    /* \"#utility.yul\":56:87   */\n  mstore\n    /* \"#utility.yul\":106:110   */\n  0x41\n    /* \"#utility.yul\":103:104   */\n  0x04\n    /* \"#utility.yul\":96:111   */\n  mstore\n    /* \"#utility.yul\":130:134   */\n  0x24\n    /* \"#utility.yul\":127:128   */\n  0x00\n    /* \"#utility.yul\":120:135   */\n  revert\n    /* \"#utility.yul\":146:421   */\ntag_17:\n    /* \"#utility.yul\":217:219   */\n  0x40\n    /* \"#utility.yul\":211:220   */\n  mload\n    /* \"#utility.yul\":282:284   */\n  0x1f\n    /* \"#utility.yul\":263:276   */\n  dup3\n  add\n  not(0x1f)\n    /* \"#utility.yul\":259:286   */\n  and\n    /* \"#utility.yul\":247:287   */\n  dup2\n  add\n  sub(shl(0x40, 0x01), 0x01)\n    /* \"#utility.yul\":302:336   */\n  dup2\n  gt\n    /* \"#utility.yul\":338:360   */\n  dup3\n  dup3\n  lt\n    /* \"#utility.yul\":299:361   */\n  or\n    /* \"#utility.yul\":296:384   */\n  iszero\n  tag_26\n  jumpi\n    /* \"#utility.yul\":364:382   */\n  tag_26\n  tag_16\n  jump\t// in\ntag_26:\n    /* \"#utility.yul\":400:402   */\n  0x40\n    /* \"#utility.yul\":393:415   */\n  mstore\n    /* \"#utility.yul\":146:421   */\n  swap2\n  swap1\n  pop\n  jump\t// out\n    /* \"#utility.yul\":426:2104   */\ntag_3:\n    /* \"#utility.yul\":531:537   */\n  0x00\n    /* \"#utility.yul\":562:564   */\n  0x20\n    /* \"#utility.yul\":605:607   */\n  dup1\n    /* \"#utility.yul\":593:602   */\n  dup4\n    /* \"#utility.yul\":584:591   */\n  dup6\n    /* \"#utility.yul\":580:603   */\n  sub\n    /* \"#utility.yul\":576:608   */\n  slt\n    /* \"#utility.yul\":573:625   */\n  iszero\n  tag_28\n  jumpi\n    /* \"#utility.yul\":621:622   */\n  0x00\n    /* \"#utility.yul\":618:619   */\n  dup1\n    /* \"#utility.yul\":611:623   */\n  revert\n    /* \"#utility.yul\":573:625   */\ntag_28:\n    /* \"#utility.yul\":648:664   */\n  dup3\n  mload\n  sub(shl(0x40, 0x01), 0x01)\n    /* \"#utility.yul\":713:727   */\n  dup1\n  dup3\n  gt\n    /* \"#utility.yul\":710:744   */\n  iszero\n  tag_29\n  jumpi\n    /* \"#utility.yul\":740:741   */\n  0x00\n    /* \"#utility.yul\":737:738   */\n  dup1\n    /* \"#utility.yul\":730:742   */\n  revert\n    /* \"#utility.yul\":710:744   */\ntag_29:\n    /* \"#utility.yul\":778:784   */\n  dup2\n    /* \"#utility.yul\":767:776   */\n  dup6\n    /* \"#utility.yul\":763:785   */\n  add\n    /* \"#utility.yul\":753:785   */\n  swap2\n  pop\n    /* \"#utility.yul\":804:808   */\n  0x1f\n    /* \"#utility.yul\":846:853   */\n  dup7\n    /* \"#utility.yul\":839:843   */\n  0x1f\n    /* \"#utility.yul\":835:837   */\n  dup5\n    /* \"#utility.yul\":831:844   */\n  add\n    /* \"#utility.yul\":827:854   */\n  slt\n    /* \"#utility.yul\":817:872   */\n  tag_30\n  jumpi\n    /* \"#utility.yul\":868:869   */\n  0x00\n    /* \"#utility.yul\":865:866   */\n  dup1\n    /* \"#utility.yul\":858:870   */\n  revert\n    /* \"#utility.yul\":817:872   */\ntag_30:\n    /* \"#utility.yul\":897:899   */\n  dup3\n    /* \"#utility.yul\":891:900   */\n  mload\n    /* \"#utility.yul\":919:921   */\n  dup3\n    /* \"#utility.yul\":915:917   */\n  dup2\n    /* \"#utility.yul\":912:922   */\n  gt\n    /* \"#utility.yul\":909:945   */\n  iszero\n  tag_32\n  jumpi\n    /* \"#utility.yul\":925:943   */\n  tag_32\n  tag_16\n  jump\t// in\ntag_32:\n    /* \"#utility.yul\":971:973   */\n  dup1\n    /* \"#utility.yul\":968:969   */\n  0x05\n    /* \"#utility.yul\":964:974   */\n  shl\n    /* \"#utility.yul\":994:1022   */\n  tag_33\n    /* \"#utility.yul\":1018:1020   */\n  dup7\n    /* \"#utility.yul\":1014:1016   */\n  dup3\n    /* \"#utility.yul\":1010:1021   */\n  add\n    /* \"#utility.yul\":994:1022   */\n  tag_17\n  jump\t// in\ntag_33:\n    /* \"#utility.yul\":1056:1071   */\n  swap2\n  dup3\n  mstore\n    /* \"#utility.yul\":1126:1137   */\n  dup5\n  dup2\n  add\n    /* \"#utility.yul\":1122:1142   */\n  dup7\n  add\n  swap2\n    /* \"#utility.yul\":1087:1099   */\n  dup7\n  dup2\n  add\n  swap1\n    /* \"#utility.yul\":1154:1173   */\n  dup11\n  dup5\n  gt\n    /* \"#utility.yul\":1151:1190   */\n  iszero\n  tag_34\n  jumpi\n    /* \"#utility.yul\":1186:1187   */\n  0x00\n    /* \"#utility.yul\":1183:1184   */\n  dup1\n    /* \"#utility.yul\":1176:1188   */\n  revert\n    /* \"#utility.yul\":1151:1190   */\ntag_34:\n    /* \"#utility.yul\":1218:1220   */\n  dup8\n    /* \"#utility.yul\":1214:1216   */\n  dup8\n    /* \"#utility.yul\":1210:1221   */\n  add\n    /* \"#utility.yul\":1199:1221   */\n  swap3\n  pop\n    /* \"#utility.yul\":1230:2074   */\ntag_35:\n    /* \"#utility.yul\":1246:1252   */\n  dup4\n    /* \"#utility.yul\":1241:1244   */\n  dup4\n    /* \"#utility.yul\":1238:1253   */\n  lt\n    /* \"#utility.yul\":1230:2074   */\n  iszero\n  tag_37\n  jumpi\n    /* \"#utility.yul\":1325:1328   */\n  dup3\n    /* \"#utility.yul\":1319:1329   */\n  mload\n    /* \"#utility.yul\":1361:1363   */\n  dup7\n    /* \"#utility.yul\":1348:1359   */\n  dup2\n    /* \"#utility.yul\":1345:1364   */\n  gt\n    /* \"#utility.yul\":1342:1381   */\n  iszero\n  tag_38\n  jumpi\n    /* \"#utility.yul\":1377:1378   */\n  0x00\n    /* \"#utility.yul\":1374:1375   */\n  dup1\n    /* \"#utility.yul\":1367:1379   */\n  revert\n    /* \"#utility.yul\":1342:1381   */\ntag_38:\n    /* \"#utility.yul\":1404:1424   */\n  dup8\n  add\n    /* \"#utility.yul\":1459:1461   */\n  0x3f\n    /* \"#utility.yul\":1451:1462   */\n  dup2\n  add\n    /* \"#utility.yul\":1447:1472   */\n  dup13\n  sgt\n    /* \"#utility.yul\":1437:1490   */\n  tag_39\n  jumpi\n    /* \"#utility.yul\":1486:1487   */\n  0x00\n    /* \"#utility.yul\":1483:1484   */\n  dup1\n    /* \"#utility.yul\":1476:1488   */\n  revert\n    /* \"#utility.yul\":1437:1490   */\ntag_39:\n    /* \"#utility.yul\":1527:1529   */\n  dup9\n    /* \"#utility.yul\":1523:1525   */\n  dup2\n    /* \"#utility.yul\":1519:1530   */\n  add\n    /* \"#utility.yul\":1513:1531   */\n  mload\n    /* \"#utility.yul\":1554:1556   */\n  dup8\n    /* \"#utility.yul\":1550:1552   */\n  dup2\n    /* \"#utility.yul\":1547:1557   */\n  gt\n    /* \"#utility.yul\":1544:1580   */\n  iszero\n  tag_41\n  jumpi\n    /* \"#utility.yul\":1560:1578   */\n  tag_41\n  tag_16\n  jump\t// in\ntag_41:\n    /* \"#utility.yul\":1606:1657   */\n  tag_42\n    /* \"#utility.yul\":1630:1641   */\n  dup2\n  dup9\n  add\n  not(0x1f)\n    /* \"#utility.yul\":1626:1651   */\n  and\n    /* \"#utility.yul\":1622:1656   */\n  dup12\n  add\n    /* \"#utility.yul\":1606:1657   */\n  tag_17\n  jump\t// in\ntag_42:\n    /* \"#utility.yul\":1684:1686   */\n  dup2\n    /* \"#utility.yul\":1677:1682   */\n  dup2\n    /* \"#utility.yul\":1670:1687   */\n  mstore\n    /* \"#utility.yul\":1710:1712   */\n  0x40\n    /* \"#utility.yul\":1753:1760   */\n  dup15\n    /* \"#utility.yul\":1748:1750   */\n  dup2\n    /* \"#utility.yul\":1743:1745   */\n  dup5\n    /* \"#utility.yul\":1739:1741   */\n  dup7\n    /* \"#utility.yul\":1735:1746   */\n  add\n    /* \"#utility.yul\":1731:1751   */\n  add\n    /* \"#utility.yul\":1728:1761   */\n  gt\n    /* \"#utility.yul\":1725:1778   */\n  iszero\n  tag_43\n  jumpi\n    /* \"#utility.yul\":1774:1775   */\n  0x00\n    /* \"#utility.yul\":1771:1772   */\n  dup1\n    /* \"#utility.yul\":1764:1776   */\n  revert\n    /* \"#utility.yul\":1725:1778   */\ntag_43:\n    /* \"#utility.yul\":1800:1801   */\n  0x00\n    /* \"#utility.yul\":1814:1954   */\ntag_44:\n    /* \"#utility.yul\":1828:1830   */\n  dup4\n    /* \"#utility.yul\":1825:1826   */\n  dup2\n    /* \"#utility.yul\":1822:1831   */\n  lt\n    /* \"#utility.yul\":1814:1954   */\n  iszero\n  tag_46\n  jumpi\n    /* \"#utility.yul\":1923:1933   */\n  dup5\n  dup2\n  add\n    /* \"#utility.yul\":1919:1938   */\n  dup3\n  add\n    /* \"#utility.yul\":1913:1939   */\n  mload\n    /* \"#utility.yul\":1893:1906   */\n  dup4\n  dup3\n  add\n    /* \"#utility.yul\":1889:1911   */\n  dup15\n  add\n    /* \"#utility.yul\":1882:1940   */\n  mstore\n    /* \"#utility.yul\":1839:1849   */\n  dup13\n  add\n    /* \"#utility.yul\":1814:1954   */\n  jump(tag_44)\ntag_46:\n  pop\n  pop\n    /* \"#utility.yul\":1999:2000   */\n  0x00\n    /* \"#utility.yul\":1978:1992   */\n  swap2\n  dup2\n  add\n    /* \"#utility.yul\":1974:1997   */\n  dup12\n  add\n    /* \"#utility.yul\":1967:2001   */\n  swap2\n  swap1\n  swap2\n  mstore\n    /* \"#utility.yul\":2014:2032   */\n  dup4\n  mstore\n  pop\n    /* \"#utility.yul\":1263:1275   */\n  swap2\n  dup8\n  add\n  swap2\n    /* \"#utility.yul\":2052:2064   */\n  swap1\n  dup8\n  add\n  swap1\n    /* \"#utility.yul\":1230:2074   */\n  jump(tag_35)\ntag_37:\n    /* \"#utility.yul\":2093:2098   */\n  swap11\n    /* \"#utility.yul\":426:2104   */\n  swap10\n  pop\n  pop\n  pop\n  pop\n  pop\n  pop\n  pop\n  pop\n  pop\n  pop\n  jump\t// out\n    /* \"#utility.yul\":2109:2236   */\ntag_11:\n    /* \"#utility.yul\":2170:2180   */\n  0x4e487b71\n    /* \"#utility.yul\":2165:2168   */\n  0xe0\n    /* \"#utility.yul\":2161:2181   */\n  shl\n    /* \"#utility.yul\":2158:2159   */\n  0x00\n    /* \"#utility.yul\":2151:2182   */\n  mstore\n    /* \"#utility.yul\":2201:2205   */\n  0x32\n    /* \"#utility.yul\":2198:2199   */\n  0x04\n    /* \"#utility.yul\":2191:2206   */\n  mstore\n    /* \"#utility.yul\":2225:2229   */\n  0x24\n    /* \"#utility.yul\":2222:2223   */\n  0x00\n    /* \"#utility.yul\":2215:2230   */\n  revert\n    /* \"#utility.yul\":2241:2621   */\ntag_18:\n    /* \"#utility.yul\":2320:2321   */\n  0x01\n    /* \"#utility.yul\":2316:2328   */\n  dup2\n  dup2\n  shr\n  swap1\n    /* \"#utility.yul\":2363:2375   */\n  dup3\n  and\n  dup1\n    /* \"#utility.yul\":2384:2445   */\n  tag_49\n  jumpi\n    /* \"#utility.yul\":2438:2442   */\n  0x7f\n    /* \"#utility.yul\":2430:2436   */\n  dup3\n    /* \"#utility.yul\":2426:2443   */\n  and\n    /* \"#utility.yul\":2416:2443   */\n  swap2\n  pop\n    /* \"#utility.yul\":2384:2445   */\ntag_49:\n    /* \"#utility.yul\":2491:2493   */\n  0x20\n    /* \"#utility.yul\":2483:2489   */\n  dup3\n    /* \"#utility.yul\":2480:2494   */\n  lt\n    /* \"#utility.yul\":2460:2478   */\n  dup2\n    /* \"#utility.yul\":2457:2495   */\n  sub\n    /* \"#utility.yul\":2454:2615   */\n  tag_50\n  jumpi\n    /* \"#utility.yul\":2537:2547   */\n  0x4e487b71\n    /* \"#utility.yul\":2532:2535   */\n  0xe0\n    /* \"#utility.yul\":2528:2548   */\n  shl\n    /* \"#utility.yul\":2525:2526   */\n  0x00\n    /* \"#utility.yul\":2518:2549   */\n  mstore\n    /* \"#utility.yul\":2572:2576   */\n  0x22\n    /* \"#utility.yul\":2569:2570   */\n  0x04\n    /* \"#utility.yul\":2562:2577   */\n  mstore\n    /* \"#utility.yul\":2600:2604   */\n  0x24\n    /* \"#utility.yul\":2597:2598   */\n  0x00\n    /* \"#utility.yul\":2590:2605   */\n  revert\n    /* \"#utility.yul\":2454:2615   */\ntag_50:\n  pop\n    /* \"#utility.yul\":2241:2621   */\n  swap2\n  swap1\n  pop\n  jump\t// out\n    /* \"#utility.yul\":2752:3270   */\ntag_20:\n    /* \"#utility.yul\":2854:2856   */\n  0x1f\n    /* \"#utility.yul\":2849:2852   */\n  dup3\n    /* \"#utility.yul\":2846:2857   */\n  gt\n    /* \"#utility.yul\":2843:3264   */\n  iszero\n  tag_53\n  jumpi\n    /* \"#utility.yul\":2890:2895   */\n  dup1\n    /* \"#utility.yul\":2887:2888   */\n  0x00\n    /* \"#utility.yul\":2880:2896   */\n  mstore\n    /* \"#utility.yul\":2934:2938   */\n  0x20\n    /* \"#utility.yul\":2931:2932   */\n  0x00\n    /* \"#utility.yul\":2921:2939   */\n  keccak256\n    /* \"#utility.yul\":3004:3006   */\n  0x1f\n    /* \"#utility.yul\":2992:3002   */\n  dup5\n    /* \"#utility.yul\":2988:3007   */\n  add\n    /* \"#utility.yul\":2985:2986   */\n  0x05\n    /* \"#utility.yul\":2981:3008   */\n  shr\n    /* \"#utility.yul\":2975:2979   */\n  dup2\n    /* \"#utility.yul\":2971:3009   */\n  add\n    /* \"#utility.yul\":3040:3044   */\n  0x20\n    /* \"#utility.yul\":3028:3038   */\n  dup6\n    /* \"#utility.yul\":3025:3045   */\n  lt\n    /* \"#utility.yul\":3022:3069   */\n  iszero\n  tag_54\n  jumpi\n  pop\n    /* \"#utility.yul\":3063:3067   */\n  dup1\n    /* \"#utility.yul\":3022:3069   */\ntag_54:\n    /* \"#utility.yul\":3118:3120   */\n  0x1f\n    /* \"#utility.yul\":3113:3116   */\n  dup5\n    /* \"#utility.yul\":3109:3121   */\n  add\n    /* \"#utility.yul\":3106:3107   */\n  0x05\n    /* \"#utility.yul\":3102:3122   */\n  shr\n    /* \"#utility.yul\":3096:3100   */\n  dup3\n    /* \"#utility.yul\":3092:3123   */\n  add\n    /* \"#utility.yul\":3082:3123   */\n  swap2\n  pop\n    /* \"#utility.yul\":3173:3254   */\ntag_55:\n    /* \"#utility.yul\":3191:3193   */\n  dup2\n    /* \"#utility.yul\":3184:3189   */\n  dup2\n    /* \"#utility.yul\":3181:3194   */\n  lt\n    /* \"#utility.yul\":3173:3254   */\n  iszero\n  tag_57\n  jumpi\n    /* \"#utility.yul\":3250:3251   */\n  0x00\n    /* \"#utility.yul\":3236:3252   */\n  dup2\n  sstore\n    /* \"#utility.yul\":3217:3218   */\n  0x01\n    /* \"#utility.yul\":3206:3219   */\n  add\n    /* \"#utility.yul\":3173:3254   */\n  jump(tag_55)\ntag_57:\n    /* \"#utility.yul\":3177:3180   */\n  pop\n  pop\n    /* \"#utility.yul\":2843:3264   */\ntag_53:\n    /* \"#utility.yul\":2752:3270   */\n  pop\n  pop\n  pop\n  jump\t// out\n    /* \"#utility.yul\":3446:4791   */\ntag_14:\n    /* \"#utility.yul\":3566:3576   */\n  dup2\n  mload\n  sub(shl(0x40, 0x01), 0x01)\n    /* \"#utility.yul\":3588:3618   */\n  dup2\n  gt\n    /* \"#utility.yul\":3585:3641   */\n  iszero\n  tag_61\n  jumpi\n    /* \"#utility.yul\":3621:3639   */\n  tag_61\n  tag_16\n  jump\t// in\ntag_61:\n    /* \"#utility.yul\":3650:3747   */\n  tag_62\n    /* \"#utility.yul\":3740:3746   */\n  dup2\n    /* \"#utility.yul\":3700:3738   */\n  tag_63\n    /* \"#utility.yul\":3732:3736   */\n  dup5\n    /* \"#utility.yul\":3726:3737   */\n  sload\n    /* \"#utility.yul\":3700:3738   */\n  tag_18\n  jump\t// in\ntag_63:\n    /* \"#utility.yul\":3694:3698   */\n  dup5\n    /* \"#utility.yul\":3650:3747   */\n  tag_20\n  jump\t// in\ntag_62:\n    /* \"#utility.yul\":3802:3806   */\n  0x20\n  dup1\n    /* \"#utility.yul\":3859:3861   */\n  0x1f\n    /* \"#utility.yul\":3848:3862   */\n  dup4\n  gt\n    /* \"#utility.yul\":3876:3877   */\n  0x01\n    /* \"#utility.yul\":3871:4534   */\n  dup2\n  eq\n  tag_65\n  jumpi\n    /* \"#utility.yul\":4578:4579   */\n  0x00\n    /* \"#utility.yul\":4595:4601   */\n  dup5\n    /* \"#utility.yul\":4592:4681   */\n  iszero\n  tag_66\n  jumpi\n  pop\n    /* \"#utility.yul\":4647:4666   */\n  dup6\n  dup4\n  add\n    /* \"#utility.yul\":4641:4667   */\n  mload\n    /* \"#utility.yul\":4592:4681   */\ntag_66:\n  not(0x00)\n    /* \"#utility.yul\":3403:3404   */\n  0x03\n    /* \"#utility.yul\":3399:3410   */\n  dup7\n  swap1\n  shl\n    /* \"#utility.yul\":3395:3419   */\n  shr\n    /* \"#utility.yul\":3391:3420   */\n  not\n    /* \"#utility.yul\":3381:3421   */\n  and\n    /* \"#utility.yul\":3427:3428   */\n  0x01\n    /* \"#utility.yul\":3423:3434   */\n  dup6\n  swap1\n  shl\n    /* \"#utility.yul\":3378:3435   */\n  or\n    /* \"#utility.yul\":4694:4775   */\n  dup6\n  sstore\n    /* \"#utility.yul\":3841:4785   */\n  jump(tag_64)\n    /* \"#utility.yul\":3871:4534   */\ntag_65:\n    /* \"#utility.yul\":2699:2700   */\n  0x00\n    /* \"#utility.yul\":2692:2706   */\n  dup6\n  dup2\n  mstore\n    /* \"#utility.yul\":2736:2740   */\n  0x20\n    /* \"#utility.yul\":2723:2741   */\n  dup2\n  keccak256\n  not(0x1f)\n    /* \"#utility.yul\":3907:3927   */\n  dup7\n  and\n  swap2\n    /* \"#utility.yul\":4025:4261   */\ntag_69:\n    /* \"#utility.yul\":4039:4046   */\n  dup3\n    /* \"#utility.yul\":4036:4037   */\n  dup2\n    /* \"#utility.yul\":4033:4047   */\n  lt\n    /* \"#utility.yul\":4025:4261   */\n  iszero\n  tag_71\n  jumpi\n    /* \"#utility.yul\":4128:4147   */\n  dup9\n  dup7\n  add\n    /* \"#utility.yul\":4122:4148   */\n  mload\n    /* \"#utility.yul\":4107:4149   */\n  dup3\n  sstore\n    /* \"#utility.yul\":4220:4247   */\n  swap5\n  dup5\n  add\n  swap5\n    /* \"#utility.yul\":4188:4189   */\n  0x01\n    /* \"#utility.yul\":4176:4190   */\n  swap1\n  swap2\n  add\n  swap1\n    /* \"#utility.yul\":4055:4074   */\n  dup5\n  add\n    /* \"#utility.yul\":4025:4261   */\n  jump(tag_69)\ntag_71:\n    /* \"#utility.yul\":4029:4032   */\n  pop\n    /* \"#utility.yul\":4289:4295   */\n  dup6\n    /* \"#utility.yul\":4280:4287   */\n  dup3\n    /* \"#utility.yul\":4277:4296   */\n  lt\n    /* \"#utility.yul\":4274:4475   */\n  iszero\n  tag_72\n  jumpi\n    /* \"#utility.yul\":4350:4369   */\n  dup8\n  dup6\n  add\n    /* \"#utility.yul\":4344:4370   */\n  mload\n  not(0x00)\n    /* \"#utility.yul\":4433:4434   */\n  0x03\n    /* \"#utility.yul\":4429:4443   */\n  dup9\n  swap1\n  shl\n    /* \"#utility.yul\":4445:4448   */\n  0xf8\n    /* \"#utility.yul\":4425:4449   */\n  and\n    /* \"#utility.yul\":4421:4458   */\n  shr\n    /* \"#utility.yul\":4417:4459   */\n  not\n    /* \"#utility.yul\":4402:4460   */\n  and\n    /* \"#utility.yul\":4387:4461   */\n  dup2\n  sstore\n    /* \"#utility.yul\":4274:4475   */\ntag_72:\n  pop\n  pop\n    /* \"#utility.yul\":4521:4522   */\n  0x01\n    /* \"#utility.yul\":4512:4518   */\n  dup5\n    /* \"#utility.yul\":4509:4510   */\n  0x01\n    /* \"#utility.yul\":4505:4519   */\n  shl\n    /* \"#utility.yul\":4501:4523   */\n  add\n    /* \"#utility.yul\":4495:4499   */\n  dup6\n    /* \"#utility.yul\":4488:4524   */\n  sstore\n    /* \"#utility.yul\":3841:4785   */\ntag_64:\n  pop\n  pop\n  pop\n  pop\n    /* \"#utility.yul\":3446:4791   */\n  pop\n  pop\n  jump\t// out\ntag_22:\n    /* \"contracts/Ballot.sol\":157:3485  contract Ballot {... */\n  dataSize(sub_0)\n  dup1\n  dataOffset(sub_0)\n  0x00\n  codecopy\n  0x00\n  return\nstop\n\nsub_0: assembly {\n        /* \"contracts/Ballot.sol\":157:3485  contract Ballot {... */\n      mstore(0x40, 0x80)\n      callvalue\n      dup1\n      iszero\n      tag_1\n      jumpi\n      0x00\n      dup1\n      revert\n    tag_1:\n      pop\n      jumpi(tag_2, lt(calldatasize, 0x04))\n      shr(0xe0, calldataload(0x00))\n      dup1\n      0x609ff1bd\n      gt\n      tag_10\n      jumpi\n      dup1\n      0x609ff1bd\n      eq\n      tag_6\n      jumpi\n      dup1\n      0x9e7b8d61\n      eq\n      tag_7\n      jumpi\n      dup1\n      0xa3ec138d\n      eq\n      tag_8\n      jumpi\n      dup1\n      0xe2ba53f0\n      eq\n      tag_9\n      jumpi\n      0x00\n      dup1\n      revert\n    tag_10:\n      dup1\n      0x0121b93f\n      eq\n      tag_3\n      jumpi\n      dup1\n      0x013cf08b\n      eq\n      tag_4\n      jumpi\n      dup1\n      0x2e4176cf\n      eq\n      tag_5\n      jumpi\n    tag_2:\n      0x00\n      dup1\n      revert\n        /* \"contracts/Ballot.sol\":2133:2591  function vote(uint proposal) public {... */\n    tag_3:\n      tag_11\n      tag_12\n      calldatasize\n      0x04\n      tag_13\n      jump\t// in\n    tag_12:\n      tag_14\n      jump\t// in\n    tag_11:\n      stop\n        /* \"contracts/Ballot.sol\":790:817  Proposal[] public proposals */\n    tag_4:\n      tag_15\n      tag_16\n      calldatasize\n      0x04\n      tag_13\n      jump\t// in\n    tag_16:\n      tag_17\n      jump\t// in\n    tag_15:\n      mload(0x40)\n      tag_18\n      swap3\n      swap2\n      swap1\n      tag_19\n      jump\t// in\n    tag_18:\n      mload(0x40)\n      dup1\n      swap2\n      sub\n      swap1\n      return\n        /* \"contracts/Ballot.sol\":711:737  address public chairperson */\n    tag_5:\n      sload(0x00)\n      tag_20\n      swap1\n      sub(shl(0xa0, 0x01), 0x01)\n      and\n      dup2\n      jump\n    tag_20:\n      mload(0x40)\n      sub(shl(0xa0, 0x01), 0x01)\n        /* \"#utility.yul\":1087:1119   */\n      swap1\n      swap2\n      and\n        /* \"#utility.yul\":1069:1120   */\n      dup2\n      mstore\n        /* \"#utility.yul\":1057:1059   */\n      0x20\n        /* \"#utility.yul\":1042:1060   */\n      add\n        /* \"contracts/Ballot.sol\":711:737  address public chairperson */\n      tag_18\n        /* \"#utility.yul\":923:1126   */\n      jump\n        /* \"contracts/Ballot.sol\":2777:3142  function winningProposal() public view... */\n    tag_6:\n      tag_24\n      tag_25\n      jump\t// in\n    tag_24:\n      mload(0x40)\n        /* \"#utility.yul\":1277:1302   */\n      swap1\n      dup2\n      mstore\n        /* \"#utility.yul\":1265:1267   */\n      0x20\n        /* \"#utility.yul\":1250:1268   */\n      add\n        /* \"contracts/Ballot.sol\":2777:3142  function winningProposal() public view... */\n      tag_18\n        /* \"#utility.yul\":1131:1308   */\n      jump\n        /* \"contracts/Ballot.sol\":1590:1945  function giveRightToVote(address voter) public {... */\n    tag_7:\n      tag_11\n      tag_29\n      calldatasize\n      0x04\n      tag_30\n      jump\t// in\n    tag_29:\n      tag_31\n      jump\t// in\n        /* \"contracts/Ballot.sol\":744:783  mapping(address => Voter) public voters */\n    tag_8:\n      tag_32\n      tag_33\n      calldatasize\n      0x04\n      tag_30\n      jump\t// in\n    tag_33:\n      0x01\n      0x20\n      dup2\n      swap1\n      mstore\n      0x00\n      swap2\n      dup3\n      mstore\n      0x40\n      swap1\n      swap2\n      keccak256\n      dup1\n      sload\n      swap2\n      dup2\n      add\n      sload\n      0x02\n      swap1\n      swap2\n      add\n      sload\n      0xff\n      dup3\n      and\n      swap2\n      0x0100\n      swap1\n      div\n      sub(shl(0xa0, 0x01), 0x01)\n      and\n      swap1\n      dup5\n      jump\n    tag_32:\n      mload(0x40)\n      tag_18\n      swap5\n      swap4\n      swap3\n      swap2\n      swap1\n        /* \"#utility.yul\":1829:1854   */\n      swap4\n      dup5\n      mstore\n        /* \"#utility.yul\":1897:1911   */\n      swap2\n      iszero\n        /* \"#utility.yul\":1890:1912   */\n      iszero\n        /* \"#utility.yul\":1885:1887   */\n      0x20\n        /* \"#utility.yul\":1870:1888   */\n      dup5\n      add\n        /* \"#utility.yul\":1863:1913   */\n      mstore\n      sub(shl(0xa0, 0x01), 0x01)\n        /* \"#utility.yul\":1949:1981   */\n      and\n        /* \"#utility.yul\":1944:1946   */\n      0x40\n        /* \"#utility.yul\":1929:1947   */\n      dup4\n      add\n        /* \"#utility.yul\":1922:1982   */\n      mstore\n        /* \"#utility.yul\":2013:2015   */\n      0x60\n        /* \"#utility.yul\":1998:2016   */\n      dup3\n      add\n        /* \"#utility.yul\":1991:2025   */\n      mstore\n        /* \"#utility.yul\":1816:1819   */\n      0x80\n        /* \"#utility.yul\":1801:1820   */\n      add\n      swap1\n        /* \"#utility.yul\":1604:2031   */\n      jump\n        /* \"contracts/Ballot.sol\":3333:3483  function winnerName() public view... */\n    tag_9:\n      tag_37\n      tag_38\n      jump\t// in\n    tag_37:\n      mload(0x40)\n      tag_18\n      swap2\n      swap1\n      tag_40\n      jump\t// in\n        /* \"contracts/Ballot.sol\":2133:2591  function vote(uint proposal) public {... */\n    tag_14:\n        /* \"contracts/Ballot.sol\":2209:2219  msg.sender */\n      caller\n        /* \"contracts/Ballot.sol\":2179:2199  Voter storage sender */\n      0x00\n        /* \"contracts/Ballot.sol\":2202:2220  voters[msg.sender] */\n      swap1\n      dup2\n      mstore\n        /* \"contracts/Ballot.sol\":2202:2208  voters */\n      0x01\n        /* \"contracts/Ballot.sol\":2202:2220  voters[msg.sender] */\n      0x20\n      mstore\n      0x40\n      dup2\n      keccak256\n        /* \"contracts/Ballot.sol\":2238:2251  sender.weight */\n      dup1\n      sload\n        /* \"contracts/Ballot.sol\":2202:2220  voters[msg.sender] */\n      swap1\n      swap2\n        /* \"contracts/Ballot.sol\":2238:2256  sender.weight != 0 */\n      sub\n        /* \"contracts/Ballot.sol\":2230:2281  require(sender.weight != 0, \"Has no right to vote\") */\n      tag_42\n      jumpi\n      mload(0x40)\n      shl(0xe5, 0x461bcd)\n      dup2\n      mstore\n        /* \"#utility.yul\":2463:2465   */\n      0x20\n        /* \"contracts/Ballot.sol\":2230:2281  require(sender.weight != 0, \"Has no right to vote\") */\n      0x04\n      dup3\n      add\n        /* \"#utility.yul\":2445:2466   */\n      mstore\n        /* \"#utility.yul\":2502:2504   */\n      0x14\n        /* \"#utility.yul\":2482:2500   */\n      0x24\n      dup3\n      add\n        /* \"#utility.yul\":2475:2505   */\n      mstore\n      shl(0x60, 0x486173206e6f20726967687420746f20766f7465)\n        /* \"#utility.yul\":2521:2539   */\n      0x44\n      dup3\n      add\n        /* \"#utility.yul\":2514:2564   */\n      mstore\n        /* \"#utility.yul\":2581:2599   */\n      0x64\n      add\n        /* \"contracts/Ballot.sol\":2230:2281  require(sender.weight != 0, \"Has no right to vote\") */\n    tag_43:\n      mload(0x40)\n      dup1\n      swap2\n      sub\n      swap1\n      revert\n    tag_42:\n        /* \"contracts/Ballot.sol\":2300:2312  sender.voted */\n      0x01\n      dup2\n      add\n      sload\n      0xff\n      and\n        /* \"contracts/Ballot.sol\":2299:2312  !sender.voted */\n      iszero\n        /* \"contracts/Ballot.sol\":2291:2331  require(!sender.voted, \"Already voted.\") */\n      tag_45\n      jumpi\n      mload(0x40)\n      shl(0xe5, 0x461bcd)\n      dup2\n      mstore\n        /* \"#utility.yul\":2812:2814   */\n      0x20\n        /* \"contracts/Ballot.sol\":2291:2331  require(!sender.voted, \"Already voted.\") */\n      0x04\n      dup3\n      add\n        /* \"#utility.yul\":2794:2815   */\n      mstore\n        /* \"#utility.yul\":2851:2853   */\n      0x0e\n        /* \"#utility.yul\":2831:2849   */\n      0x24\n      dup3\n      add\n        /* \"#utility.yul\":2824:2854   */\n      mstore\n      shl(0x91, 0x20b63932b0b23c903b37ba32b217)\n        /* \"#utility.yul\":2870:2888   */\n      0x44\n      dup3\n      add\n        /* \"#utility.yul\":2863:2907   */\n      mstore\n        /* \"#utility.yul\":2924:2942   */\n      0x64\n      add\n        /* \"contracts/Ballot.sol\":2291:2331  require(!sender.voted, \"Already voted.\") */\n      tag_43\n        /* \"#utility.yul\":2610:2948   */\n      jump\n        /* \"contracts/Ballot.sol\":2291:2331  require(!sender.voted, \"Already voted.\") */\n    tag_45:\n        /* \"contracts/Ballot.sol\":2356:2360  true */\n      0x01\n        /* \"contracts/Ballot.sol\":2341:2353  sender.voted */\n      dup2\n      dup2\n      add\n        /* \"contracts/Ballot.sol\":2341:2360  sender.voted = true */\n      dup1\n      sload\n      not(0xff)\n      and\n      swap1\n      swap2\n      or\n      swap1\n      sstore\n        /* \"contracts/Ballot.sol\":2370:2381  sender.vote */\n      0x02\n      dup1\n      dup3\n      add\n        /* \"contracts/Ballot.sol\":2370:2392  sender.vote = proposal */\n      dup4\n      swap1\n      sstore\n        /* \"contracts/Ballot.sol\":2571:2584  sender.weight */\n      dup2\n      sload\n        /* \"contracts/Ballot.sol\":2538:2557  proposals[proposal] */\n      dup2\n      sload\n        /* \"contracts/Ballot.sol\":2571:2584  sender.weight */\n      swap1\n      swap2\n        /* \"contracts/Ballot.sol\":2370:2381  sender.vote */\n      swap1\n        /* \"contracts/Ballot.sol\":2384:2392  proposal */\n      dup5\n      swap1\n        /* \"contracts/Ballot.sol\":2538:2557  proposals[proposal] */\n      dup2\n      lt\n      tag_49\n      jumpi\n      tag_49\n      tag_50\n      jump\t// in\n    tag_49:\n      swap1\n      0x00\n      mstore\n      keccak256(0x00, 0x20)\n      swap1\n      0x02\n      mul\n      add\n        /* \"contracts/Ballot.sol\":2538:2567  proposals[proposal].voteCount */\n      0x01\n      add\n      0x00\n        /* \"contracts/Ballot.sol\":2538:2584  proposals[proposal].voteCount += sender.weight */\n      dup3\n      dup3\n      sload\n      tag_52\n      swap2\n      swap1\n      tag_53\n      jump\t// in\n    tag_52:\n      swap1\n      swap2\n      sstore\n      pop\n      pop\n      pop\n      pop\n        /* \"contracts/Ballot.sol\":2133:2591  function vote(uint proposal) public {... */\n      jump\t// out\n        /* \"contracts/Ballot.sol\":790:817  Proposal[] public proposals */\n    tag_17:\n      0x02\n      dup2\n      dup2\n      sload\n      dup2\n      lt\n      tag_54\n      jumpi\n      0x00\n      dup1\n      revert\n    tag_54:\n      swap1\n      0x00\n      mstore\n      keccak256(0x00, 0x20)\n      swap1\n      0x02\n      mul\n      add\n      0x00\n      swap2\n      pop\n      swap1\n      pop\n      dup1\n      0x00\n      add\n      dup1\n      sload\n      tag_56\n      swap1\n      tag_57\n      jump\t// in\n    tag_56:\n      dup1\n      0x1f\n      add\n      0x20\n      dup1\n      swap2\n      div\n      mul\n      0x20\n      add\n      mload(0x40)\n      swap1\n      dup2\n      add\n      0x40\n      mstore\n      dup1\n      swap3\n      swap2\n      swap1\n      dup2\n      dup2\n      mstore\n      0x20\n      add\n      dup3\n      dup1\n      sload\n      tag_58\n      swap1\n      tag_57\n      jump\t// in\n    tag_58:\n      dup1\n      iszero\n      tag_59\n      jumpi\n      dup1\n      0x1f\n      lt\n      tag_60\n      jumpi\n      0x0100\n      dup1\n      dup4\n      sload\n      div\n      mul\n      dup4\n      mstore\n      swap2\n      0x20\n      add\n      swap2\n      jump(tag_59)\n    tag_60:\n      dup3\n      add\n      swap2\n      swap1\n      0x00\n      mstore\n      keccak256(0x00, 0x20)\n      swap1\n    tag_61:\n      dup2\n      sload\n      dup2\n      mstore\n      swap1\n      0x01\n      add\n      swap1\n      0x20\n      add\n      dup1\n      dup4\n      gt\n      tag_61\n      jumpi\n      dup3\n      swap1\n      sub\n      0x1f\n      and\n      dup3\n      add\n      swap2\n    tag_59:\n      pop\n      pop\n      pop\n      pop\n      pop\n      swap1\n      dup1\n      0x01\n      add\n      sload\n      swap1\n      pop\n      dup3\n      jump\t// out\n        /* \"contracts/Ballot.sol\":2777:3142  function winningProposal() public view... */\n    tag_25:\n        /* \"contracts/Ballot.sol\":2837:2858  uint winningProposal_ */\n      0x00\n      dup1\n      dup1\n        /* \"contracts/Ballot.sol\":2909:3136  for (uint p = 0; p < proposals.length; p++) {... */\n    tag_63:\n        /* \"contracts/Ballot.sol\":2930:2939  proposals */\n      0x02\n        /* \"contracts/Ballot.sol\":2930:2946  proposals.length */\n      sload\n        /* \"contracts/Ballot.sol\":2926:2946  p < proposals.length */\n      dup2\n      lt\n        /* \"contracts/Ballot.sol\":2909:3136  for (uint p = 0; p < proposals.length; p++) {... */\n      iszero\n      tag_64\n      jumpi\n        /* \"contracts/Ballot.sol\":2996:3012  winningVoteCount */\n      dup2\n        /* \"contracts/Ballot.sol\":2971:2980  proposals */\n      0x02\n        /* \"contracts/Ballot.sol\":2981:2982  p */\n      dup3\n        /* \"contracts/Ballot.sol\":2971:2983  proposals[p] */\n      dup2\n      sload\n      dup2\n      lt\n      tag_67\n      jumpi\n      tag_67\n      tag_50\n      jump\t// in\n    tag_67:\n      swap1\n      0x00\n      mstore\n      keccak256(0x00, 0x20)\n      swap1\n      0x02\n      mul\n      add\n        /* \"contracts/Ballot.sol\":2971:2993  proposals[p].voteCount */\n      0x01\n      add\n      sload\n        /* \"contracts/Ballot.sol\":2971:3012  proposals[p].voteCount > winningVoteCount */\n      gt\n        /* \"contracts/Ballot.sol\":2967:3126  if (proposals[p].voteCount > winningVoteCount) {... */\n      iszero\n      tag_69\n      jumpi\n        /* \"contracts/Ballot.sol\":3051:3060  proposals */\n      0x02\n        /* \"contracts/Ballot.sol\":3061:3062  p */\n      dup2\n        /* \"contracts/Ballot.sol\":3051:3063  proposals[p] */\n      dup2\n      sload\n      dup2\n      lt\n      tag_71\n      jumpi\n      tag_71\n      tag_50\n      jump\t// in\n    tag_71:\n      swap1\n      0x00\n      mstore\n      keccak256(0x00, 0x20)\n      swap1\n      0x02\n      mul\n      add\n        /* \"contracts/Ballot.sol\":3051:3073  proposals[p].voteCount */\n      0x01\n      add\n      sload\n        /* \"contracts/Ballot.sol\":3032:3073  winningVoteCount = proposals[p].voteCount */\n      swap2\n      pop\n        /* \"contracts/Ballot.sol\":3110:3111  p */\n      dup1\n        /* \"contracts/Ballot.sol\":3091:3111  winningProposal_ = p */\n      swap3\n      pop\n        /* \"contracts/Ballot.sol\":2967:3126  if (proposals[p].voteCount > winningVoteCount) {... */\n    tag_69:\n        /* \"contracts/Ballot.sol\":2948:2951  p++ */\n      0x01\n      add\n        /* \"contracts/Ballot.sol\":2909:3136  for (uint p = 0; p < proposals.length; p++) {... */\n      jump(tag_63)\n    tag_64:\n      pop\n        /* \"contracts/Ballot.sol\":2864:3142  {... */\n      pop\n        /* \"contracts/Ballot.sol\":2777:3142  function winningProposal() public view... */\n      swap1\n      jump\t// out\n        /* \"contracts/Ballot.sol\":1590:1945  function giveRightToVote(address voter) public {... */\n    tag_31:\n        /* \"contracts/Ballot.sol\":1682:1693  chairperson */\n      and(sub(shl(0xa0, 0x01), 0x01), sload(0x00))\n        /* \"contracts/Ballot.sol\":1668:1678  msg.sender */\n      caller\n        /* \"contracts/Ballot.sol\":1668:1693  msg.sender == chairperson */\n      eq\n        /* \"contracts/Ballot.sol\":1647:1759  require(... */\n      tag_74\n      jumpi\n      mload(0x40)\n      shl(0xe5, 0x461bcd)\n      dup2\n      mstore\n        /* \"#utility.yul\":3899:3901   */\n      0x20\n        /* \"contracts/Ballot.sol\":1647:1759  require(... */\n      0x04\n      dup3\n      add\n        /* \"#utility.yul\":3881:3902   */\n      mstore\n        /* \"#utility.yul\":3938:3940   */\n      0x28\n        /* \"#utility.yul\":3918:3936   */\n      0x24\n      dup3\n      add\n        /* \"#utility.yul\":3911:3941   */\n      mstore\n        /* \"#utility.yul\":3977:4011   */\n      0x4f6e6c79206368616972706572736f6e2063616e206769766520726967687420\n        /* \"#utility.yul\":3957:3975   */\n      0x44\n      dup3\n      add\n        /* \"#utility.yul\":3950:4012   */\n      mstore\n      shl(0xc1, 0x3a37903b37ba3297)\n        /* \"#utility.yul\":4028:4046   */\n      0x64\n      dup3\n      add\n        /* \"#utility.yul\":4021:4059   */\n      mstore\n        /* \"#utility.yul\":4076:4095   */\n      0x84\n      add\n        /* \"contracts/Ballot.sol\":1647:1759  require(... */\n      tag_43\n        /* \"#utility.yul\":3697:4101   */\n      jump\n        /* \"contracts/Ballot.sol\":1647:1759  require(... */\n    tag_74:\n      sub(shl(0xa0, 0x01), 0x01)\n        /* \"contracts/Ballot.sol\":1791:1804  voters[voter] */\n      dup2\n      and\n      0x00\n      swap1\n      dup2\n      mstore\n        /* \"contracts/Ballot.sol\":1791:1797  voters */\n      0x01\n        /* \"contracts/Ballot.sol\":1791:1804  voters[voter] */\n      0x20\n      dup2\n      swap1\n      mstore\n      0x40\n      swap1\n      swap2\n      keccak256\n        /* \"contracts/Ballot.sol\":1791:1810  voters[voter].voted */\n      add\n      sload\n      0xff\n      and\n        /* \"contracts/Ballot.sol\":1790:1810  !voters[voter].voted */\n      iszero\n        /* \"contracts/Ballot.sol\":1769:1860  require(... */\n      tag_77\n      jumpi\n      mload(0x40)\n      shl(0xe5, 0x461bcd)\n      dup2\n      mstore\n        /* \"#utility.yul\":4308:4310   */\n      0x20\n        /* \"contracts/Ballot.sol\":1769:1860  require(... */\n      0x04\n      dup3\n      add\n        /* \"#utility.yul\":4290:4311   */\n      mstore\n        /* \"#utility.yul\":4347:4349   */\n      0x18\n        /* \"#utility.yul\":4327:4345   */\n      0x24\n      dup3\n      add\n        /* \"#utility.yul\":4320:4350   */\n      mstore\n        /* \"#utility.yul\":4386:4412   */\n      0x54686520766f74657220616c726561647920766f7465642e0000000000000000\n        /* \"#utility.yul\":4366:4384   */\n      0x44\n      dup3\n      add\n        /* \"#utility.yul\":4359:4413   */\n      mstore\n        /* \"#utility.yul\":4430:4448   */\n      0x64\n      add\n        /* \"contracts/Ballot.sol\":1769:1860  require(... */\n      tag_43\n        /* \"#utility.yul\":4106:4454   */\n      jump\n        /* \"contracts/Ballot.sol\":1769:1860  require(... */\n    tag_77:\n      sub(shl(0xa0, 0x01), 0x01)\n        /* \"contracts/Ballot.sol\":1878:1891  voters[voter] */\n      dup2\n      and\n      0x00\n      swap1\n      dup2\n      mstore\n        /* \"contracts/Ballot.sol\":1878:1884  voters */\n      0x01\n        /* \"contracts/Ballot.sol\":1878:1891  voters[voter] */\n      0x20\n      mstore\n      0x40\n      swap1\n      keccak256\n        /* \"contracts/Ballot.sol\":1878:1898  voters[voter].weight */\n      sload\n        /* \"contracts/Ballot.sol\":1878:1903  voters[voter].weight == 0 */\n      iszero\n        /* \"contracts/Ballot.sol\":1870:1904  require(voters[voter].weight == 0) */\n      tag_80\n      jumpi\n      0x00\n      dup1\n      revert\n    tag_80:\n      sub(shl(0xa0, 0x01), 0x01)\n        /* \"contracts/Ballot.sol\":1914:1927  voters[voter] */\n      and\n      0x00\n      swap1\n      dup2\n      mstore\n        /* \"contracts/Ballot.sol\":1937:1938  1 */\n      0x01\n        /* \"contracts/Ballot.sol\":1914:1927  voters[voter] */\n      0x20\n      dup2\n      swap1\n      mstore\n      0x40\n      swap1\n      swap2\n      keccak256\n        /* \"contracts/Ballot.sol\":1914:1938  voters[voter].weight = 1 */\n      sstore\n        /* \"contracts/Ballot.sol\":1590:1945  function giveRightToVote(address voter) public {... */\n      jump\t// out\n        /* \"contracts/Ballot.sol\":3333:3483  function winnerName() public view... */\n    tag_38:\n        /* \"contracts/Ballot.sol\":3388:3413  string memory winnerName_ */\n      0x60\n        /* \"contracts/Ballot.sol\":3443:3452  proposals */\n      0x02\n        /* \"contracts/Ballot.sol\":3453:3470  winningProposal() */\n      tag_82\n        /* \"contracts/Ballot.sol\":3453:3468  winningProposal */\n      tag_25\n        /* \"contracts/Ballot.sol\":3453:3470  winningProposal() */\n      jump\t// in\n    tag_82:\n        /* \"contracts/Ballot.sol\":3443:3471  proposals[winningProposal()] */\n      dup2\n      sload\n      dup2\n      lt\n      tag_84\n      jumpi\n      tag_84\n      tag_50\n      jump\t// in\n    tag_84:\n      swap1\n      0x00\n      mstore\n      keccak256(0x00, 0x20)\n      swap1\n      0x02\n      mul\n      add\n        /* \"contracts/Ballot.sol\":3443:3476  proposals[winningProposal()].name */\n      0x00\n      add\n        /* \"contracts/Ballot.sol\":3429:3476  winnerName_ = proposals[winningProposal()].name */\n      dup1\n      sload\n      tag_86\n      swap1\n      tag_57\n      jump\t// in\n    tag_86:\n      dup1\n      0x1f\n      add\n      0x20\n      dup1\n      swap2\n      div\n      mul\n      0x20\n      add\n      mload(0x40)\n      swap1\n      dup2\n      add\n      0x40\n      mstore\n      dup1\n      swap3\n      swap2\n      swap1\n      dup2\n      dup2\n      mstore\n      0x20\n      add\n      dup3\n      dup1\n      sload\n      tag_87\n      swap1\n      tag_57\n      jump\t// in\n    tag_87:\n      dup1\n      iszero\n      tag_88\n      jumpi\n      dup1\n      0x1f\n      lt\n      tag_89\n      jumpi\n      0x0100\n      dup1\n      dup4\n      sload\n      div\n      mul\n      dup4\n      mstore\n      swap2\n      0x20\n      add\n      swap2\n      jump(tag_88)\n    tag_89:\n      dup3\n      add\n      swap2\n      swap1\n      0x00\n      mstore\n      keccak256(0x00, 0x20)\n      swap1\n    tag_90:\n      dup2\n      sload\n      dup2\n      mstore\n      swap1\n      0x01\n      add\n      swap1\n      0x20\n      add\n      dup1\n      dup4\n      gt\n      tag_90\n      jumpi\n      dup3\n      swap1\n      sub\n      0x1f\n      and\n      dup3\n      add\n      swap2\n    tag_88:\n      pop\n      pop\n      pop\n      pop\n      pop\n      swap1\n      pop\n        /* \"contracts/Ballot.sol\":3333:3483  function winnerName() public view... */\n      swap1\n      jump\t// out\n        /* \"#utility.yul\":14:194   */\n    tag_13:\n        /* \"#utility.yul\":73:79   */\n      0x00\n        /* \"#utility.yul\":126:128   */\n      0x20\n        /* \"#utility.yul\":114:123   */\n      dup3\n        /* \"#utility.yul\":105:112   */\n      dup5\n        /* \"#utility.yul\":101:124   */\n      sub\n        /* \"#utility.yul\":97:129   */\n      slt\n        /* \"#utility.yul\":94:146   */\n      iszero\n      tag_94\n      jumpi\n        /* \"#utility.yul\":142:143   */\n      0x00\n        /* \"#utility.yul\":139:140   */\n      dup1\n        /* \"#utility.yul\":132:144   */\n      revert\n        /* \"#utility.yul\":94:146   */\n    tag_94:\n      pop\n        /* \"#utility.yul\":165:188   */\n      calldataload\n      swap2\n        /* \"#utility.yul\":14:194   */\n      swap1\n      pop\n      jump\t// out\n        /* \"#utility.yul\":199:622   */\n    tag_91:\n        /* \"#utility.yul\":241:244   */\n      0x00\n        /* \"#utility.yul\":279:284   */\n      dup2\n        /* \"#utility.yul\":273:285   */\n      mload\n        /* \"#utility.yul\":306:312   */\n      dup1\n        /* \"#utility.yul\":301:304   */\n      dup5\n        /* \"#utility.yul\":294:313   */\n      mstore\n        /* \"#utility.yul\":331:332   */\n      0x00\n        /* \"#utility.yul\":341:503   */\n    tag_96:\n        /* \"#utility.yul\":355:361   */\n      dup2\n        /* \"#utility.yul\":352:353   */\n      dup2\n        /* \"#utility.yul\":349:362   */\n      lt\n        /* \"#utility.yul\":341:503   */\n      iszero\n      tag_98\n      jumpi\n        /* \"#utility.yul\":417:421   */\n      0x20\n        /* \"#utility.yul\":473:486   */\n      dup2\n      dup6\n      add\n        /* \"#utility.yul\":469:491   */\n      dup2\n      add\n        /* \"#utility.yul\":463:492   */\n      mload\n        /* \"#utility.yul\":445:456   */\n      dup7\n      dup4\n      add\n        /* \"#utility.yul\":441:461   */\n      dup3\n      add\n        /* \"#utility.yul\":434:493   */\n      mstore\n        /* \"#utility.yul\":370:382   */\n      add\n        /* \"#utility.yul\":341:503   */\n      jump(tag_96)\n    tag_98:\n        /* \"#utility.yul\":345:348   */\n      pop\n        /* \"#utility.yul\":548:549   */\n      0x00\n        /* \"#utility.yul\":541:545   */\n      0x20\n        /* \"#utility.yul\":532:538   */\n      dup3\n        /* \"#utility.yul\":527:530   */\n      dup7\n        /* \"#utility.yul\":523:539   */\n      add\n        /* \"#utility.yul\":519:546   */\n      add\n        /* \"#utility.yul\":512:550   */\n      mstore\n        /* \"#utility.yul\":611:615   */\n      0x20\n        /* \"#utility.yul\":604:606   */\n      0x1f\n        /* \"#utility.yul\":600:607   */\n      not\n        /* \"#utility.yul\":595:597   */\n      0x1f\n        /* \"#utility.yul\":587:593   */\n      dup4\n        /* \"#utility.yul\":583:598   */\n      add\n        /* \"#utility.yul\":579:608   */\n      and\n        /* \"#utility.yul\":574:577   */\n      dup6\n        /* \"#utility.yul\":570:609   */\n      add\n        /* \"#utility.yul\":566:616   */\n      add\n        /* \"#utility.yul\":559:616   */\n      swap2\n      pop\n      pop\n        /* \"#utility.yul\":199:622   */\n      swap3\n      swap2\n      pop\n      pop\n      jump\t// out\n        /* \"#utility.yul\":627:918   */\n    tag_19:\n        /* \"#utility.yul\":804:806   */\n      0x40\n        /* \"#utility.yul\":793:802   */\n      dup2\n        /* \"#utility.yul\":786:807   */\n      mstore\n        /* \"#utility.yul\":767:771   */\n      0x00\n        /* \"#utility.yul\":824:869   */\n      tag_100\n        /* \"#utility.yul\":865:867   */\n      0x40\n        /* \"#utility.yul\":854:863   */\n      dup4\n        /* \"#utility.yul\":850:868   */\n      add\n        /* \"#utility.yul\":842:848   */\n      dup6\n        /* \"#utility.yul\":824:869   */\n      tag_91\n      jump\t// in\n    tag_100:\n        /* \"#utility.yul\":816:869   */\n      swap1\n      pop\n        /* \"#utility.yul\":905:911   */\n      dup3\n        /* \"#utility.yul\":900:902   */\n      0x20\n        /* \"#utility.yul\":889:898   */\n      dup4\n        /* \"#utility.yul\":885:903   */\n      add\n        /* \"#utility.yul\":878:912   */\n      mstore\n        /* \"#utility.yul\":627:918   */\n      swap4\n      swap3\n      pop\n      pop\n      pop\n      jump\t// out\n        /* \"#utility.yul\":1313:1599   */\n    tag_30:\n        /* \"#utility.yul\":1372:1378   */\n      0x00\n        /* \"#utility.yul\":1425:1427   */\n      0x20\n        /* \"#utility.yul\":1413:1422   */\n      dup3\n        /* \"#utility.yul\":1404:1411   */\n      dup5\n        /* \"#utility.yul\":1400:1423   */\n      sub\n        /* \"#utility.yul\":1396:1428   */\n      slt\n        /* \"#utility.yul\":1393:1445   */\n      iszero\n      tag_104\n      jumpi\n        /* \"#utility.yul\":1441:1442   */\n      0x00\n        /* \"#utility.yul\":1438:1439   */\n      dup1\n        /* \"#utility.yul\":1431:1443   */\n      revert\n        /* \"#utility.yul\":1393:1445   */\n    tag_104:\n        /* \"#utility.yul\":1467:1490   */\n      dup2\n      calldataload\n      sub(shl(0xa0, 0x01), 0x01)\n        /* \"#utility.yul\":1519:1550   */\n      dup2\n      and\n        /* \"#utility.yul\":1509:1551   */\n      dup2\n      eq\n        /* \"#utility.yul\":1499:1569   */\n      tag_105\n      jumpi\n        /* \"#utility.yul\":1565:1566   */\n      0x00\n        /* \"#utility.yul\":1562:1563   */\n      dup1\n        /* \"#utility.yul\":1555:1567   */\n      revert\n        /* \"#utility.yul\":1499:1569   */\n    tag_105:\n        /* \"#utility.yul\":1588:1593   */\n      swap4\n        /* \"#utility.yul\":1313:1599   */\n      swap3\n      pop\n      pop\n      pop\n      jump\t// out\n        /* \"#utility.yul\":2036:2256   */\n    tag_40:\n        /* \"#utility.yul\":2185:2187   */\n      0x20\n        /* \"#utility.yul\":2174:2183   */\n      dup2\n        /* \"#utility.yul\":2167:2188   */\n      mstore\n        /* \"#utility.yul\":2148:2152   */\n      0x00\n        /* \"#utility.yul\":2205:2250   */\n      tag_105\n        /* \"#utility.yul\":2246:2248   */\n      0x20\n        /* \"#utility.yul\":2235:2244   */\n      dup4\n        /* \"#utility.yul\":2231:2249   */\n      add\n        /* \"#utility.yul\":2223:2229   */\n      dup5\n        /* \"#utility.yul\":2205:2250   */\n      tag_91\n      jump\t// in\n        /* \"#utility.yul\":2953:3080   */\n    tag_50:\n        /* \"#utility.yul\":3014:3024   */\n      0x4e487b71\n        /* \"#utility.yul\":3009:3012   */\n      0xe0\n        /* \"#utility.yul\":3005:3025   */\n      shl\n        /* \"#utility.yul\":3002:3003   */\n      0x00\n        /* \"#utility.yul\":2995:3026   */\n      mstore\n        /* \"#utility.yul\":3045:3049   */\n      0x32\n        /* \"#utility.yul\":3042:3043   */\n      0x04\n        /* \"#utility.yul\":3035:3050   */\n      mstore\n        /* \"#utility.yul\":3069:3073   */\n      0x24\n        /* \"#utility.yul\":3066:3067   */\n      0x00\n        /* \"#utility.yul\":3059:3074   */\n      revert\n        /* \"#utility.yul\":3085:3307   */\n    tag_53:\n        /* \"#utility.yul\":3150:3159   */\n      dup1\n      dup3\n      add\n        /* \"#utility.yul\":3171:3181   */\n      dup1\n      dup3\n      gt\n        /* \"#utility.yul\":3168:3301   */\n      iszero\n      tag_113\n      jumpi\n        /* \"#utility.yul\":3223:3233   */\n      0x4e487b71\n        /* \"#utility.yul\":3218:3221   */\n      0xe0\n        /* \"#utility.yul\":3214:3234   */\n      shl\n        /* \"#utility.yul\":3211:3212   */\n      0x00\n        /* \"#utility.yul\":3204:3235   */\n      mstore\n        /* \"#utility.yul\":3258:3262   */\n      0x11\n        /* \"#utility.yul\":3255:3256   */\n      0x04\n        /* \"#utility.yul\":3248:3263   */\n      mstore\n        /* \"#utility.yul\":3286:3290   */\n      0x24\n        /* \"#utility.yul\":3283:3284   */\n      0x00\n        /* \"#utility.yul\":3276:3291   */\n      revert\n        /* \"#utility.yul\":3168:3301   */\n    tag_113:\n        /* \"#utility.yul\":3085:3307   */\n      swap3\n      swap2\n      pop\n      pop\n      jump\t// out\n        /* \"#utility.yul\":3312:3692   */\n    tag_57:\n        /* \"#utility.yul\":3391:3392   */\n      0x01\n        /* \"#utility.yul\":3387:3399   */\n      dup2\n      dup2\n      shr\n      swap1\n        /* \"#utility.yul\":3434:3446   */\n      dup3\n      and\n      dup1\n        /* \"#utility.yul\":3455:3516   */\n      tag_115\n      jumpi\n        /* \"#utility.yul\":3509:3513   */\n      0x7f\n        /* \"#utility.yul\":3501:3507   */\n      dup3\n        /* \"#utility.yul\":3497:3514   */\n      and\n        /* \"#utility.yul\":3487:3514   */\n      swap2\n      pop\n        /* \"#utility.yul\":3455:3516   */\n    tag_115:\n        /* \"#utility.yul\":3562:3564   */\n      0x20\n        /* \"#utility.yul\":3554:3560   */\n      dup3\n        /* \"#utility.yul\":3551:3565   */\n      lt\n        /* \"#utility.yul\":3531:3549   */\n      dup2\n        /* \"#utility.yul\":3528:3566   */\n      sub\n        /* \"#utility.yul\":3525:3686   */\n      tag_116\n      jumpi\n        /* \"#utility.yul\":3608:3618   */\n      0x4e487b71\n        /* \"#utility.yul\":3603:3606   */\n      0xe0\n        /* \"#utility.yul\":3599:3619   */\n      shl\n        /* \"#utility.yul\":3596:3597   */\n      0x00\n        /* \"#utility.yul\":3589:3620   */\n      mstore\n        /* \"#utility.yul\":3643:3647   */\n      0x22\n        /* \"#utility.yul\":3640:3641   */\n      0x04\n        /* \"#utility.yul\":3633:3648   */\n      mstore\n        /* \"#utility.yul\":3671:3675   */\n      0x24\n        /* \"#utility.yul\":3668:3669   */\n      0x00\n        /* \"#utility.yul\":3661:3676   */\n      revert\n        /* \"#utility.yul\":3525:3686   */\n    tag_116:\n      pop\n        /* \"#utility.yul\":3312:3692   */\n      swap2\n      swap1\n      pop\n      jump\t// out\n\n    auxdata: 0xa264697066735822122023e5d8ebea23031c909dbe00c3d94556cecbdbbd0bded487211657cc92bae77664736f6c63430008180033\n}\n",
				"bytecode": {
					"linkReferences": {},
					"object": "608060405234801562000010575f80fd5b5060405162000aa638038062000aa683398101604081905262000033916200011e565b5f80546001600160a01b03191633908117825581526001602081905260408220555b8151811015620000cf576002604051806040016040528084848151811062000081576200008162000256565b60209081029190910181015182525f918101829052835460018101855593825290208151919260020201908190620000ba9082620002f4565b50602091909101516001918201550162000055565b5050620003c0565b634e487b7160e01b5f52604160045260245ffd5b604051601f8201601f191681016001600160401b0381118282101715620001165762000116620000d7565b604052919050565b5f602080838503121562000130575f80fd5b82516001600160401b038082111562000147575f80fd5b8185019150601f86601f8401126200015d575f80fd5b825182811115620001725762000172620000d7565b8060051b62000183868201620000eb565b918252848101860191868101908a8411156200019d575f80fd5b87870192505b838310156200024857825186811115620001bb575f80fd5b8701603f81018c13620001cc575f80fd5b8881015187811115620001e357620001e3620000d7565b620001f6818801601f19168b01620000eb565b81815260408e818486010111156200020c575f80fd5b5f5b838110156200022b578481018201518382018e01528c016200020e565b50505f9181018b01919091528352509187019190870190620001a3565b9a9950505050505050505050565b634e487b7160e01b5f52603260045260245ffd5b600181811c908216806200027f57607f821691505b6020821081036200029e57634e487b7160e01b5f52602260045260245ffd5b50919050565b601f821115620002ef57805f5260205f20601f840160051c81016020851015620002cb5750805b601f840160051c820191505b81811015620002ec575f8155600101620002d7565b50505b505050565b81516001600160401b03811115620003105762000310620000d7565b62000328816200032184546200026a565b84620002a4565b602080601f8311600181146200035e575f8415620003465750858301515b5f19600386901b1c1916600185901b178555620003b8565b5f85815260208120601f198616915b828110156200038e578886015182559484019460019091019084016200036d565b5085821015620003ac57878501515f19600388901b60f8161c191681555b505060018460011b0185555b505050505050565b6106d880620003ce5f395ff3fe608060405234801561000f575f80fd5b506004361061007a575f3560e01c8063609ff1bd11610058578063609ff1bd146100e75780639e7b8d61146100fd578063a3ec138d14610110578063e2ba53f014610180575f80fd5b80630121b93f1461007e578063013cf08b146100935780632e4176cf146100bd575b5f80fd5b61009161008c366004610577565b610195565b005b6100a66100a1366004610577565b61028b565b6040516100b49291906105d1565b60405180910390f35b5f546100cf906001600160a01b031681565b6040516001600160a01b0390911681526020016100b4565b6100ef610340565b6040519081526020016100b4565b61009161010b3660046105f2565b6103ae565b61015161011e3660046105f2565b600160208190525f918252604090912080549181015460029091015460ff82169161010090046001600160a01b03169084565b6040516100b4949392919093845291151560208401526001600160a01b03166040830152606082015260800190565b6101886104c1565b6040516100b4919061061f565b335f90815260016020526040812080549091036101f05760405162461bcd60e51b8152602060048201526014602482015273486173206e6f20726967687420746f20766f746560601b60448201526064015b60405180910390fd5b600181015460ff16156102365760405162461bcd60e51b815260206004820152600e60248201526d20b63932b0b23c903b37ba32b21760911b60448201526064016101e7565b6001818101805460ff191690911790556002808201839055815481549091908490811061026557610265610631565b905f5260205f2090600202016001015f8282546102829190610645565b90915550505050565b6002818154811061029a575f80fd5b905f5260205f2090600202015f91509050805f0180546102b99061066a565b80601f01602080910402602001604051908101604052809291908181526020018280546102e59061066a565b80156103305780601f1061030757610100808354040283529160200191610330565b820191905f5260205f20905b81548152906001019060200180831161031357829003601f168201915b5050505050908060010154905082565b5f80805b6002548110156103a957816002828154811061036257610362610631565b905f5260205f2090600202016001015411156103a1576002818154811061038b5761038b610631565b905f5260205f2090600202016001015491508092505b600101610344565b505090565b5f546001600160a01b031633146104185760405162461bcd60e51b815260206004820152602860248201527f4f6e6c79206368616972706572736f6e2063616e2067697665207269676874206044820152673a37903b37ba329760c11b60648201526084016101e7565b6001600160a01b0381165f908152600160208190526040909120015460ff16156104845760405162461bcd60e51b815260206004820152601860248201527f54686520766f74657220616c726561647920766f7465642e000000000000000060448201526064016101e7565b6001600160a01b0381165f90815260016020526040902054156104a5575f80fd5b6001600160a01b03165f90815260016020819052604090912055565b606060026104cd610340565b815481106104dd576104dd610631565b905f5260205f2090600202015f0180546104f69061066a565b80601f01602080910402602001604051908101604052809291908181526020018280546105229061066a565b801561056d5780601f106105445761010080835404028352916020019161056d565b820191905f5260205f20905b81548152906001019060200180831161055057829003601f168201915b5050505050905090565b5f60208284031215610587575f80fd5b5035919050565b5f81518084525f5b818110156105b257602081850181015186830182015201610596565b505f602082860101526020601f19601f83011685010191505092915050565b604081525f6105e3604083018561058e565b90508260208301529392505050565b5f60208284031215610602575f80fd5b81356001600160a01b0381168114610618575f80fd5b9392505050565b602081525f610618602083018461058e565b634e487b7160e01b5f52603260045260245ffd5b8082018082111561066457634e487b7160e01b5f52601160045260245ffd5b92915050565b600181811c9082168061067e57607f821691505b60208210810361069c57634e487b7160e01b5f52602260045260245ffd5b5091905056fea264697066735822122023e5d8ebea23031c909dbe00c3d94556cecbdbbd0bded487211657cc92bae77664736f6c63430008180033",
					"opcodes": "PUSH1 0x80 PUSH1 0x40 MSTORE CALLVALUE DUP1 ISZERO PUSH3 0x10 JUMPI PUSH0 DUP1 REVERT JUMPDEST POP PUSH1 0x40 MLOAD PUSH3 0xAA6 CODESIZE SUB DUP1 PUSH3 0xAA6 DUP4 CODECOPY DUP2 ADD PUSH1 0x40 DUP2 SWAP1 MSTORE PUSH3 0x33 SWAP2 PUSH3 0x11E JUMP JUMPDEST PUSH0 DUP1 SLOAD PUSH1 0x1 PUSH1 0x1 PUSH1 0xA0 SHL SUB NOT AND CALLER SWAP1 DUP2 OR DUP3 SSTORE DUP2 MSTORE PUSH1 0x1 PUSH1 0x20 DUP2 SWAP1 MSTORE PUSH1 0x40 DUP3 KECCAK256 SSTORE JUMPDEST DUP2 MLOAD DUP2 LT ISZERO PUSH3 0xCF JUMPI PUSH1 0x2 PUSH1 0x40 MLOAD DUP1 PUSH1 0x40 ADD PUSH1 0x40 MSTORE DUP1 DUP5 DUP5 DUP2 MLOAD DUP2 LT PUSH3 0x81 JUMPI PUSH3 0x81 PUSH3 0x256 JUMP JUMPDEST PUSH1 0x20 SWAP1 DUP2 MUL SWAP2 SWAP1 SWAP2 ADD DUP2 ADD MLOAD DUP3 MSTORE PUSH0 SWAP2 DUP2 ADD DUP3 SWAP1 MSTORE DUP4 SLOAD PUSH1 0x1 DUP2 ADD DUP6 SSTORE SWAP4 DUP3 MSTORE SWAP1 KECCAK256 DUP2 MLOAD SWAP2 SWAP3 PUSH1 0x2 MUL ADD SWAP1 DUP2 SWAP1 PUSH3 0xBA SWAP1 DUP3 PUSH3 0x2F4 JUMP JUMPDEST POP PUSH1 0x20 SWAP2 SWAP1 SWAP2 ADD MLOAD PUSH1 0x1 SWAP2 DUP3 ADD SSTORE ADD PUSH3 0x55 JUMP JUMPDEST POP POP PUSH3 0x3C0 JUMP JUMPDEST PUSH4 0x4E487B71 PUSH1 0xE0 SHL PUSH0 MSTORE PUSH1 0x41 PUSH1 0x4 MSTORE PUSH1 0x24 PUSH0 REVERT JUMPDEST PUSH1 0x40 MLOAD PUSH1 0x1F DUP3 ADD PUSH1 0x1F NOT AND DUP2 ADD PUSH1 0x1 PUSH1 0x1 PUSH1 0x40 SHL SUB DUP2 GT DUP3 DUP3 LT OR ISZERO PUSH3 0x116 JUMPI PUSH3 0x116 PUSH3 0xD7 JUMP JUMPDEST PUSH1 0x40 MSTORE SWAP2 SWAP1 POP JUMP JUMPDEST PUSH0 PUSH1 0x20 DUP1 DUP4 DUP6 SUB SLT ISZERO PUSH3 0x130 JUMPI PUSH0 DUP1 REVERT JUMPDEST DUP3 MLOAD PUSH1 0x1 PUSH1 0x1 PUSH1 0x40 SHL SUB DUP1 DUP3 GT ISZERO PUSH3 0x147 JUMPI PUSH0 DUP1 REVERT JUMPDEST DUP2 DUP6 ADD SWAP2 POP PUSH1 0x1F DUP7 PUSH1 0x1F DUP5 ADD SLT PUSH3 0x15D JUMPI PUSH0 DUP1 REVERT JUMPDEST DUP3 MLOAD DUP3 DUP2 GT ISZERO PUSH3 0x172 JUMPI PUSH3 0x172 PUSH3 0xD7 JUMP JUMPDEST DUP1 PUSH1 0x5 SHL PUSH3 0x183 DUP7 DUP3 ADD PUSH3 0xEB JUMP JUMPDEST SWAP2 DUP3 MSTORE DUP5 DUP2 ADD DUP7 ADD SWAP2 DUP7 DUP2 ADD SWAP1 DUP11 DUP5 GT ISZERO PUSH3 0x19D JUMPI PUSH0 DUP1 REVERT JUMPDEST DUP8 DUP8 ADD SWAP3 POP JUMPDEST DUP4 DUP4 LT ISZERO PUSH3 0x248 JUMPI DUP3 MLOAD DUP7 DUP2 GT ISZERO PUSH3 0x1BB JUMPI PUSH0 DUP1 REVERT JUMPDEST DUP8 ADD PUSH1 0x3F DUP2 ADD DUP13 SGT PUSH3 0x1CC JUMPI PUSH0 DUP1 REVERT JUMPDEST DUP9 DUP2 ADD MLOAD DUP8 DUP2 GT ISZERO PUSH3 0x1E3 JUMPI PUSH3 0x1E3 PUSH3 0xD7 JUMP JUMPDEST PUSH3 0x1F6 DUP2 DUP9 ADD PUSH1 0x1F NOT AND DUP12 ADD PUSH3 0xEB JUMP JUMPDEST DUP2 DUP2 MSTORE PUSH1 0x40 DUP15 DUP2 DUP5 DUP7 ADD ADD GT ISZERO PUSH3 0x20C JUMPI PUSH0 DUP1 REVERT JUMPDEST PUSH0 JUMPDEST DUP4 DUP2 LT ISZERO PUSH3 0x22B JUMPI DUP5 DUP2 ADD DUP3 ADD MLOAD DUP4 DUP3 ADD DUP15 ADD MSTORE DUP13 ADD PUSH3 0x20E JUMP JUMPDEST POP POP PUSH0 SWAP2 DUP2 ADD DUP12 ADD SWAP2 SWAP1 SWAP2 MSTORE DUP4 MSTORE POP SWAP2 DUP8 ADD SWAP2 SWAP1 DUP8 ADD SWAP1 PUSH3 0x1A3 JUMP JUMPDEST SWAP11 SWAP10 POP POP POP POP POP POP POP POP POP POP JUMP JUMPDEST PUSH4 0x4E487B71 PUSH1 0xE0 SHL PUSH0 MSTORE PUSH1 0x32 PUSH1 0x4 MSTORE PUSH1 0x24 PUSH0 REVERT JUMPDEST PUSH1 0x1 DUP2 DUP2 SHR SWAP1 DUP3 AND DUP1 PUSH3 0x27F JUMPI PUSH1 0x7F DUP3 AND SWAP2 POP JUMPDEST PUSH1 0x20 DUP3 LT DUP2 SUB PUSH3 0x29E JUMPI PUSH4 0x4E487B71 PUSH1 0xE0 SHL PUSH0 MSTORE PUSH1 0x22 PUSH1 0x4 MSTORE PUSH1 0x24 PUSH0 REVERT JUMPDEST POP SWAP2 SWAP1 POP JUMP JUMPDEST PUSH1 0x1F DUP3 GT ISZERO PUSH3 0x2EF JUMPI DUP1 PUSH0 MSTORE PUSH1 0x20 PUSH0 KECCAK256 PUSH1 0x1F DUP5 ADD PUSH1 0x5 SHR DUP2 ADD PUSH1 0x20 DUP6 LT ISZERO PUSH3 0x2CB JUMPI POP DUP1 JUMPDEST PUSH1 0x1F DUP5 ADD PUSH1 0x5 SHR DUP3 ADD SWAP2 POP JUMPDEST DUP2 DUP2 LT ISZERO PUSH3 0x2EC JUMPI PUSH0 DUP2 SSTORE PUSH1 0x1 ADD PUSH3 0x2D7 JUMP JUMPDEST POP POP JUMPDEST POP POP POP JUMP JUMPDEST DUP2 MLOAD PUSH1 0x1 PUSH1 0x1 PUSH1 0x40 SHL SUB DUP2 GT ISZERO PUSH3 0x310 JUMPI PUSH3 0x310 PUSH3 0xD7 JUMP JUMPDEST PUSH3 0x328 DUP2 PUSH3 0x321 DUP5 SLOAD PUSH3 0x26A JUMP JUMPDEST DUP5 PUSH3 0x2A4 JUMP JUMPDEST PUSH1 0x20 DUP1 PUSH1 0x1F DUP4 GT PUSH1 0x1 DUP2 EQ PUSH3 0x35E JUMPI PUSH0 DUP5 ISZERO PUSH3 0x346 JUMPI POP DUP6 DUP4 ADD MLOAD JUMPDEST PUSH0 NOT PUSH1 0x3 DUP7 SWAP1 SHL SHR NOT AND PUSH1 0x1 DUP6 SWAP1 SHL OR DUP6 SSTORE PUSH3 0x3B8 JUMP JUMPDEST PUSH0 DUP6 DUP2 MSTORE PUSH1 0x20 DUP2 KECCAK256 PUSH1 0x1F NOT DUP7 AND SWAP2 JUMPDEST DUP3 DUP2 LT ISZERO PUSH3 0x38E JUMPI DUP9 DUP7 ADD MLOAD DUP3 SSTORE SWAP5 DUP5 ADD SWAP5 PUSH1 0x1 SWAP1 SWAP2 ADD SWAP1 DUP5 ADD PUSH3 0x36D JUMP JUMPDEST POP DUP6 DUP3 LT ISZERO PUSH3 0x3AC JUMPI DUP8 DUP6 ADD MLOAD PUSH0 NOT PUSH1 0x3 DUP9 SWAP1 SHL PUSH1 0xF8 AND SHR NOT AND DUP2 SSTORE JUMPDEST POP POP PUSH1 0x1 DUP5 PUSH1 0x1 SHL ADD DUP6 SSTORE JUMPDEST POP POP POP POP POP POP JUMP JUMPDEST PUSH2 0x6D8 DUP1 PUSH3 0x3CE PUSH0 CODECOPY PUSH0 RETURN INVALID PUSH1 0x80 PUSH1 0x40 MSTORE CALLVALUE DUP1 ISZERO PUSH2 0xF JUMPI PUSH0 DUP1 REVERT JUMPDEST POP PUSH1 0x4 CALLDATASIZE LT PUSH2 0x7A JUMPI PUSH0 CALLDATALOAD PUSH1 0xE0 SHR DUP1 PUSH4 0x609FF1BD GT PUSH2 0x58 JUMPI DUP1 PUSH4 0x609FF1BD EQ PUSH2 0xE7 JUMPI DUP1 PUSH4 0x9E7B8D61 EQ PUSH2 0xFD JUMPI DUP1 PUSH4 0xA3EC138D EQ PUSH2 0x110 JUMPI DUP1 PUSH4 0xE2BA53F0 EQ PUSH2 0x180 JUMPI PUSH0 DUP1 REVERT JUMPDEST DUP1 PUSH4 0x121B93F EQ PUSH2 0x7E JUMPI DUP1 PUSH4 0x13CF08B EQ PUSH2 0x93 JUMPI DUP1 PUSH4 0x2E4176CF EQ PUSH2 0xBD JUMPI JUMPDEST PUSH0 DUP1 REVERT JUMPDEST PUSH2 0x91 PUSH2 0x8C CALLDATASIZE PUSH1 0x4 PUSH2 0x577 JUMP JUMPDEST PUSH2 0x195 JUMP JUMPDEST STOP JUMPDEST PUSH2 0xA6 PUSH2 0xA1 CALLDATASIZE PUSH1 0x4 PUSH2 0x577 JUMP JUMPDEST PUSH2 0x28B JUMP JUMPDEST PUSH1 0x40 MLOAD PUSH2 0xB4 SWAP3 SWAP2 SWAP1 PUSH2 0x5D1 JUMP JUMPDEST PUSH1 0x40 MLOAD DUP1 SWAP2 SUB SWAP1 RETURN JUMPDEST PUSH0 SLOAD PUSH2 0xCF SWAP1 PUSH1 0x1 PUSH1 0x1 PUSH1 0xA0 SHL SUB AND DUP2 JUMP JUMPDEST PUSH1 0x40 MLOAD PUSH1 0x1 PUSH1 0x1 PUSH1 0xA0 SHL SUB SWAP1 SWAP2 AND DUP2 MSTORE PUSH1 0x20 ADD PUSH2 0xB4 JUMP JUMPDEST PUSH2 0xEF PUSH2 0x340 JUMP JUMPDEST PUSH1 0x40 MLOAD SWAP1 DUP2 MSTORE PUSH1 0x20 ADD PUSH2 0xB4 JUMP JUMPDEST PUSH2 0x91 PUSH2 0x10B CALLDATASIZE PUSH1 0x4 PUSH2 0x5F2 JUMP JUMPDEST PUSH2 0x3AE JUMP JUMPDEST PUSH2 0x151 PUSH2 0x11E CALLDATASIZE PUSH1 0x4 PUSH2 0x5F2 JUMP JUMPDEST PUSH1 0x1 PUSH1 0x20 DUP2 SWAP1 MSTORE PUSH0 SWAP2 DUP3 MSTORE PUSH1 0x40 SWAP1 SWAP2 KECCAK256 DUP1 SLOAD SWAP2 DUP2 ADD SLOAD PUSH1 0x2 SWAP1 SWAP2 ADD SLOAD PUSH1 0xFF DUP3 AND SWAP2 PUSH2 0x100 SWAP1 DIV PUSH1 0x1 PUSH1 0x1 PUSH1 0xA0 SHL SUB AND SWAP1 DUP5 JUMP JUMPDEST PUSH1 0x40 MLOAD PUSH2 0xB4 SWAP5 SWAP4 SWAP3 SWAP2 SWAP1 SWAP4 DUP5 MSTORE SWAP2 ISZERO ISZERO PUSH1 0x20 DUP5 ADD MSTORE PUSH1 0x1 PUSH1 0x1 PUSH1 0xA0 SHL SUB AND PUSH1 0x40 DUP4 ADD MSTORE PUSH1 0x60 DUP3 ADD MSTORE PUSH1 0x80 ADD SWAP1 JUMP JUMPDEST PUSH2 0x188 PUSH2 0x4C1 JUMP JUMPDEST PUSH1 0x40 MLOAD PUSH2 0xB4 SWAP2 SWAP1 PUSH2 0x61F JUMP JUMPDEST CALLER PUSH0 SWAP1 DUP2 MSTORE PUSH1 0x1 PUSH1 0x20 MSTORE PUSH1 0x40 DUP2 KECCAK256 DUP1 SLOAD SWAP1 SWAP2 SUB PUSH2 0x1F0 JUMPI PUSH1 0x40 MLOAD PUSH3 0x461BCD PUSH1 0xE5 SHL DUP2 MSTORE PUSH1 0x20 PUSH1 0x4 DUP3 ADD MSTORE PUSH1 0x14 PUSH1 0x24 DUP3 ADD MSTORE PUSH20 0x486173206E6F20726967687420746F20766F7465 PUSH1 0x60 SHL PUSH1 0x44 DUP3 ADD MSTORE PUSH1 0x64 ADD JUMPDEST PUSH1 0x40 MLOAD DUP1 SWAP2 SUB SWAP1 REVERT JUMPDEST PUSH1 0x1 DUP2 ADD SLOAD PUSH1 0xFF AND ISZERO PUSH2 0x236 JUMPI PUSH1 0x40 MLOAD PUSH3 0x461BCD PUSH1 0xE5 SHL DUP2 MSTORE PUSH1 0x20 PUSH1 0x4 DUP3 ADD MSTORE PUSH1 0xE PUSH1 0x24 DUP3 ADD MSTORE PUSH14 0x20B63932B0B23C903B37BA32B217 PUSH1 0x91 SHL PUSH1 0x44 DUP3 ADD MSTORE PUSH1 0x64 ADD PUSH2 0x1E7 JUMP JUMPDEST PUSH1 0x1 DUP2 DUP2 ADD DUP1 SLOAD PUSH1 0xFF NOT AND SWAP1 SWAP2 OR SWAP1 SSTORE PUSH1 0x2 DUP1 DUP3 ADD DUP4 SWAP1 SSTORE DUP2 SLOAD DUP2 SLOAD SWAP1 SWAP2 SWAP1 DUP5 SWAP1 DUP2 LT PUSH2 0x265 JUMPI PUSH2 0x265 PUSH2 0x631 JUMP JUMPDEST SWAP1 PUSH0 MSTORE PUSH1 0x20 PUSH0 KECCAK256 SWAP1 PUSH1 0x2 MUL ADD PUSH1 0x1 ADD PUSH0 DUP3 DUP3 SLOAD PUSH2 0x282 SWAP2 SWAP1 PUSH2 0x645 JUMP JUMPDEST SWAP1 SWAP2 SSTORE POP POP POP POP JUMP JUMPDEST PUSH1 0x2 DUP2 DUP2 SLOAD DUP2 LT PUSH2 0x29A JUMPI PUSH0 DUP1 REVERT JUMPDEST SWAP1 PUSH0 MSTORE PUSH1 0x20 PUSH0 KECCAK256 SWAP1 PUSH1 0x2 MUL ADD PUSH0 SWAP2 POP SWAP1 POP DUP1 PUSH0 ADD DUP1 SLOAD PUSH2 0x2B9 SWAP1 PUSH2 0x66A JUMP JUMPDEST DUP1 PUSH1 0x1F ADD PUSH1 0x20 DUP1 SWAP2 DIV MUL PUSH1 0x20 ADD PUSH1 0x40 MLOAD SWAP1 DUP2 ADD PUSH1 0x40 MSTORE DUP1 SWAP3 SWAP2 SWAP1 DUP2 DUP2 MSTORE PUSH1 0x20 ADD DUP3 DUP1 SLOAD PUSH2 0x2E5 SWAP1 PUSH2 0x66A JUMP JUMPDEST DUP1 ISZERO PUSH2 0x330 JUMPI DUP1 PUSH1 0x1F LT PUSH2 0x307 JUMPI PUSH2 0x100 DUP1 DUP4 SLOAD DIV MUL DUP4 MSTORE SWAP2 PUSH1 0x20 ADD SWAP2 PUSH2 0x330 JUMP JUMPDEST DUP3 ADD SWAP2 SWAP1 PUSH0 MSTORE PUSH1 0x20 PUSH0 KECCAK256 SWAP1 JUMPDEST DUP2 SLOAD DUP2 MSTORE SWAP1 PUSH1 0x1 ADD SWAP1 PUSH1 0x20 ADD DUP1 DUP4 GT PUSH2 0x313 JUMPI DUP3 SWAP1 SUB PUSH1 0x1F AND DUP3 ADD SWAP2 JUMPDEST POP POP POP POP POP SWAP1 DUP1 PUSH1 0x1 ADD SLOAD SWAP1 POP DUP3 JUMP JUMPDEST PUSH0 DUP1 DUP1 JUMPDEST PUSH1 0x2 SLOAD DUP2 LT ISZERO PUSH2 0x3A9 JUMPI DUP2 PUSH1 0x2 DUP3 DUP2 SLOAD DUP2 LT PUSH2 0x362 JUMPI PUSH2 0x362 PUSH2 0x631 JUMP JUMPDEST SWAP1 PUSH0 MSTORE PUSH1 0x20 PUSH0 KECCAK256 SWAP1 PUSH1 0x2 MUL ADD PUSH1 0x1 ADD SLOAD GT ISZERO PUSH2 0x3A1 JUMPI PUSH1 0x2 DUP2 DUP2 SLOAD DUP2 LT PUSH2 0x38B JUMPI PUSH2 0x38B PUSH2 0x631 JUMP JUMPDEST SWAP1 PUSH0 MSTORE PUSH1 0x20 PUSH0 KECCAK256 SWAP1 PUSH1 0x2 MUL ADD PUSH1 0x1 ADD SLOAD SWAP2 POP DUP1 SWAP3 POP JUMPDEST PUSH1 0x1 ADD PUSH2 0x344 JUMP JUMPDEST POP POP SWAP1 JUMP JUMPDEST PUSH0 SLOAD PUSH1 0x1 PUSH1 0x1 PUSH1 0xA0 SHL SUB AND CALLER EQ PUSH2 0x418 JUMPI PUSH1 0x40 MLOAD PUSH3 0x461BCD PUSH1 0xE5 SHL DUP2 MSTORE PUSH1 0x20 PUSH1 0x4 DUP3 ADD MSTORE PUSH1 0x28 PUSH1 0x24 DUP3 ADD MSTORE PUSH32 0x4F6E6C79206368616972706572736F6E2063616E206769766520726967687420 PUSH1 0x44 DUP3 ADD MSTORE PUSH8 0x3A37903B37BA3297 PUSH1 0xC1 SHL PUSH1 0x64 DUP3 ADD MSTORE PUSH1 0x84 ADD PUSH2 0x1E7 JUMP JUMPDEST PUSH1 0x1 PUSH1 0x1 PUSH1 0xA0 SHL SUB DUP2 AND PUSH0 SWAP1 DUP2 MSTORE PUSH1 0x1 PUSH1 0x20 DUP2 SWAP1 MSTORE PUSH1 0x40 SWAP1 SWAP2 KECCAK256 ADD SLOAD PUSH1 0xFF AND ISZERO PUSH2 0x484 JUMPI PUSH1 0x40 MLOAD PUSH3 0x461BCD PUSH1 0xE5 SHL DUP2 MSTORE PUSH1 0x20 PUSH1 0x4 DUP3 ADD MSTORE PUSH1 0x18 PUSH1 0x24 DUP3 ADD MSTORE PUSH32 0x54686520766F74657220616C726561647920766F7465642E0000000000000000 PUSH1 0x44 DUP3 ADD MSTORE PUSH1 0x64 ADD PUSH2 0x1E7 JUMP JUMPDEST PUSH1 0x1 PUSH1 0x1 PUSH1 0xA0 SHL SUB DUP2 AND PUSH0 SWAP1 DUP2 MSTORE PUSH1 0x1 PUSH1 0x20 MSTORE PUSH1 0x40 SWAP1 KECCAK256 SLOAD ISZERO PUSH2 0x4A5 JUMPI PUSH0 DUP1 REVERT JUMPDEST PUSH1 0x1 PUSH1 0x1 PUSH1 0xA0 SHL SUB AND PUSH0 SWAP1 DUP2 MSTORE PUSH1 0x1 PUSH1 0x20 DUP2 SWAP1 MSTORE PUSH1 0x40 SWAP1 SWAP2 KECCAK256 SSTORE JUMP JUMPDEST PUSH1 0x60 PUSH1 0x2 PUSH2 0x4CD PUSH2 0x340 JUMP JUMPDEST DUP2 SLOAD DUP2 LT PUSH2 0x4DD JUMPI PUSH2 0x4DD PUSH2 0x631 JUMP JUMPDEST SWAP1 PUSH0 MSTORE PUSH1 0x20 PUSH0 KECCAK256 SWAP1 PUSH1 0x2 MUL ADD PUSH0 ADD DUP1 SLOAD PUSH2 0x4F6 SWAP1 PUSH2 0x66A JUMP JUMPDEST DUP1 PUSH1 0x1F ADD PUSH1 0x20 DUP1 SWAP2 DIV MUL PUSH1 0x20 ADD PUSH1 0x40 MLOAD SWAP1 DUP2 ADD PUSH1 0x40 MSTORE DUP1 SWAP3 SWAP2 SWAP1 DUP2 DUP2 MSTORE PUSH1 0x20 ADD DUP3 DUP1 SLOAD PUSH2 0x522 SWAP1 PUSH2 0x66A JUMP JUMPDEST DUP1 ISZERO PUSH2 0x56D JUMPI DUP1 PUSH1 0x1F LT PUSH2 0x544 JUMPI PUSH2 0x100 DUP1 DUP4 SLOAD DIV MUL DUP4 MSTORE SWAP2 PUSH1 0x20 ADD SWAP2 PUSH2 0x56D JUMP JUMPDEST DUP3 ADD SWAP2 SWAP1 PUSH0 MSTORE PUSH1 0x20 PUSH0 KECCAK256 SWAP1 JUMPDEST DUP2 SLOAD DUP2 MSTORE SWAP1 PUSH1 0x1 ADD SWAP1 PUSH1 0x20 ADD DUP1 DUP4 GT PUSH2 0x550 JUMPI DUP3 SWAP1 SUB PUSH1 0x1F AND DUP3 ADD SWAP2 JUMPDEST POP POP POP POP POP SWAP1 POP SWAP1 JUMP JUMPDEST PUSH0 PUSH1 0x20 DUP3 DUP5 SUB SLT ISZERO PUSH2 0x587 JUMPI PUSH0 DUP1 REVERT JUMPDEST POP CALLDATALOAD SWAP2 SWAP1 POP JUMP JUMPDEST PUSH0 DUP2 MLOAD DUP1 DUP5 MSTORE PUSH0 JUMPDEST DUP2 DUP2 LT ISZERO PUSH2 0x5B2 JUMPI PUSH1 0x20 DUP2 DUP6 ADD DUP2 ADD MLOAD DUP7 DUP4 ADD DUP3 ADD MSTORE ADD PUSH2 0x596 JUMP JUMPDEST POP PUSH0 PUSH1 0x20 DUP3 DUP7 ADD ADD MSTORE PUSH1 0x20 PUSH1 0x1F NOT PUSH1 0x1F DUP4 ADD AND DUP6 ADD ADD SWAP2 POP POP SWAP3 SWAP2 POP POP JUMP JUMPDEST PUSH1 0x40 DUP2 MSTORE PUSH0 PUSH2 0x5E3 PUSH1 0x40 DUP4 ADD DUP6 PUSH2 0x58E JUMP JUMPDEST SWAP1 POP DUP3 PUSH1 0x20 DUP4 ADD MSTORE SWAP4 SWAP3 POP POP POP JUMP JUMPDEST PUSH0 PUSH1 0x20 DUP3 DUP5 SUB SLT ISZERO PUSH2 0x602 JUMPI PUSH0 DUP1 REVERT JUMPDEST DUP2 CALLDATALOAD PUSH1 0x1 PUSH1 0x1 PUSH1 0xA0 SHL SUB DUP2 AND DUP2 EQ PUSH2 0x618 JUMPI PUSH0 DUP1 REVERT JUMPDEST SWAP4 SWAP3 POP POP POP JUMP JUMPDEST PUSH1 0x20 DUP2 MSTORE PUSH0 PUSH2 0x618 PUSH1 0x20 DUP4 ADD DUP5 PUSH2 0x58E JUMP JUMPDEST PUSH4 0x4E487B71 PUSH1 0xE0 SHL PUSH0 MSTORE PUSH1 0x32 PUSH1 0x4 MSTORE PUSH1 0x24 PUSH0 REVERT JUMPDEST DUP1 DUP3 ADD DUP1 DUP3 GT ISZERO PUSH2 0x664 JUMPI PUSH4 0x4E487B71 PUSH1 0xE0 SHL PUSH0 MSTORE PUSH1 0x11 PUSH1 0x4 MSTORE PUSH1 0x24 PUSH0 REVERT JUMPDEST SWAP3 SWAP2 POP POP JUMP JUMPDEST PUSH1 0x1 DUP2 DUP2 SHR SWAP1 DUP3 AND DUP1 PUSH2 0x67E JUMPI PUSH1 0x7F DUP3 AND SWAP2 POP JUMPDEST PUSH1 0x20 DUP3 LT DUP2 SUB PUSH2 0x69C JUMPI PUSH4 0x4E487B71 PUSH1 0xE0 SHL PUSH0 MSTORE PUSH1 0x22 PUSH1 0x4 MSTORE PUSH1 0x24 PUSH0 REVERT JUMPDEST POP SWAP2 SWAP1 POP JUMP INVALID LOG2 PUSH5 0x6970667358 0x22 SLT KECCAK256 0x23 0xE5 0xD8 0xEB 0xEA 0x23 SUB SHR SWAP1 SWAP14 0xBE STOP 0xC3 0xD9 GASLIMIT JUMP 0xCE 0xCB 0xDB 0xBD SIGNEXTEND 0xDE 0xD4 DUP8 0x21 AND JUMPI 0xCC SWAP3 0xBA 0xE7 PUSH23 0x64736F6C63430008180033000000000000000000000000 "
				},
				"gasEstimates": {
					"creation": {
						"codeDepositCost": "350400",
						"executionCost": "infinite",
						"totalCost": "infinite"
					},
					"external": {
						"chairperson()": "2380",
						"giveRightToVote(address)": "29051",
						"proposals(uint256)": "infinite",
						"vote(uint256)": "79509",
						"voters(address)": "6892",
						"winnerName()": "infinite",
						"winningProposal()": "infinite"
					}
				},
				"methodIdentifiers": {
					"chairperson()": "2e4176cf",
					"giveRightToVote(address)": "9e7b8d61",
					"proposals(uint256)": "013cf08b",
					"vote(uint256)": "0121b93f",
					"voters(address)": "a3ec138d",
					"winnerName()": "e2ba53f0",
					"winningProposal()": "609ff1bd"
				}
			},
			"storageLayout": {
				"storage": [
					{
						"astId": 18,
						"contract": "contracts/Ballot.sol:Ballot",
						"label": "chairperson",
						"offset": 0,
						"slot": "0",
						"type": "t_address"
					},
					{
						"astId": 23,
						"contract": "contracts/Ballot.sol:Ballot",
						"label": "voters",
						"offset": 0,
						"slot": "1",
						"type": "t_mapping(t_address,t_struct(Voter)11_storage)"
					},
					{
						"astId": 27,
						"contract": "contracts/Ballot.sol:Ballot",
						"label": "proposals",
						"offset": 0,
						"slot": "2",
						"type": "t_array(t_struct(Proposal)16_storage)dyn_storage"
					}
				],
				"types": {
					"t_address": {
						"encoding": "inplace",
						"label": "address",
						"numberOfBytes": "20"
					},
					"t_array(t_struct(Proposal)16_storage)dyn_storage": {
						"base": "t_struct(Proposal)16_storage",
						"encoding": "dynamic_array",
						"label": "struct Ballot.Proposal[]",
						"numberOfBytes": "32"
					},
					"t_bool": {
						"encoding": "inplace",
						"label": "bool",
						"numberOfBytes": "1"
					},
					"t_mapping(t_address,t_struct(Voter)11_storage)": {
						"encoding": "mapping",
						"key": "t_address",
						"label": "mapping(address => struct Ballot.Voter)",
						"numberOfBytes": "32",
						"value": "t_struct(Voter)11_storage"
					},
					"t_string_storage": {
						"encoding": "bytes",
						"label": "string",
						"numberOfBytes": "32"
					},
					"t_struct(Proposal)16_storage": {
						"encoding": "inplace",
						"label": "struct Ballot.Proposal",
						"members": [
							{
								"astId": 13,
								"contract": "contracts/Ballot.sol:Ballot",
								"label": "name",
								"offset": 0,
								"slot": "0",
								"type": "t_string_storage"
							},
							{
								"astId": 15,
								"contract": "contracts/Ballot.sol:Ballot",
								"label": "voteCount",
								"offset": 0,
								"slot": "1",
								"type": "t_uint256"
							}
						],
						"numberOfBytes": "64"
					},
					"t_struct(Voter)11_storage": {
						"encoding": "inplace",
						"label": "struct Ballot.Voter",
						"members": [
							{
								"astId": 4,
								"contract": "contracts/Ballot.sol:Ballot",
								"label": "weight",
								"offset": 0,
								"slot": "0",
								"type": "t_uint256"
							},
							{
								"astId": 6,
								"contract": "contracts/Ballot.sol:Ballot",
								"label": "voted",
								"offset": 0,
								"slot": "1",
								"type": "t_bool"
							},
							{
								"astId": 8,
								"contract": "contracts/Ballot.sol:Ballot",
								"label": "delegate",
								"offset": 1,
								"slot": "1",
								"type": "t_address"
							},
							{
								"astId": 10,
								"contract": "contracts/Ballot.sol:Ballot",
								"label": "vote",
								"offset": 0,
								"slot": "2",
								"type": "t_uint256"
							}
						],
						"numberOfBytes": "96"
					},
					"t_uint256": {
						"encoding": "inplace",
						"label": "uint256",
						"numberOfBytes": "32"
					}
				}
			},
			"userdoc": {
				"kind": "user",
				"methods": {},
				"version": 1
			}
		}
	}
}