{
	"contracts/5_Location.sol": {
		"Locatoins": {
			"abi": [
				{
					"inputs": [],
					"name": "iniHasil",
					"outputs": [
						{
							"internalType": "uint256",
							"name": "",
							"type": "uint256"
						}
					],
					"stateMutability": "nonpayable",
					"type": "function"
				},
				{
					"inputs": [],
					"name": "refrencesTypes",
					"outputs": [
						{
							"internalType": "uint256[]",
							"name": "",
							"type": "uint256[]"
						},
						{
							"internalType": "uint256[]",
							"name": "",
							"type": "uint256[]"
						}
					],
					"stateMutability": "pure",
					"type": "function"
				}
			],
			"devdoc": {
				"kind": "dev",
				"methods": {},
				"version": 1
			},
			"evm": {
				"assembly": "    /* \"contracts/5_Location.sol\":1549:2687  contract Locatoins {... */\n  mstore(0x40, 0x80)\n    /* \"contracts/5_Location.sol\":1591:1593  10 */\n  0x0a\n    /* \"contracts/5_Location.sol\":1575:1593  uint stateVar = 10 */\n  0x00\n  sstore\n    /* \"contracts/5_Location.sol\":1549:2687  contract Locatoins {... */\n  callvalue\n  dup1\n  iszero\n  tag_1\n  jumpi\n  0x00\n  dup1\n  revert\ntag_1:\n  pop\n  dataSize(sub_0)\n  dup1\n  dataOffset(sub_0)\n  0x00\n  codecopy\n  0x00\n  return\nstop\n\nsub_0: assembly {\n        /* \"contracts/5_Location.sol\":1549:2687  contract Locatoins {... */\n      mstore(0x40, 0x80)\n      callvalue\n      dup1\n      iszero\n      tag_1\n      jumpi\n      0x00\n      dup1\n      revert\n    tag_1:\n      pop\n      jumpi(tag_2, lt(calldatasize, 0x04))\n      shr(0xe0, calldataload(0x00))\n      dup1\n      0xb9f6209f\n      eq\n      tag_3\n      jumpi\n      dup1\n      0xc87a5acc\n      eq\n      tag_4\n      jumpi\n    tag_2:\n      0x00\n      dup1\n      revert\n        /* \"contracts/5_Location.sol\":1968:2684  function refrencesTypes() public pure returns(uint[] memory, uint[]memory) {... */\n    tag_3:\n      tag_5\n      tag_6\n      jump\t// in\n    tag_5:\n      mload(0x40)\n      tag_7\n      swap3\n      swap2\n      swap1\n      tag_8\n      jump\t// in\n    tag_7:\n      mload(0x40)\n      dup1\n      swap2\n      sub\n      swap1\n      return\n        /* \"contracts/5_Location.sol\":1600:1960  function iniHasil() public returns(uint) {... */\n    tag_4:\n        /* \"contracts/5_Location.sol\":1668:1670  40 */\n      0x28\n        /* \"contracts/5_Location.sol\":1635:1639  uint */\n      0x00\n        /* \"contracts/5_Location.sol\":1681:1700  stateVar = localVar */\n      dup2\n      swap1\n      sstore\n        /* \"contracts/5_Location.sol\":1600:1960  function iniHasil() public returns(uint) {... */\n      mload(0x40)\n        /* \"#utility.yul\":1074:1099   */\n      swap1\n      dup2\n      mstore\n        /* \"#utility.yul\":1062:1064   */\n      0x20\n        /* \"#utility.yul\":1047:1065   */\n      add\n        /* \"contracts/5_Location.sol\":1600:1960  function iniHasil() public returns(uint) {... */\n      tag_7\n        /* \"#utility.yul\":928:1105   */\n      jump\n        /* \"contracts/5_Location.sol\":1968:2684  function refrencesTypes() public pure returns(uint[] memory, uint[]memory) {... */\n    tag_6:\n        /* \"contracts/5_Location.sol\":2162:2175  new uint[](3) */\n      0x40\n      dup1\n      mload\n        /* \"contracts/5_Location.sol\":2173:2174  3 */\n      0x03\n        /* \"contracts/5_Location.sol\":2162:2175  new uint[](3) */\n      dup1\n      dup3\n      mstore\n      0x80\n      dup3\n      add\n      swap1\n      swap3\n      mstore\n        /* \"contracts/5_Location.sol\":2014:2027  uint[] memory */\n      0x60\n      swap2\n      dup3\n      swap2\n        /* \"contracts/5_Location.sol\":2131:2159  uint[] memory refrencesType1 */\n      0x00\n      swap2\n        /* \"contracts/5_Location.sol\":2162:2175  new uint[](3) */\n      0x20\n      dup3\n      add\n        /* \"contracts/5_Location.sol\":2014:2027  uint[] memory */\n      dup5\n      dup1\n        /* \"contracts/5_Location.sol\":2162:2175  new uint[](3) */\n      calldatasize\n      dup4\n      calldatacopy\n      add\n      swap1\n      pop\n      pop\n        /* \"contracts/5_Location.sol\":2131:2175  uint[] memory refrencesType1 = new uint[](3) */\n      swap1\n      pop\n        /* \"contracts/5_Location.sol\":2208:2210  10 */\n      0x0a\n        /* \"contracts/5_Location.sol\":2188:2202  refrencesType1 */\n      dup2\n        /* \"contracts/5_Location.sol\":2203:2204  0 */\n      0x00\n        /* \"contracts/5_Location.sol\":2188:2205  refrencesType1[0] */\n      dup2\n      mload\n      dup2\n      lt\n      tag_19\n      jumpi\n      tag_19\n      tag_20\n      jump\t// in\n    tag_19:\n      0x20\n      mul\n      0x20\n      add\n      add\n        /* \"contracts/5_Location.sol\":2188:2210  refrencesType1[0] = 10 */\n      dup2\n      dup2\n      mstore\n      pop\n      pop\n        /* \"contracts/5_Location.sol\":2241:2243  30 */\n      0x1e\n        /* \"contracts/5_Location.sol\":2221:2235  refrencesType1 */\n      dup2\n        /* \"contracts/5_Location.sol\":2236:2237  1 */\n      0x01\n        /* \"contracts/5_Location.sol\":2221:2238  refrencesType1[1] */\n      dup2\n      mload\n      dup2\n      lt\n      tag_22\n      jumpi\n      tag_22\n      tag_20\n      jump\t// in\n    tag_22:\n      0x20\n      mul\n      0x20\n      add\n      add\n        /* \"contracts/5_Location.sol\":2221:2243  refrencesType1[1] = 30 */\n      dup2\n      dup2\n      mstore\n      pop\n      pop\n        /* \"contracts/5_Location.sol\":2274:2276  50 */\n      0x32\n        /* \"contracts/5_Location.sol\":2254:2268  refrencesType1 */\n      dup2\n        /* \"contracts/5_Location.sol\":2269:2270  2 */\n      0x02\n        /* \"contracts/5_Location.sol\":2254:2271  refrencesType1[2] */\n      dup2\n      mload\n      dup2\n      lt\n      tag_24\n      jumpi\n      tag_24\n      tag_20\n      jump\t// in\n    tag_24:\n      0x20\n      mul\n      0x20\n      add\n      add\n        /* \"contracts/5_Location.sol\":2254:2276  refrencesType1[2] = 50 */\n      dup2\n      dup2\n      mstore\n      pop\n      pop\n        /* \"contracts/5_Location.sol\":2289:2317  uint[] memory refrencesType2 */\n      0x00\n        /* \"contracts/5_Location.sol\":2320:2334  refrencesType1 */\n      dup2\n        /* \"contracts/5_Location.sol\":2289:2334  uint[] memory refrencesType2 = refrencesType1 */\n      swap1\n      pop\n        /* \"contracts/5_Location.sol\":2365:2368  100 */\n      0x64\n        /* \"contracts/5_Location.sol\":2345:2359  refrencesType1 */\n      dup3\n        /* \"contracts/5_Location.sol\":2360:2361  0 */\n      0x00\n        /* \"contracts/5_Location.sol\":2345:2362  refrencesType1[0] */\n      dup2\n      mload\n      dup2\n      lt\n      tag_26\n      jumpi\n      tag_26\n      tag_20\n      jump\t// in\n    tag_26:\n      0x20\n      swap1\n      dup2\n      mul\n      swap2\n      swap1\n      swap2\n      add\n      add\n        /* \"contracts/5_Location.sol\":2345:2368  refrencesType1[0] = 100 */\n      mstore\n        /* \"contracts/5_Location.sol\":2387:2401  refrencesType1 */\n      swap1\n      swap4\n        /* \"contracts/5_Location.sol\":2403:2417  refrencesType2 */\n      swap1\n      swap3\n      pop\n        /* \"contracts/5_Location.sol\":1968:2684  function refrencesTypes() public pure returns(uint[] memory, uint[]memory) {... */\n      swap1\n      pop\n      jump\t// out\n        /* \"#utility.yul\":14:453   */\n    tag_28:\n        /* \"#utility.yul\":67:70   */\n      0x00\n        /* \"#utility.yul\":105:110   */\n      dup2\n        /* \"#utility.yul\":99:111   */\n      mload\n        /* \"#utility.yul\":132:138   */\n      dup1\n        /* \"#utility.yul\":127:130   */\n      dup5\n        /* \"#utility.yul\":120:139   */\n      mstore\n        /* \"#utility.yul\":158:162   */\n      0x20\n        /* \"#utility.yul\":187:191   */\n      dup1\n        /* \"#utility.yul\":182:185   */\n      dup6\n        /* \"#utility.yul\":178:192   */\n      add\n        /* \"#utility.yul\":171:192   */\n      swap5\n      pop\n        /* \"#utility.yul\":226:230   */\n      0x20\n        /* \"#utility.yul\":219:224   */\n      dup5\n        /* \"#utility.yul\":215:231   */\n      add\n        /* \"#utility.yul\":249:250   */\n      0x00\n        /* \"#utility.yul\":259:428   */\n    tag_31:\n        /* \"#utility.yul\":273:279   */\n      dup4\n        /* \"#utility.yul\":270:271   */\n      dup2\n        /* \"#utility.yul\":267:280   */\n      lt\n        /* \"#utility.yul\":259:428   */\n      iszero\n      tag_33\n      jumpi\n        /* \"#utility.yul\":334:347   */\n      dup2\n      mload\n        /* \"#utility.yul\":322:348   */\n      dup8\n      mstore\n        /* \"#utility.yul\":368:380   */\n      swap6\n      dup3\n      add\n      swap6\n        /* \"#utility.yul\":403:418   */\n      swap1\n      dup3\n      add\n      swap1\n        /* \"#utility.yul\":295:296   */\n      0x01\n        /* \"#utility.yul\":288:297   */\n      add\n        /* \"#utility.yul\":259:428   */\n      jump(tag_31)\n    tag_33:\n      pop\n        /* \"#utility.yul\":444:447   */\n      swap5\n      swap6\n        /* \"#utility.yul\":14:453   */\n      swap5\n      pop\n      pop\n      pop\n      pop\n      pop\n      jump\t// out\n        /* \"#utility.yul\":458:923   */\n    tag_8:\n        /* \"#utility.yul\":715:717   */\n      0x40\n        /* \"#utility.yul\":704:713   */\n      dup2\n        /* \"#utility.yul\":697:718   */\n      mstore\n        /* \"#utility.yul\":678:682   */\n      0x00\n        /* \"#utility.yul\":741:797   */\n      tag_35\n        /* \"#utility.yul\":793:795   */\n      0x40\n        /* \"#utility.yul\":782:791   */\n      dup4\n        /* \"#utility.yul\":778:796   */\n      add\n        /* \"#utility.yul\":770:776   */\n      dup6\n        /* \"#utility.yul\":741:797   */\n      tag_28\n      jump\t// in\n    tag_35:\n        /* \"#utility.yul\":845:854   */\n      dup3\n        /* \"#utility.yul\":837:843   */\n      dup2\n        /* \"#utility.yul\":833:855   */\n      sub\n        /* \"#utility.yul\":828:830   */\n      0x20\n        /* \"#utility.yul\":817:826   */\n      dup5\n        /* \"#utility.yul\":813:831   */\n      add\n        /* \"#utility.yul\":806:856   */\n      mstore\n        /* \"#utility.yul\":873:917   */\n      tag_36\n        /* \"#utility.yul\":910:916   */\n      dup2\n        /* \"#utility.yul\":902:908   */\n      dup6\n        /* \"#utility.yul\":873:917   */\n      tag_28\n      jump\t// in\n    tag_36:\n        /* \"#utility.yul\":865:917   */\n      swap6\n        /* \"#utility.yul\":458:923   */\n      swap5\n      pop\n      pop\n      pop\n      pop\n      pop\n      jump\t// out\n        /* \"#utility.yul\":1242:1369   */\n    tag_20:\n        /* \"#utility.yul\":1303:1313   */\n      0x4e487b71\n        /* \"#utility.yul\":1298:1301   */\n      0xe0\n        /* \"#utility.yul\":1294:1314   */\n      shl\n        /* \"#utility.yul\":1291:1292   */\n      0x00\n        /* \"#utility.yul\":1284:1315   */\n      mstore\n        /* \"#utility.yul\":1334:1338   */\n      0x32\n        /* \"#utility.yul\":1331:1332   */\n      0x04\n        /* \"#utility.yul\":1324:1339   */\n      mstore\n        /* \"#utility.yul\":1358:1362   */\n      0x24\n        /* \"#utility.yul\":1355:1356   */\n      0x00\n        /* \"#utility.yul\":1348:1363   */\n      revert\n\n    auxdata: 0xa26469706673582212205ce38469b11b0c90fcf55ee1994cd192dd4d755b75c7076e98b4f4cf7679ebf564736f6c63430008180033\n}\n",
				"bytecode": {
					"linkReferences": {},
					"object": "6080604052600a5f55348015610013575f80fd5b506101d0806100215f395ff3fe608060405234801561000f575f80fd5b5060043610610034575f3560e01c8063b9f6209f14610038578063c87a5acc14610057575b5f80fd5b61004061006b565b60405161004e929190610159565b60405180910390f35b60285f81905560405190815260200161004e565b6040805160038082526080820190925260609182915f91602082018480368337019050509050600a815f815181106100a5576100a5610186565b602002602001018181525050601e816001815181106100c6576100c6610186565b6020026020010181815250506032816002815181106100e7576100e7610186565b6020026020010181815250505f8190506064825f8151811061010b5761010b610186565b602090810291909101015290939092509050565b5f815180845260208085019450602084015f5b8381101561014e57815187529582019590820190600101610132565b509495945050505050565b604081525f61016b604083018561011f565b828103602084015261017d818561011f565b95945050505050565b634e487b7160e01b5f52603260045260245ffdfea26469706673582212205ce38469b11b0c90fcf55ee1994cd192dd4d755b75c7076e98b4f4cf7679ebf564736f6c63430008180033",
					"opcodes": "PUSH1 0x80 PUSH1 0x40 MSTORE PUSH1 0xA PUSH0 SSTORE CALLVALUE DUP1 ISZERO PUSH2 0x13 JUMPI PUSH0 DUP1 REVERT JUMPDEST POP PUSH2 0x1D0 DUP1 PUSH2 0x21 PUSH0 CODECOPY PUSH0 RETURN INVALID PUSH1 0x80 PUSH1 0x40 MSTORE CALLVALUE DUP1 ISZERO PUSH2 0xF JUMPI PUSH0 DUP1 REVERT JUMPDEST POP PUSH1 0x4 CALLDATASIZE LT PUSH2 0x34 JUMPI PUSH0 CALLDATALOAD PUSH1 0xE0 SHR DUP1 PUSH4 0xB9F6209F EQ PUSH2 0x38 JUMPI DUP1 PUSH4 0xC87A5ACC EQ PUSH2 0x57 JUMPI JUMPDEST PUSH0 DUP1 REVERT JUMPDEST PUSH2 0x40 PUSH2 0x6B JUMP JUMPDEST PUSH1 0x40 MLOAD PUSH2 0x4E SWAP3 SWAP2 SWAP1 PUSH2 0x159 JUMP JUMPDEST PUSH1 0x40 MLOAD DUP1 SWAP2 SUB SWAP1 RETURN JUMPDEST PUSH1 0x28 PUSH0 DUP2 SWAP1 SSTORE PUSH1 0x40 MLOAD SWAP1 DUP2 MSTORE PUSH1 0x20 ADD PUSH2 0x4E JUMP JUMPDEST PUSH1 0x40 DUP1 MLOAD PUSH1 0x3 DUP1 DUP3 MSTORE PUSH1 0x80 DUP3 ADD SWAP1 SWAP3 MSTORE PUSH1 0x60 SWAP2 DUP3 SWAP2 PUSH0 SWAP2 PUSH1 0x20 DUP3 ADD DUP5 DUP1 CALLDATASIZE DUP4 CALLDATACOPY ADD SWAP1 POP POP SWAP1 POP PUSH1 0xA DUP2 PUSH0 DUP2 MLOAD DUP2 LT PUSH2 0xA5 JUMPI PUSH2 0xA5 PUSH2 0x186 JUMP JUMPDEST PUSH1 0x20 MUL PUSH1 0x20 ADD ADD DUP2 DUP2 MSTORE POP POP PUSH1 0x1E DUP2 PUSH1 0x1 DUP2 MLOAD DUP2 LT PUSH2 0xC6 JUMPI PUSH2 0xC6 PUSH2 0x186 JUMP JUMPDEST PUSH1 0x20 MUL PUSH1 0x20 ADD ADD DUP2 DUP2 MSTORE POP POP PUSH1 0x32 DUP2 PUSH1 0x2 DUP2 MLOAD DUP2 LT PUSH2 0xE7 JUMPI PUSH2 0xE7 PUSH2 0x186 JUMP JUMPDEST PUSH1 0x20 MUL PUSH1 0x20 ADD ADD DUP2 DUP2 MSTORE POP POP PUSH0 DUP2 SWAP1 POP PUSH1 0x64 DUP3 PUSH0 DUP2 MLOAD DUP2 LT PUSH2 0x10B JUMPI PUSH2 0x10B PUSH2 0x186 JUMP JUMPDEST PUSH1 0x20 SWAP1 DUP2 MUL SWAP2 SWAP1 SWAP2 ADD ADD MSTORE SWAP1 SWAP4 SWAP1 SWAP3 POP SWAP1 POP JUMP JUMPDEST PUSH0 DUP2 MLOAD DUP1 DUP5 MSTORE PUSH1 0x20 DUP1 DUP6 ADD SWAP5 POP PUSH1 0x20 DUP5 ADD PUSH0 JUMPDEST DUP4 DUP2 LT ISZERO PUSH2 0x14E JUMPI DUP2 MLOAD DUP8 MSTORE SWAP6 DUP3 ADD SWAP6 SWAP1 DUP3 ADD SWAP1 PUSH1 0x1 ADD PUSH2 0x132 JUMP JUMPDEST POP SWAP5 SWAP6 SWAP5 POP POP POP POP POP JUMP JUMPDEST PUSH1 0x40 DUP2 MSTORE PUSH0 PUSH2 0x16B PUSH1 0x40 DUP4 ADD DUP6 PUSH2 0x11F JUMP JUMPDEST DUP3 DUP2 SUB PUSH1 0x20 DUP5 ADD MSTORE PUSH2 0x17D DUP2 DUP6 PUSH2 0x11F JUMP JUMPDEST SWAP6 SWAP5 POP POP POP POP POP JUMP JUMPDEST PUSH4 0x4E487B71 PUSH1 0xE0 SHL PUSH0 MSTORE PUSH1 0x32 PUSH1 0x4 MSTORE PUSH1 0x24 PUSH0 REVERT INVALID LOG2 PUSH5 0x6970667358 0x22 SLT KECCAK256 TLOAD 0xE3 DUP5 PUSH10 0xB11B0C90FCF55EE1994C 0xD1 SWAP3 0xDD 0x4D PUSH22 0x5B75C7076E98B4F4CF7679EBF564736F6C6343000818 STOP CALLER "
				},
				"gasEstimates": {
					"creation": {
						"codeDepositCost": "92800",
						"executionCost": "22244",
						"totalCost": "115044"
					},
					"external": {
						"iniHasil()": "22287",
						"refrencesTypes()": "infinite"
					}
				},
				"methodIdentifiers": {
					"iniHasil()": "c87a5acc",
					"refrencesTypes()": "b9f6209f"
				}
			},
			"storageLayout": {
				"storage": [
					{
						"astId": 4,
						"contract": "contracts/5_Location.sol:Locatoins",
						"label": "stateVar",
						"offset": 0,
						"slot": "0",
						"type": "t_uint256"
					}
				],
				"types": {
					"t_uint256": {
						"encoding": "inplace",
						"label": "uint256",
						"numberOfBytes": "32"
					}
				}
			},
			"userdoc": {
				"kind": "user",
				"methods": {},
				"version": 1
			}
		}
	}
}