{
	"contracts/9_ContractDaap.sol": {
		"External": {
			"abi": [
				{
					"inputs": [],
					"name": "redDataParent",
					"outputs": [
						{
							"internalType": "uint256",
							"name": "",
							"type": "uint256"
						}
					],
					"stateMutability": "nonpayable",
					"type": "function"
				}
			],
			"devdoc": {
				"kind": "dev",
				"methods": {},
				"version": 1
			},
			"evm": {
				"assembly": "    /* \"contracts/9_ContractDaap.sol\":911:1112  contract External {... */\n  mstore(0x40, 0x80)\n  callvalue\n  dup1\n  iszero\n  tag_1\n  jumpi\n  0x00\n  dup1\n  revert\ntag_1:\n  pop\n  dataSize(sub_0)\n  dup1\n  dataOffset(sub_0)\n  0x00\n  codecopy\n  0x00\n  return\nstop\n\nsub_0: assembly {\n        /* \"contracts/9_ContractDaap.sol\":911:1112  contract External {... */\n      mstore(0x40, 0x80)\n      callvalue\n      dup1\n      iszero\n      tag_1\n      jumpi\n      0x00\n      dup1\n      revert\n    tag_1:\n      pop\n      jumpi(tag_2, lt(calldatasize, 0x04))\n      shr(0xe0, calldataload(0x00))\n      dup1\n      0x5af3aaa6\n      eq\n      tag_3\n      jumpi\n    tag_2:\n      0x00\n      dup1\n      revert\n        /* \"contracts/9_ContractDaap.sol\":936:1109  function redDataParent() public returns (uint) {... */\n    tag_3:\n      tag_4\n      tag_5\n      jump\t// in\n    tag_4:\n      mload(0x40)\n        /* \"#utility.yul\":160:185   */\n      swap1\n      dup2\n      mstore\n        /* \"#utility.yul\":148:150   */\n      0x20\n        /* \"#utility.yul\":133:151   */\n      add\n        /* \"contracts/9_ContractDaap.sol\":936:1109  function redDataParent() public returns (uint) {... */\n      mload(0x40)\n      dup1\n      swap2\n      sub\n      swap1\n      return\n    tag_5:\n        /* \"contracts/9_ContractDaap.sol\":977:981  uint */\n      0x00\n        /* \"contracts/9_ContractDaap.sol\":994:1007  Parent extrnl */\n      dup1\n        /* \"contracts/9_ContractDaap.sol\":1010:1022  new Parent() */\n      mload(0x40)\n      tag_9\n      swap1\n      tag_10\n      jump\t// in\n    tag_9:\n      mload(0x40)\n      dup1\n      swap2\n      sub\n      swap1\n      0x00\n      create\n      dup1\n      iszero\n      dup1\n      iszero\n      tag_11\n      jumpi\n      returndatasize\n      0x00\n      dup1\n      returndatacopy\n      revert(0x00, returndatasize)\n    tag_11:\n      pop\n        /* \"contracts/9_ContractDaap.sol\":1033:1061  extrnl.setPublicData(10, 30) */\n      mload(0x40)\n      shl(0xe1, 0x38879f11)\n      dup2\n      mstore\n        /* \"contracts/9_ContractDaap.sol\":1054:1056  10 */\n      0x0a\n        /* \"contracts/9_ContractDaap.sol\":1033:1061  extrnl.setPublicData(10, 30) */\n      0x04\n      dup3\n      add\n        /* \"#utility.yul\":388:413   */\n      mstore\n        /* \"contracts/9_ContractDaap.sol\":1058:1060  30 */\n      0x1e\n        /* \"#utility.yul\":429:447   */\n      0x24\n      dup3\n      add\n        /* \"#utility.yul\":422:456   */\n      mstore\n        /* \"contracts/9_ContractDaap.sol\":994:1022  Parent extrnl = new Parent() */\n      swap1\n      swap2\n      pop\n      sub(shl(0xa0, 0x01), 0x01)\n        /* \"contracts/9_ContractDaap.sol\":1033:1053  extrnl.setPublicData */\n      dup3\n      and\n      swap1\n      0x710f3e22\n      swap1\n        /* \"#utility.yul\":361:379   */\n      0x44\n      add\n        /* \"contracts/9_ContractDaap.sol\":1033:1061  extrnl.setPublicData(10, 30) */\n      0x00\n      mload(0x40)\n      dup1\n      dup4\n      sub\n      dup2\n      0x00\n      dup8\n      dup1\n      extcodesize\n      iszero\n      dup1\n      iszero\n      tag_14\n      jumpi\n      0x00\n      dup1\n      revert\n    tag_14:\n      pop\n      gas\n      call\n      iszero\n      dup1\n      iszero\n      tag_16\n      jumpi\n      returndatasize\n      0x00\n      dup1\n      returndatacopy\n      revert(0x00, returndatasize)\n    tag_16:\n      pop\n      pop\n      pop\n      pop\n        /* \"contracts/9_ContractDaap.sol\":1079:1085  extrnl */\n      dup1\n      sub(shl(0xa0, 0x01), 0x01)\n        /* \"contracts/9_ContractDaap.sol\":1079:1099  extrnl.getPublicData */\n      and\n      0xbf7ce742\n        /* \"contracts/9_ContractDaap.sol\":1079:1101  extrnl.getPublicData() */\n      mload(0x40)\n      dup2\n      0xffffffff\n      and\n      0xe0\n      shl\n      dup2\n      mstore\n      0x04\n      add\n      0x20\n      mload(0x40)\n      dup1\n      dup4\n      sub\n      dup2\n      dup7\n      gas\n      staticcall\n      iszero\n      dup1\n      iszero\n      tag_18\n      jumpi\n      returndatasize\n      0x00\n      dup1\n      returndatacopy\n      revert(0x00, returndatasize)\n    tag_18:\n      pop\n      pop\n      pop\n      pop\n      mload(0x40)\n      returndatasize\n      not(0x1f)\n      0x1f\n      dup3\n      add\n      and\n      dup3\n      add\n      dup1\n      0x40\n      mstore\n      pop\n      dup2\n      add\n      swap1\n      tag_19\n      swap2\n      swap1\n      tag_20\n      jump\t// in\n    tag_19:\n        /* \"contracts/9_ContractDaap.sol\":1072:1101  return extrnl.getPublicData() */\n      swap2\n      pop\n      pop\n        /* \"contracts/9_ContractDaap.sol\":936:1109  function redDataParent() public returns (uint) {... */\n      swap1\n      jump\t// out\n    tag_10:\n      dataSize(sub_0)\n      dup1\n      dataOffset(sub_0)\n      dup4\n      codecopy\n      add\n      swap1\n      jump\t// out\n        /* \"#utility.yul\":467:651   */\n    tag_20:\n        /* \"#utility.yul\":537:543   */\n      0x00\n        /* \"#utility.yul\":590:592   */\n      0x20\n        /* \"#utility.yul\":578:587   */\n      dup3\n        /* \"#utility.yul\":569:576   */\n      dup5\n        /* \"#utility.yul\":565:588   */\n      sub\n        /* \"#utility.yul\":561:593   */\n      slt\n        /* \"#utility.yul\":558:610   */\n      iszero\n      tag_25\n      jumpi\n        /* \"#utility.yul\":606:607   */\n      0x00\n        /* \"#utility.yul\":603:604   */\n      dup1\n        /* \"#utility.yul\":596:608   */\n      revert\n        /* \"#utility.yul\":558:610   */\n    tag_25:\n      pop\n        /* \"#utility.yul\":629:645   */\n      mload\n      swap2\n        /* \"#utility.yul\":467:651   */\n      swap1\n      pop\n      jump\t// out\n    stop\n\n    sub_0: assembly {\n            /* \"contracts/9_ContractDaap.sol\":70:907  contract Parent {... */\n          mstore(0x40, 0x80)\n            /* \"contracts/9_ContractDaap.sol\":498:539  constructor(){... */\n          callvalue\n          dup1\n          iszero\n          tag_1\n          jumpi\n          0x00\n          dup1\n          revert\n        tag_1:\n          pop\n            /* \"contracts/9_ContractDaap.sol\":529:531  10 */\n          0x0a\n            /* \"contracts/9_ContractDaap.sol\":522:526  info */\n          0x01\n            /* \"contracts/9_ContractDaap.sol\":522:531  info = 10 */\n          sstore\n            /* \"contracts/9_ContractDaap.sol\":70:907  contract Parent {... */\n          dataSize(sub_0)\n          dup1\n          dataOffset(sub_0)\n          0x00\n          codecopy\n          0x00\n          return\n        stop\n\n        sub_0: assembly {\n                /* \"contracts/9_ContractDaap.sol\":70:907  contract Parent {... */\n              mstore(0x40, 0x80)\n              callvalue\n              dup1\n              iszero\n              tag_1\n              jumpi\n              0x00\n              dup1\n              revert\n            tag_1:\n              pop\n              jumpi(tag_2, lt(calldatasize, 0x04))\n              shr(0xe0, calldataload(0x00))\n              dup1\n              0x710f3e22\n              eq\n              tag_3\n              jumpi\n              dup1\n              0xbf7ce742\n              eq\n              tag_4\n              jumpi\n              dup1\n              0xe7e1ef57\n              eq\n              tag_5\n              jumpi\n            tag_2:\n              0x00\n              dup1\n              revert\n                /* \"contracts/9_ContractDaap.sol\":547:623  function setPublicData(uint a, uint b) public{... */\n            tag_3:\n              tag_6\n              tag_7\n              calldatasize\n              0x04\n              tag_8\n              jump\t// in\n            tag_7:\n              tag_9\n              jump\t// in\n            tag_6:\n              stop\n                /* \"contracts/9_ContractDaap.sol\":629:710  function getPublicData() public view returns(uint) {... */\n            tag_4:\n                /* \"contracts/9_ContractDaap.sol\":698:702  info */\n              sload(0x01)\n                /* \"contracts/9_ContractDaap.sol\":629:710  function getPublicData() public view returns(uint) {... */\n            tag_10:\n              mload(0x40)\n                /* \"#utility.yul\":413:438   */\n              swap1\n              dup2\n              mstore\n                /* \"#utility.yul\":401:403   */\n              0x20\n                /* \"#utility.yul\":386:404   */\n              add\n                /* \"contracts/9_ContractDaap.sol\":629:710  function getPublicData() public view returns(uint) {... */\n              mload(0x40)\n              dup1\n              swap2\n              sub\n              swap1\n              return\n                /* \"contracts/9_ContractDaap.sol\":286:381  function getPrivateData() public view returns(uint) {... */\n            tag_5:\n              tag_10\n              tag_15\n              jump\t// in\n                /* \"contracts/9_ContractDaap.sol\":547:623  function setPublicData(uint a, uint b) public{... */\n            tag_9:\n                /* \"contracts/9_ContractDaap.sol\":610:615  a + b */\n              tag_18\n                /* \"contracts/9_ContractDaap.sol\":614:615  b */\n              dup2\n                /* \"contracts/9_ContractDaap.sol\":610:611  a */\n              dup4\n                /* \"contracts/9_ContractDaap.sol\":610:615  a + b */\n              tag_19\n              jump\t// in\n            tag_18:\n                /* \"contracts/9_ContractDaap.sol\":603:607  info */\n              0x01\n                /* \"contracts/9_ContractDaap.sol\":603:615  info = a + b */\n              sstore\n              pop\n              pop\n                /* \"contracts/9_ContractDaap.sol\":547:623  function setPublicData(uint a, uint b) public{... */\n              jump\t// out\n                /* \"contracts/9_ContractDaap.sol\":286:381  function getPrivateData() public view returns(uint) {... */\n            tag_15:\n                /* \"contracts/9_ContractDaap.sol\":332:336  uint */\n              0x00\n                /* \"contracts/9_ContractDaap.sol\":356:373  setPrivatData(10) */\n              tag_22\n                /* \"contracts/9_ContractDaap.sol\":370:372  10 */\n              0x0a\n                /* \"contracts/9_ContractDaap.sol\":356:369  setPrivatData */\n              tag_23\n                /* \"contracts/9_ContractDaap.sol\":356:373  setPrivatData(10) */\n              jump\t// in\n            tag_22:\n                /* \"contracts/9_ContractDaap.sol\":349:373  return setPrivatData(10) */\n              swap1\n              pop\n                /* \"contracts/9_ContractDaap.sol\":286:381  function getPrivateData() public view returns(uint) {... */\n              swap1\n              jump\t// out\n                /* \"contracts/9_ContractDaap.sol\":197:280  function setPrivatData(uint a) private view returns(uint) {return dataPrivate + a;} */\n            tag_23:\n                /* \"contracts/9_ContractDaap.sol\":249:253  uint */\n              0x00\n                /* \"contracts/9_ContractDaap.sol\":277:278  a */\n              dup2\n                /* \"contracts/9_ContractDaap.sol\":263:274  dataPrivate */\n              sload(0x00)\n                /* \"contracts/9_ContractDaap.sol\":263:278  dataPrivate + a */\n              tag_25\n              swap2\n              swap1\n              tag_19\n              jump\t// in\n            tag_25:\n                /* \"contracts/9_ContractDaap.sol\":256:278  return dataPrivate + a */\n              swap3\n                /* \"contracts/9_ContractDaap.sol\":197:280  function setPrivatData(uint a) private view returns(uint) {return dataPrivate + a;} */\n              swap2\n              pop\n              pop\n              jump\t// out\n                /* \"#utility.yul\":14:262   */\n            tag_8:\n                /* \"#utility.yul\":82:88   */\n              0x00\n                /* \"#utility.yul\":90:96   */\n              dup1\n                /* \"#utility.yul\":143:145   */\n              0x40\n                /* \"#utility.yul\":131:140   */\n              dup4\n                /* \"#utility.yul\":122:129   */\n              dup6\n                /* \"#utility.yul\":118:141   */\n              sub\n                /* \"#utility.yul\":114:146   */\n              slt\n                /* \"#utility.yul\":111:163   */\n              iszero\n              tag_28\n              jumpi\n                /* \"#utility.yul\":159:160   */\n              0x00\n                /* \"#utility.yul\":156:157   */\n              dup1\n                /* \"#utility.yul\":149:161   */\n              revert\n                /* \"#utility.yul\":111:163   */\n            tag_28:\n              pop\n              pop\n                /* \"#utility.yul\":182:205   */\n              dup1\n              calldataload\n              swap3\n                /* \"#utility.yul\":252:254   */\n              0x20\n                /* \"#utility.yul\":237:255   */\n              swap1\n              swap2\n              add\n                /* \"#utility.yul\":224:256   */\n              calldataload\n              swap2\n              pop\n                /* \"#utility.yul\":14:262   */\n              jump\t// out\n                /* \"#utility.yul\":449:671   */\n            tag_19:\n                /* \"#utility.yul\":514:523   */\n              dup1\n              dup3\n              add\n                /* \"#utility.yul\":535:545   */\n              dup1\n              dup3\n              gt\n                /* \"#utility.yul\":532:665   */\n              iszero\n              tag_25\n              jumpi\n                /* \"#utility.yul\":587:597   */\n              0x4e487b71\n                /* \"#utility.yul\":582:585   */\n              0xe0\n                /* \"#utility.yul\":578:598   */\n              shl\n                /* \"#utility.yul\":575:576   */\n              0x00\n                /* \"#utility.yul\":568:599   */\n              mstore\n                /* \"#utility.yul\":622:626   */\n              0x11\n                /* \"#utility.yul\":619:620   */\n              0x04\n                /* \"#utility.yul\":612:627   */\n              mstore\n                /* \"#utility.yul\":650:654   */\n              0x24\n                /* \"#utility.yul\":647:648   */\n              0x00\n                /* \"#utility.yul\":640:655   */\n              revert\n\n            auxdata: 0xa26469706673582212203ef1aa51d6ac7b59d2bc0bf06b534d9359ccae6d34976b762a28cd27dbcf367564736f6c63430008180033\n        }\n    }\n\n    auxdata: 0xa2646970667358221220abc5bb6bd3c5d1ded9015d57d7d6b24b3b71ea6d8679f01a7abccdd6e4dbe07164736f6c63430008180033\n}\n",
				"bytecode": {
					"linkReferences": {},
					"object": "608060405234801561000f575f80fd5b506102bd8061001d5f395ff3fe608060405234801561000f575f80fd5b5060043610610029575f3560e01c80635af3aaa61461002d575b5f80fd5b610035610047565b60405190815260200160405180910390f35b5f8060405161005590610134565b604051809103905ff08015801561006e573d5f803e3d5ffd5b506040516338879f1160e11b8152600a6004820152601e60248201529091506001600160a01b0382169063710f3e22906044015f604051808303815f87803b1580156100b8575f80fd5b505af11580156100ca573d5f803e3d5ffd5b50505050806001600160a01b031663bf7ce7426040518163ffffffff1660e01b8152600401602060405180830381865afa15801561010a573d5f803e3d5ffd5b505050506040513d601f19601f8201168201806040525081019061012e9190610141565b91505090565b61012f8061015983390190565b5f60208284031215610151575f80fd5b505191905056fe608060405234801561000f575f80fd5b50600a60015561010d806100225f395ff3fe6080604052348015600e575f80fd5b5060043610603a575f3560e01c8063710f3e2214603e578063bf7ce74214604f578063e7e1ef57146065575b5f80fd5b604d6049366004609a565b606b565b005b6001545b60405190815260200160405180910390f35b6053607a565b6073818360b9565b6001555050565b5f6083600a6088565b905090565b5f815f546094919060b9565b92915050565b5f806040838503121560aa575f80fd5b50508035926020909101359150565b80820180821115609457634e487b7160e01b5f52601160045260245ffdfea26469706673582212203ef1aa51d6ac7b59d2bc0bf06b534d9359ccae6d34976b762a28cd27dbcf367564736f6c63430008180033a2646970667358221220abc5bb6bd3c5d1ded9015d57d7d6b24b3b71ea6d8679f01a7abccdd6e4dbe07164736f6c63430008180033",
					"opcodes": "PUSH1 0x80 PUSH1 0x40 MSTORE CALLVALUE DUP1 ISZERO PUSH2 0xF JUMPI PUSH0 DUP1 REVERT JUMPDEST POP PUSH2 0x2BD DUP1 PUSH2 0x1D PUSH0 CODECOPY PUSH0 RETURN INVALID PUSH1 0x80 PUSH1 0x40 MSTORE CALLVALUE DUP1 ISZERO PUSH2 0xF JUMPI PUSH0 DUP1 REVERT JUMPDEST POP PUSH1 0x4 CALLDATASIZE LT PUSH2 0x29 JUMPI PUSH0 CALLDATALOAD PUSH1 0xE0 SHR DUP1 PUSH4 0x5AF3AAA6 EQ PUSH2 0x2D JUMPI JUMPDEST PUSH0 DUP1 REVERT JUMPDEST PUSH2 0x35 PUSH2 0x47 JUMP JUMPDEST PUSH1 0x40 MLOAD SWAP1 DUP2 MSTORE PUSH1 0x20 ADD PUSH1 0x40 MLOAD DUP1 SWAP2 SUB SWAP1 RETURN JUMPDEST PUSH0 DUP1 PUSH1 0x40 MLOAD PUSH2 0x55 SWAP1 PUSH2 0x134 JUMP JUMPDEST PUSH1 0x40 MLOAD DUP1 SWAP2 SUB SWAP1 PUSH0 CREATE DUP1 ISZERO DUP1 ISZERO PUSH2 0x6E JUMPI RETURNDATASIZE PUSH0 DUP1 RETURNDATACOPY RETURNDATASIZE PUSH0 REVERT JUMPDEST POP PUSH1 0x40 MLOAD PUSH4 0x38879F11 PUSH1 0xE1 SHL DUP2 MSTORE PUSH1 0xA PUSH1 0x4 DUP3 ADD MSTORE PUSH1 0x1E PUSH1 0x24 DUP3 ADD MSTORE SWAP1 SWAP2 POP PUSH1 0x1 PUSH1 0x1 PUSH1 0xA0 SHL SUB DUP3 AND SWAP1 PUSH4 0x710F3E22 SWAP1 PUSH1 0x44 ADD PUSH0 PUSH1 0x40 MLOAD DUP1 DUP4 SUB DUP2 PUSH0 DUP8 DUP1 EXTCODESIZE ISZERO DUP1 ISZERO PUSH2 0xB8 JUMPI PUSH0 DUP1 REVERT JUMPDEST POP GAS CALL ISZERO DUP1 ISZERO PUSH2 0xCA JUMPI RETURNDATASIZE PUSH0 DUP1 RETURNDATACOPY RETURNDATASIZE PUSH0 REVERT JUMPDEST POP POP POP POP DUP1 PUSH1 0x1 PUSH1 0x1 PUSH1 0xA0 SHL SUB AND PUSH4 0xBF7CE742 PUSH1 0x40 MLOAD DUP2 PUSH4 0xFFFFFFFF AND PUSH1 0xE0 SHL DUP2 MSTORE PUSH1 0x4 ADD PUSH1 0x20 PUSH1 0x40 MLOAD DUP1 DUP4 SUB DUP2 DUP7 GAS STATICCALL ISZERO DUP1 ISZERO PUSH2 0x10A JUMPI RETURNDATASIZE PUSH0 DUP1 RETURNDATACOPY RETURNDATASIZE PUSH0 REVERT JUMPDEST POP POP POP POP PUSH1 0x40 MLOAD RETURNDATASIZE PUSH1 0x1F NOT PUSH1 0x1F DUP3 ADD AND DUP3 ADD DUP1 PUSH1 0x40 MSTORE POP DUP2 ADD SWAP1 PUSH2 0x12E SWAP2 SWAP1 PUSH2 0x141 JUMP JUMPDEST SWAP2 POP POP SWAP1 JUMP JUMPDEST PUSH2 0x12F DUP1 PUSH2 0x159 DUP4 CODECOPY ADD SWAP1 JUMP JUMPDEST PUSH0 PUSH1 0x20 DUP3 DUP5 SUB SLT ISZERO PUSH2 0x151 JUMPI PUSH0 DUP1 REVERT JUMPDEST POP MLOAD SWAP2 SWAP1 POP JUMP INVALID PUSH1 0x80 PUSH1 0x40 MSTORE CALLVALUE DUP1 ISZERO PUSH2 0xF JUMPI PUSH0 DUP1 REVERT JUMPDEST POP PUSH1 0xA PUSH1 0x1 SSTORE PUSH2 0x10D DUP1 PUSH2 0x22 PUSH0 CODECOPY PUSH0 RETURN INVALID PUSH1 0x80 PUSH1 0x40 MSTORE CALLVALUE DUP1 ISZERO PUSH1 0xE JUMPI PUSH0 DUP1 REVERT JUMPDEST POP PUSH1 0x4 CALLDATASIZE LT PUSH1 0x3A JUMPI PUSH0 CALLDATALOAD PUSH1 0xE0 SHR DUP1 PUSH4 0x710F3E22 EQ PUSH1 0x3E JUMPI DUP1 PUSH4 0xBF7CE742 EQ PUSH1 0x4F JUMPI DUP1 PUSH4 0xE7E1EF57 EQ PUSH1 0x65 JUMPI JUMPDEST PUSH0 DUP1 REVERT JUMPDEST PUSH1 0x4D PUSH1 0x49 CALLDATASIZE PUSH1 0x4 PUSH1 0x9A JUMP JUMPDEST PUSH1 0x6B JUMP JUMPDEST STOP JUMPDEST PUSH1 0x1 SLOAD JUMPDEST PUSH1 0x40 MLOAD SWAP1 DUP2 MSTORE PUSH1 0x20 ADD PUSH1 0x40 MLOAD DUP1 SWAP2 SUB SWAP1 RETURN JUMPDEST PUSH1 0x53 PUSH1 0x7A JUMP JUMPDEST PUSH1 0x73 DUP2 DUP4 PUSH1 0xB9 JUMP JUMPDEST PUSH1 0x1 SSTORE POP POP JUMP JUMPDEST PUSH0 PUSH1 0x83 PUSH1 0xA PUSH1 0x88 JUMP JUMPDEST SWAP1 POP SWAP1 JUMP JUMPDEST PUSH0 DUP2 PUSH0 SLOAD PUSH1 0x94 SWAP2 SWAP1 PUSH1 0xB9 JUMP JUMPDEST SWAP3 SWAP2 POP POP JUMP JUMPDEST PUSH0 DUP1 PUSH1 0x40 DUP4 DUP6 SUB SLT ISZERO PUSH1 0xAA JUMPI PUSH0 DUP1 REVERT JUMPDEST POP POP DUP1 CALLDATALOAD SWAP3 PUSH1 0x20 SWAP1 SWAP2 ADD CALLDATALOAD SWAP2 POP JUMP JUMPDEST DUP1 DUP3 ADD DUP1 DUP3 GT ISZERO PUSH1 0x94 JUMPI PUSH4 0x4E487B71 PUSH1 0xE0 SHL PUSH0 MSTORE PUSH1 0x11 PUSH1 0x4 MSTORE PUSH1 0x24 PUSH0 REVERT INVALID LOG2 PUSH5 0x6970667358 0x22 SLT KECCAK256 RETURNDATACOPY CALL 0xAA MLOAD 0xD6 0xAC PUSH28 0x59D2BC0BF06B534D9359CCAE6D34976B762A28CD27DBCF367564736F PUSH13 0x63430008180033A26469706673 PC 0x22 SLT KECCAK256 0xAB 0xC5 0xBB PUSH12 0xD3C5D1DED9015D57D7D6B24B EXTCODESIZE PUSH18 0xEA6D8679F01A7ABCCDD6E4DBE07164736F6C PUSH4 0x43000818 STOP CALLER "
				},
				"gasEstimates": {
					"creation": {
						"codeDepositCost": "140200",
						"executionCost": "181",
						"totalCost": "140381"
					},
					"external": {
						"redDataParent()": "infinite"
					}
				},
				"methodIdentifiers": {
					"redDataParent()": "5af3aaa6"
				}
			},
			"storageLayout": {
				"storage": [],
				"types": null
			},
			"userdoc": {
				"kind": "user",
				"methods": {},
				"version": 1
			}
		}
	}
}