{
	"contracts/7_Struct.sol": {
		"StructContract": {
			"abi": [
				{
					"inputs": [
						{
							"internalType": "string",
							"name": "j",
							"type": "string"
						},
						{
							"internalType": "string",
							"name": "p",
							"type": "string"
						},
						{
							"internalType": "uint256",
							"name": "id",
							"type": "uint256"
						},
						{
							"internalType": "bool",
							"name": "ada",
							"type": "bool"
						}
					],
					"name": "bukuBaru3",
					"outputs": [],
					"stateMutability": "nonpayable",
					"type": "function"
				},
				{
					"inputs": [
						{
							"internalType": "string[]",
							"name": "judulbuku",
							"type": "string[]"
						}
					],
					"name": "lihatBuku",
					"outputs": [
						{
							"internalType": "string",
							"name": "",
							"type": "string"
						}
					],
					"stateMutability": "nonpayable",
					"type": "function"
				},
				{
					"inputs": [],
					"name": "lihatBuku1",
					"outputs": [
						{
							"internalType": "string",
							"name": "",
							"type": "string"
						},
						{
							"internalType": "string",
							"name": "",
							"type": "string"
						},
						{
							"internalType": "uint256",
							"name": "",
							"type": "uint256"
						},
						{
							"internalType": "bool",
							"name": "",
							"type": "bool"
						}
					],
					"stateMutability": "view",
					"type": "function"
				},
				{
					"inputs": [],
					"name": "lihatBuku2",
					"outputs": [
						{
							"internalType": "string",
							"name": "",
							"type": "string"
						},
						{
							"internalType": "string",
							"name": "",
							"type": "string"
						}
					],
					"stateMutability": "view",
					"type": "function"
				},
				{
					"inputs": [
						{
							"internalType": "uint256",
							"name": "_index",
							"type": "uint256"
						}
					],
					"name": "lihatBukuById",
					"outputs": [
						{
							"internalType": "string",
							"name": "",
							"type": "string"
						},
						{
							"internalType": "string",
							"name": "",
							"type": "string"
						},
						{
							"internalType": "uint256",
							"name": "",
							"type": "uint256"
						},
						{
							"internalType": "bool",
							"name": "",
							"type": "bool"
						}
					],
					"stateMutability": "view",
					"type": "function"
				},
				{
					"inputs": [],
					"name": "tambahBuku1",
					"outputs": [],
					"stateMutability": "nonpayable",
					"type": "function"
				}
			],
			"devdoc": {
				"kind": "dev",
				"methods": {},
				"version": 1
			},
			"evm": {
				"assembly": "    /* \"contracts/7_Struct.sol\":532:563  Buku(\"Web3\", \"anangs\", 1, true) */\n  0x04\n  0x0100\n  dup2\n  dup2\n  mstore\n  mstore(0x0120, shl(0xe0, 0x57656233))\n    /* \"contracts/7_Struct.sol\":70:1533  contract StructContract {... */\n  0x80\n    /* \"contracts/7_Struct.sol\":532:563  Buku(\"Web3\", \"anangs\", 1, true) */\n  dup2\n  dup2\n  mstore\n  0x0180\n    /* \"contracts/7_Struct.sol\":70:1533  contract StructContract {... */\n  0x40\n    /* \"contracts/7_Struct.sol\":532:563  Buku(\"Web3\", \"anangs\", 1, true) */\n  mstore\n  0x06\n  0x0140\n  swap1\n  dup2\n  mstore\n  mstore(0x0160, shl(0xd0, 0x616e616e6773))\n  0xa0\n  mstore\n    /* \"contracts/7_Struct.sol\":555:556  1 */\n  0x01\n  0xc0\n    /* \"contracts/7_Struct.sol\":532:563  Buku(\"Web3\", \"anangs\", 1, true) */\n  dup2\n  swap1\n  mstore\n  0xe0\n  mstore\n    /* \"contracts/7_Struct.sol\":70:1533  contract StructContract {... */\n  swap2\n    /* \"contracts/7_Struct.sol\":532:563  Buku(\"Web3\", \"anangs\", 1, true) */\n  swap1\n  dup2\n  swap1\n    /* \"contracts/7_Struct.sol\":519:563  Buku buku2 = Buku(\"Web3\", \"anangs\", 1, true) */\n  tag_1\n  swap1\n    /* \"contracts/7_Struct.sol\":532:563  Buku(\"Web3\", \"anangs\", 1, true) */\n  dup3\n    /* \"contracts/7_Struct.sol\":519:563  Buku buku2 = Buku(\"Web3\", \"anangs\", 1, true) */\n  tag_2\n  jump\t// in\ntag_1:\n  pop\n  0x20\n  dup3\n  add\n  mload\n  0x01\n  dup3\n  add\n  swap1\n  tag_3\n  swap1\n  dup3\n  tag_2\n  jump\t// in\ntag_3:\n  pop\n  0x40\n  dup3\n  add\n  mload\n  0x02\n  dup3\n  add\n  sstore\n  0x60\n  swap1\n  swap2\n  add\n  mload\n  0x03\n  swap1\n  swap2\n  add\n  dup1\n  sload\n  not(0xff)\n  and\n  swap2\n  iszero\n  iszero\n  swap2\n  swap1\n  swap2\n  or\n  swap1\n  sstore\n    /* \"contracts/7_Struct.sol\":70:1533  contract StructContract {... */\n  callvalue\n  dup1\n  iszero\n  tag_4\n  jumpi\n  0x00\n  dup1\n  revert\ntag_4:\n  pop\n  jump(tag_11)\n    /* \"#utility.yul\":14:141   */\ntag_6:\n    /* \"#utility.yul\":75:85   */\n  0x4e487b71\n    /* \"#utility.yul\":70:73   */\n  0xe0\n    /* \"#utility.yul\":66:86   */\n  shl\n    /* \"#utility.yul\":63:64   */\n  0x00\n    /* \"#utility.yul\":56:87   */\n  mstore\n    /* \"#utility.yul\":106:110   */\n  0x41\n    /* \"#utility.yul\":103:104   */\n  0x04\n    /* \"#utility.yul\":96:111   */\n  mstore\n    /* \"#utility.yul\":130:134   */\n  0x24\n    /* \"#utility.yul\":127:128   */\n  0x00\n    /* \"#utility.yul\":120:135   */\n  revert\n    /* \"#utility.yul\":146:526   */\ntag_7:\n    /* \"#utility.yul\":225:226   */\n  0x01\n    /* \"#utility.yul\":221:233   */\n  dup2\n  dup2\n  shr\n  swap1\n    /* \"#utility.yul\":268:280   */\n  dup3\n  and\n  dup1\n    /* \"#utility.yul\":289:350   */\n  tag_14\n  jumpi\n    /* \"#utility.yul\":343:347   */\n  0x7f\n    /* \"#utility.yul\":335:341   */\n  dup3\n    /* \"#utility.yul\":331:348   */\n  and\n    /* \"#utility.yul\":321:348   */\n  swap2\n  pop\n    /* \"#utility.yul\":289:350   */\ntag_14:\n    /* \"#utility.yul\":396:398   */\n  0x20\n    /* \"#utility.yul\":388:394   */\n  dup3\n    /* \"#utility.yul\":385:399   */\n  lt\n    /* \"#utility.yul\":365:383   */\n  dup2\n    /* \"#utility.yul\":362:400   */\n  sub\n    /* \"#utility.yul\":359:520   */\n  tag_15\n  jumpi\n    /* \"#utility.yul\":442:452   */\n  0x4e487b71\n    /* \"#utility.yul\":437:440   */\n  0xe0\n    /* \"#utility.yul\":433:453   */\n  shl\n    /* \"#utility.yul\":430:431   */\n  0x00\n    /* \"#utility.yul\":423:454   */\n  mstore\n    /* \"#utility.yul\":477:481   */\n  0x22\n    /* \"#utility.yul\":474:475   */\n  0x04\n    /* \"#utility.yul\":467:482   */\n  mstore\n    /* \"#utility.yul\":505:509   */\n  0x24\n    /* \"#utility.yul\":502:503   */\n  0x00\n    /* \"#utility.yul\":495:510   */\n  revert\n    /* \"#utility.yul\":359:520   */\ntag_15:\n  pop\n    /* \"#utility.yul\":146:526   */\n  swap2\n  swap1\n  pop\n  jump\t// out\n    /* \"#utility.yul\":657:1175   */\ntag_9:\n    /* \"#utility.yul\":759:761   */\n  0x1f\n    /* \"#utility.yul\":754:757   */\n  dup3\n    /* \"#utility.yul\":751:762   */\n  gt\n    /* \"#utility.yul\":748:1169   */\n  iszero\n  tag_18\n  jumpi\n    /* \"#utility.yul\":795:800   */\n  dup1\n    /* \"#utility.yul\":792:793   */\n  0x00\n    /* \"#utility.yul\":785:801   */\n  mstore\n    /* \"#utility.yul\":839:843   */\n  0x20\n    /* \"#utility.yul\":836:837   */\n  0x00\n    /* \"#utility.yul\":826:844   */\n  keccak256\n    /* \"#utility.yul\":909:911   */\n  0x1f\n    /* \"#utility.yul\":897:907   */\n  dup5\n    /* \"#utility.yul\":893:912   */\n  add\n    /* \"#utility.yul\":890:891   */\n  0x05\n    /* \"#utility.yul\":886:913   */\n  shr\n    /* \"#utility.yul\":880:884   */\n  dup2\n    /* \"#utility.yul\":876:914   */\n  add\n    /* \"#utility.yul\":945:949   */\n  0x20\n    /* \"#utility.yul\":933:943   */\n  dup6\n    /* \"#utility.yul\":930:950   */\n  lt\n    /* \"#utility.yul\":927:974   */\n  iszero\n  tag_19\n  jumpi\n  pop\n    /* \"#utility.yul\":968:972   */\n  dup1\n    /* \"#utility.yul\":927:974   */\ntag_19:\n    /* \"#utility.yul\":1023:1025   */\n  0x1f\n    /* \"#utility.yul\":1018:1021   */\n  dup5\n    /* \"#utility.yul\":1014:1026   */\n  add\n    /* \"#utility.yul\":1011:1012   */\n  0x05\n    /* \"#utility.yul\":1007:1027   */\n  shr\n    /* \"#utility.yul\":1001:1005   */\n  dup3\n    /* \"#utility.yul\":997:1028   */\n  add\n    /* \"#utility.yul\":987:1028   */\n  swap2\n  pop\n    /* \"#utility.yul\":1078:1159   */\ntag_20:\n    /* \"#utility.yul\":1096:1098   */\n  dup2\n    /* \"#utility.yul\":1089:1094   */\n  dup2\n    /* \"#utility.yul\":1086:1099   */\n  lt\n    /* \"#utility.yul\":1078:1159   */\n  iszero\n  tag_22\n  jumpi\n    /* \"#utility.yul\":1155:1156   */\n  0x00\n    /* \"#utility.yul\":1141:1157   */\n  dup2\n  sstore\n    /* \"#utility.yul\":1122:1123   */\n  0x01\n    /* \"#utility.yul\":1111:1124   */\n  add\n    /* \"#utility.yul\":1078:1159   */\n  jump(tag_20)\ntag_22:\n    /* \"#utility.yul\":1082:1085   */\n  pop\n  pop\n    /* \"#utility.yul\":748:1169   */\ntag_18:\n    /* \"#utility.yul\":657:1175   */\n  pop\n  pop\n  pop\n  jump\t// out\n    /* \"#utility.yul\":1351:2696   */\ntag_2:\n    /* \"#utility.yul\":1471:1481   */\n  dup2\n  mload\n  sub(shl(0x40, 0x01), 0x01)\n    /* \"#utility.yul\":1493:1523   */\n  dup2\n  gt\n    /* \"#utility.yul\":1490:1546   */\n  iszero\n  tag_26\n  jumpi\n    /* \"#utility.yul\":1526:1544   */\n  tag_26\n  tag_6\n  jump\t// in\ntag_26:\n    /* \"#utility.yul\":1555:1652   */\n  tag_27\n    /* \"#utility.yul\":1645:1651   */\n  dup2\n    /* \"#utility.yul\":1605:1643   */\n  tag_28\n    /* \"#utility.yul\":1637:1641   */\n  dup5\n    /* \"#utility.yul\":1631:1642   */\n  sload\n    /* \"#utility.yul\":1605:1643   */\n  tag_7\n  jump\t// in\ntag_28:\n    /* \"#utility.yul\":1599:1603   */\n  dup5\n    /* \"#utility.yul\":1555:1652   */\n  tag_9\n  jump\t// in\ntag_27:\n    /* \"#utility.yul\":1707:1711   */\n  0x20\n  dup1\n    /* \"#utility.yul\":1764:1766   */\n  0x1f\n    /* \"#utility.yul\":1753:1767   */\n  dup4\n  gt\n    /* \"#utility.yul\":1781:1782   */\n  0x01\n    /* \"#utility.yul\":1776:2439   */\n  dup2\n  eq\n  tag_30\n  jumpi\n    /* \"#utility.yul\":2483:2484   */\n  0x00\n    /* \"#utility.yul\":2500:2506   */\n  dup5\n    /* \"#utility.yul\":2497:2586   */\n  iszero\n  tag_31\n  jumpi\n  pop\n    /* \"#utility.yul\":2552:2571   */\n  dup6\n  dup4\n  add\n    /* \"#utility.yul\":2546:2572   */\n  mload\n    /* \"#utility.yul\":2497:2586   */\ntag_31:\n  not(0x00)\n    /* \"#utility.yul\":1308:1309   */\n  0x03\n    /* \"#utility.yul\":1304:1315   */\n  dup7\n  swap1\n  shl\n    /* \"#utility.yul\":1300:1324   */\n  shr\n    /* \"#utility.yul\":1296:1325   */\n  not\n    /* \"#utility.yul\":1286:1326   */\n  and\n    /* \"#utility.yul\":1332:1333   */\n  0x01\n    /* \"#utility.yul\":1328:1339   */\n  dup6\n  swap1\n  shl\n    /* \"#utility.yul\":1283:1340   */\n  or\n    /* \"#utility.yul\":2599:2680   */\n  dup6\n  sstore\n    /* \"#utility.yul\":1746:2690   */\n  jump(tag_29)\n    /* \"#utility.yul\":1776:2439   */\ntag_30:\n    /* \"#utility.yul\":604:605   */\n  0x00\n    /* \"#utility.yul\":597:611   */\n  dup6\n  dup2\n  mstore\n    /* \"#utility.yul\":641:645   */\n  0x20\n    /* \"#utility.yul\":628:646   */\n  dup2\n  keccak256\n  not(0x1f)\n    /* \"#utility.yul\":1812:1832   */\n  dup7\n  and\n  swap2\n    /* \"#utility.yul\":1930:2166   */\ntag_34:\n    /* \"#utility.yul\":1944:1951   */\n  dup3\n    /* \"#utility.yul\":1941:1942   */\n  dup2\n    /* \"#utility.yul\":1938:1952   */\n  lt\n    /* \"#utility.yul\":1930:2166   */\n  iszero\n  tag_36\n  jumpi\n    /* \"#utility.yul\":2033:2052   */\n  dup9\n  dup7\n  add\n    /* \"#utility.yul\":2027:2053   */\n  mload\n    /* \"#utility.yul\":2012:2054   */\n  dup3\n  sstore\n    /* \"#utility.yul\":2125:2152   */\n  swap5\n  dup5\n  add\n  swap5\n    /* \"#utility.yul\":2093:2094   */\n  0x01\n    /* \"#utility.yul\":2081:2095   */\n  swap1\n  swap2\n  add\n  swap1\n    /* \"#utility.yul\":1960:1979   */\n  dup5\n  add\n    /* \"#utility.yul\":1930:2166   */\n  jump(tag_34)\ntag_36:\n    /* \"#utility.yul\":1934:1937   */\n  pop\n    /* \"#utility.yul\":2194:2200   */\n  dup6\n    /* \"#utility.yul\":2185:2192   */\n  dup3\n    /* \"#utility.yul\":2182:2201   */\n  lt\n    /* \"#utility.yul\":2179:2380   */\n  iszero\n  tag_37\n  jumpi\n    /* \"#utility.yul\":2255:2274   */\n  dup8\n  dup6\n  add\n    /* \"#utility.yul\":2249:2275   */\n  mload\n  not(0x00)\n    /* \"#utility.yul\":2338:2339   */\n  0x03\n    /* \"#utility.yul\":2334:2348   */\n  dup9\n  swap1\n  shl\n    /* \"#utility.yul\":2350:2353   */\n  0xf8\n    /* \"#utility.yul\":2330:2354   */\n  and\n    /* \"#utility.yul\":2326:2363   */\n  shr\n    /* \"#utility.yul\":2322:2364   */\n  not\n    /* \"#utility.yul\":2307:2365   */\n  and\n    /* \"#utility.yul\":2292:2366   */\n  dup2\n  sstore\n    /* \"#utility.yul\":2179:2380   */\ntag_37:\n  pop\n  pop\n    /* \"#utility.yul\":2426:2427   */\n  0x01\n    /* \"#utility.yul\":2417:2423   */\n  dup5\n    /* \"#utility.yul\":2414:2415   */\n  0x01\n    /* \"#utility.yul\":2410:2424   */\n  shl\n    /* \"#utility.yul\":2406:2428   */\n  add\n    /* \"#utility.yul\":2400:2404   */\n  dup6\n    /* \"#utility.yul\":2393:2429   */\n  sstore\n    /* \"#utility.yul\":1746:2690   */\ntag_29:\n  pop\n  pop\n  pop\n  pop\n    /* \"#utility.yul\":1351:2696   */\n  pop\n  pop\n  jump\t// out\ntag_11:\n    /* \"contracts/7_Struct.sol\":70:1533  contract StructContract {... */\n  dataSize(sub_0)\n  dup1\n  dataOffset(sub_0)\n  0x00\n  codecopy\n  0x00\n  return\nstop\n\nsub_0: assembly {\n        /* \"contracts/7_Struct.sol\":70:1533  contract StructContract {... */\n      mstore(0x40, 0x80)\n      callvalue\n      dup1\n      iszero\n      tag_1\n      jumpi\n      0x00\n      dup1\n      revert\n    tag_1:\n      pop\n      jumpi(tag_2, lt(calldatasize, 0x04))\n      shr(0xe0, calldataload(0x00))\n      dup1\n      0x082e1339\n      eq\n      tag_3\n      jumpi\n      dup1\n      0x2d4c469b\n      eq\n      tag_4\n      jumpi\n      dup1\n      0x3df14741\n      eq\n      tag_5\n      jumpi\n      dup1\n      0x4275d504\n      eq\n      tag_6\n      jumpi\n      dup1\n      0x84ad0c41\n      eq\n      tag_7\n      jumpi\n      dup1\n      0x9a301922\n      eq\n      tag_8\n      jumpi\n    tag_2:\n      0x00\n      dup1\n      revert\n        /* \"contracts/7_Struct.sol\":249:337  function tambahBuku1() public {... */\n    tag_3:\n      tag_9\n      tag_10\n      jump\t// in\n    tag_9:\n      stop\n        /* \"contracts/7_Struct.sol\":722:850  function bukuBaru3(string memory j, string memory p, uint id, bool ada) public {... */\n    tag_4:\n      tag_9\n      tag_12\n      calldatasize\n      0x04\n      tag_13\n      jump\t// in\n    tag_12:\n      tag_14\n      jump\t// in\n        /* \"contracts/7_Struct.sol\":1083:1530  function lihatBuku(string[] memory judulbuku) public returns(string memory) {... */\n    tag_5:\n      tag_15\n      tag_16\n      calldatasize\n      0x04\n      tag_17\n      jump\t// in\n    tag_16:\n      tag_18\n      jump\t// in\n    tag_15:\n      mload(0x40)\n      tag_19\n      swap2\n      swap1\n      tag_20\n      jump\t// in\n    tag_19:\n      mload(0x40)\n      dup1\n      swap2\n      sub\n      swap1\n      return\n        /* \"contracts/7_Struct.sol\":858:1075  function lihatBukuById(uint _index) public view returns (string memory, string memory, uint, bool) {... */\n    tag_6:\n      tag_21\n      tag_22\n      calldatasize\n      0x04\n      tag_23\n      jump\t// in\n    tag_22:\n      tag_24\n      jump\t// in\n    tag_21:\n      mload(0x40)\n      tag_19\n      swap5\n      swap4\n      swap3\n      swap2\n      swap1\n      tag_26\n      jump\t// in\n        /* \"contracts/7_Struct.sol\":349:511  function lihatBuku1() public view returns(string memory, string memory, uint, bool) {... */\n    tag_7:\n      tag_21\n      tag_28\n      jump\t// in\n        /* \"contracts/7_Struct.sol\":570:695  function lihatBuku2() public view returns(string memory, string memory) {... */\n    tag_8:\n      tag_30\n      tag_31\n      jump\t// in\n    tag_30:\n      mload(0x40)\n      tag_19\n      swap3\n      swap2\n      swap1\n      tag_33\n      jump\t// in\n        /* \"contracts/7_Struct.sol\":249:337  function tambahBuku1() public {... */\n    tag_10:\n        /* \"contracts/7_Struct.sol\":298:329  Buku(\"Web3\", \"anangs\", 1, true) */\n      0x40\n      dup1\n      mload\n      0xc0\n      dup2\n      add\n      dup3\n      mstore\n      0x04\n      0x80\n      dup3\n      add\n      swap1\n      dup2\n      mstore\n      shl(0xe0, 0x57656233)\n      0xa0\n      dup4\n      add\n      mstore\n      dup2\n      mstore\n      dup2\n      mload\n      dup1\n      dup4\n      add\n      dup4\n      mstore\n      0x06\n      dup2\n      mstore\n      shl(0xd0, 0x616e616e6773)\n      0x20\n      dup3\n      dup2\n      add\n      swap2\n      swap1\n      swap2\n      mstore\n      dup3\n      add\n      mstore\n        /* \"contracts/7_Struct.sol\":321:322  1 */\n      0x01\n      swap2\n      dup2\n      add\n        /* \"contracts/7_Struct.sol\":298:329  Buku(\"Web3\", \"anangs\", 1, true) */\n      dup3\n      swap1\n      mstore\n      0x60\n      dup2\n      add\n      swap2\n      swap1\n      swap2\n      mstore\n        /* \"contracts/7_Struct.sol\":290:329  buku1 = Buku(\"Web3\", \"anangs\", 1, true) */\n      dup1\n      mload\n      0x00\n      swap1\n      dup2\n      swap1\n      tag_35\n      swap1\n      dup3\n      tag_36\n      jump\t// in\n    tag_35:\n      pop\n      0x20\n      dup3\n      add\n      mload\n      0x01\n      dup3\n      add\n      swap1\n      tag_37\n      swap1\n      dup3\n      tag_36\n      jump\t// in\n    tag_37:\n      pop\n      0x40\n      dup3\n      add\n      mload\n      0x02\n      dup3\n      add\n      sstore\n      0x60\n      swap1\n      swap2\n      add\n      mload\n      0x03\n      swap1\n      swap2\n      add\n      dup1\n      sload\n      not(0xff)\n      and\n      swap2\n      iszero\n      iszero\n      swap2\n      swap1\n      swap2\n      or\n      swap1\n      sstore\n        /* \"contracts/7_Struct.sol\":249:337  function tambahBuku1() public {... */\n      jump\t// out\n        /* \"contracts/7_Struct.sol\":722:850  function bukuBaru3(string memory j, string memory p, uint id, bool ada) public {... */\n    tag_14:\n        /* \"contracts/7_Struct.sol\":823:841  Buku(j,p, id, ada) */\n      0x40\n      dup1\n      mload\n      0x80\n      dup2\n      add\n      dup3\n      mstore\n      dup6\n      dup2\n      mstore\n      0x20\n      dup2\n      add\n      dup6\n      swap1\n      mstore\n      swap1\n      dup2\n      add\n      dup4\n      swap1\n      mstore\n      dup2\n      iszero\n      iszero\n      0x60\n      dup3\n      add\n      mstore\n        /* \"contracts/7_Struct.sol\":812:817  buku3 */\n      0x08\n        /* \"contracts/7_Struct.sol\":812:842  buku3.push(Buku(j,p, id, ada)) */\n      dup1\n      sload\n      0x01\n      dup2\n      add\n      dup3\n      sstore\n      0x00\n      swap2\n      swap1\n      swap2\n      mstore\n      dup2\n      mload\n      0x04\n      swap1\n      swap2\n      mul\n      0xf3f7a9fe364faab93b216da50a3214154f22a0a2b415b23a84c8169e8b636ee3\n      add\n      swap1\n      dup2\n      swap1\n      tag_40\n      swap1\n      dup3\n      tag_36\n      jump\t// in\n    tag_40:\n      pop\n      0x20\n      dup3\n      add\n      mload\n      0x01\n      dup3\n      add\n      swap1\n      tag_41\n      swap1\n      dup3\n      tag_36\n      jump\t// in\n    tag_41:\n      pop\n      0x40\n      dup3\n      add\n      mload\n      0x02\n      dup3\n      add\n      sstore\n      0x60\n      swap1\n      swap2\n      add\n      mload\n      0x03\n      swap1\n      swap2\n      add\n      dup1\n      sload\n      not(0xff)\n      and\n      swap2\n      iszero\n      iszero\n      swap2\n      swap1\n      swap2\n      or\n      swap1\n      sstore\n      pop\n      pop\n      pop\n      pop\n        /* \"contracts/7_Struct.sol\":722:850  function bukuBaru3(string memory j, string memory p, uint id, bool ada) public {... */\n      jump\t// out\n        /* \"contracts/7_Struct.sol\":1083:1530  function lihatBuku(string[] memory judulbuku) public returns(string memory) {... */\n    tag_18:\n        /* \"contracts/7_Struct.sol\":1144:1157  string memory */\n      0x60\n        /* \"contracts/7_Struct.sol\":1170:1199  string memory judulBukuuuLoop */\n      dup1\n        /* \"contracts/7_Struct.sol\":1215:1221  uint i */\n      0x00\n        /* \"contracts/7_Struct.sol\":1210:1488  for (uint i = 0; i < judulbuku.length; i++){... */\n    tag_43:\n        /* \"contracts/7_Struct.sol\":1231:1240  judulbuku */\n      dup4\n        /* \"contracts/7_Struct.sol\":1231:1247  judulbuku.length */\n      mload\n        /* \"contracts/7_Struct.sol\":1227:1228  i */\n      dup2\n        /* \"contracts/7_Struct.sol\":1227:1247  i < judulbuku.length */\n      lt\n        /* \"contracts/7_Struct.sol\":1210:1488  for (uint i = 0; i < judulbuku.length; i++){... */\n      iszero\n      tag_44\n      jumpi\n        /* \"contracts/7_Struct.sol\":1268:1273  buku3 */\n      0x08\n        /* \"contracts/7_Struct.sol\":1279:1426  Buku({... */\n      mload(0x40)\n      dup1\n      0x80\n      add\n      0x40\n      mstore\n      dup1\n        /* \"contracts/7_Struct.sol\":1310:1319  judulbuku */\n      dup7\n        /* \"contracts/7_Struct.sol\":1320:1321  i */\n      dup5\n        /* \"contracts/7_Struct.sol\":1310:1322  judulbuku[i] */\n      dup2\n      mload\n      dup2\n      lt\n      tag_47\n      jumpi\n      tag_47\n      tag_48\n      jump\t// in\n    tag_47:\n      0x20\n      swap1\n      dup2\n      mul\n      swap2\n      swap1\n      swap2\n      add\n      dup2\n      add\n      mload\n        /* \"contracts/7_Struct.sol\":1279:1426  Buku({... */\n      dup3\n      mstore\n      0x40\n      dup1\n      mload\n      dup1\n      dup3\n      add\n      dup3\n      mstore\n      0x03\n      dup2\n      mstore\n      shl(0xe8, 0x6f6b6f)\n      dup2\n      dup5\n      add\n      mstore\n      dup4\n      dup4\n      add\n      mstore\n      dup3\n      add\n      dup6\n      swap1\n      mstore\n        /* \"contracts/7_Struct.sol\":1406:1410  true */\n      0x01\n        /* \"contracts/7_Struct.sol\":1279:1426  Buku({... */\n      0x60\n      swap1\n      swap3\n      add\n      dup3\n      swap1\n      mstore\n        /* \"contracts/7_Struct.sol\":1268:1427  buku3.push(Buku({... */\n      dup4\n      sload\n      swap2\n      dup3\n      add\n      dup5\n      sstore\n      0x00\n      swap4\n      dup5\n      mstore\n      swap1\n      swap3\n      keccak256\n      dup2\n      mload\n      swap2\n      swap3\n      0x04\n      mul\n      add\n      swap1\n      dup2\n      swap1\n      tag_50\n      swap1\n      dup3\n      tag_36\n      jump\t// in\n    tag_50:\n      pop\n      0x20\n      dup3\n      add\n      mload\n      0x01\n      dup3\n      add\n      swap1\n      tag_51\n      swap1\n      dup3\n      tag_36\n      jump\t// in\n    tag_51:\n      pop\n      0x40\n      dup3\n      add\n      mload\n      0x02\n      dup3\n      add\n      sstore\n      0x60\n      swap1\n      swap2\n      add\n      mload\n      0x03\n      swap1\n      swap2\n      add\n      dup1\n      sload\n      not(0xff)\n      and\n      swap2\n      iszero\n      iszero\n      swap2\n      swap1\n      swap2\n      or\n      swap1\n      sstore\n        /* \"contracts/7_Struct.sol\":1462:1467  buku3 */\n      0x08\n        /* \"contracts/7_Struct.sol\":1462:1470  buku3[i] */\n      dup1\n      sload\n        /* \"contracts/7_Struct.sol\":1468:1469  i */\n      dup3\n      swap1\n        /* \"contracts/7_Struct.sol\":1462:1470  buku3[i] */\n      dup2\n      lt\n      tag_53\n      jumpi\n      tag_53\n      tag_48\n      jump\t// in\n    tag_53:\n      swap1\n      0x00\n      mstore\n      keccak256(0x00, 0x20)\n      swap1\n      0x04\n      mul\n      add\n        /* \"contracts/7_Struct.sol\":1462:1476  buku3[i].judul */\n      0x00\n      add\n        /* \"contracts/7_Struct.sol\":1444:1476  judulBukuuuLoop = buku3[i].judul */\n      dup1\n      sload\n      tag_55\n      swap1\n      tag_56\n      jump\t// in\n    tag_55:\n      dup1\n      0x1f\n      add\n      0x20\n      dup1\n      swap2\n      div\n      mul\n      0x20\n      add\n      mload(0x40)\n      swap1\n      dup2\n      add\n      0x40\n      mstore\n      dup1\n      swap3\n      swap2\n      swap1\n      dup2\n      dup2\n      mstore\n      0x20\n      add\n      dup3\n      dup1\n      sload\n      tag_57\n      swap1\n      tag_56\n      jump\t// in\n    tag_57:\n      dup1\n      iszero\n      tag_58\n      jumpi\n      dup1\n      0x1f\n      lt\n      tag_59\n      jumpi\n      0x0100\n      dup1\n      dup4\n      sload\n      div\n      mul\n      dup4\n      mstore\n      swap2\n      0x20\n      add\n      swap2\n      jump(tag_58)\n    tag_59:\n      dup3\n      add\n      swap2\n      swap1\n      0x00\n      mstore\n      keccak256(0x00, 0x20)\n      swap1\n    tag_60:\n      dup2\n      sload\n      dup2\n      mstore\n      swap1\n      0x01\n      add\n      swap1\n      0x20\n      add\n      dup1\n      dup4\n      gt\n      tag_60\n      jumpi\n      dup3\n      swap1\n      sub\n      0x1f\n      and\n      dup3\n      add\n      swap2\n    tag_58:\n      pop\n      pop\n      pop\n      pop\n      pop\n      swap2\n      pop\n        /* \"contracts/7_Struct.sol\":1249:1252  i++ */\n      dup1\n      dup1\n      0x01\n      add\n      swap2\n      pop\n      pop\n        /* \"contracts/7_Struct.sol\":1210:1488  for (uint i = 0; i < judulbuku.length; i++){... */\n      jump(tag_43)\n    tag_44:\n      pop\n        /* \"contracts/7_Struct.sol\":1507:1522  judulBukuuuLoop */\n      swap3\n        /* \"contracts/7_Struct.sol\":1083:1530  function lihatBuku(string[] memory judulbuku) public returns(string memory) {... */\n      swap2\n      pop\n      pop\n      jump\t// out\n        /* \"contracts/7_Struct.sol\":858:1075  function lihatBukuById(uint _index) public view returns (string memory, string memory, uint, bool) {... */\n    tag_24:\n        /* \"contracts/7_Struct.sol\":915:928  string memory */\n      0x60\n        /* \"contracts/7_Struct.sol\":930:943  string memory */\n      dup1\n        /* \"contracts/7_Struct.sol\":945:949  uint */\n      0x00\n        /* \"contracts/7_Struct.sol\":951:955  bool */\n      dup1\n        /* \"contracts/7_Struct.sol\":968:985  Buku storage buku */\n      0x00\n        /* \"contracts/7_Struct.sol\":988:993  buku3 */\n      0x08\n        /* \"contracts/7_Struct.sol\":994:1000  _index */\n      dup7\n        /* \"contracts/7_Struct.sol\":988:1001  buku3[_index] */\n      dup2\n      sload\n      dup2\n      lt\n      tag_63\n      jumpi\n      tag_63\n      tag_48\n      jump\t// in\n    tag_63:\n      swap1\n      0x00\n      mstore\n      keccak256(0x00, 0x20)\n      swap1\n      0x04\n      mul\n      add\n        /* \"contracts/7_Struct.sol\":968:1001  Buku storage buku = buku3[_index] */\n      swap1\n      pop\n        /* \"contracts/7_Struct.sol\":1020:1024  buku */\n      dup1\n        /* \"contracts/7_Struct.sol\":1020:1030  buku.judul */\n      0x00\n      add\n        /* \"contracts/7_Struct.sol\":1032:1036  buku */\n      dup2\n        /* \"contracts/7_Struct.sol\":1032:1043  buku.pnulis */\n      0x01\n      add\n        /* \"contracts/7_Struct.sol\":1045:1049  buku */\n      dup3\n        /* \"contracts/7_Struct.sol\":1045:1052  buku.id */\n      0x02\n      add\n      sload\n        /* \"contracts/7_Struct.sol\":1054:1058  buku */\n      dup4\n        /* \"contracts/7_Struct.sol\":1054:1066  buku.isReady */\n      0x03\n      add\n      0x00\n      swap1\n      sload\n      swap1\n      0x0100\n      exp\n      swap1\n      div\n      0xff\n      and\n        /* \"contracts/7_Struct.sol\":1012:1067  return (buku.judul, buku.pnulis, buku.id, buku.isReady) */\n      dup4\n      dup1\n      sload\n      tag_65\n      swap1\n      tag_56\n      jump\t// in\n    tag_65:\n      dup1\n      0x1f\n      add\n      0x20\n      dup1\n      swap2\n      div\n      mul\n      0x20\n      add\n      mload(0x40)\n      swap1\n      dup2\n      add\n      0x40\n      mstore\n      dup1\n      swap3\n      swap2\n      swap1\n      dup2\n      dup2\n      mstore\n      0x20\n      add\n      dup3\n      dup1\n      sload\n      tag_66\n      swap1\n      tag_56\n      jump\t// in\n    tag_66:\n      dup1\n      iszero\n      tag_67\n      jumpi\n      dup1\n      0x1f\n      lt\n      tag_68\n      jumpi\n      0x0100\n      dup1\n      dup4\n      sload\n      div\n      mul\n      dup4\n      mstore\n      swap2\n      0x20\n      add\n      swap2\n      jump(tag_67)\n    tag_68:\n      dup3\n      add\n      swap2\n      swap1\n      0x00\n      mstore\n      keccak256(0x00, 0x20)\n      swap1\n    tag_69:\n      dup2\n      sload\n      dup2\n      mstore\n      swap1\n      0x01\n      add\n      swap1\n      0x20\n      add\n      dup1\n      dup4\n      gt\n      tag_69\n      jumpi\n      dup3\n      swap1\n      sub\n      0x1f\n      and\n      dup3\n      add\n      swap2\n    tag_67:\n      pop\n      pop\n      pop\n      pop\n      pop\n      swap4\n      pop\n      dup3\n      dup1\n      sload\n      tag_70\n      swap1\n      tag_56\n      jump\t// in\n    tag_70:\n      dup1\n      0x1f\n      add\n      0x20\n      dup1\n      swap2\n      div\n      mul\n      0x20\n      add\n      mload(0x40)\n      swap1\n      dup2\n      add\n      0x40\n      mstore\n      dup1\n      swap3\n      swap2\n      swap1\n      dup2\n      dup2\n      mstore\n      0x20\n      add\n      dup3\n      dup1\n      sload\n      tag_71\n      swap1\n      tag_56\n      jump\t// in\n    tag_71:\n      dup1\n      iszero\n      tag_72\n      jumpi\n      dup1\n      0x1f\n      lt\n      tag_73\n      jumpi\n      0x0100\n      dup1\n      dup4\n      sload\n      div\n      mul\n      dup4\n      mstore\n      swap2\n      0x20\n      add\n      swap2\n      jump(tag_72)\n    tag_73:\n      dup3\n      add\n      swap2\n      swap1\n      0x00\n      mstore\n      keccak256(0x00, 0x20)\n      swap1\n    tag_74:\n      dup2\n      sload\n      dup2\n      mstore\n      swap1\n      0x01\n      add\n      swap1\n      0x20\n      add\n      dup1\n      dup4\n      gt\n      tag_74\n      jumpi\n      dup3\n      swap1\n      sub\n      0x1f\n      and\n      dup3\n      add\n      swap2\n    tag_72:\n      pop\n      pop\n      pop\n      pop\n      pop\n      swap3\n      pop\n      swap5\n      pop\n      swap5\n      pop\n      swap5\n      pop\n      swap5\n      pop\n      pop\n        /* \"contracts/7_Struct.sol\":858:1075  function lihatBukuById(uint _index) public view returns (string memory, string memory, uint, bool) {... */\n      swap2\n      swap4\n      pop\n      swap2\n      swap4\n      jump\t// out\n        /* \"contracts/7_Struct.sol\":349:511  function lihatBuku1() public view returns(string memory, string memory, uint, bool) {... */\n    tag_28:\n        /* \"contracts/7_Struct.sol\":479:487  buku1.id */\n      sload(0x02)\n        /* \"contracts/7_Struct.sol\":489:502  buku1.isReady */\n      sload(0x03)\n        /* \"contracts/7_Struct.sol\":421:425  uint */\n      0x00\n        /* \"contracts/7_Struct.sol\":444:503  return (buku1.judul, buku1.pnulis, buku1.id, buku1.isReady) */\n      dup1\n      sload\n        /* \"contracts/7_Struct.sol\":391:404  string memory */\n      0x60\n      swap4\n      dup5\n      swap4\n        /* \"contracts/7_Struct.sol\":421:425  uint */\n      dup4\n      swap3\n      dup4\n      swap3\n        /* \"contracts/7_Struct.sol\":465:477  buku1.pnulis */\n      0x01\n      swap3\n        /* \"contracts/7_Struct.sol\":479:487  buku1.id */\n      swap1\n      swap2\n        /* \"contracts/7_Struct.sol\":489:502  buku1.isReady */\n      0xff\n      swap1\n      swap2\n      and\n      swap1\n        /* \"contracts/7_Struct.sol\":421:425  uint */\n      dup5\n      swap1\n        /* \"contracts/7_Struct.sol\":444:503  return (buku1.judul, buku1.pnulis, buku1.id, buku1.isReady) */\n      tag_76\n      swap1\n      tag_56\n      jump\t// in\n    tag_76:\n      dup1\n      0x1f\n      add\n      0x20\n      dup1\n      swap2\n      div\n      mul\n      0x20\n      add\n      mload(0x40)\n      swap1\n      dup2\n      add\n      0x40\n      mstore\n      dup1\n      swap3\n      swap2\n      swap1\n      dup2\n      dup2\n      mstore\n      0x20\n      add\n      dup3\n      dup1\n      sload\n      tag_77\n      swap1\n      tag_56\n      jump\t// in\n    tag_77:\n      dup1\n      iszero\n      tag_78\n      jumpi\n      dup1\n      0x1f\n      lt\n      tag_79\n      jumpi\n      0x0100\n      dup1\n      dup4\n      sload\n      div\n      mul\n      dup4\n      mstore\n      swap2\n      0x20\n      add\n      swap2\n      jump(tag_78)\n    tag_79:\n      dup3\n      add\n      swap2\n      swap1\n      0x00\n      mstore\n      keccak256(0x00, 0x20)\n      swap1\n    tag_80:\n      dup2\n      sload\n      dup2\n      mstore\n      swap1\n      0x01\n      add\n      swap1\n      0x20\n      add\n      dup1\n      dup4\n      gt\n      tag_80\n      jumpi\n      dup3\n      swap1\n      sub\n      0x1f\n      and\n      dup3\n      add\n      swap2\n    tag_78:\n      pop\n      pop\n      pop\n      pop\n      pop\n      swap4\n      pop\n      dup3\n      dup1\n      sload\n      tag_81\n      swap1\n      tag_56\n      jump\t// in\n    tag_81:\n      dup1\n      0x1f\n      add\n      0x20\n      dup1\n      swap2\n      div\n      mul\n      0x20\n      add\n      mload(0x40)\n      swap1\n      dup2\n      add\n      0x40\n      mstore\n      dup1\n      swap3\n      swap2\n      swap1\n      dup2\n      dup2\n      mstore\n      0x20\n      add\n      dup3\n      dup1\n      sload\n      tag_82\n      swap1\n      tag_56\n      jump\t// in\n    tag_82:\n      dup1\n      iszero\n      tag_83\n      jumpi\n      dup1\n      0x1f\n      lt\n      tag_84\n      jumpi\n      0x0100\n      dup1\n      dup4\n      sload\n      div\n      mul\n      dup4\n      mstore\n      swap2\n      0x20\n      add\n      swap2\n      jump(tag_83)\n    tag_84:\n      dup3\n      add\n      swap2\n      swap1\n      0x00\n      mstore\n      keccak256(0x00, 0x20)\n      swap1\n    tag_85:\n      dup2\n      sload\n      dup2\n      mstore\n      swap1\n      0x01\n      add\n      swap1\n      0x20\n      add\n      dup1\n      dup4\n      gt\n      tag_85\n      jumpi\n      dup3\n      swap1\n      sub\n      0x1f\n      and\n      dup3\n      add\n      swap2\n    tag_83:\n      pop\n      pop\n      pop\n      pop\n      pop\n      swap3\n      pop\n      swap4\n      pop\n      swap4\n      pop\n      swap4\n      pop\n      swap4\n      pop\n        /* \"contracts/7_Struct.sol\":349:511  function lihatBuku1() public view returns(string memory, string memory, uint, bool) {... */\n      swap1\n      swap2\n      swap3\n      swap4\n      jump\t// out\n        /* \"contracts/7_Struct.sol\":570:695  function lihatBuku2() public view returns(string memory, string memory) {... */\n    tag_31:\n        /* \"contracts/7_Struct.sol\":612:625  string memory */\n      0x60\n        /* \"contracts/7_Struct.sol\":627:640  string memory */\n      dup1\n        /* \"contracts/7_Struct.sol\":661:666  buku2 */\n      0x04\n        /* \"contracts/7_Struct.sol\":661:672  buku2.judul */\n      0x00\n      add\n        /* \"contracts/7_Struct.sol\":674:679  buku2 */\n      0x04\n        /* \"contracts/7_Struct.sol\":674:686  buku2.pnulis */\n      0x01\n      add\n        /* \"contracts/7_Struct.sol\":653:687  return (buku2.judul, buku2.pnulis) */\n      dup2\n      dup1\n      sload\n      tag_87\n      swap1\n      tag_56\n      jump\t// in\n    tag_87:\n      dup1\n      0x1f\n      add\n      0x20\n      dup1\n      swap2\n      div\n      mul\n      0x20\n      add\n      mload(0x40)\n      swap1\n      dup2\n      add\n      0x40\n      mstore\n      dup1\n      swap3\n      swap2\n      swap1\n      dup2\n      dup2\n      mstore\n      0x20\n      add\n      dup3\n      dup1\n      sload\n      tag_88\n      swap1\n      tag_56\n      jump\t// in\n    tag_88:\n      dup1\n      iszero\n      tag_89\n      jumpi\n      dup1\n      0x1f\n      lt\n      tag_90\n      jumpi\n      0x0100\n      dup1\n      dup4\n      sload\n      div\n      mul\n      dup4\n      mstore\n      swap2\n      0x20\n      add\n      swap2\n      jump(tag_89)\n    tag_90:\n      dup3\n      add\n      swap2\n      swap1\n      0x00\n      mstore\n      keccak256(0x00, 0x20)\n      swap1\n    tag_91:\n      dup2\n      sload\n      dup2\n      mstore\n      swap1\n      0x01\n      add\n      swap1\n      0x20\n      add\n      dup1\n      dup4\n      gt\n      tag_91\n      jumpi\n      dup3\n      swap1\n      sub\n      0x1f\n      and\n      dup3\n      add\n      swap2\n    tag_89:\n      pop\n      pop\n      pop\n      pop\n      pop\n      swap2\n      pop\n      dup1\n      dup1\n      sload\n      tag_92\n      swap1\n      tag_56\n      jump\t// in\n    tag_92:\n      dup1\n      0x1f\n      add\n      0x20\n      dup1\n      swap2\n      div\n      mul\n      0x20\n      add\n      mload(0x40)\n      swap1\n      dup2\n      add\n      0x40\n      mstore\n      dup1\n      swap3\n      swap2\n      swap1\n      dup2\n      dup2\n      mstore\n      0x20\n      add\n      dup3\n      dup1\n      sload\n      tag_93\n      swap1\n      tag_56\n      jump\t// in\n    tag_93:\n      dup1\n      iszero\n      tag_94\n      jumpi\n      dup1\n      0x1f\n      lt\n      tag_95\n      jumpi\n      0x0100\n      dup1\n      dup4\n      sload\n      div\n      mul\n      dup4\n      mstore\n      swap2\n      0x20\n      add\n      swap2\n      jump(tag_94)\n    tag_95:\n      dup3\n      add\n      swap2\n      swap1\n      0x00\n      mstore\n      keccak256(0x00, 0x20)\n      swap1\n    tag_96:\n      dup2\n      sload\n      dup2\n      mstore\n      swap1\n      0x01\n      add\n      swap1\n      0x20\n      add\n      dup1\n      dup4\n      gt\n      tag_96\n      jumpi\n      dup3\n      swap1\n      sub\n      0x1f\n      and\n      dup3\n      add\n      swap2\n    tag_94:\n      pop\n      pop\n      pop\n      pop\n      pop\n      swap1\n      pop\n      swap2\n      pop\n      swap2\n      pop\n        /* \"contracts/7_Struct.sol\":570:695  function lihatBuku2() public view returns(string memory, string memory) {... */\n      swap1\n      swap2\n      jump\t// out\n        /* \"#utility.yul\":14:141   */\n    tag_97:\n        /* \"#utility.yul\":75:85   */\n      0x4e487b71\n        /* \"#utility.yul\":70:73   */\n      0xe0\n        /* \"#utility.yul\":66:86   */\n      shl\n        /* \"#utility.yul\":63:64   */\n      0x00\n        /* \"#utility.yul\":56:87   */\n      mstore\n        /* \"#utility.yul\":106:110   */\n      0x41\n        /* \"#utility.yul\":103:104   */\n      0x04\n        /* \"#utility.yul\":96:111   */\n      mstore\n        /* \"#utility.yul\":130:134   */\n      0x24\n        /* \"#utility.yul\":127:128   */\n      0x00\n        /* \"#utility.yul\":120:135   */\n      revert\n        /* \"#utility.yul\":146:421   */\n    tag_98:\n        /* \"#utility.yul\":217:219   */\n      0x40\n        /* \"#utility.yul\":211:220   */\n      mload\n        /* \"#utility.yul\":282:284   */\n      0x1f\n        /* \"#utility.yul\":263:276   */\n      dup3\n      add\n      not(0x1f)\n        /* \"#utility.yul\":259:286   */\n      and\n        /* \"#utility.yul\":247:287   */\n      dup2\n      add\n        /* \"#utility.yul\":317:335   */\n      0xffffffffffffffff\n        /* \"#utility.yul\":302:336   */\n      dup2\n      gt\n        /* \"#utility.yul\":338:360   */\n      dup3\n      dup3\n      lt\n        /* \"#utility.yul\":299:361   */\n      or\n        /* \"#utility.yul\":296:384   */\n      iszero\n      tag_108\n      jumpi\n        /* \"#utility.yul\":364:382   */\n      tag_108\n      tag_97\n      jump\t// in\n    tag_108:\n        /* \"#utility.yul\":400:402   */\n      0x40\n        /* \"#utility.yul\":393:415   */\n      mstore\n        /* \"#utility.yul\":146:421   */\n      swap2\n      swap1\n      pop\n      jump\t// out\n        /* \"#utility.yul\":426:957   */\n    tag_99:\n        /* \"#utility.yul\":469:474   */\n      0x00\n        /* \"#utility.yul\":522:525   */\n      dup3\n        /* \"#utility.yul\":515:519   */\n      0x1f\n        /* \"#utility.yul\":507:513   */\n      dup4\n        /* \"#utility.yul\":503:520   */\n      add\n        /* \"#utility.yul\":499:526   */\n      slt\n        /* \"#utility.yul\":489:544   */\n      tag_110\n      jumpi\n        /* \"#utility.yul\":540:541   */\n      0x00\n        /* \"#utility.yul\":537:538   */\n      dup1\n        /* \"#utility.yul\":530:542   */\n      revert\n        /* \"#utility.yul\":489:544   */\n    tag_110:\n        /* \"#utility.yul\":576:582   */\n      dup2\n        /* \"#utility.yul\":563:583   */\n      calldataload\n        /* \"#utility.yul\":602:620   */\n      0xffffffffffffffff\n        /* \"#utility.yul\":598:600   */\n      dup2\n        /* \"#utility.yul\":595:621   */\n      gt\n        /* \"#utility.yul\":592:644   */\n      iszero\n      tag_112\n      jumpi\n        /* \"#utility.yul\":624:642   */\n      tag_112\n      tag_97\n      jump\t// in\n    tag_112:\n        /* \"#utility.yul\":668:723   */\n      tag_113\n        /* \"#utility.yul\":711:713   */\n      0x1f\n        /* \"#utility.yul\":692:705   */\n      dup3\n      add\n      not(0x1f)\n        /* \"#utility.yul\":688:715   */\n      and\n        /* \"#utility.yul\":717:721   */\n      0x20\n        /* \"#utility.yul\":684:722   */\n      add\n        /* \"#utility.yul\":668:723   */\n      tag_98\n      jump\t// in\n    tag_113:\n        /* \"#utility.yul\":748:750   */\n      dup2\n        /* \"#utility.yul\":739:746   */\n      dup2\n        /* \"#utility.yul\":732:751   */\n      mstore\n        /* \"#utility.yul\":794:797   */\n      dup5\n        /* \"#utility.yul\":787:791   */\n      0x20\n        /* \"#utility.yul\":782:784   */\n      dup4\n        /* \"#utility.yul\":774:780   */\n      dup7\n        /* \"#utility.yul\":770:785   */\n      add\n        /* \"#utility.yul\":766:792   */\n      add\n        /* \"#utility.yul\":763:798   */\n      gt\n        /* \"#utility.yul\":760:815   */\n      iszero\n      tag_114\n      jumpi\n        /* \"#utility.yul\":811:812   */\n      0x00\n        /* \"#utility.yul\":808:809   */\n      dup1\n        /* \"#utility.yul\":801:813   */\n      revert\n        /* \"#utility.yul\":760:815   */\n    tag_114:\n        /* \"#utility.yul\":876:878   */\n      dup2\n        /* \"#utility.yul\":869:873   */\n      0x20\n        /* \"#utility.yul\":861:867   */\n      dup6\n        /* \"#utility.yul\":857:874   */\n      add\n        /* \"#utility.yul\":850:854   */\n      0x20\n        /* \"#utility.yul\":841:848   */\n      dup4\n        /* \"#utility.yul\":837:855   */\n      add\n        /* \"#utility.yul\":824:879   */\n      calldatacopy\n        /* \"#utility.yul\":924:925   */\n      0x00\n        /* \"#utility.yul\":899:915   */\n      swap2\n      dup2\n      add\n        /* \"#utility.yul\":917:921   */\n      0x20\n        /* \"#utility.yul\":895:922   */\n      add\n        /* \"#utility.yul\":888:926   */\n      swap2\n      swap1\n      swap2\n      mstore\n        /* \"#utility.yul\":903:910   */\n      swap4\n        /* \"#utility.yul\":426:957   */\n      swap3\n      pop\n      pop\n      pop\n      jump\t// out\n        /* \"#utility.yul\":962:1735   */\n    tag_13:\n        /* \"#utility.yul\":1065:1071   */\n      0x00\n        /* \"#utility.yul\":1073:1079   */\n      dup1\n        /* \"#utility.yul\":1081:1087   */\n      0x00\n        /* \"#utility.yul\":1089:1095   */\n      dup1\n        /* \"#utility.yul\":1142:1145   */\n      0x80\n        /* \"#utility.yul\":1130:1139   */\n      dup6\n        /* \"#utility.yul\":1121:1128   */\n      dup8\n        /* \"#utility.yul\":1117:1140   */\n      sub\n        /* \"#utility.yul\":1113:1146   */\n      slt\n        /* \"#utility.yul\":1110:1163   */\n      iszero\n      tag_116\n      jumpi\n        /* \"#utility.yul\":1159:1160   */\n      0x00\n        /* \"#utility.yul\":1156:1157   */\n      dup1\n        /* \"#utility.yul\":1149:1161   */\n      revert\n        /* \"#utility.yul\":1110:1163   */\n    tag_116:\n        /* \"#utility.yul\":1199:1208   */\n      dup5\n        /* \"#utility.yul\":1186:1209   */\n      calldataload\n        /* \"#utility.yul\":1228:1246   */\n      0xffffffffffffffff\n        /* \"#utility.yul\":1269:1271   */\n      dup1\n        /* \"#utility.yul\":1261:1267   */\n      dup3\n        /* \"#utility.yul\":1258:1272   */\n      gt\n        /* \"#utility.yul\":1255:1289   */\n      iszero\n      tag_117\n      jumpi\n        /* \"#utility.yul\":1285:1286   */\n      0x00\n        /* \"#utility.yul\":1282:1283   */\n      dup1\n        /* \"#utility.yul\":1275:1287   */\n      revert\n        /* \"#utility.yul\":1255:1289   */\n    tag_117:\n        /* \"#utility.yul\":1308:1358   */\n      tag_118\n        /* \"#utility.yul\":1350:1357   */\n      dup9\n        /* \"#utility.yul\":1341:1347   */\n      dup4\n        /* \"#utility.yul\":1330:1339   */\n      dup10\n        /* \"#utility.yul\":1326:1348   */\n      add\n        /* \"#utility.yul\":1308:1358   */\n      tag_99\n      jump\t// in\n    tag_118:\n        /* \"#utility.yul\":1298:1358   */\n      swap6\n      pop\n        /* \"#utility.yul\":1411:1413   */\n      0x20\n        /* \"#utility.yul\":1400:1409   */\n      dup8\n        /* \"#utility.yul\":1396:1414   */\n      add\n        /* \"#utility.yul\":1383:1415   */\n      calldataload\n        /* \"#utility.yul\":1367:1415   */\n      swap2\n      pop\n        /* \"#utility.yul\":1440:1442   */\n      dup1\n        /* \"#utility.yul\":1430:1438   */\n      dup3\n        /* \"#utility.yul\":1427:1443   */\n      gt\n        /* \"#utility.yul\":1424:1460   */\n      iszero\n      tag_119\n      jumpi\n        /* \"#utility.yul\":1456:1457   */\n      0x00\n        /* \"#utility.yul\":1453:1454   */\n      dup1\n        /* \"#utility.yul\":1446:1458   */\n      revert\n        /* \"#utility.yul\":1424:1460   */\n    tag_119:\n      pop\n        /* \"#utility.yul\":1479:1531   */\n      tag_120\n        /* \"#utility.yul\":1523:1530   */\n      dup8\n        /* \"#utility.yul\":1512:1520   */\n      dup3\n        /* \"#utility.yul\":1501:1510   */\n      dup9\n        /* \"#utility.yul\":1497:1521   */\n      add\n        /* \"#utility.yul\":1479:1531   */\n      tag_99\n      jump\t// in\n    tag_120:\n        /* \"#utility.yul\":1469:1531   */\n      swap4\n      pop\n      pop\n        /* \"#utility.yul\":1578:1580   */\n      0x40\n        /* \"#utility.yul\":1567:1576   */\n      dup6\n        /* \"#utility.yul\":1563:1581   */\n      add\n        /* \"#utility.yul\":1550:1582   */\n      calldataload\n        /* \"#utility.yul\":1540:1582   */\n      swap2\n      pop\n        /* \"#utility.yul\":1632:1634   */\n      0x60\n        /* \"#utility.yul\":1621:1630   */\n      dup6\n        /* \"#utility.yul\":1617:1635   */\n      add\n        /* \"#utility.yul\":1604:1636   */\n      calldataload\n        /* \"#utility.yul\":1679:1684   */\n      dup1\n        /* \"#utility.yul\":1672:1685   */\n      iszero\n        /* \"#utility.yul\":1665:1686   */\n      iszero\n        /* \"#utility.yul\":1658:1663   */\n      dup2\n        /* \"#utility.yul\":1655:1687   */\n      eq\n        /* \"#utility.yul\":1645:1705   */\n      tag_121\n      jumpi\n        /* \"#utility.yul\":1701:1702   */\n      0x00\n        /* \"#utility.yul\":1698:1699   */\n      dup1\n        /* \"#utility.yul\":1691:1703   */\n      revert\n        /* \"#utility.yul\":1645:1705   */\n    tag_121:\n        /* \"#utility.yul\":962:1735   */\n      swap4\n      swap7\n      swap3\n      swap6\n      pop\n      swap1\n      swap4\n      pop\n      pop\n      jump\t// out\n        /* \"#utility.yul\":1740:2837   */\n    tag_17:\n        /* \"#utility.yul\":1834:1840   */\n      0x00\n        /* \"#utility.yul\":1865:1867   */\n      0x20\n        /* \"#utility.yul\":1908:1910   */\n      dup1\n        /* \"#utility.yul\":1896:1905   */\n      dup4\n        /* \"#utility.yul\":1887:1894   */\n      dup6\n        /* \"#utility.yul\":1883:1906   */\n      sub\n        /* \"#utility.yul\":1879:1911   */\n      slt\n        /* \"#utility.yul\":1876:1928   */\n      iszero\n      tag_123\n      jumpi\n        /* \"#utility.yul\":1924:1925   */\n      0x00\n        /* \"#utility.yul\":1921:1922   */\n      dup1\n        /* \"#utility.yul\":1914:1926   */\n      revert\n        /* \"#utility.yul\":1876:1928   */\n    tag_123:\n        /* \"#utility.yul\":1964:1973   */\n      dup3\n        /* \"#utility.yul\":1951:1974   */\n      calldataload\n        /* \"#utility.yul\":1993:2011   */\n      0xffffffffffffffff\n        /* \"#utility.yul\":2034:2036   */\n      dup1\n        /* \"#utility.yul\":2026:2032   */\n      dup3\n        /* \"#utility.yul\":2023:2037   */\n      gt\n        /* \"#utility.yul\":2020:2054   */\n      iszero\n      tag_124\n      jumpi\n        /* \"#utility.yul\":2050:2051   */\n      0x00\n        /* \"#utility.yul\":2047:2048   */\n      dup1\n        /* \"#utility.yul\":2040:2052   */\n      revert\n        /* \"#utility.yul\":2020:2054   */\n    tag_124:\n        /* \"#utility.yul\":2088:2094   */\n      dup2\n        /* \"#utility.yul\":2077:2086   */\n      dup6\n        /* \"#utility.yul\":2073:2095   */\n      add\n        /* \"#utility.yul\":2063:2095   */\n      swap2\n      pop\n        /* \"#utility.yul\":2133:2140   */\n      dup6\n        /* \"#utility.yul\":2126:2130   */\n      0x1f\n        /* \"#utility.yul\":2122:2124   */\n      dup4\n        /* \"#utility.yul\":2118:2131   */\n      add\n        /* \"#utility.yul\":2114:2141   */\n      slt\n        /* \"#utility.yul\":2104:2159   */\n      tag_125\n      jumpi\n        /* \"#utility.yul\":2155:2156   */\n      0x00\n        /* \"#utility.yul\":2152:2153   */\n      dup1\n        /* \"#utility.yul\":2145:2157   */\n      revert\n        /* \"#utility.yul\":2104:2159   */\n    tag_125:\n        /* \"#utility.yul\":2191:2193   */\n      dup2\n        /* \"#utility.yul\":2178:2194   */\n      calldataload\n        /* \"#utility.yul\":2213:2215   */\n      dup2\n        /* \"#utility.yul\":2209:2211   */\n      dup2\n        /* \"#utility.yul\":2206:2216   */\n      gt\n        /* \"#utility.yul\":2203:2239   */\n      iszero\n      tag_127\n      jumpi\n        /* \"#utility.yul\":2219:2237   */\n      tag_127\n      tag_97\n      jump\t// in\n    tag_127:\n        /* \"#utility.yul\":2265:2267   */\n      dup1\n        /* \"#utility.yul\":2262:2263   */\n      0x05\n        /* \"#utility.yul\":2258:2268   */\n      shl\n        /* \"#utility.yul\":2288:2316   */\n      tag_128\n        /* \"#utility.yul\":2312:2314   */\n      dup6\n        /* \"#utility.yul\":2308:2310   */\n      dup3\n        /* \"#utility.yul\":2304:2315   */\n      add\n        /* \"#utility.yul\":2288:2316   */\n      tag_98\n      jump\t// in\n    tag_128:\n        /* \"#utility.yul\":2350:2365   */\n      swap2\n      dup3\n      mstore\n        /* \"#utility.yul\":2420:2431   */\n      dup4\n      dup2\n      add\n        /* \"#utility.yul\":2416:2436   */\n      dup6\n      add\n      swap2\n        /* \"#utility.yul\":2381:2393   */\n      dup6\n      dup2\n      add\n      swap1\n        /* \"#utility.yul\":2448:2467   */\n      dup10\n      dup5\n      gt\n        /* \"#utility.yul\":2445:2484   */\n      iszero\n      tag_129\n      jumpi\n        /* \"#utility.yul\":2480:2481   */\n      0x00\n        /* \"#utility.yul\":2477:2478   */\n      dup1\n        /* \"#utility.yul\":2470:2482   */\n      revert\n        /* \"#utility.yul\":2445:2484   */\n    tag_129:\n        /* \"#utility.yul\":2512:2514   */\n      dup7\n        /* \"#utility.yul\":2508:2510   */\n      dup7\n        /* \"#utility.yul\":2504:2515   */\n      add\n        /* \"#utility.yul\":2493:2515   */\n      swap3\n      pop\n        /* \"#utility.yul\":2524:2807   */\n    tag_130:\n        /* \"#utility.yul\":2540:2546   */\n      dup4\n        /* \"#utility.yul\":2535:2538   */\n      dup4\n        /* \"#utility.yul\":2532:2547   */\n      lt\n        /* \"#utility.yul\":2524:2807   */\n      iszero\n      tag_132\n      jumpi\n        /* \"#utility.yul\":2626:2629   */\n      dup3\n        /* \"#utility.yul\":2613:2630   */\n      calldataload\n        /* \"#utility.yul\":2662:2664   */\n      dup6\n        /* \"#utility.yul\":2649:2660   */\n      dup2\n        /* \"#utility.yul\":2646:2665   */\n      gt\n        /* \"#utility.yul\":2643:2682   */\n      iszero\n      tag_133\n      jumpi\n        /* \"#utility.yul\":2678:2679   */\n      0x00\n        /* \"#utility.yul\":2675:2676   */\n      dup1\n        /* \"#utility.yul\":2668:2680   */\n      revert\n        /* \"#utility.yul\":2643:2682   */\n    tag_133:\n        /* \"#utility.yul\":2707:2764   */\n      tag_134\n        /* \"#utility.yul\":2756:2763   */\n      dup12\n        /* \"#utility.yul\":2751:2753   */\n      dup10\n        /* \"#utility.yul\":2737:2748   */\n      dup4\n        /* \"#utility.yul\":2733:2735   */\n      dup11\n        /* \"#utility.yul\":2729:2749   */\n      add\n        /* \"#utility.yul\":2725:2754   */\n      add\n        /* \"#utility.yul\":2707:2764   */\n      tag_99\n      jump\t// in\n    tag_134:\n        /* \"#utility.yul\":2695:2765   */\n      dup4\n      mstore\n      pop\n        /* \"#utility.yul\":2557:2569   */\n      swap2\n      dup7\n      add\n      swap2\n        /* \"#utility.yul\":2785:2797   */\n      swap1\n      dup7\n      add\n      swap1\n        /* \"#utility.yul\":2524:2807   */\n      jump(tag_130)\n    tag_132:\n        /* \"#utility.yul\":2826:2831   */\n      swap10\n        /* \"#utility.yul\":1740:2837   */\n      swap9\n      pop\n      pop\n      pop\n      pop\n      pop\n      pop\n      pop\n      pop\n      pop\n      jump\t// out\n        /* \"#utility.yul\":2842:3265   */\n    tag_100:\n        /* \"#utility.yul\":2884:2887   */\n      0x00\n        /* \"#utility.yul\":2922:2927   */\n      dup2\n        /* \"#utility.yul\":2916:2928   */\n      mload\n        /* \"#utility.yul\":2949:2955   */\n      dup1\n        /* \"#utility.yul\":2944:2947   */\n      dup5\n        /* \"#utility.yul\":2937:2956   */\n      mstore\n        /* \"#utility.yul\":2974:2975   */\n      0x00\n        /* \"#utility.yul\":2984:3146   */\n    tag_136:\n        /* \"#utility.yul\":2998:3004   */\n      dup2\n        /* \"#utility.yul\":2995:2996   */\n      dup2\n        /* \"#utility.yul\":2992:3005   */\n      lt\n        /* \"#utility.yul\":2984:3146   */\n      iszero\n      tag_138\n      jumpi\n        /* \"#utility.yul\":3060:3064   */\n      0x20\n        /* \"#utility.yul\":3116:3129   */\n      dup2\n      dup6\n      add\n        /* \"#utility.yul\":3112:3134   */\n      dup2\n      add\n        /* \"#utility.yul\":3106:3135   */\n      mload\n        /* \"#utility.yul\":3088:3099   */\n      dup7\n      dup4\n      add\n        /* \"#utility.yul\":3084:3104   */\n      dup3\n      add\n        /* \"#utility.yul\":3077:3136   */\n      mstore\n        /* \"#utility.yul\":3013:3025   */\n      add\n        /* \"#utility.yul\":2984:3146   */\n      jump(tag_136)\n    tag_138:\n        /* \"#utility.yul\":2988:2991   */\n      pop\n        /* \"#utility.yul\":3191:3192   */\n      0x00\n        /* \"#utility.yul\":3184:3188   */\n      0x20\n        /* \"#utility.yul\":3175:3181   */\n      dup3\n        /* \"#utility.yul\":3170:3173   */\n      dup7\n        /* \"#utility.yul\":3166:3182   */\n      add\n        /* \"#utility.yul\":3162:3189   */\n      add\n        /* \"#utility.yul\":3155:3193   */\n      mstore\n        /* \"#utility.yul\":3254:3258   */\n      0x20\n        /* \"#utility.yul\":3247:3249   */\n      0x1f\n        /* \"#utility.yul\":3243:3250   */\n      not\n        /* \"#utility.yul\":3238:3240   */\n      0x1f\n        /* \"#utility.yul\":3230:3236   */\n      dup4\n        /* \"#utility.yul\":3226:3241   */\n      add\n        /* \"#utility.yul\":3222:3251   */\n      and\n        /* \"#utility.yul\":3217:3220   */\n      dup6\n        /* \"#utility.yul\":3213:3252   */\n      add\n        /* \"#utility.yul\":3209:3259   */\n      add\n        /* \"#utility.yul\":3202:3259   */\n      swap2\n      pop\n      pop\n        /* \"#utility.yul\":2842:3265   */\n      swap3\n      swap2\n      pop\n      pop\n      jump\t// out\n        /* \"#utility.yul\":3270:3490   */\n    tag_20:\n        /* \"#utility.yul\":3419:3421   */\n      0x20\n        /* \"#utility.yul\":3408:3417   */\n      dup2\n        /* \"#utility.yul\":3401:3422   */\n      mstore\n        /* \"#utility.yul\":3382:3386   */\n      0x00\n        /* \"#utility.yul\":3439:3484   */\n      tag_140\n        /* \"#utility.yul\":3480:3482   */\n      0x20\n        /* \"#utility.yul\":3469:3478   */\n      dup4\n        /* \"#utility.yul\":3465:3483   */\n      add\n        /* \"#utility.yul\":3457:3463   */\n      dup5\n        /* \"#utility.yul\":3439:3484   */\n      tag_100\n      jump\t// in\n    tag_140:\n        /* \"#utility.yul\":3431:3484   */\n      swap4\n        /* \"#utility.yul\":3270:3490   */\n      swap3\n      pop\n      pop\n      pop\n      jump\t// out\n        /* \"#utility.yul\":3495:3675   */\n    tag_23:\n        /* \"#utility.yul\":3554:3560   */\n      0x00\n        /* \"#utility.yul\":3607:3609   */\n      0x20\n        /* \"#utility.yul\":3595:3604   */\n      dup3\n        /* \"#utility.yul\":3586:3593   */\n      dup5\n        /* \"#utility.yul\":3582:3605   */\n      sub\n        /* \"#utility.yul\":3578:3610   */\n      slt\n        /* \"#utility.yul\":3575:3627   */\n      iszero\n      tag_142\n      jumpi\n        /* \"#utility.yul\":3623:3624   */\n      0x00\n        /* \"#utility.yul\":3620:3621   */\n      dup1\n        /* \"#utility.yul\":3613:3625   */\n      revert\n        /* \"#utility.yul\":3575:3627   */\n    tag_142:\n      pop\n        /* \"#utility.yul\":3646:3669   */\n      calldataload\n      swap2\n        /* \"#utility.yul\":3495:3675   */\n      swap1\n      pop\n      jump\t// out\n        /* \"#utility.yul\":3680:4217   */\n    tag_26:\n        /* \"#utility.yul\":3927:3930   */\n      0x80\n        /* \"#utility.yul\":3916:3925   */\n      dup2\n        /* \"#utility.yul\":3909:3931   */\n      mstore\n        /* \"#utility.yul\":3890:3894   */\n      0x00\n        /* \"#utility.yul\":3954:4000   */\n      tag_144\n        /* \"#utility.yul\":3995:3998   */\n      0x80\n        /* \"#utility.yul\":3984:3993   */\n      dup4\n        /* \"#utility.yul\":3980:3999   */\n      add\n        /* \"#utility.yul\":3972:3978   */\n      dup8\n        /* \"#utility.yul\":3954:4000   */\n      tag_100\n      jump\t// in\n    tag_144:\n        /* \"#utility.yul\":4048:4057   */\n      dup3\n        /* \"#utility.yul\":4040:4046   */\n      dup2\n        /* \"#utility.yul\":4036:4058   */\n      sub\n        /* \"#utility.yul\":4031:4033   */\n      0x20\n        /* \"#utility.yul\":4020:4029   */\n      dup5\n        /* \"#utility.yul\":4016:4034   */\n      add\n        /* \"#utility.yul\":4009:4059   */\n      mstore\n        /* \"#utility.yul\":4076:4109   */\n      tag_145\n        /* \"#utility.yul\":4102:4108   */\n      dup2\n        /* \"#utility.yul\":4094:4100   */\n      dup8\n        /* \"#utility.yul\":4076:4109   */\n      tag_100\n      jump\t// in\n    tag_145:\n        /* \"#utility.yul\":4140:4142   */\n      0x40\n        /* \"#utility.yul\":4125:4143   */\n      dup5\n      add\n        /* \"#utility.yul\":4118:4152   */\n      swap6\n      swap1\n      swap6\n      mstore\n      pop\n      pop\n        /* \"#utility.yul\":4195:4209   */\n      swap1\n      iszero\n        /* \"#utility.yul\":4188:4210   */\n      iszero\n        /* \"#utility.yul\":4183:4185   */\n      0x60\n        /* \"#utility.yul\":4168:4186   */\n      swap1\n      swap2\n      add\n        /* \"#utility.yul\":4161:4211   */\n      mstore\n        /* \"#utility.yul\":4068:4109   */\n      swap3\n        /* \"#utility.yul\":3680:4217   */\n      swap2\n      pop\n      pop\n      jump\t// out\n        /* \"#utility.yul\":4222:4605   */\n    tag_33:\n        /* \"#utility.yul\":4419:4421   */\n      0x40\n        /* \"#utility.yul\":4408:4417   */\n      dup2\n        /* \"#utility.yul\":4401:4422   */\n      mstore\n        /* \"#utility.yul\":4382:4386   */\n      0x00\n        /* \"#utility.yul\":4445:4490   */\n      tag_147\n        /* \"#utility.yul\":4486:4488   */\n      0x40\n        /* \"#utility.yul\":4475:4484   */\n      dup4\n        /* \"#utility.yul\":4471:4489   */\n      add\n        /* \"#utility.yul\":4463:4469   */\n      dup6\n        /* \"#utility.yul\":4445:4490   */\n      tag_100\n      jump\t// in\n    tag_147:\n        /* \"#utility.yul\":4538:4547   */\n      dup3\n        /* \"#utility.yul\":4530:4536   */\n      dup2\n        /* \"#utility.yul\":4526:4548   */\n      sub\n        /* \"#utility.yul\":4521:4523   */\n      0x20\n        /* \"#utility.yul\":4510:4519   */\n      dup5\n        /* \"#utility.yul\":4506:4524   */\n      add\n        /* \"#utility.yul\":4499:4549   */\n      mstore\n        /* \"#utility.yul\":4566:4599   */\n      tag_148\n        /* \"#utility.yul\":4592:4598   */\n      dup2\n        /* \"#utility.yul\":4584:4590   */\n      dup6\n        /* \"#utility.yul\":4566:4599   */\n      tag_100\n      jump\t// in\n    tag_148:\n        /* \"#utility.yul\":4558:4599   */\n      swap6\n        /* \"#utility.yul\":4222:4605   */\n      swap5\n      pop\n      pop\n      pop\n      pop\n      pop\n      jump\t// out\n        /* \"#utility.yul\":4610:4990   */\n    tag_56:\n        /* \"#utility.yul\":4689:4690   */\n      0x01\n        /* \"#utility.yul\":4685:4697   */\n      dup2\n      dup2\n      shr\n      swap1\n        /* \"#utility.yul\":4732:4744   */\n      dup3\n      and\n      dup1\n        /* \"#utility.yul\":4753:4814   */\n      tag_150\n      jumpi\n        /* \"#utility.yul\":4807:4811   */\n      0x7f\n        /* \"#utility.yul\":4799:4805   */\n      dup3\n        /* \"#utility.yul\":4795:4812   */\n      and\n        /* \"#utility.yul\":4785:4812   */\n      swap2\n      pop\n        /* \"#utility.yul\":4753:4814   */\n    tag_150:\n        /* \"#utility.yul\":4860:4862   */\n      0x20\n        /* \"#utility.yul\":4852:4858   */\n      dup3\n        /* \"#utility.yul\":4849:4863   */\n      lt\n        /* \"#utility.yul\":4829:4847   */\n      dup2\n        /* \"#utility.yul\":4826:4864   */\n      sub\n        /* \"#utility.yul\":4823:4984   */\n      tag_151\n      jumpi\n        /* \"#utility.yul\":4906:4916   */\n      0x4e487b71\n        /* \"#utility.yul\":4901:4904   */\n      0xe0\n        /* \"#utility.yul\":4897:4917   */\n      shl\n        /* \"#utility.yul\":4894:4895   */\n      0x00\n        /* \"#utility.yul\":4887:4918   */\n      mstore\n        /* \"#utility.yul\":4941:4945   */\n      0x22\n        /* \"#utility.yul\":4938:4939   */\n      0x04\n        /* \"#utility.yul\":4931:4946   */\n      mstore\n        /* \"#utility.yul\":4969:4973   */\n      0x24\n        /* \"#utility.yul\":4966:4967   */\n      0x00\n        /* \"#utility.yul\":4959:4974   */\n      revert\n        /* \"#utility.yul\":4823:4984   */\n    tag_151:\n      pop\n        /* \"#utility.yul\":4610:4990   */\n      swap2\n      swap1\n      pop\n      jump\t// out\n        /* \"#utility.yul\":5121:5639   */\n    tag_102:\n        /* \"#utility.yul\":5223:5225   */\n      0x1f\n        /* \"#utility.yul\":5218:5221   */\n      dup3\n        /* \"#utility.yul\":5215:5226   */\n      gt\n        /* \"#utility.yul\":5212:5633   */\n      iszero\n      tag_154\n      jumpi\n        /* \"#utility.yul\":5259:5264   */\n      dup1\n        /* \"#utility.yul\":5256:5257   */\n      0x00\n        /* \"#utility.yul\":5249:5265   */\n      mstore\n        /* \"#utility.yul\":5303:5307   */\n      0x20\n        /* \"#utility.yul\":5300:5301   */\n      0x00\n        /* \"#utility.yul\":5290:5308   */\n      keccak256\n        /* \"#utility.yul\":5373:5375   */\n      0x1f\n        /* \"#utility.yul\":5361:5371   */\n      dup5\n        /* \"#utility.yul\":5357:5376   */\n      add\n        /* \"#utility.yul\":5354:5355   */\n      0x05\n        /* \"#utility.yul\":5350:5377   */\n      shr\n        /* \"#utility.yul\":5344:5348   */\n      dup2\n        /* \"#utility.yul\":5340:5378   */\n      add\n        /* \"#utility.yul\":5409:5413   */\n      0x20\n        /* \"#utility.yul\":5397:5407   */\n      dup6\n        /* \"#utility.yul\":5394:5414   */\n      lt\n        /* \"#utility.yul\":5391:5438   */\n      iszero\n      tag_155\n      jumpi\n      pop\n        /* \"#utility.yul\":5432:5436   */\n      dup1\n        /* \"#utility.yul\":5391:5438   */\n    tag_155:\n        /* \"#utility.yul\":5487:5489   */\n      0x1f\n        /* \"#utility.yul\":5482:5485   */\n      dup5\n        /* \"#utility.yul\":5478:5490   */\n      add\n        /* \"#utility.yul\":5475:5476   */\n      0x05\n        /* \"#utility.yul\":5471:5491   */\n      shr\n        /* \"#utility.yul\":5465:5469   */\n      dup3\n        /* \"#utility.yul\":5461:5492   */\n      add\n        /* \"#utility.yul\":5451:5492   */\n      swap2\n      pop\n        /* \"#utility.yul\":5542:5623   */\n    tag_156:\n        /* \"#utility.yul\":5560:5562   */\n      dup2\n        /* \"#utility.yul\":5553:5558   */\n      dup2\n        /* \"#utility.yul\":5550:5563   */\n      lt\n        /* \"#utility.yul\":5542:5623   */\n      iszero\n      tag_158\n      jumpi\n        /* \"#utility.yul\":5619:5620   */\n      0x00\n        /* \"#utility.yul\":5605:5621   */\n      dup2\n      sstore\n        /* \"#utility.yul\":5586:5587   */\n      0x01\n        /* \"#utility.yul\":5575:5588   */\n      add\n        /* \"#utility.yul\":5542:5623   */\n      jump(tag_156)\n    tag_158:\n        /* \"#utility.yul\":5546:5549   */\n      pop\n      pop\n        /* \"#utility.yul\":5212:5633   */\n    tag_154:\n        /* \"#utility.yul\":5121:5639   */\n      pop\n      pop\n      pop\n      jump\t// out\n        /* \"#utility.yul\":5815:7160   */\n    tag_36:\n        /* \"#utility.yul\":5941:5944   */\n      dup2\n        /* \"#utility.yul\":5935:5945   */\n      mload\n        /* \"#utility.yul\":5968:5986   */\n      0xffffffffffffffff\n        /* \"#utility.yul\":5960:5966   */\n      dup2\n        /* \"#utility.yul\":5957:5987   */\n      gt\n        /* \"#utility.yul\":5954:6010   */\n      iszero\n      tag_162\n      jumpi\n        /* \"#utility.yul\":5990:6008   */\n      tag_162\n      tag_97\n      jump\t// in\n    tag_162:\n        /* \"#utility.yul\":6019:6116   */\n      tag_163\n        /* \"#utility.yul\":6109:6115   */\n      dup2\n        /* \"#utility.yul\":6069:6107   */\n      tag_164\n        /* \"#utility.yul\":6101:6105   */\n      dup5\n        /* \"#utility.yul\":6095:6106   */\n      sload\n        /* \"#utility.yul\":6069:6107   */\n      tag_56\n      jump\t// in\n    tag_164:\n        /* \"#utility.yul\":6063:6067   */\n      dup5\n        /* \"#utility.yul\":6019:6116   */\n      tag_102\n      jump\t// in\n    tag_163:\n        /* \"#utility.yul\":6171:6175   */\n      0x20\n      dup1\n        /* \"#utility.yul\":6228:6230   */\n      0x1f\n        /* \"#utility.yul\":6217:6231   */\n      dup4\n      gt\n        /* \"#utility.yul\":6245:6246   */\n      0x01\n        /* \"#utility.yul\":6240:6903   */\n      dup2\n      eq\n      tag_166\n      jumpi\n        /* \"#utility.yul\":6947:6948   */\n      0x00\n        /* \"#utility.yul\":6964:6970   */\n      dup5\n        /* \"#utility.yul\":6961:7050   */\n      iszero\n      tag_167\n      jumpi\n      pop\n        /* \"#utility.yul\":7016:7035   */\n      dup6\n      dup4\n      add\n        /* \"#utility.yul\":7010:7036   */\n      mload\n        /* \"#utility.yul\":6961:7050   */\n    tag_167:\n      not(0x00)\n        /* \"#utility.yul\":5772:5773   */\n      0x03\n        /* \"#utility.yul\":5768:5779   */\n      dup7\n      swap1\n      shl\n        /* \"#utility.yul\":5764:5788   */\n      shr\n        /* \"#utility.yul\":5760:5789   */\n      not\n        /* \"#utility.yul\":5750:5790   */\n      and\n        /* \"#utility.yul\":5796:5797   */\n      0x01\n        /* \"#utility.yul\":5792:5803   */\n      dup6\n      swap1\n      shl\n        /* \"#utility.yul\":5747:5804   */\n      or\n        /* \"#utility.yul\":7063:7144   */\n      dup6\n      sstore\n        /* \"#utility.yul\":6210:7154   */\n      jump(tag_165)\n        /* \"#utility.yul\":6240:6903   */\n    tag_166:\n        /* \"#utility.yul\":5068:5069   */\n      0x00\n        /* \"#utility.yul\":5061:5075   */\n      dup6\n      dup2\n      mstore\n        /* \"#utility.yul\":5105:5109   */\n      0x20\n        /* \"#utility.yul\":5092:5110   */\n      dup2\n      keccak256\n      not(0x1f)\n        /* \"#utility.yul\":6276:6296   */\n      dup7\n      and\n      swap2\n        /* \"#utility.yul\":6394:6630   */\n    tag_170:\n        /* \"#utility.yul\":6408:6415   */\n      dup3\n        /* \"#utility.yul\":6405:6406   */\n      dup2\n        /* \"#utility.yul\":6402:6416   */\n      lt\n        /* \"#utility.yul\":6394:6630   */\n      iszero\n      tag_172\n      jumpi\n        /* \"#utility.yul\":6497:6516   */\n      dup9\n      dup7\n      add\n        /* \"#utility.yul\":6491:6517   */\n      mload\n        /* \"#utility.yul\":6476:6518   */\n      dup3\n      sstore\n        /* \"#utility.yul\":6589:6616   */\n      swap5\n      dup5\n      add\n      swap5\n        /* \"#utility.yul\":6557:6558   */\n      0x01\n        /* \"#utility.yul\":6545:6559   */\n      swap1\n      swap2\n      add\n      swap1\n        /* \"#utility.yul\":6424:6443   */\n      dup5\n      add\n        /* \"#utility.yul\":6394:6630   */\n      jump(tag_170)\n    tag_172:\n        /* \"#utility.yul\":6398:6401   */\n      pop\n        /* \"#utility.yul\":6658:6664   */\n      dup6\n        /* \"#utility.yul\":6649:6656   */\n      dup3\n        /* \"#utility.yul\":6646:6665   */\n      lt\n        /* \"#utility.yul\":6643:6844   */\n      iszero\n      tag_173\n      jumpi\n        /* \"#utility.yul\":6719:6738   */\n      dup8\n      dup6\n      add\n        /* \"#utility.yul\":6713:6739   */\n      mload\n      not(0x00)\n        /* \"#utility.yul\":6802:6803   */\n      0x03\n        /* \"#utility.yul\":6798:6812   */\n      dup9\n      swap1\n      shl\n        /* \"#utility.yul\":6814:6817   */\n      0xf8\n        /* \"#utility.yul\":6794:6818   */\n      and\n        /* \"#utility.yul\":6790:6827   */\n      shr\n        /* \"#utility.yul\":6786:6828   */\n      not\n        /* \"#utility.yul\":6771:6829   */\n      and\n        /* \"#utility.yul\":6756:6830   */\n      dup2\n      sstore\n        /* \"#utility.yul\":6643:6844   */\n    tag_173:\n      pop\n      pop\n        /* \"#utility.yul\":6890:6891   */\n      0x01\n        /* \"#utility.yul\":6881:6887   */\n      dup5\n        /* \"#utility.yul\":6878:6879   */\n      0x01\n        /* \"#utility.yul\":6874:6888   */\n      shl\n        /* \"#utility.yul\":6870:6892   */\n      add\n        /* \"#utility.yul\":6864:6868   */\n      dup6\n        /* \"#utility.yul\":6857:6893   */\n      sstore\n        /* \"#utility.yul\":6210:7154   */\n    tag_165:\n      pop\n      pop\n      pop\n      pop\n        /* \"#utility.yul\":5815:7160   */\n      pop\n      pop\n      jump\t// out\n        /* \"#utility.yul\":7165:7292   */\n    tag_48:\n        /* \"#utility.yul\":7226:7236   */\n      0x4e487b71\n        /* \"#utility.yul\":7221:7224   */\n      0xe0\n        /* \"#utility.yul\":7217:7237   */\n      shl\n        /* \"#utility.yul\":7214:7215   */\n      0x00\n        /* \"#utility.yul\":7207:7238   */\n      mstore\n        /* \"#utility.yul\":7257:7261   */\n      0x32\n        /* \"#utility.yul\":7254:7255   */\n      0x04\n        /* \"#utility.yul\":7247:7262   */\n      mstore\n        /* \"#utility.yul\":7281:7285   */\n      0x24\n        /* \"#utility.yul\":7278:7279   */\n      0x00\n        /* \"#utility.yul\":7271:7286   */\n      revert\n\n    auxdata: 0xa2646970667358221220cc98202227a26b057bd07ac49a3a4ff13b4b3e1bf3ae9b7bc2628206176a4eef64736f6c63430008180033\n}\n",
				"bytecode": {
					"linkReferences": {},
					"object": "6004610100818152635765623360e01b610120526080818152610180604052600661014090815265616e616e677360d01b6101605260a052600160c081905260e052919081906200005190826200013e565b50602082015160018201906200006890826200013e565b50604082015160028201556060909101516003909101805460ff191691151591909117905534801562000099575f80fd5b506200020a565b634e487b7160e01b5f52604160045260245ffd5b600181811c90821680620000c957607f821691505b602082108103620000e857634e487b7160e01b5f52602260045260245ffd5b50919050565b601f8211156200013957805f5260205f20601f840160051c81016020851015620001155750805b601f840160051c820191505b8181101562000136575f815560010162000121565b50505b505050565b81516001600160401b038111156200015a576200015a620000a0565b62000172816200016b8454620000b4565b84620000ee565b602080601f831160018114620001a8575f8415620001905750858301515b5f19600386901b1c1916600185901b17855562000202565b5f85815260208120601f198616915b82811015620001d857888601518255948401946001909101908401620001b7565b5085821015620001f657878501515f19600388901b60f8161c191681555b505060018460011b0185555b505050505050565b610bd880620002185f395ff3fe608060405234801561000f575f80fd5b5060043610610060575f3560e01c8063082e1339146100645780632d4c469b1461006e5780633df14741146100815780634275d504146100aa57806384ad0c41146100cd5780639a301922146100d5575b5f80fd5b61006c6100eb565b005b61006c61007c366004610832565b61018a565b61009461008f3660046108b1565b610231565b6040516100a191906109b0565b60405180910390f35b6100bd6100b83660046109c9565b6103b3565b6040516100a194939291906109e0565b6100bd61051b565b6100dd610659565b6040516100a1929190610a1d565b6040805160c081018252600460808201908152635765623360e01b60a08301528152815180830183526006815265616e616e677360d01b6020828101919091528201526001918101829052606081019190915280515f90819061014e9082610ace565b50602082015160018201906101639082610ace565b50604082015160028201556060909101516003909101805460ff1916911515919091179055565b60408051608081018252858152602081018590529081018390528115156060820152600880546001810182555f91909152815160049091027ff3f7a9fe364faab93b216da50a3214154f22a0a2b415b23a84c8169e8b636ee3019081906101f19082610ace565b50602082015160018201906102069082610ace565b50604082015160028201556060909101516003909101805460ff191691151591909117905550505050565b6060805f5b83518110156103ac576008604051806080016040528086848151811061025e5761025e610b8e565b602090810291909101810151825260408051808201825260038152626f6b6f60e81b8184015283830152820185905260016060909201829052835491820184555f93845290922081519192600402019081906102ba9082610ace565b50602082015160018201906102cf9082610ace565b50604082015160028201556060909101516003909101805460ff1916911515919091179055600880548290811061030857610308610b8e565b905f5260205f2090600402015f01805461032190610a4a565b80601f016020809104026020016040519081016040528092919081815260200182805461034d90610a4a565b80156103985780601f1061036f57610100808354040283529160200191610398565b820191905f5260205f20905b81548152906001019060200180831161037b57829003601f168201915b505050505091508080600101915050610236565b5092915050565b6060805f805f600886815481106103cc576103cc610b8e565b905f5260205f2090600402019050805f01816001018260020154836003015f9054906101000a900460ff1683805461040390610a4a565b80601f016020809104026020016040519081016040528092919081815260200182805461042f90610a4a565b801561047a5780601f106104515761010080835404028352916020019161047a565b820191905f5260205f20905b81548152906001019060200180831161045d57829003601f168201915b5050505050935082805461048d90610a4a565b80601f01602080910402602001604051908101604052809291908181526020018280546104b990610a4a565b80156105045780601f106104db57610100808354040283529160200191610504565b820191905f5260205f20905b8154815290600101906020018083116104e757829003601f168201915b505050505092509450945094509450509193509193565b6002546003545f8054606093849383928392600192909160ff90911690849061054390610a4a565b80601f016020809104026020016040519081016040528092919081815260200182805461056f90610a4a565b80156105ba5780601f10610591576101008083540402835291602001916105ba565b820191905f5260205f20905b81548152906001019060200180831161059d57829003601f168201915b505050505093508280546105cd90610a4a565b80601f01602080910402602001604051908101604052809291908181526020018280546105f990610a4a565b80156106445780601f1061061b57610100808354040283529160200191610644565b820191905f5260205f20905b81548152906001019060200180831161062757829003601f168201915b50505050509250935093509350935090919293565b60608060045f01600460010181805461067190610a4a565b80601f016020809104026020016040519081016040528092919081815260200182805461069d90610a4a565b80156106e85780601f106106bf576101008083540402835291602001916106e8565b820191905f5260205f20905b8154815290600101906020018083116106cb57829003601f168201915b505050505091508080546106fb90610a4a565b80601f016020809104026020016040519081016040528092919081815260200182805461072790610a4a565b80156107725780601f1061074957610100808354040283529160200191610772565b820191905f5260205f20905b81548152906001019060200180831161075557829003601f168201915b50505050509050915091509091565b634e487b7160e01b5f52604160045260245ffd5b604051601f8201601f1916810167ffffffffffffffff811182821017156107be576107be610781565b604052919050565b5f82601f8301126107d5575f80fd5b813567ffffffffffffffff8111156107ef576107ef610781565b610802601f8201601f1916602001610795565b818152846020838601011115610816575f80fd5b816020850160208301375f918101602001919091529392505050565b5f805f8060808587031215610845575f80fd5b843567ffffffffffffffff8082111561085c575f80fd5b610868888389016107c6565b9550602087013591508082111561087d575f80fd5b5061088a878288016107c6565b93505060408501359150606085013580151581146108a6575f80fd5b939692955090935050565b5f60208083850312156108c2575f80fd5b823567ffffffffffffffff808211156108d9575f80fd5b818501915085601f8301126108ec575f80fd5b8135818111156108fe576108fe610781565b8060051b61090d858201610795565b9182528381018501918581019089841115610926575f80fd5b86860192505b8383101561096057823585811115610942575f80fd5b6109508b89838a01016107c6565b835250918601919086019061092c565b9998505050505050505050565b5f81518084525f5b8181101561099157602081850181015186830182015201610975565b505f602082860101526020601f19601f83011685010191505092915050565b602081525f6109c2602083018461096d565b9392505050565b5f602082840312156109d9575f80fd5b5035919050565b608081525f6109f2608083018761096d565b8281036020840152610a04818761096d565b6040840195909552505090151560609091015292915050565b604081525f610a2f604083018561096d565b8281036020840152610a41818561096d565b95945050505050565b600181811c90821680610a5e57607f821691505b602082108103610a7c57634e487b7160e01b5f52602260045260245ffd5b50919050565b601f821115610ac957805f5260205f20601f840160051c81016020851015610aa75750805b601f840160051c820191505b81811015610ac6575f8155600101610ab3565b50505b505050565b815167ffffffffffffffff811115610ae857610ae8610781565b610afc81610af68454610a4a565b84610a82565b602080601f831160018114610b2f575f8415610b185750858301515b5f19600386901b1c1916600185901b178555610b86565b5f85815260208120601f198616915b82811015610b5d57888601518255948401946001909101908401610b3e565b5085821015610b7a57878501515f19600388901b60f8161c191681555b505060018460011b0185555b505050505050565b634e487b7160e01b5f52603260045260245ffdfea2646970667358221220cc98202227a26b057bd07ac49a3a4ff13b4b3e1bf3ae9b7bc2628206176a4eef64736f6c63430008180033",
					"opcodes": "PUSH1 0x4 PUSH2 0x100 DUP2 DUP2 MSTORE PUSH4 0x57656233 PUSH1 0xE0 SHL PUSH2 0x120 MSTORE PUSH1 0x80 DUP2 DUP2 MSTORE PUSH2 0x180 PUSH1 0x40 MSTORE PUSH1 0x6 PUSH2 0x140 SWAP1 DUP2 MSTORE PUSH6 0x616E616E6773 PUSH1 0xD0 SHL PUSH2 0x160 MSTORE PUSH1 0xA0 MSTORE PUSH1 0x1 PUSH1 0xC0 DUP2 SWAP1 MSTORE PUSH1 0xE0 MSTORE SWAP2 SWAP1 DUP2 SWAP1 PUSH3 0x51 SWAP1 DUP3 PUSH3 0x13E JUMP JUMPDEST POP PUSH1 0x20 DUP3 ADD MLOAD PUSH1 0x1 DUP3 ADD SWAP1 PUSH3 0x68 SWAP1 DUP3 PUSH3 0x13E JUMP JUMPDEST POP PUSH1 0x40 DUP3 ADD MLOAD PUSH1 0x2 DUP3 ADD SSTORE PUSH1 0x60 SWAP1 SWAP2 ADD MLOAD PUSH1 0x3 SWAP1 SWAP2 ADD DUP1 SLOAD PUSH1 0xFF NOT AND SWAP2 ISZERO ISZERO SWAP2 SWAP1 SWAP2 OR SWAP1 SSTORE CALLVALUE DUP1 ISZERO PUSH3 0x99 JUMPI PUSH0 DUP1 REVERT JUMPDEST POP PUSH3 0x20A JUMP JUMPDEST PUSH4 0x4E487B71 PUSH1 0xE0 SHL PUSH0 MSTORE PUSH1 0x41 PUSH1 0x4 MSTORE PUSH1 0x24 PUSH0 REVERT JUMPDEST PUSH1 0x1 DUP2 DUP2 SHR SWAP1 DUP3 AND DUP1 PUSH3 0xC9 JUMPI PUSH1 0x7F DUP3 AND SWAP2 POP JUMPDEST PUSH1 0x20 DUP3 LT DUP2 SUB PUSH3 0xE8 JUMPI PUSH4 0x4E487B71 PUSH1 0xE0 SHL PUSH0 MSTORE PUSH1 0x22 PUSH1 0x4 MSTORE PUSH1 0x24 PUSH0 REVERT JUMPDEST POP SWAP2 SWAP1 POP JUMP JUMPDEST PUSH1 0x1F DUP3 GT ISZERO PUSH3 0x139 JUMPI DUP1 PUSH0 MSTORE PUSH1 0x20 PUSH0 KECCAK256 PUSH1 0x1F DUP5 ADD PUSH1 0x5 SHR DUP2 ADD PUSH1 0x20 DUP6 LT ISZERO PUSH3 0x115 JUMPI POP DUP1 JUMPDEST PUSH1 0x1F DUP5 ADD PUSH1 0x5 SHR DUP3 ADD SWAP2 POP JUMPDEST DUP2 DUP2 LT ISZERO PUSH3 0x136 JUMPI PUSH0 DUP2 SSTORE PUSH1 0x1 ADD PUSH3 0x121 JUMP JUMPDEST POP POP JUMPDEST POP POP POP JUMP JUMPDEST DUP2 MLOAD PUSH1 0x1 PUSH1 0x1 PUSH1 0x40 SHL SUB DUP2 GT ISZERO PUSH3 0x15A JUMPI PUSH3 0x15A PUSH3 0xA0 JUMP JUMPDEST PUSH3 0x172 DUP2 PUSH3 0x16B DUP5 SLOAD PUSH3 0xB4 JUMP JUMPDEST DUP5 PUSH3 0xEE JUMP JUMPDEST PUSH1 0x20 DUP1 PUSH1 0x1F DUP4 GT PUSH1 0x1 DUP2 EQ PUSH3 0x1A8 JUMPI PUSH0 DUP5 ISZERO PUSH3 0x190 JUMPI POP DUP6 DUP4 ADD MLOAD JUMPDEST PUSH0 NOT PUSH1 0x3 DUP7 SWAP1 SHL SHR NOT AND PUSH1 0x1 DUP6 SWAP1 SHL OR DUP6 SSTORE PUSH3 0x202 JUMP JUMPDEST PUSH0 DUP6 DUP2 MSTORE PUSH1 0x20 DUP2 KECCAK256 PUSH1 0x1F NOT DUP7 AND SWAP2 JUMPDEST DUP3 DUP2 LT ISZERO PUSH3 0x1D8 JUMPI DUP9 DUP7 ADD MLOAD DUP3 SSTORE SWAP5 DUP5 ADD SWAP5 PUSH1 0x1 SWAP1 SWAP2 ADD SWAP1 DUP5 ADD PUSH3 0x1B7 JUMP JUMPDEST POP DUP6 DUP3 LT ISZERO PUSH3 0x1F6 JUMPI DUP8 DUP6 ADD MLOAD PUSH0 NOT PUSH1 0x3 DUP9 SWAP1 SHL PUSH1 0xF8 AND SHR NOT AND DUP2 SSTORE JUMPDEST POP POP PUSH1 0x1 DUP5 PUSH1 0x1 SHL ADD DUP6 SSTORE JUMPDEST POP POP POP POP POP POP JUMP JUMPDEST PUSH2 0xBD8 DUP1 PUSH3 0x218 PUSH0 CODECOPY PUSH0 RETURN INVALID PUSH1 0x80 PUSH1 0x40 MSTORE CALLVALUE DUP1 ISZERO PUSH2 0xF JUMPI PUSH0 DUP1 REVERT JUMPDEST POP PUSH1 0x4 CALLDATASIZE LT PUSH2 0x60 JUMPI PUSH0 CALLDATALOAD PUSH1 0xE0 SHR DUP1 PUSH4 0x82E1339 EQ PUSH2 0x64 JUMPI DUP1 PUSH4 0x2D4C469B EQ PUSH2 0x6E JUMPI DUP1 PUSH4 0x3DF14741 EQ PUSH2 0x81 JUMPI DUP1 PUSH4 0x4275D504 EQ PUSH2 0xAA JUMPI DUP1 PUSH4 0x84AD0C41 EQ PUSH2 0xCD JUMPI DUP1 PUSH4 0x9A301922 EQ PUSH2 0xD5 JUMPI JUMPDEST PUSH0 DUP1 REVERT JUMPDEST PUSH2 0x6C PUSH2 0xEB JUMP JUMPDEST STOP JUMPDEST PUSH2 0x6C PUSH2 0x7C CALLDATASIZE PUSH1 0x4 PUSH2 0x832 JUMP JUMPDEST PUSH2 0x18A JUMP JUMPDEST PUSH2 0x94 PUSH2 0x8F CALLDATASIZE PUSH1 0x4 PUSH2 0x8B1 JUMP JUMPDEST PUSH2 0x231 JUMP JUMPDEST PUSH1 0x40 MLOAD PUSH2 0xA1 SWAP2 SWAP1 PUSH2 0x9B0 JUMP JUMPDEST PUSH1 0x40 MLOAD DUP1 SWAP2 SUB SWAP1 RETURN JUMPDEST PUSH2 0xBD PUSH2 0xB8 CALLDATASIZE PUSH1 0x4 PUSH2 0x9C9 JUMP JUMPDEST PUSH2 0x3B3 JUMP JUMPDEST PUSH1 0x40 MLOAD PUSH2 0xA1 SWAP5 SWAP4 SWAP3 SWAP2 SWAP1 PUSH2 0x9E0 JUMP JUMPDEST PUSH2 0xBD PUSH2 0x51B JUMP JUMPDEST PUSH2 0xDD PUSH2 0x659 JUMP JUMPDEST PUSH1 0x40 MLOAD PUSH2 0xA1 SWAP3 SWAP2 SWAP1 PUSH2 0xA1D JUMP JUMPDEST PUSH1 0x40 DUP1 MLOAD PUSH1 0xC0 DUP2 ADD DUP3 MSTORE PUSH1 0x4 PUSH1 0x80 DUP3 ADD SWAP1 DUP2 MSTORE PUSH4 0x57656233 PUSH1 0xE0 SHL PUSH1 0xA0 DUP4 ADD MSTORE DUP2 MSTORE DUP2 MLOAD DUP1 DUP4 ADD DUP4 MSTORE PUSH1 0x6 DUP2 MSTORE PUSH6 0x616E616E6773 PUSH1 0xD0 SHL PUSH1 0x20 DUP3 DUP2 ADD SWAP2 SWAP1 SWAP2 MSTORE DUP3 ADD MSTORE PUSH1 0x1 SWAP2 DUP2 ADD DUP3 SWAP1 MSTORE PUSH1 0x60 DUP2 ADD SWAP2 SWAP1 SWAP2 MSTORE DUP1 MLOAD PUSH0 SWAP1 DUP2 SWAP1 PUSH2 0x14E SWAP1 DUP3 PUSH2 0xACE JUMP JUMPDEST POP PUSH1 0x20 DUP3 ADD MLOAD PUSH1 0x1 DUP3 ADD SWAP1 PUSH2 0x163 SWAP1 DUP3 PUSH2 0xACE JUMP JUMPDEST POP PUSH1 0x40 DUP3 ADD MLOAD PUSH1 0x2 DUP3 ADD SSTORE PUSH1 0x60 SWAP1 SWAP2 ADD MLOAD PUSH1 0x3 SWAP1 SWAP2 ADD DUP1 SLOAD PUSH1 0xFF NOT AND SWAP2 ISZERO ISZERO SWAP2 SWAP1 SWAP2 OR SWAP1 SSTORE JUMP JUMPDEST PUSH1 0x40 DUP1 MLOAD PUSH1 0x80 DUP2 ADD DUP3 MSTORE DUP6 DUP2 MSTORE PUSH1 0x20 DUP2 ADD DUP6 SWAP1 MSTORE SWAP1 DUP2 ADD DUP4 SWAP1 MSTORE DUP2 ISZERO ISZERO PUSH1 0x60 DUP3 ADD MSTORE PUSH1 0x8 DUP1 SLOAD PUSH1 0x1 DUP2 ADD DUP3 SSTORE PUSH0 SWAP2 SWAP1 SWAP2 MSTORE DUP2 MLOAD PUSH1 0x4 SWAP1 SWAP2 MUL PUSH32 0xF3F7A9FE364FAAB93B216DA50A3214154F22A0A2B415B23A84C8169E8B636EE3 ADD SWAP1 DUP2 SWAP1 PUSH2 0x1F1 SWAP1 DUP3 PUSH2 0xACE JUMP JUMPDEST POP PUSH1 0x20 DUP3 ADD MLOAD PUSH1 0x1 DUP3 ADD SWAP1 PUSH2 0x206 SWAP1 DUP3 PUSH2 0xACE JUMP JUMPDEST POP PUSH1 0x40 DUP3 ADD MLOAD PUSH1 0x2 DUP3 ADD SSTORE PUSH1 0x60 SWAP1 SWAP2 ADD MLOAD PUSH1 0x3 SWAP1 SWAP2 ADD DUP1 SLOAD PUSH1 0xFF NOT AND SWAP2 ISZERO ISZERO SWAP2 SWAP1 SWAP2 OR SWAP1 SSTORE POP POP POP POP JUMP JUMPDEST PUSH1 0x60 DUP1 PUSH0 JUMPDEST DUP4 MLOAD DUP2 LT ISZERO PUSH2 0x3AC JUMPI PUSH1 0x8 PUSH1 0x40 MLOAD DUP1 PUSH1 0x80 ADD PUSH1 0x40 MSTORE DUP1 DUP7 DUP5 DUP2 MLOAD DUP2 LT PUSH2 0x25E JUMPI PUSH2 0x25E PUSH2 0xB8E JUMP JUMPDEST PUSH1 0x20 SWAP1 DUP2 MUL SWAP2 SWAP1 SWAP2 ADD DUP2 ADD MLOAD DUP3 MSTORE PUSH1 0x40 DUP1 MLOAD DUP1 DUP3 ADD DUP3 MSTORE PUSH1 0x3 DUP2 MSTORE PUSH3 0x6F6B6F PUSH1 0xE8 SHL DUP2 DUP5 ADD MSTORE DUP4 DUP4 ADD MSTORE DUP3 ADD DUP6 SWAP1 MSTORE PUSH1 0x1 PUSH1 0x60 SWAP1 SWAP3 ADD DUP3 SWAP1 MSTORE DUP4 SLOAD SWAP2 DUP3 ADD DUP5 SSTORE PUSH0 SWAP4 DUP5 MSTORE SWAP1 SWAP3 KECCAK256 DUP2 MLOAD SWAP2 SWAP3 PUSH1 0x4 MUL ADD SWAP1 DUP2 SWAP1 PUSH2 0x2BA SWAP1 DUP3 PUSH2 0xACE JUMP JUMPDEST POP PUSH1 0x20 DUP3 ADD MLOAD PUSH1 0x1 DUP3 ADD SWAP1 PUSH2 0x2CF SWAP1 DUP3 PUSH2 0xACE JUMP JUMPDEST POP PUSH1 0x40 DUP3 ADD MLOAD PUSH1 0x2 DUP3 ADD SSTORE PUSH1 0x60 SWAP1 SWAP2 ADD MLOAD PUSH1 0x3 SWAP1 SWAP2 ADD DUP1 SLOAD PUSH1 0xFF NOT AND SWAP2 ISZERO ISZERO SWAP2 SWAP1 SWAP2 OR SWAP1 SSTORE PUSH1 0x8 DUP1 SLOAD DUP3 SWAP1 DUP2 LT PUSH2 0x308 JUMPI PUSH2 0x308 PUSH2 0xB8E JUMP JUMPDEST SWAP1 PUSH0 MSTORE PUSH1 0x20 PUSH0 KECCAK256 SWAP1 PUSH1 0x4 MUL ADD PUSH0 ADD DUP1 SLOAD PUSH2 0x321 SWAP1 PUSH2 0xA4A JUMP JUMPDEST DUP1 PUSH1 0x1F ADD PUSH1 0x20 DUP1 SWAP2 DIV MUL PUSH1 0x20 ADD PUSH1 0x40 MLOAD SWAP1 DUP2 ADD PUSH1 0x40 MSTORE DUP1 SWAP3 SWAP2 SWAP1 DUP2 DUP2 MSTORE PUSH1 0x20 ADD DUP3 DUP1 SLOAD PUSH2 0x34D SWAP1 PUSH2 0xA4A JUMP JUMPDEST DUP1 ISZERO PUSH2 0x398 JUMPI DUP1 PUSH1 0x1F LT PUSH2 0x36F JUMPI PUSH2 0x100 DUP1 DUP4 SLOAD DIV MUL DUP4 MSTORE SWAP2 PUSH1 0x20 ADD SWAP2 PUSH2 0x398 JUMP JUMPDEST DUP3 ADD SWAP2 SWAP1 PUSH0 MSTORE PUSH1 0x20 PUSH0 KECCAK256 SWAP1 JUMPDEST DUP2 SLOAD DUP2 MSTORE SWAP1 PUSH1 0x1 ADD SWAP1 PUSH1 0x20 ADD DUP1 DUP4 GT PUSH2 0x37B JUMPI DUP3 SWAP1 SUB PUSH1 0x1F AND DUP3 ADD SWAP2 JUMPDEST POP POP POP POP POP SWAP2 POP DUP1 DUP1 PUSH1 0x1 ADD SWAP2 POP POP PUSH2 0x236 JUMP JUMPDEST POP SWAP3 SWAP2 POP POP JUMP JUMPDEST PUSH1 0x60 DUP1 PUSH0 DUP1 PUSH0 PUSH1 0x8 DUP7 DUP2 SLOAD DUP2 LT PUSH2 0x3CC JUMPI PUSH2 0x3CC PUSH2 0xB8E JUMP JUMPDEST SWAP1 PUSH0 MSTORE PUSH1 0x20 PUSH0 KECCAK256 SWAP1 PUSH1 0x4 MUL ADD SWAP1 POP DUP1 PUSH0 ADD DUP2 PUSH1 0x1 ADD DUP3 PUSH1 0x2 ADD SLOAD DUP4 PUSH1 0x3 ADD PUSH0 SWAP1 SLOAD SWAP1 PUSH2 0x100 EXP SWAP1 DIV PUSH1 0xFF AND DUP4 DUP1 SLOAD PUSH2 0x403 SWAP1 PUSH2 0xA4A JUMP JUMPDEST DUP1 PUSH1 0x1F ADD PUSH1 0x20 DUP1 SWAP2 DIV MUL PUSH1 0x20 ADD PUSH1 0x40 MLOAD SWAP1 DUP2 ADD PUSH1 0x40 MSTORE DUP1 SWAP3 SWAP2 SWAP1 DUP2 DUP2 MSTORE PUSH1 0x20 ADD DUP3 DUP1 SLOAD PUSH2 0x42F SWAP1 PUSH2 0xA4A JUMP JUMPDEST DUP1 ISZERO PUSH2 0x47A JUMPI DUP1 PUSH1 0x1F LT PUSH2 0x451 JUMPI PUSH2 0x100 DUP1 DUP4 SLOAD DIV MUL DUP4 MSTORE SWAP2 PUSH1 0x20 ADD SWAP2 PUSH2 0x47A JUMP JUMPDEST DUP3 ADD SWAP2 SWAP1 PUSH0 MSTORE PUSH1 0x20 PUSH0 KECCAK256 SWAP1 JUMPDEST DUP2 SLOAD DUP2 MSTORE SWAP1 PUSH1 0x1 ADD SWAP1 PUSH1 0x20 ADD DUP1 DUP4 GT PUSH2 0x45D JUMPI DUP3 SWAP1 SUB PUSH1 0x1F AND DUP3 ADD SWAP2 JUMPDEST POP POP POP POP POP SWAP4 POP DUP3 DUP1 SLOAD PUSH2 0x48D SWAP1 PUSH2 0xA4A JUMP JUMPDEST DUP1 PUSH1 0x1F ADD PUSH1 0x20 DUP1 SWAP2 DIV MUL PUSH1 0x20 ADD PUSH1 0x40 MLOAD SWAP1 DUP2 ADD PUSH1 0x40 MSTORE DUP1 SWAP3 SWAP2 SWAP1 DUP2 DUP2 MSTORE PUSH1 0x20 ADD DUP3 DUP1 SLOAD PUSH2 0x4B9 SWAP1 PUSH2 0xA4A JUMP JUMPDEST DUP1 ISZERO PUSH2 0x504 JUMPI DUP1 PUSH1 0x1F LT PUSH2 0x4DB JUMPI PUSH2 0x100 DUP1 DUP4 SLOAD DIV MUL DUP4 MSTORE SWAP2 PUSH1 0x20 ADD SWAP2 PUSH2 0x504 JUMP JUMPDEST DUP3 ADD SWAP2 SWAP1 PUSH0 MSTORE PUSH1 0x20 PUSH0 KECCAK256 SWAP1 JUMPDEST DUP2 SLOAD DUP2 MSTORE SWAP1 PUSH1 0x1 ADD SWAP1 PUSH1 0x20 ADD DUP1 DUP4 GT PUSH2 0x4E7 JUMPI DUP3 SWAP1 SUB PUSH1 0x1F AND DUP3 ADD SWAP2 JUMPDEST POP POP POP POP POP SWAP3 POP SWAP5 POP SWAP5 POP SWAP5 POP SWAP5 POP POP SWAP2 SWAP4 POP SWAP2 SWAP4 JUMP JUMPDEST PUSH1 0x2 SLOAD PUSH1 0x3 SLOAD PUSH0 DUP1 SLOAD PUSH1 0x60 SWAP4 DUP5 SWAP4 DUP4 SWAP3 DUP4 SWAP3 PUSH1 0x1 SWAP3 SWAP1 SWAP2 PUSH1 0xFF SWAP1 SWAP2 AND SWAP1 DUP5 SWAP1 PUSH2 0x543 SWAP1 PUSH2 0xA4A JUMP JUMPDEST DUP1 PUSH1 0x1F ADD PUSH1 0x20 DUP1 SWAP2 DIV MUL PUSH1 0x20 ADD PUSH1 0x40 MLOAD SWAP1 DUP2 ADD PUSH1 0x40 MSTORE DUP1 SWAP3 SWAP2 SWAP1 DUP2 DUP2 MSTORE PUSH1 0x20 ADD DUP3 DUP1 SLOAD PUSH2 0x56F SWAP1 PUSH2 0xA4A JUMP JUMPDEST DUP1 ISZERO PUSH2 0x5BA JUMPI DUP1 PUSH1 0x1F LT PUSH2 0x591 JUMPI PUSH2 0x100 DUP1 DUP4 SLOAD DIV MUL DUP4 MSTORE SWAP2 PUSH1 0x20 ADD SWAP2 PUSH2 0x5BA JUMP JUMPDEST DUP3 ADD SWAP2 SWAP1 PUSH0 MSTORE PUSH1 0x20 PUSH0 KECCAK256 SWAP1 JUMPDEST DUP2 SLOAD DUP2 MSTORE SWAP1 PUSH1 0x1 ADD SWAP1 PUSH1 0x20 ADD DUP1 DUP4 GT PUSH2 0x59D JUMPI DUP3 SWAP1 SUB PUSH1 0x1F AND DUP3 ADD SWAP2 JUMPDEST POP POP POP POP POP SWAP4 POP DUP3 DUP1 SLOAD PUSH2 0x5CD SWAP1 PUSH2 0xA4A JUMP JUMPDEST DUP1 PUSH1 0x1F ADD PUSH1 0x20 DUP1 SWAP2 DIV MUL PUSH1 0x20 ADD PUSH1 0x40 MLOAD SWAP1 DUP2 ADD PUSH1 0x40 MSTORE DUP1 SWAP3 SWAP2 SWAP1 DUP2 DUP2 MSTORE PUSH1 0x20 ADD DUP3 DUP1 SLOAD PUSH2 0x5F9 SWAP1 PUSH2 0xA4A JUMP JUMPDEST DUP1 ISZERO PUSH2 0x644 JUMPI DUP1 PUSH1 0x1F LT PUSH2 0x61B JUMPI PUSH2 0x100 DUP1 DUP4 SLOAD DIV MUL DUP4 MSTORE SWAP2 PUSH1 0x20 ADD SWAP2 PUSH2 0x644 JUMP JUMPDEST DUP3 ADD SWAP2 SWAP1 PUSH0 MSTORE PUSH1 0x20 PUSH0 KECCAK256 SWAP1 JUMPDEST DUP2 SLOAD DUP2 MSTORE SWAP1 PUSH1 0x1 ADD SWAP1 PUSH1 0x20 ADD DUP1 DUP4 GT PUSH2 0x627 JUMPI DUP3 SWAP1 SUB PUSH1 0x1F AND DUP3 ADD SWAP2 JUMPDEST POP POP POP POP POP SWAP3 POP SWAP4 POP SWAP4 POP SWAP4 POP SWAP4 POP SWAP1 SWAP2 SWAP3 SWAP4 JUMP JUMPDEST PUSH1 0x60 DUP1 PUSH1 0x4 PUSH0 ADD PUSH1 0x4 PUSH1 0x1 ADD DUP2 DUP1 SLOAD PUSH2 0x671 SWAP1 PUSH2 0xA4A JUMP JUMPDEST DUP1 PUSH1 0x1F ADD PUSH1 0x20 DUP1 SWAP2 DIV MUL PUSH1 0x20 ADD PUSH1 0x40 MLOAD SWAP1 DUP2 ADD PUSH1 0x40 MSTORE DUP1 SWAP3 SWAP2 SWAP1 DUP2 DUP2 MSTORE PUSH1 0x20 ADD DUP3 DUP1 SLOAD PUSH2 0x69D SWAP1 PUSH2 0xA4A JUMP JUMPDEST DUP1 ISZERO PUSH2 0x6E8 JUMPI DUP1 PUSH1 0x1F LT PUSH2 0x6BF JUMPI PUSH2 0x100 DUP1 DUP4 SLOAD DIV MUL DUP4 MSTORE SWAP2 PUSH1 0x20 ADD SWAP2 PUSH2 0x6E8 JUMP JUMPDEST DUP3 ADD SWAP2 SWAP1 PUSH0 MSTORE PUSH1 0x20 PUSH0 KECCAK256 SWAP1 JUMPDEST DUP2 SLOAD DUP2 MSTORE SWAP1 PUSH1 0x1 ADD SWAP1 PUSH1 0x20 ADD DUP1 DUP4 GT PUSH2 0x6CB JUMPI DUP3 SWAP1 SUB PUSH1 0x1F AND DUP3 ADD SWAP2 JUMPDEST POP POP POP POP POP SWAP2 POP DUP1 DUP1 SLOAD PUSH2 0x6FB SWAP1 PUSH2 0xA4A JUMP JUMPDEST DUP1 PUSH1 0x1F ADD PUSH1 0x20 DUP1 SWAP2 DIV MUL PUSH1 0x20 ADD PUSH1 0x40 MLOAD SWAP1 DUP2 ADD PUSH1 0x40 MSTORE DUP1 SWAP3 SWAP2 SWAP1 DUP2 DUP2 MSTORE PUSH1 0x20 ADD DUP3 DUP1 SLOAD PUSH2 0x727 SWAP1 PUSH2 0xA4A JUMP JUMPDEST DUP1 ISZERO PUSH2 0x772 JUMPI DUP1 PUSH1 0x1F LT PUSH2 0x749 JUMPI PUSH2 0x100 DUP1 DUP4 SLOAD DIV MUL DUP4 MSTORE SWAP2 PUSH1 0x20 ADD SWAP2 PUSH2 0x772 JUMP JUMPDEST DUP3 ADD SWAP2 SWAP1 PUSH0 MSTORE PUSH1 0x20 PUSH0 KECCAK256 SWAP1 JUMPDEST DUP2 SLOAD DUP2 MSTORE SWAP1 PUSH1 0x1 ADD SWAP1 PUSH1 0x20 ADD DUP1 DUP4 GT PUSH2 0x755 JUMPI DUP3 SWAP1 SUB PUSH1 0x1F AND DUP3 ADD SWAP2 JUMPDEST POP POP POP POP POP SWAP1 POP SWAP2 POP SWAP2 POP SWAP1 SWAP2 JUMP JUMPDEST PUSH4 0x4E487B71 PUSH1 0xE0 SHL PUSH0 MSTORE PUSH1 0x41 PUSH1 0x4 MSTORE PUSH1 0x24 PUSH0 REVERT JUMPDEST PUSH1 0x40 MLOAD PUSH1 0x1F DUP3 ADD PUSH1 0x1F NOT AND DUP2 ADD PUSH8 0xFFFFFFFFFFFFFFFF DUP2 GT DUP3 DUP3 LT OR ISZERO PUSH2 0x7BE JUMPI PUSH2 0x7BE PUSH2 0x781 JUMP JUMPDEST PUSH1 0x40 MSTORE SWAP2 SWAP1 POP JUMP JUMPDEST PUSH0 DUP3 PUSH1 0x1F DUP4 ADD SLT PUSH2 0x7D5 JUMPI PUSH0 DUP1 REVERT JUMPDEST DUP2 CALLDATALOAD PUSH8 0xFFFFFFFFFFFFFFFF DUP2 GT ISZERO PUSH2 0x7EF JUMPI PUSH2 0x7EF PUSH2 0x781 JUMP JUMPDEST PUSH2 0x802 PUSH1 0x1F DUP3 ADD PUSH1 0x1F NOT AND PUSH1 0x20 ADD PUSH2 0x795 JUMP JUMPDEST DUP2 DUP2 MSTORE DUP5 PUSH1 0x20 DUP4 DUP7 ADD ADD GT ISZERO PUSH2 0x816 JUMPI PUSH0 DUP1 REVERT JUMPDEST DUP2 PUSH1 0x20 DUP6 ADD PUSH1 0x20 DUP4 ADD CALLDATACOPY PUSH0 SWAP2 DUP2 ADD PUSH1 0x20 ADD SWAP2 SWAP1 SWAP2 MSTORE SWAP4 SWAP3 POP POP POP JUMP JUMPDEST PUSH0 DUP1 PUSH0 DUP1 PUSH1 0x80 DUP6 DUP8 SUB SLT ISZERO PUSH2 0x845 JUMPI PUSH0 DUP1 REVERT JUMPDEST DUP5 CALLDATALOAD PUSH8 0xFFFFFFFFFFFFFFFF DUP1 DUP3 GT ISZERO PUSH2 0x85C JUMPI PUSH0 DUP1 REVERT JUMPDEST PUSH2 0x868 DUP9 DUP4 DUP10 ADD PUSH2 0x7C6 JUMP JUMPDEST SWAP6 POP PUSH1 0x20 DUP8 ADD CALLDATALOAD SWAP2 POP DUP1 DUP3 GT ISZERO PUSH2 0x87D JUMPI PUSH0 DUP1 REVERT JUMPDEST POP PUSH2 0x88A DUP8 DUP3 DUP9 ADD PUSH2 0x7C6 JUMP JUMPDEST SWAP4 POP POP PUSH1 0x40 DUP6 ADD CALLDATALOAD SWAP2 POP PUSH1 0x60 DUP6 ADD CALLDATALOAD DUP1 ISZERO ISZERO DUP2 EQ PUSH2 0x8A6 JUMPI PUSH0 DUP1 REVERT JUMPDEST SWAP4 SWAP7 SWAP3 SWAP6 POP SWAP1 SWAP4 POP POP JUMP JUMPDEST PUSH0 PUSH1 0x20 DUP1 DUP4 DUP6 SUB SLT ISZERO PUSH2 0x8C2 JUMPI PUSH0 DUP1 REVERT JUMPDEST DUP3 CALLDATALOAD PUSH8 0xFFFFFFFFFFFFFFFF DUP1 DUP3 GT ISZERO PUSH2 0x8D9 JUMPI PUSH0 DUP1 REVERT JUMPDEST DUP2 DUP6 ADD SWAP2 POP DUP6 PUSH1 0x1F DUP4 ADD SLT PUSH2 0x8EC JUMPI PUSH0 DUP1 REVERT JUMPDEST DUP2 CALLDATALOAD DUP2 DUP2 GT ISZERO PUSH2 0x8FE JUMPI PUSH2 0x8FE PUSH2 0x781 JUMP JUMPDEST DUP1 PUSH1 0x5 SHL PUSH2 0x90D DUP6 DUP3 ADD PUSH2 0x795 JUMP JUMPDEST SWAP2 DUP3 MSTORE DUP4 DUP2 ADD DUP6 ADD SWAP2 DUP6 DUP2 ADD SWAP1 DUP10 DUP5 GT ISZERO PUSH2 0x926 JUMPI PUSH0 DUP1 REVERT JUMPDEST DUP7 DUP7 ADD SWAP3 POP JUMPDEST DUP4 DUP4 LT ISZERO PUSH2 0x960 JUMPI DUP3 CALLDATALOAD DUP6 DUP2 GT ISZERO PUSH2 0x942 JUMPI PUSH0 DUP1 REVERT JUMPDEST PUSH2 0x950 DUP12 DUP10 DUP4 DUP11 ADD ADD PUSH2 0x7C6 JUMP JUMPDEST DUP4 MSTORE POP SWAP2 DUP7 ADD SWAP2 SWAP1 DUP7 ADD SWAP1 PUSH2 0x92C JUMP JUMPDEST SWAP10 SWAP9 POP POP POP POP POP POP POP POP POP JUMP JUMPDEST PUSH0 DUP2 MLOAD DUP1 DUP5 MSTORE PUSH0 JUMPDEST DUP2 DUP2 LT ISZERO PUSH2 0x991 JUMPI PUSH1 0x20 DUP2 DUP6 ADD DUP2 ADD MLOAD DUP7 DUP4 ADD DUP3 ADD MSTORE ADD PUSH2 0x975 JUMP JUMPDEST POP PUSH0 PUSH1 0x20 DUP3 DUP7 ADD ADD MSTORE PUSH1 0x20 PUSH1 0x1F NOT PUSH1 0x1F DUP4 ADD AND DUP6 ADD ADD SWAP2 POP POP SWAP3 SWAP2 POP POP JUMP JUMPDEST PUSH1 0x20 DUP2 MSTORE PUSH0 PUSH2 0x9C2 PUSH1 0x20 DUP4 ADD DUP5 PUSH2 0x96D JUMP JUMPDEST SWAP4 SWAP3 POP POP POP JUMP JUMPDEST PUSH0 PUSH1 0x20 DUP3 DUP5 SUB SLT ISZERO PUSH2 0x9D9 JUMPI PUSH0 DUP1 REVERT JUMPDEST POP CALLDATALOAD SWAP2 SWAP1 POP JUMP JUMPDEST PUSH1 0x80 DUP2 MSTORE PUSH0 PUSH2 0x9F2 PUSH1 0x80 DUP4 ADD DUP8 PUSH2 0x96D JUMP JUMPDEST DUP3 DUP2 SUB PUSH1 0x20 DUP5 ADD MSTORE PUSH2 0xA04 DUP2 DUP8 PUSH2 0x96D JUMP JUMPDEST PUSH1 0x40 DUP5 ADD SWAP6 SWAP1 SWAP6 MSTORE POP POP SWAP1 ISZERO ISZERO PUSH1 0x60 SWAP1 SWAP2 ADD MSTORE SWAP3 SWAP2 POP POP JUMP JUMPDEST PUSH1 0x40 DUP2 MSTORE PUSH0 PUSH2 0xA2F PUSH1 0x40 DUP4 ADD DUP6 PUSH2 0x96D JUMP JUMPDEST DUP3 DUP2 SUB PUSH1 0x20 DUP5 ADD MSTORE PUSH2 0xA41 DUP2 DUP6 PUSH2 0x96D JUMP JUMPDEST SWAP6 SWAP5 POP POP POP POP POP JUMP JUMPDEST PUSH1 0x1 DUP2 DUP2 SHR SWAP1 DUP3 AND DUP1 PUSH2 0xA5E JUMPI PUSH1 0x7F DUP3 AND SWAP2 POP JUMPDEST PUSH1 0x20 DUP3 LT DUP2 SUB PUSH2 0xA7C JUMPI PUSH4 0x4E487B71 PUSH1 0xE0 SHL PUSH0 MSTORE PUSH1 0x22 PUSH1 0x4 MSTORE PUSH1 0x24 PUSH0 REVERT JUMPDEST POP SWAP2 SWAP1 POP JUMP JUMPDEST PUSH1 0x1F DUP3 GT ISZERO PUSH2 0xAC9 JUMPI DUP1 PUSH0 MSTORE PUSH1 0x20 PUSH0 KECCAK256 PUSH1 0x1F DUP5 ADD PUSH1 0x5 SHR DUP2 ADD PUSH1 0x20 DUP6 LT ISZERO PUSH2 0xAA7 JUMPI POP DUP1 JUMPDEST PUSH1 0x1F DUP5 ADD PUSH1 0x5 SHR DUP3 ADD SWAP2 POP JUMPDEST DUP2 DUP2 LT ISZERO PUSH2 0xAC6 JUMPI PUSH0 DUP2 SSTORE PUSH1 0x1 ADD PUSH2 0xAB3 JUMP JUMPDEST POP POP JUMPDEST POP POP POP JUMP JUMPDEST DUP2 MLOAD PUSH8 0xFFFFFFFFFFFFFFFF DUP2 GT ISZERO PUSH2 0xAE8 JUMPI PUSH2 0xAE8 PUSH2 0x781 JUMP JUMPDEST PUSH2 0xAFC DUP2 PUSH2 0xAF6 DUP5 SLOAD PUSH2 0xA4A JUMP JUMPDEST DUP5 PUSH2 0xA82 JUMP JUMPDEST PUSH1 0x20 DUP1 PUSH1 0x1F DUP4 GT PUSH1 0x1 DUP2 EQ PUSH2 0xB2F JUMPI PUSH0 DUP5 ISZERO PUSH2 0xB18 JUMPI POP DUP6 DUP4 ADD MLOAD JUMPDEST PUSH0 NOT PUSH1 0x3 DUP7 SWAP1 SHL SHR NOT AND PUSH1 0x1 DUP6 SWAP1 SHL OR DUP6 SSTORE PUSH2 0xB86 JUMP JUMPDEST PUSH0 DUP6 DUP2 MSTORE PUSH1 0x20 DUP2 KECCAK256 PUSH1 0x1F NOT DUP7 AND SWAP2 JUMPDEST DUP3 DUP2 LT ISZERO PUSH2 0xB5D JUMPI DUP9 DUP7 ADD MLOAD DUP3 SSTORE SWAP5 DUP5 ADD SWAP5 PUSH1 0x1 SWAP1 SWAP2 ADD SWAP1 DUP5 ADD PUSH2 0xB3E JUMP JUMPDEST POP DUP6 DUP3 LT ISZERO PUSH2 0xB7A JUMPI DUP8 DUP6 ADD MLOAD PUSH0 NOT PUSH1 0x3 DUP9 SWAP1 SHL PUSH1 0xF8 AND SHR NOT AND DUP2 SSTORE JUMPDEST POP POP PUSH1 0x1 DUP5 PUSH1 0x1 SHL ADD DUP6 SSTORE JUMPDEST POP POP POP POP POP POP JUMP JUMPDEST PUSH4 0x4E487B71 PUSH1 0xE0 SHL PUSH0 MSTORE PUSH1 0x32 PUSH1 0x4 MSTORE PUSH1 0x24 PUSH0 REVERT INVALID LOG2 PUSH5 0x6970667358 0x22 SLT KECCAK256 0xCC SWAP9 KECCAK256 0x22 0x27 LOG2 PUSH12 0x57BD07AC49A3A4FF13B4B3E SHL RETURN 0xAE SWAP12 PUSH28 0xC2628206176A4EEF64736F6C63430008180033000000000000000000 "
				},
				"gasEstimates": {
					"creation": {
						"codeDepositCost": "606400",
						"executionCost": "infinite",
						"totalCost": "infinite"
					},
					"external": {
						"bukuBaru3(string,string,uint256,bool)": "infinite",
						"lihatBuku(string[])": "infinite",
						"lihatBuku1()": "infinite",
						"lihatBuku2()": "infinite",
						"lihatBukuById(uint256)": "infinite",
						"tambahBuku1()": "infinite"
					}
				},
				"methodIdentifiers": {
					"bukuBaru3(string,string,uint256,bool)": "2d4c469b",
					"lihatBuku(string[])": "3df14741",
					"lihatBuku1()": "84ad0c41",
					"lihatBuku2()": "9a301922",
					"lihatBukuById(uint256)": "4275d504",
					"tambahBuku1()": "082e1339"
				}
			},
			"storageLayout": {
				"storage": [
					{
						"astId": 13,
						"contract": "contracts/7_Struct.sol:StructContract",
						"label": "buku1",
						"offset": 0,
						"slot": "0",
						"type": "t_struct(Buku)10_storage"
					},
					{
						"astId": 57,
						"contract": "contracts/7_Struct.sol:StructContract",
						"label": "buku2",
						"offset": 0,
						"slot": "4",
						"type": "t_struct(Buku)10_storage"
					},
					{
						"astId": 75,
						"contract": "contracts/7_Struct.sol:StructContract",
						"label": "buku3",
						"offset": 0,
						"slot": "8",
						"type": "t_array(t_struct(Buku)10_storage)dyn_storage"
					}
				],
				"types": {
					"t_array(t_struct(Buku)10_storage)dyn_storage": {
						"base": "t_struct(Buku)10_storage",
						"encoding": "dynamic_array",
						"label": "struct StructContract.Buku[]",
						"numberOfBytes": "32"
					},
					"t_bool": {
						"encoding": "inplace",
						"label": "bool",
						"numberOfBytes": "1"
					},
					"t_string_storage": {
						"encoding": "bytes",
						"label": "string",
						"numberOfBytes": "32"
					},
					"t_struct(Buku)10_storage": {
						"encoding": "inplace",
						"label": "struct StructContract.Buku",
						"members": [
							{
								"astId": 3,
								"contract": "contracts/7_Struct.sol:StructContract",
								"label": "judul",
								"offset": 0,
								"slot": "0",
								"type": "t_string_storage"
							},
							{
								"astId": 5,
								"contract": "contracts/7_Struct.sol:StructContract",
								"label": "pnulis",
								"offset": 0,
								"slot": "1",
								"type": "t_string_storage"
							},
							{
								"astId": 7,
								"contract": "contracts/7_Struct.sol:StructContract",
								"label": "id",
								"offset": 0,
								"slot": "2",
								"type": "t_uint256"
							},
							{
								"astId": 9,
								"contract": "contracts/7_Struct.sol:StructContract",
								"label": "isReady",
								"offset": 0,
								"slot": "3",
								"type": "t_bool"
							}
						],
						"numberOfBytes": "128"
					},
					"t_uint256": {
						"encoding": "inplace",
						"label": "uint256",
						"numberOfBytes": "32"
					}
				}
			},
			"userdoc": {
				"kind": "user",
				"methods": {},
				"version": 1
			}
		}
	}
}