{
	"contracts/4_AddressContract.sol": {
		"AddressContract": {
			"abi": [
				{
					"inputs": [],
					"name": "receivedEther",
					"outputs": [],
					"stateMutability": "payable",
					"type": "function"
				},
				{
					"inputs": [
						{
							"internalType": "address payable",
							"name": "_address",
							"type": "address"
						},
						{
							"internalType": "uint256",
							"name": "nominal",
							"type": "uint256"
						}
					],
					"name": "sendFund",
					"outputs": [],
					"stateMutability": "payable",
					"type": "function"
				},
				{
					"inputs": [
						{
							"internalType": "address payable",
							"name": "_address",
							"type": "address"
						},
						{
							"internalType": "uint256",
							"name": "nominal",
							"type": "uint256"
						}
					],
					"name": "transferFund",
					"outputs": [],
					"stateMutability": "payable",
					"type": "function"
				}
			],
			"devdoc": {
				"kind": "dev",
				"methods": {},
				"version": 1
			},
			"evm": {
				"assembly": "    /* \"contracts/4_AddressContract.sol\":68:2069  contract AddressContract {\r... */\n  mstore(0x40, 0x80)\n  callvalue\n  dup1\n  iszero\n  tag_1\n  jumpi\n  0x00\n  dup1\n  revert\ntag_1:\n  pop\n  dataSize(sub_0)\n  dup1\n  dataOffset(sub_0)\n  0x00\n  codecopy\n  0x00\n  return\nstop\n\nsub_0: assembly {\n        /* \"contracts/4_AddressContract.sol\":68:2069  contract AddressContract {\r... */\n      mstore(0x40, 0x80)\n      jumpi(tag_1, lt(calldatasize, 0x04))\n      shr(0xe0, calldataload(0x00))\n      dup1\n      0x4b569450\n      eq\n      tag_2\n      jumpi\n      dup1\n      0xcd53e455\n      eq\n      tag_3\n      jumpi\n      dup1\n      0xe2dc35e0\n      eq\n      tag_4\n      jumpi\n    tag_1:\n      0x00\n      dup1\n      revert\n        /* \"contracts/4_AddressContract.sol\":1829:2066  function sendFund(address payable _address, uint nominal) public payable  {\r... */\n    tag_2:\n      tag_5\n      0x04\n      dup1\n      calldatasize\n      sub\n      0x40\n      dup2\n      lt\n      iszero\n      tag_6\n      jumpi\n      0x00\n      dup1\n      revert\n    tag_6:\n      pop\n      sub(shl(0xa0, 0x01), 0x01)\n      dup2\n      calldataload\n      and\n      swap1\n      0x20\n      add\n      calldataload\n      tag_7\n      jump\t// in\n    tag_5:\n      stop\n        /* \"contracts/4_AddressContract.sol\":1288:1374  function receivedEther() payable public  {\r... */\n    tag_3:\n      tag_5\n      tag_9\n      jump\t// in\n        /* \"contracts/4_AddressContract.sol\":1622:1821  function transferFund(address payable _address, uint nominal) public payable {\r... */\n    tag_4:\n      tag_5\n      0x04\n      dup1\n      calldatasize\n      sub\n      0x40\n      dup2\n      lt\n      iszero\n      tag_11\n      jumpi\n      0x00\n      dup1\n      revert\n    tag_11:\n      pop\n      sub(shl(0xa0, 0x01), 0x01)\n      dup2\n      calldataload\n      and\n      swap1\n      0x20\n      add\n      calldataload\n      tag_12\n      jump\t// in\n        /* \"contracts/4_AddressContract.sol\":1829:2066  function sendFund(address payable _address, uint nominal) public payable  {\r... */\n    tag_7:\n        /* \"contracts/4_AddressContract.sol\":1947:1954  nominal */\n      dup1\n        /* \"contracts/4_AddressContract.sol\":1922:1943  address(this).balance */\n      selfbalance\n        /* \"contracts/4_AddressContract.sol\":1922:1954  address(this).balance >= nominal */\n      lt\n      iszero\n        /* \"contracts/4_AddressContract.sol\":1914:1980  require(address(this).balance >= nominal, \"Ether anda kurang boy\") */\n      tag_14\n      jumpi\n      0x40\n      dup1\n      mload\n      shl(0xe5, 0x461bcd)\n      dup2\n      mstore\n      0x20\n      0x04\n      dup3\n      add\n      mstore\n      0x15\n      0x24\n      dup3\n      add\n      mstore\n      shl(0x58, 0x457468657220616e6461206b7572616e6720626f79)\n      0x44\n      dup3\n      add\n      mstore\n      swap1\n      mload\n      swap1\n      dup2\n      swap1\n      sub\n      0x64\n      add\n      swap1\n      revert\n    tag_14:\n        /* \"contracts/4_AddressContract.sol\":2001:2023  _address.send(nominal) */\n      mload(0x40)\n        /* \"contracts/4_AddressContract.sol\":1991:1998  bool ok */\n      0x00\n      swap1\n      sub(shl(0xa0, 0x01), 0x01)\n        /* \"contracts/4_AddressContract.sol\":2001:2014  _address.send */\n      dup5\n      and\n      swap1\n        /* \"contracts/4_AddressContract.sol\":2001:2023  _address.send(nominal) */\n      dup4\n      iszero\n      0x08fc\n      mul\n      swap1\n        /* \"contracts/4_AddressContract.sol\":2015:2022  nominal */\n      dup5\n      swap1\n        /* \"contracts/4_AddressContract.sol\":1991:1998  bool ok */\n      dup5\n        /* \"contracts/4_AddressContract.sol\":2001:2023  _address.send(nominal) */\n      dup2\n        /* \"contracts/4_AddressContract.sol\":1991:1998  bool ok */\n      dup2\n        /* \"contracts/4_AddressContract.sol\":2001:2023  _address.send(nominal) */\n      dup2\n        /* \"contracts/4_AddressContract.sol\":2015:2022  nominal */\n      dup6\n        /* \"contracts/4_AddressContract.sol\":2001:2014  _address.send */\n      dup9\n        /* \"contracts/4_AddressContract.sol\":2001:2023  _address.send(nominal) */\n      dup9\n      call\n      swap4\n      pop\n      pop\n      pop\n      pop\n        /* \"contracts/4_AddressContract.sol\":1991:2023  bool ok = _address.send(nominal) */\n      swap1\n      pop\n        /* \"contracts/4_AddressContract.sol\":2042:2044  ok */\n      dup1\n        /* \"contracts/4_AddressContract.sol\":2034:2058  require(ok, \"gagal lol\") */\n      tag_16\n      jumpi\n      0x40\n      dup1\n      mload\n      shl(0xe5, 0x461bcd)\n      dup2\n      mstore\n      0x20\n      0x04\n      dup3\n      add\n      mstore\n      0x09\n      0x24\n      dup3\n      add\n      mstore\n      shl(0xba, 0x19d859d85b081b1bdb)\n      0x44\n      dup3\n      add\n      mstore\n      swap1\n      mload\n      swap1\n      dup2\n      swap1\n      sub\n      0x64\n      add\n      swap1\n      revert\n    tag_16:\n        /* \"contracts/4_AddressContract.sol\":1829:2066  function sendFund(address payable _address, uint nominal) public payable  {\r... */\n      pop\n      pop\n      pop\n      jump\t// out\n        /* \"contracts/4_AddressContract.sol\":1288:1374  function receivedEther() payable public  {\r... */\n    tag_9:\n        /* \"contracts/4_AddressContract.sol\":1357:1366  msg.value */\n      callvalue\n        /* \"contracts/4_AddressContract.sol\":1340:1354  receivedAmount */\n      0x00\n        /* \"contracts/4_AddressContract.sol\":1340:1366  receivedAmount = msg.value */\n      sstore\n        /* \"contracts/4_AddressContract.sol\":1288:1374  function receivedEther() payable public  {\r... */\n      jump\t// out\n        /* \"contracts/4_AddressContract.sol\":1622:1821  function transferFund(address payable _address, uint nominal) public payable {\r... */\n    tag_12:\n        /* \"contracts/4_AddressContract.sol\":1743:1750  nominal */\n      dup1\n        /* \"contracts/4_AddressContract.sol\":1718:1739  address(this).balance */\n      selfbalance\n        /* \"contracts/4_AddressContract.sol\":1718:1750  address(this).balance >= nominal */\n      lt\n      iszero\n        /* \"contracts/4_AddressContract.sol\":1710:1776  require(address(this).balance >= nominal, \"Ether anda kurang boy\") */\n      tag_19\n      jumpi\n      0x40\n      dup1\n      mload\n      shl(0xe5, 0x461bcd)\n      dup2\n      mstore\n      0x20\n      0x04\n      dup3\n      add\n      mstore\n      0x15\n      0x24\n      dup3\n      add\n      mstore\n      shl(0x58, 0x457468657220616e6461206b7572616e6720626f79)\n      0x44\n      dup3\n      add\n      mstore\n      swap1\n      mload\n      swap1\n      dup2\n      swap1\n      sub\n      0x64\n      add\n      swap1\n      revert\n    tag_19:\n        /* \"contracts/4_AddressContract.sol\":1787:1813  _address.transfer(nominal) */\n      mload(0x40)\n      sub(shl(0xa0, 0x01), 0x01)\n        /* \"contracts/4_AddressContract.sol\":1787:1804  _address.transfer */\n      dup4\n      and\n      swap1\n        /* \"contracts/4_AddressContract.sol\":1787:1813  _address.transfer(nominal) */\n      dup3\n      iszero\n      0x08fc\n      mul\n      swap1\n        /* \"contracts/4_AddressContract.sol\":1805:1812  nominal */\n      dup4\n      swap1\n        /* \"contracts/4_AddressContract.sol\":1787:1813  _address.transfer(nominal) */\n      0x00\n      dup2\n      dup2\n      dup2\n        /* \"contracts/4_AddressContract.sol\":1805:1812  nominal */\n      dup6\n        /* \"contracts/4_AddressContract.sol\":1787:1804  _address.transfer */\n      dup9\n        /* \"contracts/4_AddressContract.sol\":1787:1813  _address.transfer(nominal) */\n      dup9\n      call\n      swap4\n      pop\n      pop\n      pop\n      pop\n      iszero\n      dup1\n      iszero\n      tag_16\n      jumpi\n      returndatasize\n      0x00\n      dup1\n      returndatacopy\n      revert(0x00, returndatasize)\n\n    auxdata: 0xa264697066735822122037bdba600ee639822a2d10bae0d7b8fe2a6046e923437c7e581685940e15080464736f6c63430007060033\n}\n",
				"bytecode": {
					"linkReferences": {},
					"object": "608060405234801561001057600080fd5b50610213806100206000396000f3fe6080604052600436106100345760003560e01c80634b56945014610039578063cd53e45514610067578063e2dc35e01461006f575b600080fd5b6100656004803603604081101561004f57600080fd5b506001600160a01b03813516906020013561009b565b005b610065610154565b6100656004803603604081101561008557600080fd5b506001600160a01b03813516906020013561015a565b804710156100e8576040805162461bcd60e51b8152602060048201526015602482015274457468657220616e6461206b7572616e6720626f7960581b604482015290519081900360640190fd5b6040516000906001600160a01b0384169083156108fc0290849084818181858888f1935050505090508061014f576040805162461bcd60e51b815260206004820152600960248201526819d859d85b081b1bdb60ba1b604482015290519081900360640190fd5b505050565b34600055565b804710156101a7576040805162461bcd60e51b8152602060048201526015602482015274457468657220616e6461206b7572616e6720626f7960581b604482015290519081900360640190fd5b6040516001600160a01b0383169082156108fc029083906000818181858888f1935050505015801561014f573d6000803e3d6000fdfea264697066735822122037bdba600ee639822a2d10bae0d7b8fe2a6046e923437c7e581685940e15080464736f6c63430007060033",
					"opcodes": "PUSH1 0x80 PUSH1 0x40 MSTORE CALLVALUE DUP1 ISZERO PUSH2 0x10 JUMPI PUSH1 0x0 DUP1 REVERT JUMPDEST POP PUSH2 0x213 DUP1 PUSH2 0x20 PUSH1 0x0 CODECOPY PUSH1 0x0 RETURN INVALID PUSH1 0x80 PUSH1 0x40 MSTORE PUSH1 0x4 CALLDATASIZE LT PUSH2 0x34 JUMPI PUSH1 0x0 CALLDATALOAD PUSH1 0xE0 SHR DUP1 PUSH4 0x4B569450 EQ PUSH2 0x39 JUMPI DUP1 PUSH4 0xCD53E455 EQ PUSH2 0x67 JUMPI DUP1 PUSH4 0xE2DC35E0 EQ PUSH2 0x6F JUMPI JUMPDEST PUSH1 0x0 DUP1 REVERT JUMPDEST PUSH2 0x65 PUSH1 0x4 DUP1 CALLDATASIZE SUB PUSH1 0x40 DUP2 LT ISZERO PUSH2 0x4F JUMPI PUSH1 0x0 DUP1 REVERT JUMPDEST POP PUSH1 0x1 PUSH1 0x1 PUSH1 0xA0 SHL SUB DUP2 CALLDATALOAD AND SWAP1 PUSH1 0x20 ADD CALLDATALOAD PUSH2 0x9B JUMP JUMPDEST STOP JUMPDEST PUSH2 0x65 PUSH2 0x154 JUMP JUMPDEST PUSH2 0x65 PUSH1 0x4 DUP1 CALLDATASIZE SUB PUSH1 0x40 DUP2 LT ISZERO PUSH2 0x85 JUMPI PUSH1 0x0 DUP1 REVERT JUMPDEST POP PUSH1 0x1 PUSH1 0x1 PUSH1 0xA0 SHL SUB DUP2 CALLDATALOAD AND SWAP1 PUSH1 0x20 ADD CALLDATALOAD PUSH2 0x15A JUMP JUMPDEST DUP1 SELFBALANCE LT ISZERO PUSH2 0xE8 JUMPI PUSH1 0x40 DUP1 MLOAD PUSH3 0x461BCD PUSH1 0xE5 SHL DUP2 MSTORE PUSH1 0x20 PUSH1 0x4 DUP3 ADD MSTORE PUSH1 0x15 PUSH1 0x24 DUP3 ADD MSTORE PUSH21 0x457468657220616E6461206B7572616E6720626F79 PUSH1 0x58 SHL PUSH1 0x44 DUP3 ADD MSTORE SWAP1 MLOAD SWAP1 DUP2 SWAP1 SUB PUSH1 0x64 ADD SWAP1 REVERT JUMPDEST PUSH1 0x40 MLOAD PUSH1 0x0 SWAP1 PUSH1 0x1 PUSH1 0x1 PUSH1 0xA0 SHL SUB DUP5 AND SWAP1 DUP4 ISZERO PUSH2 0x8FC MUL SWAP1 DUP5 SWAP1 DUP5 DUP2 DUP2 DUP2 DUP6 DUP9 DUP9 CALL SWAP4 POP POP POP POP SWAP1 POP DUP1 PUSH2 0x14F JUMPI PUSH1 0x40 DUP1 MLOAD PUSH3 0x461BCD PUSH1 0xE5 SHL DUP2 MSTORE PUSH1 0x20 PUSH1 0x4 DUP3 ADD MSTORE PUSH1 0x9 PUSH1 0x24 DUP3 ADD MSTORE PUSH9 0x19D859D85B081B1BDB PUSH1 0xBA SHL PUSH1 0x44 DUP3 ADD MSTORE SWAP1 MLOAD SWAP1 DUP2 SWAP1 SUB PUSH1 0x64 ADD SWAP1 REVERT JUMPDEST POP POP POP JUMP JUMPDEST CALLVALUE PUSH1 0x0 SSTORE JUMP JUMPDEST DUP1 SELFBALANCE LT ISZERO PUSH2 0x1A7 JUMPI PUSH1 0x40 DUP1 MLOAD PUSH3 0x461BCD PUSH1 0xE5 SHL DUP2 MSTORE PUSH1 0x20 PUSH1 0x4 DUP3 ADD MSTORE PUSH1 0x15 PUSH1 0x24 DUP3 ADD MSTORE PUSH21 0x457468657220616E6461206B7572616E6720626F79 PUSH1 0x58 SHL PUSH1 0x44 DUP3 ADD MSTORE SWAP1 MLOAD SWAP1 DUP2 SWAP1 SUB PUSH1 0x64 ADD SWAP1 REVERT JUMPDEST PUSH1 0x40 MLOAD PUSH1 0x1 PUSH1 0x1 PUSH1 0xA0 SHL SUB DUP4 AND SWAP1 DUP3 ISZERO PUSH2 0x8FC MUL SWAP1 DUP4 SWAP1 PUSH1 0x0 DUP2 DUP2 DUP2 DUP6 DUP9 DUP9 CALL SWAP4 POP POP POP POP ISZERO DUP1 ISZERO PUSH2 0x14F JUMPI RETURNDATASIZE PUSH1 0x0 DUP1 RETURNDATACOPY RETURNDATASIZE PUSH1 0x0 REVERT INVALID LOG2 PUSH5 0x6970667358 0x22 SLT KECCAK256 CALLDATACOPY 0xBD 0xBA PUSH1 0xE 0xE6 CODECOPY DUP3 0x2A 0x2D LT 0xBA 0xE0 0xD7 0xB8 INVALID 0x2A PUSH1 0x46 0xE9 0x23 NUMBER PUSH29 0x7E581685940E15080464736F6C63430007060033000000000000000000 "
				},
				"gasEstimates": {
					"creation": {
						"codeDepositCost": "106200",
						"executionCost": "153",
						"totalCost": "106353"
					},
					"external": {
						"receivedEther()": "20125",
						"sendFund(address,uint256)": "infinite",
						"transferFund(address,uint256)": "infinite"
					}
				},
				"methodIdentifiers": {
					"receivedEther()": "cd53e455",
					"sendFund(address,uint256)": "4b569450",
					"transferFund(address,uint256)": "e2dc35e0"
				}
			},
			"storageLayout": {
				"storage": [
					{
						"astId": 3,
						"contract": "contracts/4_AddressContract.sol:AddressContract",
						"label": "receivedAmount",
						"offset": 0,
						"slot": "0",
						"type": "t_uint256"
					}
				],
				"types": {
					"t_uint256": {
						"encoding": "inplace",
						"label": "uint256",
						"numberOfBytes": "32"
					}
				}
			},
			"userdoc": {
				"kind": "user",
				"methods": {},
				"version": 1
			}
		}
	}
}