{
	"contracts/13_HirarkiInheritance.sol": {
		"caller": {
			"abi": [
				{
					"inputs": [],
					"name": "fromCaller",
					"outputs": [
						{
							"internalType": "string",
							"name": "",
							"type": "string"
						},
						{
							"internalType": "string",
							"name": "",
							"type": "string"
						}
					],
					"stateMutability": "view",
					"type": "function"
				}
			],
			"devdoc": {
				"kind": "dev",
				"methods": {},
				"version": 1
			},
			"evm": {
				"assembly": "    /* \"contracts/13_HirarkiInheritance.sol\":228:416  contract caller {... */\n  mstore(0x40, 0x80)\n    /* \"contracts/13_HirarkiInheritance.sol\":257:264  new C() */\n  mload(0x40)\n  tag_1\n  swap1\n  tag_2\n  jump\t// in\ntag_1:\n  mload(0x40)\n  dup1\n  swap2\n  sub\n  swap1\n  0x00\n  create\n  dup1\n  iszero\n  dup1\n  iszero\n  tag_3\n  jumpi\n  returndatasize\n  0x00\n  dup1\n  returndatacopy\n  revert(0x00, returndatasize)\ntag_3:\n  pop\n    /* \"contracts/13_HirarkiInheritance.sol\":251:264  C c = new C() */\n  0x00\n  dup1\n  sload\n  not(sub(shl(0xa0, 0x01), 0x01))\n  and\n  sub(shl(0xa0, 0x01), 0x01)\n  swap3\n  swap1\n  swap3\n  and\n  swap2\n  swap1\n  swap2\n  or\n  swap1\n  sstore\n    /* \"contracts/13_HirarkiInheritance.sol\":277:284  new B() */\n  mload(0x40)\n  tag_4\n  swap1\n  tag_5\n  jump\t// in\ntag_4:\n  mload(0x40)\n  dup1\n  swap2\n  sub\n  swap1\n  0x00\n  create\n  dup1\n  iszero\n  dup1\n  iszero\n  tag_6\n  jumpi\n  returndatasize\n  0x00\n  dup1\n  returndatacopy\n  revert(0x00, returndatasize)\ntag_6:\n  pop\n    /* \"contracts/13_HirarkiInheritance.sol\":271:284  B b = new B() */\n  0x01\n  dup1\n  sload\n  not(sub(shl(0xa0, 0x01), 0x01))\n  and\n  sub(shl(0xa0, 0x01), 0x01)\n  swap3\n  swap1\n  swap3\n  and\n  swap2\n  swap1\n  swap2\n  or\n  swap1\n  sstore\n    /* \"contracts/13_HirarkiInheritance.sol\":228:416  contract caller {... */\n  callvalue\n  dup1\n  iszero\n  tag_7\n  jumpi\n  0x00\n  dup1\n  revert\ntag_7:\n  pop\n  jump(tag_8)\ntag_2:\n  dataSize(sub_1)\n  dup1\n  dataOffset(sub_1)\n  dup4\n  codecopy\n  add\n  swap1\n  jump\t// out\ntag_5:\n  dataSize(sub_2)\n  dup1\n  dataOffset(sub_2)\n  dup4\n  codecopy\n  add\n  swap1\n  jump\t// out\ntag_8:\n  dataSize(sub_0)\n  dup1\n  dataOffset(sub_0)\n  0x00\n  codecopy\n  0x00\n  return\nstop\n\nsub_0: assembly {\n        /* \"contracts/13_HirarkiInheritance.sol\":228:416  contract caller {... */\n      mstore(0x40, 0x80)\n      callvalue\n      dup1\n      iszero\n      tag_1\n      jumpi\n      0x00\n      dup1\n      revert\n    tag_1:\n      pop\n      jumpi(tag_2, lt(calldatasize, 0x04))\n      shr(0xe0, calldataload(0x00))\n      dup1\n      0x6c3e5179\n      eq\n      tag_3\n      jumpi\n    tag_2:\n      0x00\n      dup1\n      revert\n        /* \"contracts/13_HirarkiInheritance.sol\":293:413  function fromCaller() public view returns(string memory, string memory) {... */\n    tag_3:\n      tag_4\n      tag_5\n      jump\t// in\n    tag_4:\n      mload(0x40)\n      tag_6\n      swap3\n      swap2\n      swap1\n      tag_7\n      jump\t// in\n    tag_6:\n      mload(0x40)\n      dup1\n      swap2\n      sub\n      swap1\n      return\n    tag_5:\n        /* \"contracts/13_HirarkiInheritance.sol\":384:385  c */\n      0x00\n      dup1\n      sload\n        /* \"contracts/13_HirarkiInheritance.sol\":384:393  c.fromA() */\n      0x40\n      dup1\n      mload\n      shl(0xe0, 0x2604e1bb)\n      dup2\n      mstore\n      swap1\n      mload\n        /* \"contracts/13_HirarkiInheritance.sol\":335:348  string memory */\n      0x60\n      swap4\n      dup5\n      swap4\n      sub(shl(0xa0, 0x01), 0x01)\n        /* \"contracts/13_HirarkiInheritance.sol\":384:385  c */\n      and\n      swap3\n        /* \"contracts/13_HirarkiInheritance.sol\":384:391  c.fromA */\n      0x2604e1bb\n      swap3\n        /* \"contracts/13_HirarkiInheritance.sol\":384:393  c.fromA() */\n      0x04\n      dup1\n      dup4\n      add\n      swap4\n        /* \"contracts/13_HirarkiInheritance.sol\":384:385  c */\n      swap3\n        /* \"contracts/13_HirarkiInheritance.sol\":384:393  c.fromA() */\n      dup3\n      swap1\n      sub\n      add\n      dup2\n        /* \"contracts/13_HirarkiInheritance.sol\":384:385  c */\n      dup7\n        /* \"contracts/13_HirarkiInheritance.sol\":384:393  c.fromA() */\n      gas\n      staticcall\n      iszero\n      dup1\n      iszero\n      tag_10\n      jumpi\n      returndatasize\n      0x00\n      dup1\n      returndatacopy\n      revert(0x00, returndatasize)\n    tag_10:\n      pop\n      pop\n      pop\n      pop\n      mload(0x40)\n      returndatasize\n      0x00\n      dup3\n      returndatacopy\n      0x1f\n      returndatasize\n      swap1\n      dup2\n      add\n      not(0x1f)\n      and\n      dup3\n      add\n      0x40\n      mstore\n      tag_11\n      swap2\n      swap1\n      dup2\n      add\n      swap1\n      tag_12\n      jump\t// in\n    tag_11:\n        /* \"contracts/13_HirarkiInheritance.sol\":395:396  b */\n      0x01\n      0x00\n      swap1\n      sload\n      swap1\n      0x0100\n      exp\n      swap1\n      div\n      sub(shl(0xa0, 0x01), 0x01)\n      and\n      sub(shl(0xa0, 0x01), 0x01)\n        /* \"contracts/13_HirarkiInheritance.sol\":395:402  b.fromA */\n      and\n      0x2604e1bb\n        /* \"contracts/13_HirarkiInheritance.sol\":395:404  b.fromA() */\n      mload(0x40)\n      dup2\n      0xffffffff\n      and\n      0xe0\n      shl\n      dup2\n      mstore\n      0x04\n      add\n      0x00\n      mload(0x40)\n      dup1\n      dup4\n      sub\n      dup2\n      dup7\n      gas\n      staticcall\n      iszero\n      dup1\n      iszero\n      tag_14\n      jumpi\n      returndatasize\n      0x00\n      dup1\n      returndatacopy\n      revert(0x00, returndatasize)\n    tag_14:\n      pop\n      pop\n      pop\n      pop\n      mload(0x40)\n      returndatasize\n      0x00\n      dup3\n      returndatacopy\n      0x1f\n      returndatasize\n      swap1\n      dup2\n      add\n      not(0x1f)\n      and\n      dup3\n      add\n      0x40\n      mstore\n      tag_15\n      swap2\n      swap1\n      dup2\n      add\n      swap1\n      tag_12\n      jump\t// in\n    tag_15:\n        /* \"contracts/13_HirarkiInheritance.sol\":376:405  return (c.fromA(), b.fromA()) */\n      swap2\n      pop\n      swap2\n      pop\n        /* \"contracts/13_HirarkiInheritance.sol\":293:413  function fromCaller() public view returns(string memory, string memory) {... */\n      swap1\n      swap2\n      jump\t// out\n        /* \"#utility.yul\":14:264   */\n    tag_16:\n        /* \"#utility.yul\":99:100   */\n      0x00\n        /* \"#utility.yul\":109:222   */\n    tag_21:\n        /* \"#utility.yul\":123:129   */\n      dup4\n        /* \"#utility.yul\":120:121   */\n      dup2\n        /* \"#utility.yul\":117:130   */\n      lt\n        /* \"#utility.yul\":109:222   */\n      iszero\n      tag_23\n      jumpi\n        /* \"#utility.yul\":199:210   */\n      dup2\n      dup2\n      add\n        /* \"#utility.yul\":193:211   */\n      mload\n        /* \"#utility.yul\":180:191   */\n      dup4\n      dup3\n      add\n        /* \"#utility.yul\":173:212   */\n      mstore\n        /* \"#utility.yul\":145:147   */\n      0x20\n        /* \"#utility.yul\":138:148   */\n      add\n        /* \"#utility.yul\":109:222   */\n      jump(tag_21)\n    tag_23:\n      pop\n      pop\n        /* \"#utility.yul\":256:257   */\n      0x00\n        /* \"#utility.yul\":238:254   */\n      swap2\n      add\n        /* \"#utility.yul\":231:258   */\n      mstore\n        /* \"#utility.yul\":14:264   */\n      jump\t// out\n        /* \"#utility.yul\":269:540   */\n    tag_17:\n        /* \"#utility.yul\":311:314   */\n      0x00\n        /* \"#utility.yul\":349:354   */\n      dup2\n        /* \"#utility.yul\":343:355   */\n      mload\n        /* \"#utility.yul\":376:382   */\n      dup1\n        /* \"#utility.yul\":371:374   */\n      dup5\n        /* \"#utility.yul\":364:383   */\n      mstore\n        /* \"#utility.yul\":392:468   */\n      tag_25\n        /* \"#utility.yul\":461:467   */\n      dup2\n        /* \"#utility.yul\":454:458   */\n      0x20\n        /* \"#utility.yul\":449:452   */\n      dup7\n        /* \"#utility.yul\":445:459   */\n      add\n        /* \"#utility.yul\":438:442   */\n      0x20\n        /* \"#utility.yul\":431:436   */\n      dup7\n        /* \"#utility.yul\":427:443   */\n      add\n        /* \"#utility.yul\":392:468   */\n      tag_16\n      jump\t// in\n    tag_25:\n        /* \"#utility.yul\":522:524   */\n      0x1f\n        /* \"#utility.yul\":501:516   */\n      add\n      not(0x1f)\n        /* \"#utility.yul\":497:526   */\n      and\n        /* \"#utility.yul\":488:527   */\n      swap3\n      swap1\n      swap3\n      add\n        /* \"#utility.yul\":529:533   */\n      0x20\n        /* \"#utility.yul\":484:534   */\n      add\n      swap3\n        /* \"#utility.yul\":269:540   */\n      swap2\n      pop\n      pop\n      jump\t// out\n        /* \"#utility.yul\":545:928   */\n    tag_7:\n        /* \"#utility.yul\":742:744   */\n      0x40\n        /* \"#utility.yul\":731:740   */\n      dup2\n        /* \"#utility.yul\":724:745   */\n      mstore\n        /* \"#utility.yul\":705:709   */\n      0x00\n        /* \"#utility.yul\":768:813   */\n      tag_27\n        /* \"#utility.yul\":809:811   */\n      0x40\n        /* \"#utility.yul\":798:807   */\n      dup4\n        /* \"#utility.yul\":794:812   */\n      add\n        /* \"#utility.yul\":786:792   */\n      dup6\n        /* \"#utility.yul\":768:813   */\n      tag_17\n      jump\t// in\n    tag_27:\n        /* \"#utility.yul\":861:870   */\n      dup3\n        /* \"#utility.yul\":853:859   */\n      dup2\n        /* \"#utility.yul\":849:871   */\n      sub\n        /* \"#utility.yul\":844:846   */\n      0x20\n        /* \"#utility.yul\":833:842   */\n      dup5\n        /* \"#utility.yul\":829:847   */\n      add\n        /* \"#utility.yul\":822:872   */\n      mstore\n        /* \"#utility.yul\":889:922   */\n      tag_28\n        /* \"#utility.yul\":915:921   */\n      dup2\n        /* \"#utility.yul\":907:913   */\n      dup6\n        /* \"#utility.yul\":889:922   */\n      tag_17\n      jump\t// in\n    tag_28:\n        /* \"#utility.yul\":881:922   */\n      swap6\n        /* \"#utility.yul\":545:928   */\n      swap5\n      pop\n      pop\n      pop\n      pop\n      pop\n      jump\t// out\n        /* \"#utility.yul\":933:1060   */\n    tag_18:\n        /* \"#utility.yul\":994:1004   */\n      0x4e487b71\n        /* \"#utility.yul\":989:992   */\n      0xe0\n        /* \"#utility.yul\":985:1005   */\n      shl\n        /* \"#utility.yul\":982:983   */\n      0x00\n        /* \"#utility.yul\":975:1006   */\n      mstore\n        /* \"#utility.yul\":1025:1029   */\n      0x41\n        /* \"#utility.yul\":1022:1023   */\n      0x04\n        /* \"#utility.yul\":1015:1030   */\n      mstore\n        /* \"#utility.yul\":1049:1053   */\n      0x24\n        /* \"#utility.yul\":1046:1047   */\n      0x00\n        /* \"#utility.yul\":1039:1054   */\n      revert\n        /* \"#utility.yul\":1065:1962   */\n    tag_12:\n        /* \"#utility.yul\":1145:1151   */\n      0x00\n        /* \"#utility.yul\":1198:1200   */\n      0x20\n        /* \"#utility.yul\":1186:1195   */\n      dup3\n        /* \"#utility.yul\":1177:1184   */\n      dup5\n        /* \"#utility.yul\":1173:1196   */\n      sub\n        /* \"#utility.yul\":1169:1201   */\n      slt\n        /* \"#utility.yul\":1166:1218   */\n      iszero\n      tag_31\n      jumpi\n        /* \"#utility.yul\":1214:1215   */\n      0x00\n        /* \"#utility.yul\":1211:1212   */\n      dup1\n        /* \"#utility.yul\":1204:1216   */\n      revert\n        /* \"#utility.yul\":1166:1218   */\n    tag_31:\n        /* \"#utility.yul\":1247:1256   */\n      dup2\n        /* \"#utility.yul\":1241:1257   */\n      mload\n        /* \"#utility.yul\":1276:1294   */\n      0xffffffffffffffff\n        /* \"#utility.yul\":1317:1319   */\n      dup1\n        /* \"#utility.yul\":1309:1315   */\n      dup3\n        /* \"#utility.yul\":1306:1320   */\n      gt\n        /* \"#utility.yul\":1303:1337   */\n      iszero\n      tag_32\n      jumpi\n        /* \"#utility.yul\":1333:1334   */\n      0x00\n        /* \"#utility.yul\":1330:1331   */\n      dup1\n        /* \"#utility.yul\":1323:1335   */\n      revert\n        /* \"#utility.yul\":1303:1337   */\n    tag_32:\n        /* \"#utility.yul\":1371:1377   */\n      dup2\n        /* \"#utility.yul\":1360:1369   */\n      dup5\n        /* \"#utility.yul\":1356:1378   */\n      add\n        /* \"#utility.yul\":1346:1378   */\n      swap2\n      pop\n        /* \"#utility.yul\":1416:1423   */\n      dup5\n        /* \"#utility.yul\":1409:1413   */\n      0x1f\n        /* \"#utility.yul\":1405:1407   */\n      dup4\n        /* \"#utility.yul\":1401:1414   */\n      add\n        /* \"#utility.yul\":1397:1424   */\n      slt\n        /* \"#utility.yul\":1387:1442   */\n      tag_33\n      jumpi\n        /* \"#utility.yul\":1438:1439   */\n      0x00\n        /* \"#utility.yul\":1435:1436   */\n      dup1\n        /* \"#utility.yul\":1428:1440   */\n      revert\n        /* \"#utility.yul\":1387:1442   */\n    tag_33:\n        /* \"#utility.yul\":1467:1469   */\n      dup2\n        /* \"#utility.yul\":1461:1470   */\n      mload\n        /* \"#utility.yul\":1489:1491   */\n      dup2\n        /* \"#utility.yul\":1485:1487   */\n      dup2\n        /* \"#utility.yul\":1482:1492   */\n      gt\n        /* \"#utility.yul\":1479:1515   */\n      iszero\n      tag_35\n      jumpi\n        /* \"#utility.yul\":1495:1513   */\n      tag_35\n      tag_18\n      jump\t// in\n    tag_35:\n        /* \"#utility.yul\":1570:1572   */\n      0x40\n        /* \"#utility.yul\":1564:1573   */\n      mload\n        /* \"#utility.yul\":1538:1540   */\n      0x1f\n        /* \"#utility.yul\":1624:1637   */\n      dup3\n      add\n      not(0x1f)\n        /* \"#utility.yul\":1620:1642   */\n      swap1\n      dup2\n      and\n        /* \"#utility.yul\":1644:1646   */\n      0x3f\n        /* \"#utility.yul\":1616:1647   */\n      add\n        /* \"#utility.yul\":1612:1652   */\n      and\n        /* \"#utility.yul\":1600:1653   */\n      dup2\n      add\n      swap1\n        /* \"#utility.yul\":1668:1686   */\n      dup4\n      dup3\n      gt\n        /* \"#utility.yul\":1688:1710   */\n      dup2\n      dup4\n      lt\n        /* \"#utility.yul\":1665:1711   */\n      or\n        /* \"#utility.yul\":1662:1734   */\n      iszero\n      tag_37\n      jumpi\n        /* \"#utility.yul\":1714:1732   */\n      tag_37\n      tag_18\n      jump\t// in\n    tag_37:\n        /* \"#utility.yul\":1754:1764   */\n      dup2\n        /* \"#utility.yul\":1750:1752   */\n      0x40\n        /* \"#utility.yul\":1743:1765   */\n      mstore\n        /* \"#utility.yul\":1789:1791   */\n      dup3\n        /* \"#utility.yul\":1781:1787   */\n      dup2\n        /* \"#utility.yul\":1774:1792   */\n      mstore\n        /* \"#utility.yul\":1829:1836   */\n      dup8\n        /* \"#utility.yul\":1824:1826   */\n      0x20\n        /* \"#utility.yul\":1819:1821   */\n      dup5\n        /* \"#utility.yul\":1815:1817   */\n      dup8\n        /* \"#utility.yul\":1811:1822   */\n      add\n        /* \"#utility.yul\":1807:1827   */\n      add\n        /* \"#utility.yul\":1804:1837   */\n      gt\n        /* \"#utility.yul\":1801:1854   */\n      iszero\n      tag_38\n      jumpi\n        /* \"#utility.yul\":1850:1851   */\n      0x00\n        /* \"#utility.yul\":1847:1848   */\n      dup1\n        /* \"#utility.yul\":1840:1852   */\n      revert\n        /* \"#utility.yul\":1801:1854   */\n    tag_38:\n        /* \"#utility.yul\":1863:1931   */\n      tag_39\n        /* \"#utility.yul\":1928:1930   */\n      dup4\n        /* \"#utility.yul\":1923:1925   */\n      0x20\n        /* \"#utility.yul\":1915:1921   */\n      dup4\n        /* \"#utility.yul\":1911:1926   */\n      add\n        /* \"#utility.yul\":1906:1908   */\n      0x20\n        /* \"#utility.yul\":1902:1904   */\n      dup9\n        /* \"#utility.yul\":1898:1909   */\n      add\n        /* \"#utility.yul\":1863:1931   */\n      tag_16\n      jump\t// in\n    tag_39:\n        /* \"#utility.yul\":1950:1956   */\n      swap8\n        /* \"#utility.yul\":1065:1962   */\n      swap7\n      pop\n      pop\n      pop\n      pop\n      pop\n      pop\n      pop\n      jump\t// out\n\n    auxdata: 0xa26469706673582212204a7968fd73ff6766c8d629046c078347a2c4f9dbf302581013534a91be8de34564736f6c63430008180033\n}\n\nsub_1: assembly {\n        /* \"contracts/13_HirarkiInheritance.sol\":206:224  contract C is B {} */\n      mstore(0x40, 0x80)\n      callvalue\n      dup1\n      iszero\n      tag_1\n      jumpi\n      0x00\n      dup1\n      revert\n    tag_1:\n      pop\n      dataSize(sub_0)\n      dup1\n      dataOffset(sub_0)\n      0x00\n      codecopy\n      0x00\n      return\n    stop\n\n    sub_0: assembly {\n            /* \"contracts/13_HirarkiInheritance.sol\":206:224  contract C is B {} */\n          mstore(0x40, 0x80)\n          callvalue\n          dup1\n          iszero\n          tag_1\n          jumpi\n          0x00\n          dup1\n          revert\n        tag_1:\n          pop\n          jumpi(tag_2, lt(calldatasize, 0x04))\n          shr(0xe0, calldataload(0x00))\n          dup1\n          0x2604e1bb\n          eq\n          tag_3\n          jumpi\n        tag_2:\n          0x00\n          dup1\n          revert\n            /* \"contracts/13_HirarkiInheritance.sol\":88:178  function fromA() external   pure returns(string memory) {... */\n        tag_3:\n            /* \"contracts/13_HirarkiInheritance.sol\":155:170  return \"from A\" */\n          0x40\n          dup1\n          mload\n          dup1\n          dup3\n          add\n          dup3\n          mstore\n          0x06\n          dup2\n          mstore\n          shl(0xd0, 0x66726f6d2041)\n          0x20\n          dup3\n          add\n          mstore\n            /* \"contracts/13_HirarkiInheritance.sol\":88:178  function fromA() external   pure returns(string memory) {... */\n          swap1\n          mload\n          tag_6\n          swap2\n            /* \"contracts/13_HirarkiInheritance.sol\":155:170  return \"from A\" */\n          swap1\n            /* \"contracts/13_HirarkiInheritance.sol\":88:178  function fromA() external   pure returns(string memory) {... */\n          tag_7\n          jump\t// in\n        tag_6:\n          mload(0x40)\n          dup1\n          swap2\n          sub\n          swap1\n          return\n            /* \"#utility.yul\":14:562   */\n        tag_7:\n            /* \"#utility.yul\":126:130   */\n          0x00\n            /* \"#utility.yul\":155:157   */\n          0x20\n            /* \"#utility.yul\":184:186   */\n          dup1\n            /* \"#utility.yul\":173:182   */\n          dup4\n            /* \"#utility.yul\":166:187   */\n          mstore\n            /* \"#utility.yul\":216:222   */\n          dup4\n            /* \"#utility.yul\":210:223   */\n          mload\n            /* \"#utility.yul\":259:265   */\n          dup1\n            /* \"#utility.yul\":254:256   */\n          0x20\n            /* \"#utility.yul\":243:252   */\n          dup6\n            /* \"#utility.yul\":239:257   */\n          add\n            /* \"#utility.yul\":232:266   */\n          mstore\n            /* \"#utility.yul\":284:285   */\n          0x00\n            /* \"#utility.yul\":294:434   */\n        tag_11:\n            /* \"#utility.yul\":308:314   */\n          dup2\n            /* \"#utility.yul\":305:306   */\n          dup2\n            /* \"#utility.yul\":302:315   */\n          lt\n            /* \"#utility.yul\":294:434   */\n          iszero\n          tag_13\n          jumpi\n            /* \"#utility.yul\":403:417   */\n          dup6\n          dup2\n          add\n            /* \"#utility.yul\":399:422   */\n          dup4\n          add\n            /* \"#utility.yul\":393:423   */\n          mload\n            /* \"#utility.yul\":369:386   */\n          dup6\n          dup3\n          add\n            /* \"#utility.yul\":388:390   */\n          0x40\n            /* \"#utility.yul\":365:391   */\n          add\n            /* \"#utility.yul\":358:424   */\n          mstore\n            /* \"#utility.yul\":323:333   */\n          dup3\n          add\n            /* \"#utility.yul\":294:434   */\n          jump(tag_11)\n        tag_13:\n            /* \"#utility.yul\":298:301   */\n          pop\n            /* \"#utility.yul\":483:484   */\n          0x00\n            /* \"#utility.yul\":478:480   */\n          0x40\n            /* \"#utility.yul\":469:475   */\n          dup3\n            /* \"#utility.yul\":458:467   */\n          dup7\n            /* \"#utility.yul\":454:476   */\n          add\n            /* \"#utility.yul\":450:481   */\n          add\n            /* \"#utility.yul\":443:485   */\n          mstore\n            /* \"#utility.yul\":553:555   */\n          0x40\n            /* \"#utility.yul\":546:548   */\n          0x1f\n            /* \"#utility.yul\":542:549   */\n          not\n            /* \"#utility.yul\":537:539   */\n          0x1f\n            /* \"#utility.yul\":529:535   */\n          dup4\n            /* \"#utility.yul\":525:540   */\n          add\n            /* \"#utility.yul\":521:550   */\n          and\n            /* \"#utility.yul\":510:519   */\n          dup6\n            /* \"#utility.yul\":506:551   */\n          add\n            /* \"#utility.yul\":502:556   */\n          add\n            /* \"#utility.yul\":494:556   */\n          swap3\n          pop\n          pop\n          pop\n            /* \"#utility.yul\":14:562   */\n          swap3\n          swap2\n          pop\n          pop\n          jump\t// out\n\n        auxdata: 0xa2646970667358221220f4362147fccf57d04d3962ef038d056568831c1563347f908c57f215f1989f0464736f6c63430008180033\n    }\n}\n\nsub_2: assembly {\n        /* \"contracts/13_HirarkiInheritance.sol\":185:202  contract B is A{} */\n      mstore(0x40, 0x80)\n      callvalue\n      dup1\n      iszero\n      tag_1\n      jumpi\n      0x00\n      dup1\n      revert\n    tag_1:\n      pop\n      dataSize(sub_0)\n      dup1\n      dataOffset(sub_0)\n      0x00\n      codecopy\n      0x00\n      return\n    stop\n\n    sub_0: assembly {\n            /* \"contracts/13_HirarkiInheritance.sol\":185:202  contract B is A{} */\n          mstore(0x40, 0x80)\n          callvalue\n          dup1\n          iszero\n          tag_1\n          jumpi\n          0x00\n          dup1\n          revert\n        tag_1:\n          pop\n          jumpi(tag_2, lt(calldatasize, 0x04))\n          shr(0xe0, calldataload(0x00))\n          dup1\n          0x2604e1bb\n          eq\n          tag_3\n          jumpi\n        tag_2:\n          0x00\n          dup1\n          revert\n            /* \"contracts/13_HirarkiInheritance.sol\":88:178  function fromA() external   pure returns(string memory) {... */\n        tag_3:\n            /* \"contracts/13_HirarkiInheritance.sol\":155:170  return \"from A\" */\n          0x40\n          dup1\n          mload\n          dup1\n          dup3\n          add\n          dup3\n          mstore\n          0x06\n          dup2\n          mstore\n          shl(0xd0, 0x66726f6d2041)\n          0x20\n          dup3\n          add\n          mstore\n            /* \"contracts/13_HirarkiInheritance.sol\":88:178  function fromA() external   pure returns(string memory) {... */\n          swap1\n          mload\n          tag_6\n          swap2\n            /* \"contracts/13_HirarkiInheritance.sol\":155:170  return \"from A\" */\n          swap1\n            /* \"contracts/13_HirarkiInheritance.sol\":88:178  function fromA() external   pure returns(string memory) {... */\n          tag_7\n          jump\t// in\n        tag_6:\n          mload(0x40)\n          dup1\n          swap2\n          sub\n          swap1\n          return\n            /* \"#utility.yul\":14:562   */\n        tag_7:\n            /* \"#utility.yul\":126:130   */\n          0x00\n            /* \"#utility.yul\":155:157   */\n          0x20\n            /* \"#utility.yul\":184:186   */\n          dup1\n            /* \"#utility.yul\":173:182   */\n          dup4\n            /* \"#utility.yul\":166:187   */\n          mstore\n            /* \"#utility.yul\":216:222   */\n          dup4\n            /* \"#utility.yul\":210:223   */\n          mload\n            /* \"#utility.yul\":259:265   */\n          dup1\n            /* \"#utility.yul\":254:256   */\n          0x20\n            /* \"#utility.yul\":243:252   */\n          dup6\n            /* \"#utility.yul\":239:257   */\n          add\n            /* \"#utility.yul\":232:266   */\n          mstore\n            /* \"#utility.yul\":284:285   */\n          0x00\n            /* \"#utility.yul\":294:434   */\n        tag_11:\n            /* \"#utility.yul\":308:314   */\n          dup2\n            /* \"#utility.yul\":305:306   */\n          dup2\n            /* \"#utility.yul\":302:315   */\n          lt\n            /* \"#utility.yul\":294:434   */\n          iszero\n          tag_13\n          jumpi\n            /* \"#utility.yul\":403:417   */\n          dup6\n          dup2\n          add\n            /* \"#utility.yul\":399:422   */\n          dup4\n          add\n            /* \"#utility.yul\":393:423   */\n          mload\n            /* \"#utility.yul\":369:386   */\n          dup6\n          dup3\n          add\n            /* \"#utility.yul\":388:390   */\n          0x40\n            /* \"#utility.yul\":365:391   */\n          add\n            /* \"#utility.yul\":358:424   */\n          mstore\n            /* \"#utility.yul\":323:333   */\n          dup3\n          add\n            /* \"#utility.yul\":294:434   */\n          jump(tag_11)\n        tag_13:\n            /* \"#utility.yul\":298:301   */\n          pop\n            /* \"#utility.yul\":483:484   */\n          0x00\n            /* \"#utility.yul\":478:480   */\n          0x40\n            /* \"#utility.yul\":469:475   */\n          dup3\n            /* \"#utility.yul\":458:467   */\n          dup7\n            /* \"#utility.yul\":454:476   */\n          add\n            /* \"#utility.yul\":450:481   */\n          add\n            /* \"#utility.yul\":443:485   */\n          mstore\n            /* \"#utility.yul\":553:555   */\n          0x40\n            /* \"#utility.yul\":546:548   */\n          0x1f\n            /* \"#utility.yul\":542:549   */\n          not\n            /* \"#utility.yul\":537:539   */\n          0x1f\n            /* \"#utility.yul\":529:535   */\n          dup4\n            /* \"#utility.yul\":525:540   */\n          add\n            /* \"#utility.yul\":521:550   */\n          and\n            /* \"#utility.yul\":510:519   */\n          dup6\n            /* \"#utility.yul\":506:551   */\n          add\n            /* \"#utility.yul\":502:556   */\n          add\n            /* \"#utility.yul\":494:556   */\n          swap3\n          pop\n          pop\n          pop\n            /* \"#utility.yul\":14:562   */\n          swap3\n          swap2\n          pop\n          pop\n          jump\t// out\n\n        auxdata: 0xa2646970667358221220e7cb3fef276c66ef8d5da2bbe296dab0891419624cf05dd8b5a2ea58cb34469b64736f6c63430008180033\n    }\n}\n",
				"bytecode": {
					"linkReferences": {},
					"object": "6080604052604051610010906100a0565b604051809103905ff080158015610029573d5f803e3d5ffd5b505f80546001600160a01b0319166001600160a01b0392909216919091179055604051610055906100ac565b604051809103905ff08015801561006e573d5f803e3d5ffd5b50600180546001600160a01b0319166001600160a01b039290921691909117905534801561009a575f80fd5b506100b8565b60f58061036883390190565b60f58061045d83390190565b6102a3806100c55f395ff3fe608060405234801561000f575f80fd5b5060043610610029575f3560e01c80636c3e51791461002d575b5f80fd5b61003561004c565b604051610043929190610184565b60405180910390f35b5f805460408051632604e1bb60e01b8152905160609384936001600160a01b031692632604e1bb92600480830193928290030181865afa158015610092573d5f803e3d5ffd5b505050506040513d5f823e601f3d908101601f191682016040526100b991908101906101c5565b60015f9054906101000a90046001600160a01b03166001600160a01b0316632604e1bb6040518163ffffffff1660e01b81526004015f60405180830381865afa158015610108573d5f803e3d5ffd5b505050506040513d5f823e601f3d908101601f1916820160405261012f91908101906101c5565b915091509091565b5f5b83811015610151578181015183820152602001610139565b50505f910152565b5f8151808452610170816020860160208601610137565b601f01601f19169290920160200192915050565b604081525f6101966040830185610159565b82810360208401526101a88185610159565b95945050505050565b634e487b7160e01b5f52604160045260245ffd5b5f602082840312156101d5575f80fd5b815167ffffffffffffffff808211156101ec575f80fd5b818401915084601f8301126101ff575f80fd5b815181811115610211576102116101b1565b604051601f8201601f19908116603f01168101908382118183101715610239576102396101b1565b81604052828152876020848701011115610251575f80fd5b610262836020830160208801610137565b97965050505050505056fea26469706673582212204a7968fd73ff6766c8d629046c078347a2c4f9dbf302581013534a91be8de34564736f6c63430008180033608060405234801561000f575f80fd5b5060d98061001c5f395ff3fe6080604052348015600e575f80fd5b50600436106026575f3560e01c80632604e1bb14602a575b5f80fd5b604080518082018252600681526566726f6d204160d01b60208201529051605091906059565b60405180910390f35b5f602080835283518060208501525f5b818110156083578581018301518582016040015282016069565b505f604082860101526040601f19601f830116850101925050509291505056fea2646970667358221220f4362147fccf57d04d3962ef038d056568831c1563347f908c57f215f1989f0464736f6c63430008180033608060405234801561000f575f80fd5b5060d98061001c5f395ff3fe6080604052348015600e575f80fd5b50600436106026575f3560e01c80632604e1bb14602a575b5f80fd5b604080518082018252600681526566726f6d204160d01b60208201529051605091906059565b60405180910390f35b5f602080835283518060208501525f5b818110156083578581018301518582016040015282016069565b505f604082860101526040601f19601f830116850101925050509291505056fea2646970667358221220e7cb3fef276c66ef8d5da2bbe296dab0891419624cf05dd8b5a2ea58cb34469b64736f6c63430008180033",
					"opcodes": "PUSH1 0x80 PUSH1 0x40 MSTORE PUSH1 0x40 MLOAD PUSH2 0x10 SWAP1 PUSH2 0xA0 JUMP JUMPDEST PUSH1 0x40 MLOAD DUP1 SWAP2 SUB SWAP1 PUSH0 CREATE DUP1 ISZERO DUP1 ISZERO PUSH2 0x29 JUMPI RETURNDATASIZE PUSH0 DUP1 RETURNDATACOPY RETURNDATASIZE PUSH0 REVERT JUMPDEST POP PUSH0 DUP1 SLOAD PUSH1 0x1 PUSH1 0x1 PUSH1 0xA0 SHL SUB NOT AND PUSH1 0x1 PUSH1 0x1 PUSH1 0xA0 SHL SUB SWAP3 SWAP1 SWAP3 AND SWAP2 SWAP1 SWAP2 OR SWAP1 SSTORE PUSH1 0x40 MLOAD PUSH2 0x55 SWAP1 PUSH2 0xAC JUMP JUMPDEST PUSH1 0x40 MLOAD DUP1 SWAP2 SUB SWAP1 PUSH0 CREATE DUP1 ISZERO DUP1 ISZERO PUSH2 0x6E JUMPI RETURNDATASIZE PUSH0 DUP1 RETURNDATACOPY RETURNDATASIZE PUSH0 REVERT JUMPDEST POP PUSH1 0x1 DUP1 SLOAD PUSH1 0x1 PUSH1 0x1 PUSH1 0xA0 SHL SUB NOT AND PUSH1 0x1 PUSH1 0x1 PUSH1 0xA0 SHL SUB SWAP3 SWAP1 SWAP3 AND SWAP2 SWAP1 SWAP2 OR SWAP1 SSTORE CALLVALUE DUP1 ISZERO PUSH2 0x9A JUMPI PUSH0 DUP1 REVERT JUMPDEST POP PUSH2 0xB8 JUMP JUMPDEST PUSH1 0xF5 DUP1 PUSH2 0x368 DUP4 CODECOPY ADD SWAP1 JUMP JUMPDEST PUSH1 0xF5 DUP1 PUSH2 0x45D DUP4 CODECOPY ADD SWAP1 JUMP JUMPDEST PUSH2 0x2A3 DUP1 PUSH2 0xC5 PUSH0 CODECOPY PUSH0 RETURN INVALID PUSH1 0x80 PUSH1 0x40 MSTORE CALLVALUE DUP1 ISZERO PUSH2 0xF JUMPI PUSH0 DUP1 REVERT JUMPDEST POP PUSH1 0x4 CALLDATASIZE LT PUSH2 0x29 JUMPI PUSH0 CALLDATALOAD PUSH1 0xE0 SHR DUP1 PUSH4 0x6C3E5179 EQ PUSH2 0x2D JUMPI JUMPDEST PUSH0 DUP1 REVERT JUMPDEST PUSH2 0x35 PUSH2 0x4C JUMP JUMPDEST PUSH1 0x40 MLOAD PUSH2 0x43 SWAP3 SWAP2 SWAP1 PUSH2 0x184 JUMP JUMPDEST PUSH1 0x40 MLOAD DUP1 SWAP2 SUB SWAP1 RETURN JUMPDEST PUSH0 DUP1 SLOAD PUSH1 0x40 DUP1 MLOAD PUSH4 0x2604E1BB PUSH1 0xE0 SHL DUP2 MSTORE SWAP1 MLOAD PUSH1 0x60 SWAP4 DUP5 SWAP4 PUSH1 0x1 PUSH1 0x1 PUSH1 0xA0 SHL SUB AND SWAP3 PUSH4 0x2604E1BB SWAP3 PUSH1 0x4 DUP1 DUP4 ADD SWAP4 SWAP3 DUP3 SWAP1 SUB ADD DUP2 DUP7 GAS STATICCALL ISZERO DUP1 ISZERO PUSH2 0x92 JUMPI RETURNDATASIZE PUSH0 DUP1 RETURNDATACOPY RETURNDATASIZE PUSH0 REVERT JUMPDEST POP POP POP POP PUSH1 0x40 MLOAD RETURNDATASIZE PUSH0 DUP3 RETURNDATACOPY PUSH1 0x1F RETURNDATASIZE SWAP1 DUP2 ADD PUSH1 0x1F NOT AND DUP3 ADD PUSH1 0x40 MSTORE PUSH2 0xB9 SWAP2 SWAP1 DUP2 ADD SWAP1 PUSH2 0x1C5 JUMP JUMPDEST PUSH1 0x1 PUSH0 SWAP1 SLOAD SWAP1 PUSH2 0x100 EXP SWAP1 DIV PUSH1 0x1 PUSH1 0x1 PUSH1 0xA0 SHL SUB AND PUSH1 0x1 PUSH1 0x1 PUSH1 0xA0 SHL SUB AND PUSH4 0x2604E1BB PUSH1 0x40 MLOAD DUP2 PUSH4 0xFFFFFFFF AND PUSH1 0xE0 SHL DUP2 MSTORE PUSH1 0x4 ADD PUSH0 PUSH1 0x40 MLOAD DUP1 DUP4 SUB DUP2 DUP7 GAS STATICCALL ISZERO DUP1 ISZERO PUSH2 0x108 JUMPI RETURNDATASIZE PUSH0 DUP1 RETURNDATACOPY RETURNDATASIZE PUSH0 REVERT JUMPDEST POP POP POP POP PUSH1 0x40 MLOAD RETURNDATASIZE PUSH0 DUP3 RETURNDATACOPY PUSH1 0x1F RETURNDATASIZE SWAP1 DUP2 ADD PUSH1 0x1F NOT AND DUP3 ADD PUSH1 0x40 MSTORE PUSH2 0x12F SWAP2 SWAP1 DUP2 ADD SWAP1 PUSH2 0x1C5 JUMP JUMPDEST SWAP2 POP SWAP2 POP SWAP1 SWAP2 JUMP JUMPDEST PUSH0 JUMPDEST DUP4 DUP2 LT ISZERO PUSH2 0x151 JUMPI DUP2 DUP2 ADD MLOAD DUP4 DUP3 ADD MSTORE PUSH1 0x20 ADD PUSH2 0x139 JUMP JUMPDEST POP POP PUSH0 SWAP2 ADD MSTORE JUMP JUMPDEST PUSH0 DUP2 MLOAD DUP1 DUP5 MSTORE PUSH2 0x170 DUP2 PUSH1 0x20 DUP7 ADD PUSH1 0x20 DUP7 ADD PUSH2 0x137 JUMP JUMPDEST PUSH1 0x1F ADD PUSH1 0x1F NOT AND SWAP3 SWAP1 SWAP3 ADD PUSH1 0x20 ADD SWAP3 SWAP2 POP POP JUMP JUMPDEST PUSH1 0x40 DUP2 MSTORE PUSH0 PUSH2 0x196 PUSH1 0x40 DUP4 ADD DUP6 PUSH2 0x159 JUMP JUMPDEST DUP3 DUP2 SUB PUSH1 0x20 DUP5 ADD MSTORE PUSH2 0x1A8 DUP2 DUP6 PUSH2 0x159 JUMP JUMPDEST SWAP6 SWAP5 POP POP POP POP POP JUMP JUMPDEST PUSH4 0x4E487B71 PUSH1 0xE0 SHL PUSH0 MSTORE PUSH1 0x41 PUSH1 0x4 MSTORE PUSH1 0x24 PUSH0 REVERT JUMPDEST PUSH0 PUSH1 0x20 DUP3 DUP5 SUB SLT ISZERO PUSH2 0x1D5 JUMPI PUSH0 DUP1 REVERT JUMPDEST DUP2 MLOAD PUSH8 0xFFFFFFFFFFFFFFFF DUP1 DUP3 GT ISZERO PUSH2 0x1EC JUMPI PUSH0 DUP1 REVERT JUMPDEST DUP2 DUP5 ADD SWAP2 POP DUP5 PUSH1 0x1F DUP4 ADD SLT PUSH2 0x1FF JUMPI PUSH0 DUP1 REVERT JUMPDEST DUP2 MLOAD DUP2 DUP2 GT ISZERO PUSH2 0x211 JUMPI PUSH2 0x211 PUSH2 0x1B1 JUMP JUMPDEST PUSH1 0x40 MLOAD PUSH1 0x1F DUP3 ADD PUSH1 0x1F NOT SWAP1 DUP2 AND PUSH1 0x3F ADD AND DUP2 ADD SWAP1 DUP4 DUP3 GT DUP2 DUP4 LT OR ISZERO PUSH2 0x239 JUMPI PUSH2 0x239 PUSH2 0x1B1 JUMP JUMPDEST DUP2 PUSH1 0x40 MSTORE DUP3 DUP2 MSTORE DUP8 PUSH1 0x20 DUP5 DUP8 ADD ADD GT ISZERO PUSH2 0x251 JUMPI PUSH0 DUP1 REVERT JUMPDEST PUSH2 0x262 DUP4 PUSH1 0x20 DUP4 ADD PUSH1 0x20 DUP9 ADD PUSH2 0x137 JUMP JUMPDEST SWAP8 SWAP7 POP POP POP POP POP POP POP JUMP INVALID LOG2 PUSH5 0x6970667358 0x22 SLT KECCAK256 BLOBBASEFEE PUSH26 0x68FD73FF6766C8D629046C078347A2C4F9DBF302581013534A91 0xBE DUP14 0xE3 GASLIMIT PUSH5 0x736F6C6343 STOP ADDMOD XOR STOP CALLER PUSH1 0x80 PUSH1 0x40 MSTORE CALLVALUE DUP1 ISZERO PUSH2 0xF JUMPI PUSH0 DUP1 REVERT JUMPDEST POP PUSH1 0xD9 DUP1 PUSH2 0x1C PUSH0 CODECOPY PUSH0 RETURN INVALID PUSH1 0x80 PUSH1 0x40 MSTORE CALLVALUE DUP1 ISZERO PUSH1 0xE JUMPI PUSH0 DUP1 REVERT JUMPDEST POP PUSH1 0x4 CALLDATASIZE LT PUSH1 0x26 JUMPI PUSH0 CALLDATALOAD PUSH1 0xE0 SHR DUP1 PUSH4 0x2604E1BB EQ PUSH1 0x2A JUMPI JUMPDEST PUSH0 DUP1 REVERT JUMPDEST PUSH1 0x40 DUP1 MLOAD DUP1 DUP3 ADD DUP3 MSTORE PUSH1 0x6 DUP2 MSTORE PUSH6 0x66726F6D2041 PUSH1 0xD0 SHL PUSH1 0x20 DUP3 ADD MSTORE SWAP1 MLOAD PUSH1 0x50 SWAP2 SWAP1 PUSH1 0x59 JUMP JUMPDEST PUSH1 0x40 MLOAD DUP1 SWAP2 SUB SWAP1 RETURN JUMPDEST PUSH0 PUSH1 0x20 DUP1 DUP4 MSTORE DUP4 MLOAD DUP1 PUSH1 0x20 DUP6 ADD MSTORE PUSH0 JUMPDEST DUP2 DUP2 LT ISZERO PUSH1 0x83 JUMPI DUP6 DUP2 ADD DUP4 ADD MLOAD DUP6 DUP3 ADD PUSH1 0x40 ADD MSTORE DUP3 ADD PUSH1 0x69 JUMP JUMPDEST POP PUSH0 PUSH1 0x40 DUP3 DUP7 ADD ADD MSTORE PUSH1 0x40 PUSH1 0x1F NOT PUSH1 0x1F DUP4 ADD AND DUP6 ADD ADD SWAP3 POP POP POP SWAP3 SWAP2 POP POP JUMP INVALID LOG2 PUSH5 0x6970667358 0x22 SLT KECCAK256 DELEGATECALL CALLDATASIZE 0x21 SELFBALANCE 0xFC 0xCF JUMPI 0xD0 0x4D CODECOPY PUSH3 0xEF038D SDIV PUSH6 0x68831C156334 PUSH32 0x908C57F215F1989F0464736F6C63430008180033608060405234801561000F57 PUSH0 DUP1 REVERT JUMPDEST POP PUSH1 0xD9 DUP1 PUSH2 0x1C PUSH0 CODECOPY PUSH0 RETURN INVALID PUSH1 0x80 PUSH1 0x40 MSTORE CALLVALUE DUP1 ISZERO PUSH1 0xE JUMPI PUSH0 DUP1 REVERT JUMPDEST POP PUSH1 0x4 CALLDATASIZE LT PUSH1 0x26 JUMPI PUSH0 CALLDATALOAD PUSH1 0xE0 SHR DUP1 PUSH4 0x2604E1BB EQ PUSH1 0x2A JUMPI JUMPDEST PUSH0 DUP1 REVERT JUMPDEST PUSH1 0x40 DUP1 MLOAD DUP1 DUP3 ADD DUP3 MSTORE PUSH1 0x6 DUP2 MSTORE PUSH6 0x66726F6D2041 PUSH1 0xD0 SHL PUSH1 0x20 DUP3 ADD MSTORE SWAP1 MLOAD PUSH1 0x50 SWAP2 SWAP1 PUSH1 0x59 JUMP JUMPDEST PUSH1 0x40 MLOAD DUP1 SWAP2 SUB SWAP1 RETURN JUMPDEST PUSH0 PUSH1 0x20 DUP1 DUP4 MSTORE DUP4 MLOAD DUP1 PUSH1 0x20 DUP6 ADD MSTORE PUSH0 JUMPDEST DUP2 DUP2 LT ISZERO PUSH1 0x83 JUMPI DUP6 DUP2 ADD DUP4 ADD MLOAD DUP6 DUP3 ADD PUSH1 0x40 ADD MSTORE DUP3 ADD PUSH1 0x69 JUMP JUMPDEST POP PUSH0 PUSH1 0x40 DUP3 DUP7 ADD ADD MSTORE PUSH1 0x40 PUSH1 0x1F NOT PUSH1 0x1F DUP4 ADD AND DUP6 ADD ADD SWAP3 POP POP POP SWAP3 SWAP2 POP POP JUMP INVALID LOG2 PUSH5 0x6970667358 0x22 SLT KECCAK256 0xE7 0xCB EXTCODEHASH 0xEF 0x27 PUSH13 0x66EF8D5DA2BBE296DAB0891419 PUSH3 0x4CF05D 0xD8 0xB5 LOG2 0xEA PC 0xCB CALLVALUE CHAINID SWAP12 PUSH5 0x736F6C6343 STOP ADDMOD XOR STOP CALLER "
				},
				"gasEstimates": {
					"creation": {
						"codeDepositCost": "135000",
						"executionCost": "infinite",
						"totalCost": "infinite"
					},
					"external": {
						"fromCaller()": "infinite"
					}
				},
				"methodIdentifiers": {
					"fromCaller()": "6c3e5179"
				}
			},
			"storageLayout": {
				"storage": [
					{
						"astId": 23,
						"contract": "contracts/13_HirarkiInheritance.sol:caller",
						"label": "c",
						"offset": 0,
						"slot": "0",
						"type": "t_contract(C)16"
					},
					{
						"astId": 30,
						"contract": "contracts/13_HirarkiInheritance.sol:caller",
						"label": "b",
						"offset": 0,
						"slot": "1",
						"type": "t_contract(B)13"
					}
				],
				"types": {
					"t_contract(B)13": {
						"encoding": "inplace",
						"label": "contract B",
						"numberOfBytes": "20"
					},
					"t_contract(C)16": {
						"encoding": "inplace",
						"label": "contract C",
						"numberOfBytes": "20"
					}
				}
			},
			"userdoc": {
				"kind": "user",
				"methods": {},
				"version": 1
			}
		}
	}
}