{
	"contracts/8_Mapping.sol": {
		"MapingContract": {
			"abi": [
				{
					"inputs": [
						{
							"internalType": "address",
							"name": "_adrs",
							"type": "address"
						}
					],
					"name": "getMap",
					"outputs": [
						{
							"internalType": "address",
							"name": "",
							"type": "address"
						}
					],
					"stateMutability": "view",
					"type": "function"
				},
				{
					"inputs": [
						{
							"internalType": "address",
							"name": "_adrs",
							"type": "address"
						},
						{
							"internalType": "uint256",
							"name": "_idx",
							"type": "uint256"
						}
					],
					"name": "getMapNested",
					"outputs": [
						{
							"internalType": "bool",
							"name": "",
							"type": "bool"
						}
					],
					"stateMutability": "view",
					"type": "function"
				},
				{
					"inputs": [
						{
							"internalType": "address",
							"name": "_adrs",
							"type": "address"
						}
					],
					"name": "setMap",
					"outputs": [],
					"stateMutability": "nonpayable",
					"type": "function"
				},
				{
					"inputs": [
						{
							"internalType": "address",
							"name": "_adrs",
							"type": "address"
						},
						{
							"internalType": "uint256",
							"name": "_idx",
							"type": "uint256"
						},
						{
							"internalType": "bool",
							"name": "_ys",
							"type": "bool"
						}
					],
					"name": "setMapNested",
					"outputs": [],
					"stateMutability": "nonpayable",
					"type": "function"
				}
			],
			"devdoc": {
				"kind": "dev",
				"methods": {},
				"version": 1
			},
			"evm": {
				"assembly": "    /* \"contracts/8_Mapping.sol\":70:1028  contract MapingContract {... */\n  mstore(0x40, 0x80)\n  callvalue\n  dup1\n  iszero\n  tag_1\n  jumpi\n  0x00\n  dup1\n  revert\ntag_1:\n  pop\n  dataSize(sub_0)\n  dup1\n  dataOffset(sub_0)\n  0x00\n  codecopy\n  0x00\n  return\nstop\n\nsub_0: assembly {\n        /* \"contracts/8_Mapping.sol\":70:1028  contract MapingContract {... */\n      mstore(0x40, 0x80)\n      callvalue\n      dup1\n      iszero\n      tag_1\n      jumpi\n      0x00\n      dup1\n      revert\n    tag_1:\n      pop\n      jumpi(tag_2, lt(calldatasize, 0x04))\n      shr(0xe0, calldataload(0x00))\n      dup1\n      0x1947bd2f\n      eq\n      tag_3\n      jumpi\n      dup1\n      0x3a8b6b23\n      eq\n      tag_4\n      jumpi\n      dup1\n      0x4493b8f7\n      eq\n      tag_5\n      jumpi\n      dup1\n      0x4bd83866\n      eq\n      tag_6\n      jumpi\n    tag_2:\n      0x00\n      dup1\n      revert\n        /* \"contracts/8_Mapping.sol\":368:541  function getMap(address _adrs) public view returns(address) {... */\n    tag_3:\n      tag_7\n      tag_8\n      calldatasize\n      0x04\n      tag_9\n      jump\t// in\n    tag_8:\n      sub(shl(0xa0, 0x01), 0x01)\n        /* \"contracts/8_Mapping.sol\":521:533  myMap[_adrs] */\n      swap1\n      dup2\n      and\n        /* \"contracts/8_Mapping.sol\":419:426  address */\n      0x00\n        /* \"contracts/8_Mapping.sol\":521:533  myMap[_adrs] */\n      swap1\n      dup2\n      mstore\n      0x20\n      dup2\n      swap1\n      mstore\n      0x40\n      swap1\n      keccak256\n      sload\n      and\n      swap1\n        /* \"contracts/8_Mapping.sol\":368:541  function getMap(address _adrs) public view returns(address) {... */\n      jump\n    tag_7:\n      mload(0x40)\n      sub(shl(0xa0, 0x01), 0x01)\n        /* \"#utility.yul\":547:579   */\n      swap1\n      swap2\n      and\n        /* \"#utility.yul\":529:580   */\n      dup2\n      mstore\n        /* \"#utility.yul\":517:519   */\n      0x20\n        /* \"#utility.yul\":502:520   */\n      add\n        /* \"contracts/8_Mapping.sol\":368:541  function getMap(address _adrs) public view returns(address) {... */\n    tag_11:\n      mload(0x40)\n      dup1\n      swap2\n      sub\n      swap1\n      return\n        /* \"contracts/8_Mapping.sol\":632:821  function setMapNested(address _adrs, uint _idx, bool _ys) public {... */\n    tag_4:\n      tag_13\n      tag_14\n      calldatasize\n      0x04\n      tag_15\n      jump\t// in\n    tag_14:\n      sub(shl(0xa0, 0x01), 0x01)\n        /* \"contracts/8_Mapping.sol\":786:801  myNested[_adrs] */\n      swap3\n      swap1\n      swap3\n      and\n      0x00\n      swap1\n      dup2\n      mstore\n        /* \"contracts/8_Mapping.sol\":786:794  myNested */\n      0x01\n        /* \"contracts/8_Mapping.sol\":786:801  myNested[_adrs] */\n      0x20\n      swap1\n      dup2\n      mstore\n      0x40\n      dup1\n      dup4\n      keccak256\n        /* \"contracts/8_Mapping.sol\":786:807  myNested[_adrs][_idx] */\n      swap4\n      dup4\n      mstore\n      swap3\n      swap1\n      mstore\n      keccak256\n        /* \"contracts/8_Mapping.sol\":786:813  myNested[_adrs][_idx] = _ys */\n      dup1\n      sload\n      not(0xff)\n      and\n      swap2\n      iszero\n      iszero\n      swap2\n      swap1\n      swap2\n      or\n      swap1\n      sstore\n        /* \"contracts/8_Mapping.sol\":632:821  function setMapNested(address _adrs, uint _idx, bool _ys) public {... */\n      jump\n    tag_13:\n      stop\n        /* \"contracts/8_Mapping.sol\":200:360  function setMap(address _adrs) public {... */\n    tag_5:\n      tag_13\n      tag_18\n      calldatasize\n      0x04\n      tag_9\n      jump\t// in\n    tag_18:\n      sub(shl(0xa0, 0x01), 0x01)\n        /* \"contracts/8_Mapping.sol\":327:339  myMap[_adrs] */\n      and\n        /* \"contracts/8_Mapping.sol\":327:332  myMap */\n      0x00\n        /* \"contracts/8_Mapping.sol\":327:339  myMap[_adrs] */\n      swap1\n      dup2\n      mstore\n      0x20\n      dup2\n      swap1\n      mstore\n      0x40\n      swap1\n      keccak256\n        /* \"contracts/8_Mapping.sol\":327:352  myMap[_adrs] = msg.sender */\n      dup1\n      sload\n      not(sub(shl(0xa0, 0x01), 0x01))\n      and\n        /* \"contracts/8_Mapping.sol\":342:352  msg.sender */\n      caller\n        /* \"contracts/8_Mapping.sol\":327:352  myMap[_adrs] = msg.sender */\n      or\n      swap1\n      sstore\n        /* \"contracts/8_Mapping.sol\":200:360  function setMap(address _adrs) public {... */\n      jump\n        /* \"contracts/8_Mapping.sol\":829:1025  function getMapNested(address _adrs, uint _idx) public view returns(bool) {... */\n    tag_6:\n      tag_20\n      tag_21\n      calldatasize\n      0x04\n      tag_22\n      jump\t// in\n    tag_21:\n      sub(shl(0xa0, 0x01), 0x01)\n        /* \"contracts/8_Mapping.sol\":996:1011  myNested[_adrs] */\n      swap2\n      swap1\n      swap2\n      and\n        /* \"contracts/8_Mapping.sol\":897:901  bool */\n      0x00\n        /* \"contracts/8_Mapping.sol\":996:1011  myNested[_adrs] */\n      swap1\n      dup2\n      mstore\n        /* \"contracts/8_Mapping.sol\":996:1004  myNested */\n      0x01\n        /* \"contracts/8_Mapping.sol\":996:1011  myNested[_adrs] */\n      0x20\n      swap1\n      dup2\n      mstore\n      0x40\n      dup1\n      dup4\n      keccak256\n        /* \"contracts/8_Mapping.sol\":996:1017  myNested[_adrs][_idx] */\n      swap4\n      dup4\n      mstore\n      swap3\n      swap1\n      mstore\n      keccak256\n      sload\n      0xff\n      and\n      swap1\n        /* \"contracts/8_Mapping.sol\":829:1025  function getMapNested(address _adrs, uint _idx) public view returns(bool) {... */\n      jump\n    tag_20:\n      mload(0x40)\n        /* \"#utility.yul\":1435:1449   */\n      swap1\n      iszero\n        /* \"#utility.yul\":1428:1450   */\n      iszero\n        /* \"#utility.yul\":1410:1451   */\n      dup2\n      mstore\n        /* \"#utility.yul\":1398:1400   */\n      0x20\n        /* \"#utility.yul\":1383:1401   */\n      add\n        /* \"contracts/8_Mapping.sol\":829:1025  function getMapNested(address _adrs, uint _idx) public view returns(bool) {... */\n      tag_11\n        /* \"#utility.yul\":1270:1457   */\n      jump\n        /* \"#utility.yul\":14:187   */\n    tag_30:\n        /* \"#utility.yul\":82:102   */\n      dup1\n      calldataload\n      sub(shl(0xa0, 0x01), 0x01)\n        /* \"#utility.yul\":131:162   */\n      dup2\n      and\n        /* \"#utility.yul\":121:163   */\n      dup2\n      eq\n        /* \"#utility.yul\":111:181   */\n      tag_33\n      jumpi\n        /* \"#utility.yul\":177:178   */\n      0x00\n        /* \"#utility.yul\":174:175   */\n      dup1\n        /* \"#utility.yul\":167:179   */\n      revert\n        /* \"#utility.yul\":111:181   */\n    tag_33:\n        /* \"#utility.yul\":14:187   */\n      swap2\n      swap1\n      pop\n      jump\t// out\n        /* \"#utility.yul\":192:378   */\n    tag_9:\n        /* \"#utility.yul\":251:257   */\n      0x00\n        /* \"#utility.yul\":304:306   */\n      0x20\n        /* \"#utility.yul\":292:301   */\n      dup3\n        /* \"#utility.yul\":283:290   */\n      dup5\n        /* \"#utility.yul\":279:302   */\n      sub\n        /* \"#utility.yul\":275:307   */\n      slt\n        /* \"#utility.yul\":272:324   */\n      iszero\n      tag_35\n      jumpi\n        /* \"#utility.yul\":320:321   */\n      0x00\n        /* \"#utility.yul\":317:318   */\n      dup1\n        /* \"#utility.yul\":310:322   */\n      revert\n        /* \"#utility.yul\":272:324   */\n    tag_35:\n        /* \"#utility.yul\":343:372   */\n      tag_36\n        /* \"#utility.yul\":362:371   */\n      dup3\n        /* \"#utility.yul\":343:372   */\n      tag_30\n      jump\t// in\n    tag_36:\n        /* \"#utility.yul\":333:372   */\n      swap4\n        /* \"#utility.yul\":192:378   */\n      swap3\n      pop\n      pop\n      pop\n      jump\t// out\n        /* \"#utility.yul\":591:1006   */\n    tag_15:\n        /* \"#utility.yul\":665:671   */\n      0x00\n        /* \"#utility.yul\":673:679   */\n      dup1\n        /* \"#utility.yul\":681:687   */\n      0x00\n        /* \"#utility.yul\":734:736   */\n      0x60\n        /* \"#utility.yul\":722:731   */\n      dup5\n        /* \"#utility.yul\":713:720   */\n      dup7\n        /* \"#utility.yul\":709:732   */\n      sub\n        /* \"#utility.yul\":705:737   */\n      slt\n        /* \"#utility.yul\":702:754   */\n      iszero\n      tag_39\n      jumpi\n        /* \"#utility.yul\":750:751   */\n      0x00\n        /* \"#utility.yul\":747:748   */\n      dup1\n        /* \"#utility.yul\":740:752   */\n      revert\n        /* \"#utility.yul\":702:754   */\n    tag_39:\n        /* \"#utility.yul\":773:802   */\n      tag_40\n        /* \"#utility.yul\":792:801   */\n      dup5\n        /* \"#utility.yul\":773:802   */\n      tag_30\n      jump\t// in\n    tag_40:\n        /* \"#utility.yul\":763:802   */\n      swap3\n      pop\n        /* \"#utility.yul\":849:851   */\n      0x20\n        /* \"#utility.yul\":838:847   */\n      dup5\n        /* \"#utility.yul\":834:852   */\n      add\n        /* \"#utility.yul\":821:853   */\n      calldataload\n        /* \"#utility.yul\":811:853   */\n      swap2\n      pop\n        /* \"#utility.yul\":903:905   */\n      0x40\n        /* \"#utility.yul\":892:901   */\n      dup5\n        /* \"#utility.yul\":888:906   */\n      add\n        /* \"#utility.yul\":875:907   */\n      calldataload\n        /* \"#utility.yul\":950:955   */\n      dup1\n        /* \"#utility.yul\":943:956   */\n      iszero\n        /* \"#utility.yul\":936:957   */\n      iszero\n        /* \"#utility.yul\":929:934   */\n      dup2\n        /* \"#utility.yul\":926:958   */\n      eq\n        /* \"#utility.yul\":916:976   */\n      tag_41\n      jumpi\n        /* \"#utility.yul\":972:973   */\n      0x00\n        /* \"#utility.yul\":969:970   */\n      dup1\n        /* \"#utility.yul\":962:974   */\n      revert\n        /* \"#utility.yul\":916:976   */\n    tag_41:\n        /* \"#utility.yul\":995:1000   */\n      dup1\n        /* \"#utility.yul\":985:1000   */\n      swap2\n      pop\n      pop\n        /* \"#utility.yul\":591:1006   */\n      swap3\n      pop\n      swap3\n      pop\n      swap3\n      jump\t// out\n        /* \"#utility.yul\":1011:1265   */\n    tag_22:\n        /* \"#utility.yul\":1079:1085   */\n      0x00\n        /* \"#utility.yul\":1087:1093   */\n      dup1\n        /* \"#utility.yul\":1140:1142   */\n      0x40\n        /* \"#utility.yul\":1128:1137   */\n      dup4\n        /* \"#utility.yul\":1119:1126   */\n      dup6\n        /* \"#utility.yul\":1115:1138   */\n      sub\n        /* \"#utility.yul\":1111:1143   */\n      slt\n        /* \"#utility.yul\":1108:1160   */\n      iszero\n      tag_43\n      jumpi\n        /* \"#utility.yul\":1156:1157   */\n      0x00\n        /* \"#utility.yul\":1153:1154   */\n      dup1\n        /* \"#utility.yul\":1146:1158   */\n      revert\n        /* \"#utility.yul\":1108:1160   */\n    tag_43:\n        /* \"#utility.yul\":1179:1208   */\n      tag_44\n        /* \"#utility.yul\":1198:1207   */\n      dup4\n        /* \"#utility.yul\":1179:1208   */\n      tag_30\n      jump\t// in\n    tag_44:\n        /* \"#utility.yul\":1169:1208   */\n      swap5\n        /* \"#utility.yul\":1255:1257   */\n      0x20\n        /* \"#utility.yul\":1240:1258   */\n      swap4\n      swap1\n      swap4\n      add\n        /* \"#utility.yul\":1227:1259   */\n      calldataload\n      swap4\n      pop\n      pop\n      pop\n        /* \"#utility.yul\":1011:1265   */\n      jump\t// out\n\n    auxdata: 0xa26469706673582212209245362e97d68ec6e853c68a6194f894504a7488bbab9cad993a2e4e2fe9f53964736f6c63430008180033\n}\n",
				"bytecode": {
					"linkReferences": {},
					"object": "608060405234801561000f575f80fd5b506102328061001d5f395ff3fe608060405234801561000f575f80fd5b506004361061004a575f3560e01c80631947bd2f1461004e5780633a8b6b23146100965780634493b8f7146100da5780634bd8386614610110575b5f80fd5b61007961005c366004610173565b6001600160a01b039081165f908152602081905260409020541690565b6040516001600160a01b0390911681526020015b60405180910390f35b6100d86100a4366004610193565b6001600160a01b03929092165f90815260016020908152604080832093835292905220805460ff1916911515919091179055565b005b6100d86100e8366004610173565b6001600160a01b03165f90815260208190526040902080546001600160a01b03191633179055565b61014861011e3660046101d4565b6001600160a01b03919091165f908152600160209081526040808320938352929052205460ff1690565b604051901515815260200161008d565b80356001600160a01b038116811461016e575f80fd5b919050565b5f60208284031215610183575f80fd5b61018c82610158565b9392505050565b5f805f606084860312156101a5575f80fd5b6101ae84610158565b925060208401359150604084013580151581146101c9575f80fd5b809150509250925092565b5f80604083850312156101e5575f80fd5b6101ee83610158565b94602093909301359350505056fea26469706673582212209245362e97d68ec6e853c68a6194f894504a7488bbab9cad993a2e4e2fe9f53964736f6c63430008180033",
					"opcodes": "PUSH1 0x80 PUSH1 0x40 MSTORE CALLVALUE DUP1 ISZERO PUSH2 0xF JUMPI PUSH0 DUP1 REVERT JUMPDEST POP PUSH2 0x232 DUP1 PUSH2 0x1D PUSH0 CODECOPY PUSH0 RETURN INVALID PUSH1 0x80 PUSH1 0x40 MSTORE CALLVALUE DUP1 ISZERO PUSH2 0xF JUMPI PUSH0 DUP1 REVERT JUMPDEST POP PUSH1 0x4 CALLDATASIZE LT PUSH2 0x4A JUMPI PUSH0 CALLDATALOAD PUSH1 0xE0 SHR DUP1 PUSH4 0x1947BD2F EQ PUSH2 0x4E JUMPI DUP1 PUSH4 0x3A8B6B23 EQ PUSH2 0x96 JUMPI DUP1 PUSH4 0x4493B8F7 EQ PUSH2 0xDA JUMPI DUP1 PUSH4 0x4BD83866 EQ PUSH2 0x110 JUMPI JUMPDEST PUSH0 DUP1 REVERT JUMPDEST PUSH2 0x79 PUSH2 0x5C CALLDATASIZE PUSH1 0x4 PUSH2 0x173 JUMP JUMPDEST PUSH1 0x1 PUSH1 0x1 PUSH1 0xA0 SHL SUB SWAP1 DUP2 AND PUSH0 SWAP1 DUP2 MSTORE PUSH1 0x20 DUP2 SWAP1 MSTORE PUSH1 0x40 SWAP1 KECCAK256 SLOAD AND SWAP1 JUMP JUMPDEST PUSH1 0x40 MLOAD PUSH1 0x1 PUSH1 0x1 PUSH1 0xA0 SHL SUB SWAP1 SWAP2 AND DUP2 MSTORE PUSH1 0x20 ADD JUMPDEST PUSH1 0x40 MLOAD DUP1 SWAP2 SUB SWAP1 RETURN JUMPDEST PUSH2 0xD8 PUSH2 0xA4 CALLDATASIZE PUSH1 0x4 PUSH2 0x193 JUMP JUMPDEST PUSH1 0x1 PUSH1 0x1 PUSH1 0xA0 SHL SUB SWAP3 SWAP1 SWAP3 AND PUSH0 SWAP1 DUP2 MSTORE PUSH1 0x1 PUSH1 0x20 SWAP1 DUP2 MSTORE PUSH1 0x40 DUP1 DUP4 KECCAK256 SWAP4 DUP4 MSTORE SWAP3 SWAP1 MSTORE KECCAK256 DUP1 SLOAD PUSH1 0xFF NOT AND SWAP2 ISZERO ISZERO SWAP2 SWAP1 SWAP2 OR SWAP1 SSTORE JUMP JUMPDEST STOP JUMPDEST PUSH2 0xD8 PUSH2 0xE8 CALLDATASIZE PUSH1 0x4 PUSH2 0x173 JUMP JUMPDEST PUSH1 0x1 PUSH1 0x1 PUSH1 0xA0 SHL SUB AND PUSH0 SWAP1 DUP2 MSTORE PUSH1 0x20 DUP2 SWAP1 MSTORE PUSH1 0x40 SWAP1 KECCAK256 DUP1 SLOAD PUSH1 0x1 PUSH1 0x1 PUSH1 0xA0 SHL SUB NOT AND CALLER OR SWAP1 SSTORE JUMP JUMPDEST PUSH2 0x148 PUSH2 0x11E CALLDATASIZE PUSH1 0x4 PUSH2 0x1D4 JUMP JUMPDEST PUSH1 0x1 PUSH1 0x1 PUSH1 0xA0 SHL SUB SWAP2 SWAP1 SWAP2 AND PUSH0 SWAP1 DUP2 MSTORE PUSH1 0x1 PUSH1 0x20 SWAP1 DUP2 MSTORE PUSH1 0x40 DUP1 DUP4 KECCAK256 SWAP4 DUP4 MSTORE SWAP3 SWAP1 MSTORE KECCAK256 SLOAD PUSH1 0xFF AND SWAP1 JUMP JUMPDEST PUSH1 0x40 MLOAD SWAP1 ISZERO ISZERO DUP2 MSTORE PUSH1 0x20 ADD PUSH2 0x8D JUMP JUMPDEST DUP1 CALLDATALOAD PUSH1 0x1 PUSH1 0x1 PUSH1 0xA0 SHL SUB DUP2 AND DUP2 EQ PUSH2 0x16E JUMPI PUSH0 DUP1 REVERT JUMPDEST SWAP2 SWAP1 POP JUMP JUMPDEST PUSH0 PUSH1 0x20 DUP3 DUP5 SUB SLT ISZERO PUSH2 0x183 JUMPI PUSH0 DUP1 REVERT JUMPDEST PUSH2 0x18C DUP3 PUSH2 0x158 JUMP JUMPDEST SWAP4 SWAP3 POP POP POP JUMP JUMPDEST PUSH0 DUP1 PUSH0 PUSH1 0x60 DUP5 DUP7 SUB SLT ISZERO PUSH2 0x1A5 JUMPI PUSH0 DUP1 REVERT JUMPDEST PUSH2 0x1AE DUP5 PUSH2 0x158 JUMP JUMPDEST SWAP3 POP PUSH1 0x20 DUP5 ADD CALLDATALOAD SWAP2 POP PUSH1 0x40 DUP5 ADD CALLDATALOAD DUP1 ISZERO ISZERO DUP2 EQ PUSH2 0x1C9 JUMPI PUSH0 DUP1 REVERT JUMPDEST DUP1 SWAP2 POP POP SWAP3 POP SWAP3 POP SWAP3 JUMP JUMPDEST PUSH0 DUP1 PUSH1 0x40 DUP4 DUP6 SUB SLT ISZERO PUSH2 0x1E5 JUMPI PUSH0 DUP1 REVERT JUMPDEST PUSH2 0x1EE DUP4 PUSH2 0x158 JUMP JUMPDEST SWAP5 PUSH1 0x20 SWAP4 SWAP1 SWAP4 ADD CALLDATALOAD SWAP4 POP POP POP JUMP INVALID LOG2 PUSH5 0x6970667358 0x22 SLT KECCAK256 SWAP3 GASLIMIT CALLDATASIZE 0x2E SWAP8 0xD6 DUP15 0xC6 0xE8 MSTORE8 0xC6 DUP11 PUSH2 0x94F8 SWAP5 POP BLOBBASEFEE PUSH21 0x88BBAB9CAD993A2E4E2FE9F53964736F6C63430008 XOR STOP CALLER "
				},
				"gasEstimates": {
					"creation": {
						"codeDepositCost": "112400",
						"executionCost": "157",
						"totalCost": "112557"
					},
					"external": {
						"getMap(address)": "2534",
						"getMapNested(address,uint256)": "2689",
						"setMap(address)": "24631",
						"setMapNested(address,uint256,bool)": "24767"
					}
				},
				"methodIdentifiers": {
					"getMap(address)": "1947bd2f",
					"getMapNested(address,uint256)": "4bd83866",
					"setMap(address)": "4493b8f7",
					"setMapNested(address,uint256,bool)": "3a8b6b23"
				}
			},
			"storageLayout": {
				"storage": [
					{
						"astId": 5,
						"contract": "contracts/8_Mapping.sol:MapingContract",
						"label": "myMap",
						"offset": 0,
						"slot": "0",
						"type": "t_mapping(t_address,t_address)"
					},
					{
						"astId": 36,
						"contract": "contracts/8_Mapping.sol:MapingContract",
						"label": "myNested",
						"offset": 0,
						"slot": "1",
						"type": "t_mapping(t_address,t_mapping(t_uint256,t_bool))"
					}
				],
				"types": {
					"t_address": {
						"encoding": "inplace",
						"label": "address",
						"numberOfBytes": "20"
					},
					"t_bool": {
						"encoding": "inplace",
						"label": "bool",
						"numberOfBytes": "1"
					},
					"t_mapping(t_address,t_address)": {
						"encoding": "mapping",
						"key": "t_address",
						"label": "mapping(address => address)",
						"numberOfBytes": "32",
						"value": "t_address"
					},
					"t_mapping(t_address,t_mapping(t_uint256,t_bool))": {
						"encoding": "mapping",
						"key": "t_address",
						"label": "mapping(address => mapping(uint256 => bool))",
						"numberOfBytes": "32",
						"value": "t_mapping(t_uint256,t_bool)"
					},
					"t_mapping(t_uint256,t_bool)": {
						"encoding": "mapping",
						"key": "t_uint256",
						"label": "mapping(uint256 => bool)",
						"numberOfBytes": "32",
						"value": "t_bool"
					},
					"t_uint256": {
						"encoding": "inplace",
						"label": "uint256",
						"numberOfBytes": "32"
					}
				}
			},
			"userdoc": {
				"kind": "user",
				"methods": {},
				"version": 1
			}
		}
	}
}