{
	"data": {
		"bytecode": {
			"linkReferences": {},
			"object": "608060405234801561000f575f80fd5b506103b08061001d5f395ff3fe608060405234801561000f575f80fd5b5060043610610034575f3560e01c80633fefacdf1461003857806366e1213514610057575b5f80fd5b61004061006d565b60405161004e929190610302565b60405180910390f35b61005f610190565b60405161004e92919061032f565b6040805160a0810182526064815260c86020820152610bb891810191909152601e6060828101919091526159ed60808301529081906100af9060059081610219565b50604080516003808252608082019092525f91602082016060803683370190505090506064815f815181106100e6576100e6610366565b60200260200101818152505060648160018151811061010757610107610366565b60200260200101818152505060648160028151811061012857610128610366565b6020026020010181815250506005818180548060200260200160405190810160405280929190818152602001828054801561018057602002820191905f5260205f20905b81548152602001906001019080831161016c575b5050505050915092509250509091565b5f610199610268565b6040518060a001604052806064815260200160c8815260200161012c815260200161019081526020016101f48152505f9060056101d7929190610286565b50506040805160c0810182526064815260c8602082015261012c9181019190915261019060608201526101f460808201526103e860a082015260035492909150565b828054828255905f5260205f20908101928215610258579160200282015b82811115610258578251829061ffff16905591602001919060010190610237565b506102649291506102b4565b5090565b6040518060c001604052806006906020820280368337509192915050565b8260058101928215610258579160200282015b82811115610258578251825591602001919060010190610299565b5b80821115610264575f81556001016102b5565b5f815180845260208085019450602084015f5b838110156102f7578151875295820195908201906001016102db565b509495945050505050565b604081525f61031460408301856102c8565b828103602084015261032681856102c8565b95945050505050565b82815260e081016020808301845f5b600681101561035b5781518352918301919083019060010161033e565b505050509392505050565b634e487b7160e01b5f52603260045260245ffdfea2646970667358221220c6dc9ae184a295a7bca8a9ff399d13b116ed65e10a9b023560cb31220ae598e464736f6c63430008180033",
			"opcodes": "PUSH1 0x80 PUSH1 0x40 MSTORE CALLVALUE DUP1 ISZERO PUSH2 0xF JUMPI PUSH0 DUP1 REVERT JUMPDEST POP PUSH2 0x3B0 DUP1 PUSH2 0x1D PUSH0 CODECOPY PUSH0 RETURN INVALID PUSH1 0x80 PUSH1 0x40 MSTORE CALLVALUE DUP1 ISZERO PUSH2 0xF JUMPI PUSH0 DUP1 REVERT JUMPDEST POP PUSH1 0x4 CALLDATASIZE LT PUSH2 0x34 JUMPI PUSH0 CALLDATALOAD PUSH1 0xE0 SHR DUP1 PUSH4 0x3FEFACDF EQ PUSH2 0x38 JUMPI DUP1 PUSH4 0x66E12135 EQ PUSH2 0x57 JUMPI JUMPDEST PUSH0 DUP1 REVERT JUMPDEST PUSH2 0x40 PUSH2 0x6D JUMP JUMPDEST PUSH1 0x40 MLOAD PUSH2 0x4E SWAP3 SWAP2 SWAP1 PUSH2 0x302 JUMP JUMPDEST PUSH1 0x40 MLOAD DUP1 SWAP2 SUB SWAP1 RETURN JUMPDEST PUSH2 0x5F PUSH2 0x190 JUMP JUMPDEST PUSH1 0x40 MLOAD PUSH2 0x4E SWAP3 SWAP2 SWAP1 PUSH2 0x32F JUMP JUMPDEST PUSH1 0x40 DUP1 MLOAD PUSH1 0xA0 DUP2 ADD DUP3 MSTORE PUSH1 0x64 DUP2 MSTORE PUSH1 0xC8 PUSH1 0x20 DUP3 ADD MSTORE PUSH2 0xBB8 SWAP2 DUP2 ADD SWAP2 SWAP1 SWAP2 MSTORE PUSH1 0x1E PUSH1 0x60 DUP3 DUP2 ADD SWAP2 SWAP1 SWAP2 MSTORE PUSH2 0x59ED PUSH1 0x80 DUP4 ADD MSTORE SWAP1 DUP2 SWAP1 PUSH2 0xAF SWAP1 PUSH1 0x5 SWAP1 DUP2 PUSH2 0x219 JUMP JUMPDEST POP PUSH1 0x40 DUP1 MLOAD PUSH1 0x3 DUP1 DUP3 MSTORE PUSH1 0x80 DUP3 ADD SWAP1 SWAP3 MSTORE PUSH0 SWAP2 PUSH1 0x20 DUP3 ADD PUSH1 0x60 DUP1 CALLDATASIZE DUP4 CALLDATACOPY ADD SWAP1 POP POP SWAP1 POP PUSH1 0x64 DUP2 PUSH0 DUP2 MLOAD DUP2 LT PUSH2 0xE6 JUMPI PUSH2 0xE6 PUSH2 0x366 JUMP JUMPDEST PUSH1 0x20 MUL PUSH1 0x20 ADD ADD DUP2 DUP2 MSTORE POP POP PUSH1 0x64 DUP2 PUSH1 0x1 DUP2 MLOAD DUP2 LT PUSH2 0x107 JUMPI PUSH2 0x107 PUSH2 0x366 JUMP JUMPDEST PUSH1 0x20 MUL PUSH1 0x20 ADD ADD DUP2 DUP2 MSTORE POP POP PUSH1 0x64 DUP2 PUSH1 0x2 DUP2 MLOAD DUP2 LT PUSH2 0x128 JUMPI PUSH2 0x128 PUSH2 0x366 JUMP JUMPDEST PUSH1 0x20 MUL PUSH1 0x20 ADD ADD DUP2 DUP2 MSTORE POP POP PUSH1 0x5 DUP2 DUP2 DUP1 SLOAD DUP1 PUSH1 0x20 MUL PUSH1 0x20 ADD PUSH1 0x40 MLOAD SWAP1 DUP2 ADD PUSH1 0x40 MSTORE DUP1 SWAP3 SWAP2 SWAP1 DUP2 DUP2 MSTORE PUSH1 0x20 ADD DUP3 DUP1 SLOAD DUP1 ISZERO PUSH2 0x180 JUMPI PUSH1 0x20 MUL DUP3 ADD SWAP2 SWAP1 PUSH0 MSTORE PUSH1 0x20 PUSH0 KECCAK256 SWAP1 JUMPDEST DUP2 SLOAD DUP2 MSTORE PUSH1 0x20 ADD SWAP1 PUSH1 0x1 ADD SWAP1 DUP1 DUP4 GT PUSH2 0x16C JUMPI JUMPDEST POP POP POP POP POP SWAP2 POP SWAP3 POP SWAP3 POP POP SWAP1 SWAP2 JUMP JUMPDEST PUSH0 PUSH2 0x199 PUSH2 0x268 JUMP JUMPDEST PUSH1 0x40 MLOAD DUP1 PUSH1 0xA0 ADD PUSH1 0x40 MSTORE DUP1 PUSH1 0x64 DUP2 MSTORE PUSH1 0x20 ADD PUSH1 0xC8 DUP2 MSTORE PUSH1 0x20 ADD PUSH2 0x12C DUP2 MSTORE PUSH1 0x20 ADD PUSH2 0x190 DUP2 MSTORE PUSH1 0x20 ADD PUSH2 0x1F4 DUP2 MSTORE POP PUSH0 SWAP1 PUSH1 0x5 PUSH2 0x1D7 SWAP3 SWAP2 SWAP1 PUSH2 0x286 JUMP JUMPDEST POP POP PUSH1 0x40 DUP1 MLOAD PUSH1 0xC0 DUP2 ADD DUP3 MSTORE PUSH1 0x64 DUP2 MSTORE PUSH1 0xC8 PUSH1 0x20 DUP3 ADD MSTORE PUSH2 0x12C SWAP2 DUP2 ADD SWAP2 SWAP1 SWAP2 MSTORE PUSH2 0x190 PUSH1 0x60 DUP3 ADD MSTORE PUSH2 0x1F4 PUSH1 0x80 DUP3 ADD MSTORE PUSH2 0x3E8 PUSH1 0xA0 DUP3 ADD MSTORE PUSH1 0x3 SLOAD SWAP3 SWAP1 SWAP2 POP JUMP JUMPDEST DUP3 DUP1 SLOAD DUP3 DUP3 SSTORE SWAP1 PUSH0 MSTORE PUSH1 0x20 PUSH0 KECCAK256 SWAP1 DUP2 ADD SWAP3 DUP3 ISZERO PUSH2 0x258 JUMPI SWAP2 PUSH1 0x20 MUL DUP3 ADD JUMPDEST DUP3 DUP2 GT ISZERO PUSH2 0x258 JUMPI DUP3 MLOAD DUP3 SWAP1 PUSH2 0xFFFF AND SWAP1 SSTORE SWAP2 PUSH1 0x20 ADD SWAP2 SWAP1 PUSH1 0x1 ADD SWAP1 PUSH2 0x237 JUMP JUMPDEST POP PUSH2 0x264 SWAP3 SWAP2 POP PUSH2 0x2B4 JUMP JUMPDEST POP SWAP1 JUMP JUMPDEST PUSH1 0x40 MLOAD DUP1 PUSH1 0xC0 ADD PUSH1 0x40 MSTORE DUP1 PUSH1 0x6 SWAP1 PUSH1 0x20 DUP3 MUL DUP1 CALLDATASIZE DUP4 CALLDATACOPY POP SWAP2 SWAP3 SWAP2 POP POP JUMP JUMPDEST DUP3 PUSH1 0x5 DUP2 ADD SWAP3 DUP3 ISZERO PUSH2 0x258 JUMPI SWAP2 PUSH1 0x20 MUL DUP3 ADD JUMPDEST DUP3 DUP2 GT ISZERO PUSH2 0x258 JUMPI DUP3 MLOAD DUP3 SSTORE SWAP2 PUSH1 0x20 ADD SWAP2 SWAP1 PUSH1 0x1 ADD SWAP1 PUSH2 0x299 JUMP JUMPDEST JUMPDEST DUP1 DUP3 GT ISZERO PUSH2 0x264 JUMPI PUSH0 DUP2 SSTORE PUSH1 0x1 ADD PUSH2 0x2B5 JUMP JUMPDEST PUSH0 DUP2 MLOAD DUP1 DUP5 MSTORE PUSH1 0x20 DUP1 DUP6 ADD SWAP5 POP PUSH1 0x20 DUP5 ADD PUSH0 JUMPDEST DUP4 DUP2 LT ISZERO PUSH2 0x2F7 JUMPI DUP2 MLOAD DUP8 MSTORE SWAP6 DUP3 ADD SWAP6 SWAP1 DUP3 ADD SWAP1 PUSH1 0x1 ADD PUSH2 0x2DB JUMP JUMPDEST POP SWAP5 SWAP6 SWAP5 POP POP POP POP POP JUMP JUMPDEST PUSH1 0x40 DUP2 MSTORE PUSH0 PUSH2 0x314 PUSH1 0x40 DUP4 ADD DUP6 PUSH2 0x2C8 JUMP JUMPDEST DUP3 DUP2 SUB PUSH1 0x20 DUP5 ADD MSTORE PUSH2 0x326 DUP2 DUP6 PUSH2 0x2C8 JUMP JUMPDEST SWAP6 SWAP5 POP POP POP POP POP JUMP JUMPDEST DUP3 DUP2 MSTORE PUSH1 0xE0 DUP2 ADD PUSH1 0x20 DUP1 DUP4 ADD DUP5 PUSH0 JUMPDEST PUSH1 0x6 DUP2 LT ISZERO PUSH2 0x35B JUMPI DUP2 MLOAD DUP4 MSTORE SWAP2 DUP4 ADD SWAP2 SWAP1 DUP4 ADD SWAP1 PUSH1 0x1 ADD PUSH2 0x33E JUMP JUMPDEST POP POP POP POP SWAP4 SWAP3 POP POP POP JUMP JUMPDEST PUSH4 0x4E487B71 PUSH1 0xE0 SHL PUSH0 MSTORE PUSH1 0x32 PUSH1 0x4 MSTORE PUSH1 0x24 PUSH0 REVERT INVALID LOG2 PUSH5 0x6970667358 0x22 SLT KECCAK256 0xC6 0xDC SWAP11 0xE1 DUP5 LOG2 SWAP6 0xA7 0xBC 0xA8 0xA9 SELFDESTRUCT CODECOPY SWAP14 SGT 0xB1 AND 0xED PUSH6 0xE10A9B023560 0xCB BALANCE 0x22 EXP 0xE5 SWAP9 0xE4 PUSH5 0x736F6C6343 STOP ADDMOD XOR STOP CALLER "
		},
		"gasEstimates": {
			"creation": {
				"codeDepositCost": "188800",
				"executionCost": "230",
				"totalCost": "189030"
			},
			"external": {
				"getDataDinamis()": "infinite",
				"getDataFixed()": "infinite"
			}
		},
		"methodIdentifiers": {
			"getDataDinamis()": "3fefacdf",
			"getDataFixed()": "66e12135"
		}
	},
	"abi": [
		{
			"inputs": [],
			"name": "getDataDinamis",
			"outputs": [
				{
					"internalType": "uint256[]",
					"name": "",
					"type": "uint256[]"
				},
				{
					"internalType": "uint256[]",
					"name": "",
					"type": "uint256[]"
				}
			],
			"stateMutability": "nonpayable",
			"type": "function"
		},
		{
			"inputs": [],
			"name": "getDataFixed",
			"outputs": [
				{
					"internalType": "uint256",
					"name": "",
					"type": "uint256"
				},
				{
					"internalType": "uint256[6]",
					"name": "",
					"type": "uint256[6]"
				}
			],
			"stateMutability": "nonpayable",
			"type": "function"
		}
	]
}