{
	"data": {
		"bytecode": {
			"linkReferences": {},
			"object": "608060405234801561000f575f80fd5b506101558061001d5f395ff3fe608060405234801561000f575f80fd5b506004361061003f575f3560e01c8063033a37271461004357806315f020c51461007f5780632604e1bb146100a9575b5f80fd5b60408051808201909152600e81526d3230b49035b7b73a3930b1ba102160911b60208201525b60405161007691906100d3565b60405180910390f35b60408051808201909152600e81526d646169206b6f6e7472616374204360901b6020820152610069565b60408051808201909152600e81526d646169206b6f6e7472616374204160901b6020820152610069565b5f602080835283518060208501525f5b818110156100ff578581018301518582016040015282016100e3565b505f604082860101526040601f19601f830116850101925050509291505056fea26469706673582212200e9cf47b09e89cf7b467b5bbae1fbc227ef48aae82f7c40315ed6f8a9ea80e1864736f6c63430008180033",
			"opcodes": "PUSH1 0x80 PUSH1 0x40 MSTORE CALLVALUE DUP1 ISZERO PUSH2 0xF JUMPI PUSH0 DUP1 REVERT JUMPDEST POP PUSH2 0x155 DUP1 PUSH2 0x1D PUSH0 CODECOPY PUSH0 RETURN INVALID PUSH1 0x80 PUSH1 0x40 MSTORE CALLVALUE DUP1 ISZERO PUSH2 0xF JUMPI PUSH0 DUP1 REVERT JUMPDEST POP PUSH1 0x4 CALLDATASIZE LT PUSH2 0x3F JUMPI PUSH0 CALLDATALOAD PUSH1 0xE0 SHR DUP1 PUSH4 0x33A3727 EQ PUSH2 0x43 JUMPI DUP1 PUSH4 0x15F020C5 EQ PUSH2 0x7F JUMPI DUP1 PUSH4 0x2604E1BB EQ PUSH2 0xA9 JUMPI JUMPDEST PUSH0 DUP1 REVERT JUMPDEST PUSH1 0x40 DUP1 MLOAD DUP1 DUP3 ADD SWAP1 SWAP2 MSTORE PUSH1 0xE DUP2 MSTORE PUSH14 0x3230B49035B7B73A3930B1BA1021 PUSH1 0x91 SHL PUSH1 0x20 DUP3 ADD MSTORE JUMPDEST PUSH1 0x40 MLOAD PUSH2 0x76 SWAP2 SWAP1 PUSH2 0xD3 JUMP JUMPDEST PUSH1 0x40 MLOAD DUP1 SWAP2 SUB SWAP1 RETURN JUMPDEST PUSH1 0x40 DUP1 MLOAD DUP1 DUP3 ADD SWAP1 SWAP2 MSTORE PUSH1 0xE DUP2 MSTORE PUSH14 0x646169206B6F6E74726163742043 PUSH1 0x90 SHL PUSH1 0x20 DUP3 ADD MSTORE PUSH2 0x69 JUMP JUMPDEST PUSH1 0x40 DUP1 MLOAD DUP1 DUP3 ADD SWAP1 SWAP2 MSTORE PUSH1 0xE DUP2 MSTORE PUSH14 0x646169206B6F6E74726163742041 PUSH1 0x90 SHL PUSH1 0x20 DUP3 ADD MSTORE PUSH2 0x69 JUMP JUMPDEST PUSH0 PUSH1 0x20 DUP1 DUP4 MSTORE DUP4 MLOAD DUP1 PUSH1 0x20 DUP6 ADD MSTORE PUSH0 JUMPDEST DUP2 DUP2 LT ISZERO PUSH2 0xFF JUMPI DUP6 DUP2 ADD DUP4 ADD MLOAD DUP6 DUP3 ADD PUSH1 0x40 ADD MSTORE DUP3 ADD PUSH2 0xE3 JUMP JUMPDEST POP PUSH0 PUSH1 0x40 DUP3 DUP7 ADD ADD MSTORE PUSH1 0x40 PUSH1 0x1F NOT PUSH1 0x1F DUP4 ADD AND DUP6 ADD ADD SWAP3 POP POP POP SWAP3 SWAP2 POP POP JUMP INVALID LOG2 PUSH5 0x6970667358 0x22 SLT KECCAK256 0xE SWAP13 DELEGATECALL PUSH28 0x9E89CF7B467B5BBAE1FBC227EF48AAE82F7C40315ED6F8A9EA80E18 PUSH5 0x736F6C6343 STOP ADDMOD XOR STOP CALLER "
		},
		"gasEstimates": {
			"creation": {
				"codeDepositCost": "68200",
				"executionCost": "115",
				"totalCost": "68315"
			},
			"external": {
				"fromA()": "infinite",
				"fromB()": "infinite",
				"fromC()": "infinite"
			}
		},
		"methodIdentifiers": {
			"fromA()": "2604e1bb",
			"fromB()": "033a3727",
			"fromC()": "15f020c5"
		}
	},
	"abi": [
		{
			"inputs": [],
			"name": "fromA",
			"outputs": [
				{
					"internalType": "string",
					"name": "",
					"type": "string"
				}
			],
			"stateMutability": "pure",
			"type": "function"
		},
		{
			"inputs": [],
			"name": "fromB",
			"outputs": [
				{
					"internalType": "string",
					"name": "",
					"type": "string"
				}
			],
			"stateMutability": "pure",
			"type": "function"
		},
		{
			"inputs": [],
			"name": "fromC",
			"outputs": [
				{
					"internalType": "string",
					"name": "",
					"type": "string"
				}
			],
			"stateMutability": "pure",
			"type": "function"
		}
	]
}