{
	"data": {
		"bytecode": {
			"linkReferences": {},
			"object": "6080604052348015600e575f80fd5b5060ac8061001b5f395ff3fe6080604052348015600e575f80fd5b50600436106026575f3560e01c80638a553db614602a575b5f80fd5b60306042565b60405190815260200160405180910390f35b5f604d6014600a6052565b905090565b80820180821115607057634e487b7160e01b5f52601160045260245ffd5b9291505056fea26469706673582212203147d642d2b6a0b047babeffb7149e051e1680c4b759e8fd99bbc57770c2d2ce64736f6c63430008180033",
			"opcodes": "PUSH1 0x80 PUSH1 0x40 MSTORE CALLVALUE DUP1 ISZERO PUSH1 0xE JUMPI PUSH0 DUP1 REVERT JUMPDEST POP PUSH1 0xAC DUP1 PUSH2 0x1B PUSH0 CODECOPY PUSH0 RETURN INVALID PUSH1 0x80 PUSH1 0x40 MSTORE CALLVALUE DUP1 ISZERO PUSH1 0xE JUMPI PUSH0 DUP1 REVERT JUMPDEST POP PUSH1 0x4 CALLDATASIZE LT PUSH1 0x26 JUMPI PUSH0 CALLDATALOAD PUSH1 0xE0 SHR DUP1 PUSH4 0x8A553DB6 EQ PUSH1 0x2A JUMPI JUMPDEST PUSH0 DUP1 REVERT JUMPDEST PUSH1 0x30 PUSH1 0x42 JUMP JUMPDEST PUSH1 0x40 MLOAD SWAP1 DUP2 MSTORE PUSH1 0x20 ADD PUSH1 0x40 MLOAD DUP1 SWAP2 SUB SWAP1 RETURN JUMPDEST PUSH0 PUSH1 0x4D PUSH1 0x14 PUSH1 0xA PUSH1 0x52 JUMP JUMPDEST SWAP1 POP SWAP1 JUMP JUMPDEST DUP1 DUP3 ADD DUP1 DUP3 GT ISZERO PUSH1 0x70 JUMPI PUSH4 0x4E487B71 PUSH1 0xE0 SHL PUSH0 MSTORE PUSH1 0x11 PUSH1 0x4 MSTORE PUSH1 0x24 PUSH0 REVERT JUMPDEST SWAP3 SWAP2 POP POP JUMP INVALID LOG2 PUSH5 0x6970667358 0x22 SLT KECCAK256 BALANCE SELFBALANCE 0xD6 TIMESTAMP 0xD2 0xB6 LOG0 0xB0 SELFBALANCE 0xBA 0xBE SELFDESTRUCT 0xB7 EQ SWAP15 SDIV 0x1E AND DUP1 0xC4 0xB7 MSIZE 0xE8 REVERT SWAP10 0xBB 0xC5 PUSH24 0x70C2D2CE64736F6C63430008180033000000000000000000 "
		},
		"gasEstimates": {
			"creation": {
				"codeDepositCost": "34400",
				"executionCost": "85",
				"totalCost": "34485"
			},
			"external": {
				"calculateFromC()": "251"
			}
		},
		"methodIdentifiers": {
			"calculateFromC()": "8a553db6"
		}
	},
	"abi": [
		{
			"inputs": [],
			"name": "calculateFromC",
			"outputs": [
				{
					"internalType": "uint256",
					"name": "",
					"type": "uint256"
				}
			],
			"stateMutability": "pure",
			"type": "function"
		}
	]
}