{
	"data": {
		"bytecode": {
			"linkReferences": {},
			"object": "608060405234801561001057600080fd5b5061016b806100206000396000f3fe608060405234801561001057600080fd5b50600436106100415760003560e01c8063af8a6c9114610046578063f06bf1d2146100c3578063f604bf57146100dd575b600080fd5b61004e610102565b6040805160208082528351818301528351919283929083019185019080838360005b83811015610088578181015183820152602001610070565b50505050905090810190601f1680156100b55780820380516001836020036101000a031916815260200191505b509250505060405180910390f35b6100cb610129565b60408051918252519081900360200190f35b610100600480360360408110156100f357600080fd5b508035906020013561012f565b005b60408051808201909152600d81526c1a195b1b1b1b1bc81ddbdc9b19609a1b602082015290565b60005490565b0160005556fea2646970667358221220a6cace7df2b441d0ede32c4d9dc09f9154a0cc7c0bbe85a203a27e258f19a86d64736f6c63430007060033",
			"opcodes": "PUSH1 0x80 PUSH1 0x40 MSTORE CALLVALUE DUP1 ISZERO PUSH2 0x10 JUMPI PUSH1 0x0 DUP1 REVERT JUMPDEST POP PUSH2 0x16B DUP1 PUSH2 0x20 PUSH1 0x0 CODECOPY PUSH1 0x0 RETURN INVALID PUSH1 0x80 PUSH1 0x40 MSTORE CALLVALUE DUP1 ISZERO PUSH2 0x10 JUMPI PUSH1 0x0 DUP1 REVERT JUMPDEST POP PUSH1 0x4 CALLDATASIZE LT PUSH2 0x41 JUMPI PUSH1 0x0 CALLDATALOAD PUSH1 0xE0 SHR DUP1 PUSH4 0xAF8A6C91 EQ PUSH2 0x46 JUMPI DUP1 PUSH4 0xF06BF1D2 EQ PUSH2 0xC3 JUMPI DUP1 PUSH4 0xF604BF57 EQ PUSH2 0xDD JUMPI JUMPDEST PUSH1 0x0 DUP1 REVERT JUMPDEST PUSH2 0x4E PUSH2 0x102 JUMP JUMPDEST PUSH1 0x40 DUP1 MLOAD PUSH1 0x20 DUP1 DUP3 MSTORE DUP4 MLOAD DUP2 DUP4 ADD MSTORE DUP4 MLOAD SWAP2 SWAP3 DUP4 SWAP3 SWAP1 DUP4 ADD SWAP2 DUP6 ADD SWAP1 DUP1 DUP4 DUP4 PUSH1 0x0 JUMPDEST DUP4 DUP2 LT ISZERO PUSH2 0x88 JUMPI DUP2 DUP2 ADD MLOAD DUP4 DUP3 ADD MSTORE PUSH1 0x20 ADD PUSH2 0x70 JUMP JUMPDEST POP POP POP POP SWAP1 POP SWAP1 DUP2 ADD SWAP1 PUSH1 0x1F AND DUP1 ISZERO PUSH2 0xB5 JUMPI DUP1 DUP3 SUB DUP1 MLOAD PUSH1 0x1 DUP4 PUSH1 0x20 SUB PUSH2 0x100 EXP SUB NOT AND DUP2 MSTORE PUSH1 0x20 ADD SWAP2 POP JUMPDEST POP SWAP3 POP POP POP PUSH1 0x40 MLOAD DUP1 SWAP2 SUB SWAP1 RETURN JUMPDEST PUSH2 0xCB PUSH2 0x129 JUMP JUMPDEST PUSH1 0x40 DUP1 MLOAD SWAP2 DUP3 MSTORE MLOAD SWAP1 DUP2 SWAP1 SUB PUSH1 0x20 ADD SWAP1 RETURN JUMPDEST PUSH2 0x100 PUSH1 0x4 DUP1 CALLDATASIZE SUB PUSH1 0x40 DUP2 LT ISZERO PUSH2 0xF3 JUMPI PUSH1 0x0 DUP1 REVERT JUMPDEST POP DUP1 CALLDATALOAD SWAP1 PUSH1 0x20 ADD CALLDATALOAD PUSH2 0x12F JUMP JUMPDEST STOP JUMPDEST PUSH1 0x40 DUP1 MLOAD DUP1 DUP3 ADD SWAP1 SWAP2 MSTORE PUSH1 0xD DUP2 MSTORE PUSH13 0x1A195B1B1B1B1BC81DDBDC9B19 PUSH1 0x9A SHL PUSH1 0x20 DUP3 ADD MSTORE SWAP1 JUMP JUMPDEST PUSH1 0x0 SLOAD SWAP1 JUMP JUMPDEST ADD PUSH1 0x0 SSTORE JUMP INVALID LOG2 PUSH5 0x6970667358 0x22 SLT KECCAK256 0xA6 0xCA 0xCE PUSH30 0xF2B441D0EDE32C4D9DC09F9154A0CC7C0BBE85A203A27E258F19A86D6473 PUSH16 0x6C634300070600330000000000000000 "
		},
		"gasEstimates": {
			"creation": {
				"codeDepositCost": "72600",
				"executionCost": "123",
				"totalCost": "72723"
			},
			"external": {
				"cetakHello()": "infinite",
				"getHasil()": "998",
				"tambah(uint256,uint256)": "20229"
			}
		},
		"methodIdentifiers": {
			"cetakHello()": "af8a6c91",
			"getHasil()": "f06bf1d2",
			"tambah(uint256,uint256)": "f604bf57"
		}
	},
	"abi": [
		{
			"inputs": [],
			"name": "cetakHello",
			"outputs": [
				{
					"internalType": "string",
					"name": "",
					"type": "string"
				}
			],
			"stateMutability": "pure",
			"type": "function"
		},
		{
			"inputs": [],
			"name": "getHasil",
			"outputs": [
				{
					"internalType": "uint256",
					"name": "",
					"type": "uint256"
				}
			],
			"stateMutability": "view",
			"type": "function"
		},
		{
			"inputs": [
				{
					"internalType": "uint256",
					"name": "num1",
					"type": "uint256"
				},
				{
					"internalType": "uint256",
					"name": "num2",
					"type": "uint256"
				}
			],
			"name": "tambah",
			"outputs": [],
			"stateMutability": "nonpayable",
			"type": "function"
		}
	]
}