{
	"data": {
		"bytecode": {
			"linkReferences": {},
			"object": "6080604052601e60015560015460025534801561001a575f80fd5b50600a6001556101a68061002d5f395ff3fe608060405234801561000f575f80fd5b5060043610610060575f3560e01c8063541a6ddd14610064578063710f3e2214610089578063bf7ce7421461009c578063e7e1ef57146100a4578063f8a8fd6d146100ac578063ff02e276146100b5575b5f80fd5b610077610072366004610131565b6100bd565b60405190815260200160405180910390f35b610077610097366004610131565b6100d1565b6100776100e8565b6100776100fd565b61007760025481565b61007761010d565b5f6100c88284610151565b90505b92915050565b5f6100dc8284610151565b60018190559392505050565b5f6100f560c760146100d1565b505060015490565b5f610108600a610116565b905090565b5f610108610124565b5f815f546100cb9190610151565b5f610108600a601e6100bd565b5f8060408385031215610142575f80fd5b50508035926020909101359150565b808201808211156100cb57634e487b7160e01b5f52601160045260245ffdfea26469706673582212209a01776878f9fad8df6273d680277b81a0d004c5c749642e065414962116198464736f6c63430008180033",
			"opcodes": "PUSH1 0x80 PUSH1 0x40 MSTORE PUSH1 0x1E PUSH1 0x1 SSTORE PUSH1 0x1 SLOAD PUSH1 0x2 SSTORE CALLVALUE DUP1 ISZERO PUSH2 0x1A JUMPI PUSH0 DUP1 REVERT JUMPDEST POP PUSH1 0xA PUSH1 0x1 SSTORE PUSH2 0x1A6 DUP1 PUSH2 0x2D PUSH0 CODECOPY PUSH0 RETURN INVALID PUSH1 0x80 PUSH1 0x40 MSTORE CALLVALUE DUP1 ISZERO PUSH2 0xF JUMPI PUSH0 DUP1 REVERT JUMPDEST POP PUSH1 0x4 CALLDATASIZE LT PUSH2 0x60 JUMPI PUSH0 CALLDATALOAD PUSH1 0xE0 SHR DUP1 PUSH4 0x541A6DDD EQ PUSH2 0x64 JUMPI DUP1 PUSH4 0x710F3E22 EQ PUSH2 0x89 JUMPI DUP1 PUSH4 0xBF7CE742 EQ PUSH2 0x9C JUMPI DUP1 PUSH4 0xE7E1EF57 EQ PUSH2 0xA4 JUMPI DUP1 PUSH4 0xF8A8FD6D EQ PUSH2 0xAC JUMPI DUP1 PUSH4 0xFF02E276 EQ PUSH2 0xB5 JUMPI JUMPDEST PUSH0 DUP1 REVERT JUMPDEST PUSH2 0x77 PUSH2 0x72 CALLDATASIZE PUSH1 0x4 PUSH2 0x131 JUMP JUMPDEST PUSH2 0xBD JUMP JUMPDEST PUSH1 0x40 MLOAD SWAP1 DUP2 MSTORE PUSH1 0x20 ADD PUSH1 0x40 MLOAD DUP1 SWAP2 SUB SWAP1 RETURN JUMPDEST PUSH2 0x77 PUSH2 0x97 CALLDATASIZE PUSH1 0x4 PUSH2 0x131 JUMP JUMPDEST PUSH2 0xD1 JUMP JUMPDEST PUSH2 0x77 PUSH2 0xE8 JUMP JUMPDEST PUSH2 0x77 PUSH2 0xFD JUMP JUMPDEST PUSH2 0x77 PUSH1 0x2 SLOAD DUP2 JUMP JUMPDEST PUSH2 0x77 PUSH2 0x10D JUMP JUMPDEST PUSH0 PUSH2 0xC8 DUP3 DUP5 PUSH2 0x151 JUMP JUMPDEST SWAP1 POP JUMPDEST SWAP3 SWAP2 POP POP JUMP JUMPDEST PUSH0 PUSH2 0xDC DUP3 DUP5 PUSH2 0x151 JUMP JUMPDEST PUSH1 0x1 DUP2 SWAP1 SSTORE SWAP4 SWAP3 POP POP POP JUMP JUMPDEST PUSH0 PUSH2 0xF5 PUSH1 0xC7 PUSH1 0x14 PUSH2 0xD1 JUMP JUMPDEST POP POP PUSH1 0x1 SLOAD SWAP1 JUMP JUMPDEST PUSH0 PUSH2 0x108 PUSH1 0xA PUSH2 0x116 JUMP JUMPDEST SWAP1 POP SWAP1 JUMP JUMPDEST PUSH0 PUSH2 0x108 PUSH2 0x124 JUMP JUMPDEST PUSH0 DUP2 PUSH0 SLOAD PUSH2 0xCB SWAP2 SWAP1 PUSH2 0x151 JUMP JUMPDEST PUSH0 PUSH2 0x108 PUSH1 0xA PUSH1 0x1E PUSH2 0xBD JUMP JUMPDEST PUSH0 DUP1 PUSH1 0x40 DUP4 DUP6 SUB SLT ISZERO PUSH2 0x142 JUMPI PUSH0 DUP1 REVERT JUMPDEST POP POP DUP1 CALLDATALOAD SWAP3 PUSH1 0x20 SWAP1 SWAP2 ADD CALLDATALOAD SWAP2 POP JUMP JUMPDEST DUP1 DUP3 ADD DUP1 DUP3 GT ISZERO PUSH2 0xCB JUMPI PUSH4 0x4E487B71 PUSH1 0xE0 SHL PUSH0 MSTORE PUSH1 0x11 PUSH1 0x4 MSTORE PUSH1 0x24 PUSH0 REVERT INVALID LOG2 PUSH5 0x6970667358 0x22 SLT KECCAK256 SWAP11 ADD PUSH24 0x6878F9FAD8DF6273D680277B81A0D004C5C749642E065414 SWAP7 0x21 AND NOT DUP5 PUSH5 0x736F6C6343 STOP ADDMOD XOR STOP CALLER "
		},
		"gasEstimates": {
			"creation": {
				"codeDepositCost": "84400",
				"executionCost": "51451",
				"totalCost": "135851"
			},
			"external": {
				"ambilDataInternal()": "infinite",
				"getPrivateData()": "infinite",
				"getPublicData()": "24550",
				"setDataExternal(uint256,uint256)": "infinite",
				"setPublicData(uint256,uint256)": "22485",
				"test()": "2348"
			}
		},
		"methodIdentifiers": {
			"ambilDataInternal()": "ff02e276",
			"getPrivateData()": "e7e1ef57",
			"getPublicData()": "bf7ce742",
			"setDataExternal(uint256,uint256)": "541a6ddd",
			"setPublicData(uint256,uint256)": "710f3e22",
			"test()": "f8a8fd6d"
		}
	},
	"abi": [
		{
			"inputs": [],
			"name": "ambilDataInternal",
			"outputs": [
				{
					"internalType": "uint256",
					"name": "",
					"type": "uint256"
				}
			],
			"stateMutability": "pure",
			"type": "function"
		},
		{
			"inputs": [],
			"name": "getPrivateData",
			"outputs": [
				{
					"internalType": "uint256",
					"name": "",
					"type": "uint256"
				}
			],
			"stateMutability": "view",
			"type": "function"
		},
		{
			"inputs": [],
			"name": "getPublicData",
			"outputs": [
				{
					"internalType": "uint256",
					"name": "",
					"type": "uint256"
				}
			],
			"stateMutability": "nonpayable",
			"type": "function"
		},
		{
			"inputs": [
				{
					"internalType": "uint256",
					"name": "a",
					"type": "uint256"
				},
				{
					"internalType": "uint256",
					"name": "b",
					"type": "uint256"
				}
			],
			"name": "setDataExternal",
			"outputs": [
				{
					"internalType": "uint256",
					"name": "",
					"type": "uint256"
				}
			],
			"stateMutability": "pure",
			"type": "function"
		},
		{
			"inputs": [
				{
					"internalType": "uint256",
					"name": "a",
					"type": "uint256"
				},
				{
					"internalType": "uint256",
					"name": "b",
					"type": "uint256"
				}
			],
			"name": "setPublicData",
			"outputs": [
				{
					"internalType": "uint256",
					"name": "",
					"type": "uint256"
				}
			],
			"stateMutability": "nonpayable",
			"type": "function"
		},
		{
			"inputs": [],
			"name": "test",
			"outputs": [
				{
					"internalType": "uint256",
					"name": "",
					"type": "uint256"
				}
			],
			"stateMutability": "view",
			"type": "function"
		}
	]
}