{
	"data": {
		"bytecode": {
			"linkReferences": {},
			"object": "608060405234801561001057600080fd5b50610108806100206000396000f3fe608060405260043610601c5760003560e01c806394929fa5146021575b600080fd5b604460048036036020811015603557600080fd5b50356001600160a01b03166046565b005b34806098576040805162461bcd60e51b815260206004820152601c60248201527f6861686168616820657468657220616e646120746964616b2061646100000000604482015290519081900360640190fd5b6040516001600160a01b0383169082156108fc029083906000818181858888f1935050505015801560cd573d6000803e3d6000fd5b50505056fea2646970667358221220a05d6aa32c479a198e668ddea6ca8873483d77649301371042d17ddc5159ec6b64736f6c63430007060033",
			"opcodes": "PUSH1 0x80 PUSH1 0x40 MSTORE CALLVALUE DUP1 ISZERO PUSH2 0x10 JUMPI PUSH1 0x0 DUP1 REVERT JUMPDEST POP PUSH2 0x108 DUP1 PUSH2 0x20 PUSH1 0x0 CODECOPY PUSH1 0x0 RETURN INVALID PUSH1 0x80 PUSH1 0x40 MSTORE PUSH1 0x4 CALLDATASIZE LT PUSH1 0x1C JUMPI PUSH1 0x0 CALLDATALOAD PUSH1 0xE0 SHR DUP1 PUSH4 0x94929FA5 EQ PUSH1 0x21 JUMPI JUMPDEST PUSH1 0x0 DUP1 REVERT JUMPDEST PUSH1 0x44 PUSH1 0x4 DUP1 CALLDATASIZE SUB PUSH1 0x20 DUP2 LT ISZERO PUSH1 0x35 JUMPI PUSH1 0x0 DUP1 REVERT JUMPDEST POP CALLDATALOAD PUSH1 0x1 PUSH1 0x1 PUSH1 0xA0 SHL SUB AND PUSH1 0x46 JUMP JUMPDEST STOP JUMPDEST CALLVALUE DUP1 PUSH1 0x98 JUMPI PUSH1 0x40 DUP1 MLOAD PUSH3 0x461BCD PUSH1 0xE5 SHL DUP2 MSTORE PUSH1 0x20 PUSH1 0x4 DUP3 ADD MSTORE PUSH1 0x1C PUSH1 0x24 DUP3 ADD MSTORE PUSH32 0x6861686168616820657468657220616E646120746964616B2061646100000000 PUSH1 0x44 DUP3 ADD MSTORE SWAP1 MLOAD SWAP1 DUP2 SWAP1 SUB PUSH1 0x64 ADD SWAP1 REVERT JUMPDEST PUSH1 0x40 MLOAD PUSH1 0x1 PUSH1 0x1 PUSH1 0xA0 SHL SUB DUP4 AND SWAP1 DUP3 ISZERO PUSH2 0x8FC MUL SWAP1 DUP4 SWAP1 PUSH1 0x0 DUP2 DUP2 DUP2 DUP6 DUP9 DUP9 CALL SWAP4 POP POP POP POP ISZERO DUP1 ISZERO PUSH1 0xCD JUMPI RETURNDATASIZE PUSH1 0x0 DUP1 RETURNDATACOPY RETURNDATASIZE PUSH1 0x0 REVERT JUMPDEST POP POP POP JUMP INVALID LOG2 PUSH5 0x6970667358 0x22 SLT KECCAK256 LOG0 0x5D PUSH11 0xA32C479A198E668DDEA6CA DUP9 PUSH20 0x483D77649301371042D17DDC5159EC6B64736F6C PUSH4 0x43000706 STOP CALLER "
		},
		"gasEstimates": {
			"creation": {
				"codeDepositCost": "52800",
				"executionCost": "105",
				"totalCost": "52905"
			},
			"external": {
				"TransferUang(address)": "infinite"
			}
		},
		"methodIdentifiers": {
			"TransferUang(address)": "94929fa5"
		}
	},
	"abi": [
		{
			"inputs": [
				{
					"internalType": "address payable",
					"name": "_address",
					"type": "address"
				}
			],
			"name": "TransferUang",
			"outputs": [],
			"stateMutability": "payable",
			"type": "function"
		}
	]
}