{
	"data": {
		"bytecode": {
			"linkReferences": {},
			"object": "6080604052348015600e575f80fd5b50606280601a5f395ff3fe6080604052348015600e575f80fd5b50600436106026575f3560e01c80631450c1ea14602a575b5f80fd5b00fea2646970667358221220b2dbdcd84b2ed0f2b896c974043cf3d484a255454be8f54a1dc9d227aa1e733464736f6c63430008180033",
			"opcodes": "PUSH1 0x80 PUSH1 0x40 MSTORE CALLVALUE DUP1 ISZERO PUSH1 0xE JUMPI PUSH0 DUP1 REVERT JUMPDEST POP PUSH1 0x62 DUP1 PUSH1 0x1A PUSH0 CODECOPY PUSH0 RETURN INVALID PUSH1 0x80 PUSH1 0x40 MSTORE CALLVALUE DUP1 ISZERO PUSH1 0xE JUMPI PUSH0 DUP1 REVERT JUMPDEST POP PUSH1 0x4 CALLDATASIZE LT PUSH1 0x26 JUMPI PUSH0 CALLDATALOAD PUSH1 0xE0 SHR DUP1 PUSH4 0x1450C1EA EQ PUSH1 0x2A JUMPI JUMPDEST PUSH0 DUP1 REVERT JUMPDEST STOP INVALID LOG2 PUSH5 0x6970667358 0x22 SLT KECCAK256 0xB2 0xDB 0xDC 0xD8 0x4B 0x2E 0xD0 CALLCODE 0xB8 SWAP7 0xC9 PUSH21 0x43CF3D484A255454BE8F54A1DC9D227AA1E733464 PUSH20 0x6F6C634300081800330000000000000000000000 "
		},
		"deployedBytecode": {
			"immutableReferences": {},
			"linkReferences": {},
			"object": "6080604052348015600e575f80fd5b50600436106026575f3560e01c80631450c1ea14602a575b5f80fd5b00fea2646970667358221220b2dbdcd84b2ed0f2b896c974043cf3d484a255454be8f54a1dc9d227aa1e733464736f6c63430008180033",
			"opcodes": "PUSH1 0x80 PUSH1 0x40 MSTORE CALLVALUE DUP1 ISZERO PUSH1 0xE JUMPI PUSH0 DUP1 REVERT JUMPDEST POP PUSH1 0x4 CALLDATASIZE LT PUSH1 0x26 JUMPI PUSH0 CALLDATALOAD PUSH1 0xE0 SHR DUP1 PUSH4 0x1450C1EA EQ PUSH1 0x2A JUMPI JUMPDEST PUSH0 DUP1 REVERT JUMPDEST STOP INVALID LOG2 PUSH5 0x6970667358 0x22 SLT KECCAK256 0xB2 0xDB 0xDC 0xD8 0x4B 0x2E 0xD0 CALLCODE 0xB8 SWAP7 0xC9 PUSH21 0x43CF3D484A255454BE8F54A1DC9D227AA1E733464 PUSH20 0x6F6C634300081800330000000000000000000000 "
		},
		"gasEstimates": {
			"creation": {
				"codeDepositCost": "19600",
				"executionCost": "73",
				"totalCost": "19673"
			},
			"external": {
				"iniFungsi()": "97"
			}
		},
		"methodIdentifiers": {
			"iniFungsi()": "1450c1ea"
		}
	},
	"abi": [
		{
			"inputs": [],
			"name": "iniFungsi",
			"outputs": [],
			"stateMutability": "nonpayable",
			"type": "function"
		}
	]
}