{
	"data": {
		"bytecode": {
			"linkReferences": {},
			"object": "6080604052348015600e575f80fd5b50606280601a5f395ff3fe6080604052348015600e575f80fd5b50600436106026575f3560e01c80631450c1ea14602a575b5f80fd5b00fea2646970667358221220046e9661e30050bae04aac8c5a2d7c8c8c8c97d3b07d5a3f01776ccc2962792964736f6c63430008180033",
			"opcodes": "PUSH1 0x80 PUSH1 0x40 MSTORE CALLVALUE DUP1 ISZERO PUSH1 0xE JUMPI PUSH0 DUP1 REVERT JUMPDEST POP PUSH1 0x62 DUP1 PUSH1 0x1A PUSH0 CODECOPY PUSH0 RETURN INVALID PUSH1 0x80 PUSH1 0x40 MSTORE CALLVALUE DUP1 ISZERO PUSH1 0xE JUMPI PUSH0 DUP1 REVERT JUMPDEST POP PUSH1 0x4 CALLDATASIZE LT PUSH1 0x26 JUMPI PUSH0 CALLDATALOAD PUSH1 0xE0 SHR DUP1 PUSH4 0x1450C1EA EQ PUSH1 0x2A JUMPI JUMPDEST PUSH0 DUP1 REVERT JUMPDEST STOP INVALID LOG2 PUSH5 0x6970667358 0x22 SLT KECCAK256 DIV PUSH15 0x9661E30050BAE04AAC8C5A2D7C8C8C DUP13 SWAP8 0xD3 0xB0 PUSH30 0x5A3F01776CCC2962792964736F6C63430008180033000000000000000000 "
		},
		"deployedBytecode": {
			"immutableReferences": {},
			"linkReferences": {},
			"object": "6080604052348015600e575f80fd5b50600436106026575f3560e01c80631450c1ea14602a575b5f80fd5b00fea2646970667358221220046e9661e30050bae04aac8c5a2d7c8c8c8c97d3b07d5a3f01776ccc2962792964736f6c63430008180033",
			"opcodes": "PUSH1 0x80 PUSH1 0x40 MSTORE CALLVALUE DUP1 ISZERO PUSH1 0xE JUMPI PUSH0 DUP1 REVERT JUMPDEST POP PUSH1 0x4 CALLDATASIZE LT PUSH1 0x26 JUMPI PUSH0 CALLDATALOAD PUSH1 0xE0 SHR DUP1 PUSH4 0x1450C1EA EQ PUSH1 0x2A JUMPI JUMPDEST PUSH0 DUP1 REVERT JUMPDEST STOP INVALID LOG2 PUSH5 0x6970667358 0x22 SLT KECCAK256 DIV PUSH15 0x9661E30050BAE04AAC8C5A2D7C8C8C DUP13 SWAP8 0xD3 0xB0 PUSH30 0x5A3F01776CCC2962792964736F6C63430008180033000000000000000000 "
		},
		"gasEstimates": {
			"creation": {
				"codeDepositCost": "19600",
				"executionCost": "73",
				"totalCost": "19673"
			},
			"external": {
				"iniFungsi()": "97"
			}
		},
		"methodIdentifiers": {
			"iniFungsi()": "1450c1ea"
		}
	},
	"abi": [
		{
			"inputs": [],
			"name": "iniFungsi",
			"outputs": [],
			"stateMutability": "nonpayable",
			"type": "function"
		}
	]
}