{
	"data": {
		"bytecode": {
			"linkReferences": {},
			"object": "608060405234801561001057600080fd5b5061014b806100206000396000f3fe60806040526004361061003f5760003560e01c8063658b98e41461004457806365ac43411461008f5780638d83d877146100b6578063d18616e2146100f5575b600080fd5b34801561005057600080fd5b506100796004803603604081101561006757600080fd5b5060ff813581169160200135166100ff565b6040805160ff9092168252519081900360200190f35b34801561009b57600080fd5b506100a4610103565b60408051918252519081900360200190f35b3480156100c257600080fd5b50610079600480360360608110156100d957600080fd5b5060ff8135811691602081013582169160409091013516610109565b6100fd61010f565b005b0190565b60005490565b91010190565b3460005556fea26469706673582212207e8fe446eff90d55b4bd4d9725adcf3ae50fa0d4d1758224f92190ea9fa4555d64736f6c63430007060033",
			"opcodes": "PUSH1 0x80 PUSH1 0x40 MSTORE CALLVALUE DUP1 ISZERO PUSH2 0x10 JUMPI PUSH1 0x0 DUP1 REVERT JUMPDEST POP PUSH2 0x14B DUP1 PUSH2 0x20 PUSH1 0x0 CODECOPY PUSH1 0x0 RETURN INVALID PUSH1 0x80 PUSH1 0x40 MSTORE PUSH1 0x4 CALLDATASIZE LT PUSH2 0x3F JUMPI PUSH1 0x0 CALLDATALOAD PUSH1 0xE0 SHR DUP1 PUSH4 0x658B98E4 EQ PUSH2 0x44 JUMPI DUP1 PUSH4 0x65AC4341 EQ PUSH2 0x8F JUMPI DUP1 PUSH4 0x8D83D877 EQ PUSH2 0xB6 JUMPI DUP1 PUSH4 0xD18616E2 EQ PUSH2 0xF5 JUMPI JUMPDEST PUSH1 0x0 DUP1 REVERT JUMPDEST CALLVALUE DUP1 ISZERO PUSH2 0x50 JUMPI PUSH1 0x0 DUP1 REVERT JUMPDEST POP PUSH2 0x79 PUSH1 0x4 DUP1 CALLDATASIZE SUB PUSH1 0x40 DUP2 LT ISZERO PUSH2 0x67 JUMPI PUSH1 0x0 DUP1 REVERT JUMPDEST POP PUSH1 0xFF DUP2 CALLDATALOAD DUP2 AND SWAP2 PUSH1 0x20 ADD CALLDATALOAD AND PUSH2 0xFF JUMP JUMPDEST PUSH1 0x40 DUP1 MLOAD PUSH1 0xFF SWAP1 SWAP3 AND DUP3 MSTORE MLOAD SWAP1 DUP2 SWAP1 SUB PUSH1 0x20 ADD SWAP1 RETURN JUMPDEST CALLVALUE DUP1 ISZERO PUSH2 0x9B JUMPI PUSH1 0x0 DUP1 REVERT JUMPDEST POP PUSH2 0xA4 PUSH2 0x103 JUMP JUMPDEST PUSH1 0x40 DUP1 MLOAD SWAP2 DUP3 MSTORE MLOAD SWAP1 DUP2 SWAP1 SUB PUSH1 0x20 ADD SWAP1 RETURN JUMPDEST CALLVALUE DUP1 ISZERO PUSH2 0xC2 JUMPI PUSH1 0x0 DUP1 REVERT JUMPDEST POP PUSH2 0x79 PUSH1 0x4 DUP1 CALLDATASIZE SUB PUSH1 0x60 DUP2 LT ISZERO PUSH2 0xD9 JUMPI PUSH1 0x0 DUP1 REVERT JUMPDEST POP PUSH1 0xFF DUP2 CALLDATALOAD DUP2 AND SWAP2 PUSH1 0x20 DUP2 ADD CALLDATALOAD DUP3 AND SWAP2 PUSH1 0x40 SWAP1 SWAP2 ADD CALLDATALOAD AND PUSH2 0x109 JUMP JUMPDEST PUSH2 0xFD PUSH2 0x10F JUMP JUMPDEST STOP JUMPDEST ADD SWAP1 JUMP JUMPDEST PUSH1 0x0 SLOAD SWAP1 JUMP JUMPDEST SWAP2 ADD ADD SWAP1 JUMP JUMPDEST CALLVALUE PUSH1 0x0 SSTORE JUMP INVALID LOG2 PUSH5 0x6970667358 0x22 SLT KECCAK256 PUSH31 0x8FE446EFF90D55B4BD4D9725ADCF3AE50FA0D4D1758224F92190EA9FA4555D PUSH5 0x736F6C6343 STOP SMOD MOD STOP CALLER "
		},
		"gasEstimates": {
			"creation": {
				"codeDepositCost": "66200",
				"executionCost": "117",
				"totalCost": "66317"
			},
			"external": {
				"getTotalAmount()": "998",
				"receivedEter()": "20169",
				"tambah(uint8,uint8)": "254",
				"tambah(uint8,uint8,uint8)": "331"
			}
		},
		"methodIdentifiers": {
			"getTotalAmount()": "65ac4341",
			"receivedEter()": "d18616e2",
			"tambah(uint8,uint8)": "658b98e4",
			"tambah(uint8,uint8,uint8)": "8d83d877"
		}
	},
	"abi": [
		{
			"inputs": [],
			"name": "getTotalAmount",
			"outputs": [
				{
					"internalType": "uint256",
					"name": "",
					"type": "uint256"
				}
			],
			"stateMutability": "view",
			"type": "function"
		},
		{
			"inputs": [],
			"name": "receivedEter",
			"outputs": [],
			"stateMutability": "payable",
			"type": "function"
		},
		{
			"inputs": [
				{
					"internalType": "uint8",
					"name": "a",
					"type": "uint8"
				},
				{
					"internalType": "uint8",
					"name": "b",
					"type": "uint8"
				}
			],
			"name": "tambah",
			"outputs": [
				{
					"internalType": "uint8",
					"name": "jawaban",
					"type": "uint8"
				}
			],
			"stateMutability": "pure",
			"type": "function"
		},
		{
			"inputs": [
				{
					"internalType": "uint8",
					"name": "a",
					"type": "uint8"
				},
				{
					"internalType": "uint8",
					"name": "b",
					"type": "uint8"
				},
				{
					"internalType": "uint8",
					"name": "c",
					"type": "uint8"
				}
			],
			"name": "tambah",
			"outputs": [
				{
					"internalType": "uint8",
					"name": "",
					"type": "uint8"
				}
			],
			"stateMutability": "pure",
			"type": "function"
		}
	]
}