{
	"data": {
		"bytecode": {
			"linkReferences": {},
			"object": "608060405234801561000f575f80fd5b506102ac8061001d5f395ff3fe608060405234801561000f575f80fd5b5060043610610034575f3560e01c8063aefee53e14610038578063df41ff9114610053575b5f80fd5b610040610068565b6040519081526020015b60405180910390f35b61005b6100a6565b60405161004a919061021f565b60408051608081018252600a8152601460208083019190915291810182905260608101919091525f9061009e908290600461018b565b506007905090565b6040805160608181018352600a8252601460208301819052928201929092526100d39060079060036101ce565b5060078054600181810183555f8390527fa66cc928b5edb82af9bd49922954155ab7b0942694bea4ce44661d9a8736c688918201819055825490810183550181905580548061012457610124610262565b600190038181905f5260205f20015f90559055600780548060200260200160405190810160405280929190818152602001828054801561018157602002820191905f5260205f20905b81548152602001906001019080831161016d575b5050505050905090565b82600781019282156101be579160200282015b828111156101be578251829060ff1690559160200191906001019061019e565b506101ca92915061020b565b5090565b828054828255905f5260205f209081019282156101be57916020028201828111156101be578251829060ff1690559160200191906001019061019e565b5b808211156101ca575f815560010161020c565b602080825282518282018190525f9190848201906040850190845b818110156102565783518352928401929184019160010161023a565b50909695505050505050565b634e487b7160e01b5f52603160045260245ffdfea264697066735822122091c0617a7821d09385898644a24d8df9e95842ab856ce79e913a0e802df90d9364736f6c63430008180033",
			"opcodes": "PUSH1 0x80 PUSH1 0x40 MSTORE CALLVALUE DUP1 ISZERO PUSH2 0xF JUMPI PUSH0 DUP1 REVERT JUMPDEST POP PUSH2 0x2AC DUP1 PUSH2 0x1D PUSH0 CODECOPY PUSH0 RETURN INVALID PUSH1 0x80 PUSH1 0x40 MSTORE CALLVALUE DUP1 ISZERO PUSH2 0xF JUMPI PUSH0 DUP1 REVERT JUMPDEST POP PUSH1 0x4 CALLDATASIZE LT PUSH2 0x34 JUMPI PUSH0 CALLDATALOAD PUSH1 0xE0 SHR DUP1 PUSH4 0xAEFEE53E EQ PUSH2 0x38 JUMPI DUP1 PUSH4 0xDF41FF91 EQ PUSH2 0x53 JUMPI JUMPDEST PUSH0 DUP1 REVERT JUMPDEST PUSH2 0x40 PUSH2 0x68 JUMP JUMPDEST PUSH1 0x40 MLOAD SWAP1 DUP2 MSTORE PUSH1 0x20 ADD JUMPDEST PUSH1 0x40 MLOAD DUP1 SWAP2 SUB SWAP1 RETURN JUMPDEST PUSH2 0x5B PUSH2 0xA6 JUMP JUMPDEST PUSH1 0x40 MLOAD PUSH2 0x4A SWAP2 SWAP1 PUSH2 0x21F JUMP JUMPDEST PUSH1 0x40 DUP1 MLOAD PUSH1 0x80 DUP2 ADD DUP3 MSTORE PUSH1 0xA DUP2 MSTORE PUSH1 0x14 PUSH1 0x20 DUP1 DUP4 ADD SWAP2 SWAP1 SWAP2 MSTORE SWAP2 DUP2 ADD DUP3 SWAP1 MSTORE PUSH1 0x60 DUP2 ADD SWAP2 SWAP1 SWAP2 MSTORE PUSH0 SWAP1 PUSH2 0x9E SWAP1 DUP3 SWAP1 PUSH1 0x4 PUSH2 0x18B JUMP JUMPDEST POP PUSH1 0x7 SWAP1 POP SWAP1 JUMP JUMPDEST PUSH1 0x40 DUP1 MLOAD PUSH1 0x60 DUP2 DUP2 ADD DUP4 MSTORE PUSH1 0xA DUP3 MSTORE PUSH1 0x14 PUSH1 0x20 DUP4 ADD DUP2 SWAP1 MSTORE SWAP3 DUP3 ADD SWAP3 SWAP1 SWAP3 MSTORE PUSH2 0xD3 SWAP1 PUSH1 0x7 SWAP1 PUSH1 0x3 PUSH2 0x1CE JUMP JUMPDEST POP PUSH1 0x7 DUP1 SLOAD PUSH1 0x1 DUP2 DUP2 ADD DUP4 SSTORE PUSH0 DUP4 SWAP1 MSTORE PUSH32 0xA66CC928B5EDB82AF9BD49922954155AB7B0942694BEA4CE44661D9A8736C688 SWAP2 DUP3 ADD DUP2 SWAP1 SSTORE DUP3 SLOAD SWAP1 DUP2 ADD DUP4 SSTORE ADD DUP2 SWAP1 SSTORE DUP1 SLOAD DUP1 PUSH2 0x124 JUMPI PUSH2 0x124 PUSH2 0x262 JUMP JUMPDEST PUSH1 0x1 SWAP1 SUB DUP2 DUP2 SWAP1 PUSH0 MSTORE PUSH1 0x20 PUSH0 KECCAK256 ADD PUSH0 SWAP1 SSTORE SWAP1 SSTORE PUSH1 0x7 DUP1 SLOAD DUP1 PUSH1 0x20 MUL PUSH1 0x20 ADD PUSH1 0x40 MLOAD SWAP1 DUP2 ADD PUSH1 0x40 MSTORE DUP1 SWAP3 SWAP2 SWAP1 DUP2 DUP2 MSTORE PUSH1 0x20 ADD DUP3 DUP1 SLOAD DUP1 ISZERO PUSH2 0x181 JUMPI PUSH1 0x20 MUL DUP3 ADD SWAP2 SWAP1 PUSH0 MSTORE PUSH1 0x20 PUSH0 KECCAK256 SWAP1 JUMPDEST DUP2 SLOAD DUP2 MSTORE PUSH1 0x20 ADD SWAP1 PUSH1 0x1 ADD SWAP1 DUP1 DUP4 GT PUSH2 0x16D JUMPI JUMPDEST POP POP POP POP POP SWAP1 POP SWAP1 JUMP JUMPDEST DUP3 PUSH1 0x7 DUP2 ADD SWAP3 DUP3 ISZERO PUSH2 0x1BE JUMPI SWAP2 PUSH1 0x20 MUL DUP3 ADD JUMPDEST DUP3 DUP2 GT ISZERO PUSH2 0x1BE JUMPI DUP3 MLOAD DUP3 SWAP1 PUSH1 0xFF AND SWAP1 SSTORE SWAP2 PUSH1 0x20 ADD SWAP2 SWAP1 PUSH1 0x1 ADD SWAP1 PUSH2 0x19E JUMP JUMPDEST POP PUSH2 0x1CA SWAP3 SWAP2 POP PUSH2 0x20B JUMP JUMPDEST POP SWAP1 JUMP JUMPDEST DUP3 DUP1 SLOAD DUP3 DUP3 SSTORE SWAP1 PUSH0 MSTORE PUSH1 0x20 PUSH0 KECCAK256 SWAP1 DUP2 ADD SWAP3 DUP3 ISZERO PUSH2 0x1BE JUMPI SWAP2 PUSH1 0x20 MUL DUP3 ADD DUP3 DUP2 GT ISZERO PUSH2 0x1BE JUMPI DUP3 MLOAD DUP3 SWAP1 PUSH1 0xFF AND SWAP1 SSTORE SWAP2 PUSH1 0x20 ADD SWAP2 SWAP1 PUSH1 0x1 ADD SWAP1 PUSH2 0x19E JUMP JUMPDEST JUMPDEST DUP1 DUP3 GT ISZERO PUSH2 0x1CA JUMPI PUSH0 DUP2 SSTORE PUSH1 0x1 ADD PUSH2 0x20C JUMP JUMPDEST PUSH1 0x20 DUP1 DUP3 MSTORE DUP3 MLOAD DUP3 DUP3 ADD DUP2 SWAP1 MSTORE PUSH0 SWAP2 SWAP1 DUP5 DUP3 ADD SWAP1 PUSH1 0x40 DUP6 ADD SWAP1 DUP5 JUMPDEST DUP2 DUP2 LT ISZERO PUSH2 0x256 JUMPI DUP4 MLOAD DUP4 MSTORE SWAP3 DUP5 ADD SWAP3 SWAP2 DUP5 ADD SWAP2 PUSH1 0x1 ADD PUSH2 0x23A JUMP JUMPDEST POP SWAP1 SWAP7 SWAP6 POP POP POP POP POP POP JUMP JUMPDEST PUSH4 0x4E487B71 PUSH1 0xE0 SHL PUSH0 MSTORE PUSH1 0x31 PUSH1 0x4 MSTORE PUSH1 0x24 PUSH0 REVERT INVALID LOG2 PUSH5 0x6970667358 0x22 SLT KECCAK256 SWAP2 0xC0 PUSH2 0x7A78 0x21 0xD0 SWAP4 DUP6 DUP10 DUP7 PREVRANDAO LOG2 0x4D DUP14 0xF9 0xE9 PC TIMESTAMP 0xAB DUP6 PUSH13 0xE79E913A0E802DF90D9364736F PUSH13 0x63430008180033000000000000 "
		},
		"gasEstimates": {
			"creation": {
				"codeDepositCost": "136800",
				"executionCost": "181",
				"totalCost": "136981"
			},
			"external": {
				"getLengthArray()": "infinite",
				"pushDataArray()": "infinite"
			}
		},
		"methodIdentifiers": {
			"getLengthArray()": "aefee53e",
			"pushDataArray()": "df41ff91"
		}
	},
	"abi": [
		{
			"inputs": [],
			"name": "getLengthArray",
			"outputs": [
				{
					"internalType": "uint256",
					"name": "",
					"type": "uint256"
				}
			],
			"stateMutability": "nonpayable",
			"type": "function"
		},
		{
			"inputs": [],
			"name": "pushDataArray",
			"outputs": [
				{
					"internalType": "uint256[]",
					"name": "",
					"type": "uint256[]"
				}
			],
			"stateMutability": "nonpayable",
			"type": "function"
		}
	]
}