{
	"data": {
		"bytecode": {
			"linkReferences": {},
			"object": "608060405234801561001057600080fd5b5060b38061001f6000396000f3fe6080604052348015600f57600080fd5b506004361060325760003560e01c8063f06bf1d2146037578063f604bf5714604f575b600080fd5b603d6071565b60408051918252519081900360200190f35b606f60048036036040811015606357600080fd5b50803590602001356077565b005b60005490565b0160005556fea26469706673582212204068b77aa6ea0608e270fd685616a10cfeb4de96764f7a894a8aa2c74e96336264736f6c63430007060033",
			"opcodes": "PUSH1 0x80 PUSH1 0x40 MSTORE CALLVALUE DUP1 ISZERO PUSH2 0x10 JUMPI PUSH1 0x0 DUP1 REVERT JUMPDEST POP PUSH1 0xB3 DUP1 PUSH2 0x1F PUSH1 0x0 CODECOPY PUSH1 0x0 RETURN INVALID PUSH1 0x80 PUSH1 0x40 MSTORE CALLVALUE DUP1 ISZERO PUSH1 0xF JUMPI PUSH1 0x0 DUP1 REVERT JUMPDEST POP PUSH1 0x4 CALLDATASIZE LT PUSH1 0x32 JUMPI PUSH1 0x0 CALLDATALOAD PUSH1 0xE0 SHR DUP1 PUSH4 0xF06BF1D2 EQ PUSH1 0x37 JUMPI DUP1 PUSH4 0xF604BF57 EQ PUSH1 0x4F JUMPI JUMPDEST PUSH1 0x0 DUP1 REVERT JUMPDEST PUSH1 0x3D PUSH1 0x71 JUMP JUMPDEST PUSH1 0x40 DUP1 MLOAD SWAP2 DUP3 MSTORE MLOAD SWAP1 DUP2 SWAP1 SUB PUSH1 0x20 ADD SWAP1 RETURN JUMPDEST PUSH1 0x6F PUSH1 0x4 DUP1 CALLDATASIZE SUB PUSH1 0x40 DUP2 LT ISZERO PUSH1 0x63 JUMPI PUSH1 0x0 DUP1 REVERT JUMPDEST POP DUP1 CALLDATALOAD SWAP1 PUSH1 0x20 ADD CALLDATALOAD PUSH1 0x77 JUMP JUMPDEST STOP JUMPDEST PUSH1 0x0 SLOAD SWAP1 JUMP JUMPDEST ADD PUSH1 0x0 SSTORE JUMP INVALID LOG2 PUSH5 0x6970667358 0x22 SLT KECCAK256 BLOCKHASH PUSH9 0xB77AA6EA0608E270FD PUSH9 0x5616A10CFEB4DE9676 0x4F PUSH27 0x894A8AA2C74E96336264736F6C6343000706003300000000000000 "
		},
		"gasEstimates": {
			"creation": {
				"codeDepositCost": "35800",
				"executionCost": "87",
				"totalCost": "35887"
			},
			"external": {
				"getHasil()": "976",
				"tambah(uint256,uint256)": "20207"
			}
		},
		"methodIdentifiers": {
			"getHasil()": "f06bf1d2",
			"tambah(uint256,uint256)": "f604bf57"
		}
	},
	"abi": [
		{
			"inputs": [],
			"name": "getHasil",
			"outputs": [
				{
					"internalType": "uint256",
					"name": "",
					"type": "uint256"
				}
			],
			"stateMutability": "view",
			"type": "function"
		},
		{
			"inputs": [
				{
					"internalType": "uint256",
					"name": "num1",
					"type": "uint256"
				},
				{
					"internalType": "uint256",
					"name": "num2",
					"type": "uint256"
				}
			],
			"name": "tambah",
			"outputs": [],
			"stateMutability": "nonpayable",
			"type": "function"
		}
	]
}